:100000000C94DF010C9407020C9407020C94070275
:100010000C9407020C9407020C9407020C9407023C
:100020000C9407020C9407020C9483100C94F210A9
:100030000C9407020C9407020C9407020C9407021C
:100040000C9407020C9407020C9407020C9407020C
:100050000C9407020C9407020C9407020C943910BC
:100060000C9407020C944A130C9424130C9407026A
:100070000C9407020C9407020C9407020C940702DC
:100080000C9407020C9407020C9407020C940702CC
:100090000C9407020C9407020C9407020C940702BC
:1000A0000C9407020C9407020C9407024E414E492F
:1000B0004E495459494E46CDCCCC3D0AD7233C1726
:1000C000B7D13877CC2B329595E6241FB14F0A0073
:1000D0000020410000C84200401C4620BCBE4CCA63
:1000E0001B0E5AAEC59D74204C41503D002042432A
:1000F000323D00204243313D00204243303D00204C
:10010000524F573D0020485953543D0020424F4C18
:10011000494D3D00204C494E453D0020454E3D0097
:100120004743464700080B00020202000009040092
:100130000001020200000524001001052401010154
:10014000042402060524060001070581031000406F
:1001500009040100020A0000000705020240000035
:10016000070583024000000403090412010002EFA6
:100170000201404123378000010102030141726402
:1001800075696E6F204C4C430041726475696E6FE7
:10019000204D6963726F0000000000240027002AD0
:1001A000002D003000204D41503D00204C4F573D68
:1001B000002043454E5445523D0020444945534597
:1001C0004C3D00204252494748543D0020414C419B
:1001D000524D3D002053524154453D00204D415663
:1001E000473D0020535441423D0020524F57533D5C
:1001F000002043414C3D0020414252494748543D74
:100200000020414C4552543D0020430043464700E6
:1002100045525220004F4B204C41505245534554BB
:10022000004F4B20425245534554004F4B20424C07
:100230004150004F4B2042434F4C004F4B20425205
:100240004F57004F4B204248595354004F4B2042C8
:100250004F4C494D004F4B204750534C494E4500A1
:100260004F4B20475053454E004F4B20544553545D
:10027000004F4B204D4150004F4B204C4F57004FEB
:100280004B2043454E544552004F4B204449455363
:10029000454C004F4B2041425249474854004F4B78
:1002A00020425249474854004F4B20414C41524D47
:1002B000004F4B205352415445004F4B204D415667
:1002C00047004F4B20535441424C45004F4B205464
:1002D00052454E44524F5753004F4B2043414C49D7
:1002E00042004F4B20414C455254434F4C4F52001B
:1002F0004F4B20414C455254004F4B20434F4C4CE8
:10030000414D424441004F4B20434F4C4F52004F10
:100310004B2053545245414D004F4B204C4F4144CC
:10032000004F4B205341564500504F4E47205061DF
:10033000696E656C4C616D62646120763100070600
:1003400005040100080A0B0C0D0944200047200099
:1003500000000000250028002B002E0031000404BE
:10036000040404030405020202020403020202025E
:100370000606060606060404020202040404080235
:10038000011040804010204080408008020401801D
:100390004020100201108010204040200000000288
:1003A00000090F0000030401000C00000000000021
:1003B0000000000000000000000000007C13112479
:1003C0001FBECFEFDAE0DEBFCDBF29E0AEE4B2E082
:1003D00001C01D92A532B207E1F712E0A0E0B1E042
:1003E000E4E4F4E502C005900D92AE34B107D9F70C
:1003F00011E0CFEDD1E004C02197FE010E94D82882
:10040000CE3DD107C9F70E94CB130C94202A0C943F
:100410000000EBE3F7E0DC012D913D914C9121933D
:1004200031934193B7E0EB3FFB07A9F70895E6EA64
:10043000F3E02491E7E8F3E03491E8E6F3E0949107
:10044000992309F430C02223E9F021502F30D0F451
:10045000E22FF0E0E25DFD4F0C94D8285C026002D0
:100460003D02540258024202420242026302690201
:100470006D027102770242027B02209180002F7789
:1004800020938000E92FF0E0EE0FFF1FE05BFC4FB0
:10049000A591B4919FB7F894EC91811132C0309539
:1004A0003E233C939FBF0895209180002F7DE8CF8D
:1004B00020918000277FE4CF24B52F7724BDE2CFA1
:1004C00024B52F7DFBCF209190002F7720939000B3
:1004D000D9CF209190002F7DF9CF20919000277FD8
:1004E000F5CF2091C0002F772093C000CBCF209173
:1004F000C0002F7DF9CF2091C200277F2093C2003A
:10050000C1CF3E2BCECFFC0180913A07882311F159
:100510003FB7F89482E08093E9002091F200822FA7
:1005200090E01816190614F481E090E0882339F061
:10053000289A44E6409339074091F10040832223F2
:1005400039F02091F200211103C02BE62093E8003E
:100550003FBF08958FEF9FEF08952FB7F89483E082
:100560008093E9009091E800892F807295FF04C084
:100570009091F20080E4891B2FBF0895809131078C
:1005800081110DC082E080932D0784E080932E07B7
:100590001092300710922F0781E0809331078DE28F
:1005A00097E008953FB7F8948091290790912A0722
:1005B000A0912B07B0912C0726B5A89B05C02F3F13
:1005C00019F00196A11DB11D3FBFBA2FA92F982F79
:1005D0008827BC01CD01620F711D811D911D42E074
:1005E000660F771F881F991F4A95D1F70895CF92FC
:1005F000DF92EF92FF920E94D2026B017C010E9477
:10060000D2026C197D098E099F09683E73408105ED
:100610009105A8F3FF90EF90DF90CF9008952FB74A
:10062000F894609125077091260780912707909193
:1006300028072FBF0895AF92BF92CF92DF92EF921B
:10064000FF920F931F93CF93DF93D82E80911709BA
:1006500090911809A0911909B0911A09892B8A2B38
:100660008B2BD9F00E94D20200912308109124080C
:100670002091250830912608601B710B820B930B8B
:1006800000911709109118092091190930911A0940
:100690006017710782079307C8F20E94D202609325
:1006A0002308709324088093250890932608E091EE
:1006B0001F09F0912009309759F040911B09509182
:1006C0001C0960911D0970911E098D2D0995D82E68
:1006D000C0912108D091220881E0E82E88E0F82E10
:1006E0008701209749F188E00132180729F18D85AB
:1006F0008823F1F0E881F981A284B3840680F78130
:10070000E02DCE010995BC01CE01F5010995F80156
:100710009183808380911509909116098436910503
:1007200008F41C860C80DD81C02D0E5F1F4FD9CFD1
:10073000F80111821082EECFC0912108D0912208D9
:1007400000E110E02097A9F08D85882361F04E85A7
:100750005F856A817B81E881F9810280F381E02DE8
:100760002D2DCE0109950C80DD81C02D0150110980
:1007700049F7C0912108D09122082097C9F0F1E2F1
:10078000EF16F8E0FF06A1F08D85882351F0F70100
:1007900060817181E881F9810484F585E02DCE01C5
:1007A00009950C80DD81C02DF2E0EF0EF11CE5CF44
:1007B0008091FF0790910008EC012196D0930008EA
:1007C000C093FF074997E4F10E940F030091FB07D4
:1007D0001091FC072091FD073091FE076B017C0111
:1007E000C01AD10AE20AF30AA701960121153105C0
:1007F0004105510521F421E030E040E050E088EE71
:1008000093E0C89FB001C99F700DD89F700D11244F
:10081000072E000C880B990B0E94B62830931609FE
:1008200020931509109200081092FF070E940F03F1
:100830006093FB077093FC078093FD079093FE077E
:10084000DF91CF911F910F91FF90EF90DF90CF90AC
:10085000BF90AF90089580E991E0089540915202D1
:100860005091530220915002309151024217530788
:10087000B4F49091E8009570E1F39091E80092FD56
:1008800019C08093F1008091520290915302019619
:100890008F739927892B19F48EEF8093E80080914C
:1008A0005202909153020196909353028093520208
:1008B00081E0089580E00895EF92FF920F931F93D7
:1008C000CF93DF93F82E192FE62E042F81E0860FA9
:1008D000880F0E942E0483E00E942E04CF2DD12F7A
:1008E000EC0EFD2EF11CCE15DF05B9F007FF13C08D
:1008F000FE0184910E942E04182F80E00E942E0495
:10090000812321968111EFCFDF91CF911F910F911C
:10091000FF90EF9008958881EDCF81E0F5CFDF92D1
:10092000EF92FF920F931F93CF93DF93D82E8A01FC
:10093000EB017B01E40EF51ECE15DF0559F0D7FE65
:1009400012C0FE0184910E942E0421968111F4CFE1
:100950000FEF1FEFC801DF91CF911F910F91FF9013
:10096000EF90DF9008958881EECF0F931F93CF9380
:10097000DF931F92CDB7DEB782E0898342E450E077
:1009800065E271E080E80E948F040E94BE02DC01F3
:1009900012960D911C910115110589F0D801ED9168
:1009A000FC910280F381E02DBE016F5F7F4FC80193
:1009B000099597FD04C0F80100851185ECCF898168
:1009C0000F90DF91CF911F910F910895615030F0FA
:1009D0002091F100FC0120830196F8CF289A84E64B
:1009E000809339070895AF92BF92CF92DF92EF9232
:1009F000FF920F931F93CF93DF936C017B018B01C9
:100A0000040F151FEB015E01AE18BF08C017D10718
:100A100059F06991D601ED91FC910190F081E02DA2
:100A2000C6010995892B79F7C501DF91CF911F91F7
:100A30000F91FF90EF90DF90CF90BF90AF9008950F
:100A4000FC01538D448D252F30E0842F90E0821BD4
:100A5000930B541710F0CF96089501970895FC0159
:100A6000918D828D981761F0A28DAE0FBF2FB11DB1
:100A70005D968C91928D9F5F9F73928F90E0089509
:100A80008FEF9FEF0895FC01918D828D981731F0C3
:100A9000828DE80FF11D858D90E008958FEF9FEF17
:100AA0000895FC01918D228D892F90E0805C9F4FED
:100AB000821B91098F739927089587E298E00E941D
:100AC000510521E0892B09F420E0822F089580E070
:100AD00090E0892B29F00E945D0581110C940000A3
:100AE0000895FC01A48DA80FB92FB11DA35ABF4FC3
:100AF0002C91848D90E001968F739927848FA6891D
:100B0000B7892C93A089B1898C9182748C93938D31
:100B1000848D981306C00288F389E02D80818F7D33
:100B200080830895EF92FF920F931F93CF93DF93EB
:100B3000EC0181E0888F9B8D8C8D981319C0E8891A
:100B4000F989808185FF14C09FB7F894EE89FF89E9
:100B50006083E889F9898081827480839FBF81E006
:100B600090E0DF91CF911F910F91FF90EF9008954A
:100B7000F62E0B8D10E00F5F1F4F0F731127E02E25
:100B80008C8D8E110CC00FB607FCFACFE889F9895D
:100B9000808185FFF5CFCE010E947105F1CFEB8DED
:100BA000EC0FFD2FF11DE35AFF4FF0829FB7F89431
:100BB0000B8FEA89FB8980818062CFCFCF93DF934F
:100BC000EC01888D8823B9F0AA89BB89E889F98965
:100BD0008C9185FD03C0808186FD0DC00FB607FC9A
:100BE000F7CF8C9185FFF2CF808185FFEDCFCE01CD
:100BF0000E947105E9CFDF91CF9108958F929F9266
:100C0000AF92BF92CF92DF92EF92FF920F931F931A
:100C1000CF93DF936C017B018A0180910B018823C4
:100C200009F458C080913A07882309F453C0809191
:100C3000560280FF05C08091E00082608093E00052
:100C4000E801B12C8AEFA82E93E0892E2AE3922E98
:100C5000209711F4BB20B9F10E94AD02811106C0AA
:100C6000AA94AA20B9F10E94F702F2CF8C171D06B0
:100C700011F00CF08C2F9FB7F8948092E90020912E
:100C8000E80025FD02C09FBFE3CF282F30E0C21B44
:100C9000D30BF701815020F041914093F100FACF3E
:100CA000E20EF31EBB2021F09092E800B12CEBCFB6
:100CB0008091E80085FDE7CF9092E800BB24B394D3
:100CC000209709F3F3CF5D9A84E6809355021016BE
:100CD00011063CF081E090E0F6019383828310E0FE
:100CE00000E0C801DF91CF911F910F91FF90EF902D
:100CF000DF90CF90BF90AF909F908F900895CF934B
:100D0000DF931F92CDB7DEB76983DC01ED91FC91D3
:100D10000280F381E02D41E050E0BE016F5F7F4F24
:100D200009950F90DF91CF910895682F84EC98E09A
:100D30000C947F060F931F93CF93DF938C01D0E029
:100D4000C0E0F801EC0FFD1F6491662341F084ECD4
:100D500098E00E947F06892B11F02196F2CFCE01F8
:100D6000DF91CF911F910F91089583E08093E90067
:100D70008091F200882319F08AE38093E8000895B7
:100D80000E94AD0290E00895CF93DF931F92CDB7FC
:100D9000DEB7FC018485958597FD08C02FEF3FEFF6
:100DA000358724870F90DF91CF910895CE0101966A
:100DB0000E948302019719F4898190E0F3CF8FEFAD
:100DC0009FEFF0CF0F931F93CF93DF931F92CDB779
:100DD000DEB78C01FC018485958597FF0BC0CE01A1
:100DE00001960E948302019771F4898190E0F801D5
:100DF00095878487F801848595850F90DF91CF9141
:100E00001F910F9108958FEF9FEFF1CFFC01848523
:100E1000958597FD0BC09FB7F89482E08093E90019
:100E20008091F2009FBF90E0019608959FB7F894DB
:100E300082E08093E9008091F2009FBF90E00895E6
:100E4000AF92BF92CF92DF92EF92FF920F931F93D8
:100E5000CF93DF9300D01F92CDB7DEB75A0119822E
:100E60001A821B82882361F18B01E1E0F0E0E82E19
:100E7000F12CD8012D918D012223F1F06F01B1E009
:100E8000CB1AD108D501AC0DBD1D4C914423A1F066
:100E900030E02F5F3F4FD7010E947F28A42FB0E0A2
:100EA00011969B01AC010E943D28A1E0B0E0AC0F7F
:100EB000BD1FAC0DBD1D8C933196E430F105C9F614
:100EC00069817A818B810F900F900F90DF91CF9184
:100ED0001F910F91FF90EF90DF90CF90BF90AF9058
:100EE000089581E090E008950F931F93CF93DF93CF
:100EF00020914F022F5F322F377030934F0220FF27
:100F00002BC020E831FD2064347009F02062205F9E
:100F1000FC01EC01239600E011E06785662329F0CF
:100F200070E0C8010E94A2286F5F6187822F869FB0
:100F3000080E80E0811D1124811110C016826623E5
:100F400011F0615061873196EC17FD0731F7DF91A1
:100F5000CF911F910F91089520E0D4CF81508683C7
:100F6000EECF4F925F927F928F929F92AF92BF92FD
:100F7000CF92DF92EF92FF920F931F93CF93DF9365
:100F80002C01EB010E94D202F20126893789621BF3
:100F9000730B6A307105B0F3F8948A819B8118163F
:100FA00019060CF0CDC1E881F9816BB1862E6894E9
:100FB00087F83BB13F773BB9DA848F812D2D281B11
:100FC000822F2F834C85042E000C550BAA81BB81E8
:100FD0007889FF84E9887F5FF394E3949E81988405
:100FE000B984AB841181C12C6C2D0C2D2C2D218149
:100FF000112788942111280F08F42FEF81958894E8
:1010000070FD120F1795889471FD120F1795889433
:1010100072FD120F1795889473FD120F179588941F
:1010200074FD120F1795889475FD120F179588940B
:1010300076FD120F1795889477FD120F17958894F7
:10104000622F7111612F8D0D162F002C8BB800C0EF
:1010500017FF3BB920816627889400C000C0002C90
:101060003BB92111290F00C0002C8BB800C016FF1E
:101070003BB908F42FEF9195889400C000C0002C74
:101080003BB9F0FC620F00C0002C8BB800C015FF0C
:101090003BB967958894F1FC620F00C000C0002C3A
:1010A0003BB96795889400C0002C8BB800C014FF32
:1010B0003BB9F2FC620F6795889400C000C0002C19
:1010C0003BB9F3FC620F00C0002C8BB800C013FFCB
:1010D0003BB967958894F4FC620F00C000C0002CF7
:1010E0003BB96795889400C0002C8BB800C012FFF4
:1010F0003BB9F5FC620F6795889400C000C0002CD6
:101100003BB9F6FC620F00C0002C8BB800C011FF89
:101110003BB967958894F7FC620F00C000C0002CB3
:101120003BB96795889400C0002C8BB800C010FFB5
:101130003BB9122FF110162F9B0D00C000C0002CE0
:101140003BB900C000C0002C8BB800C017FF3BB9F2
:1011500022816627889400C000C0002C3BB9211171
:10116000290D00C0002C8BB800C016FF3BB908F455
:101170002FEFE40FF51F00C000C0002C3BB9E0FCCE
:10118000620F00C0002C8BB800C015FF3BB96795FB
:101190008894E1FC620F00C000C0002C3BB9679549
:1011A000889400C0002C8BB800C014FF3BB9E2FC4F
:1011B000620F6795889400C000C0002C3BB9E3FC27
:1011C000620F00C0002C8BB800C013FF3BB96795BD
:1011D0008894E4FC620F00C000C0002C3BB9679506
:1011E000889400C0002C8BB800C012FF3BB9E5FC0E
:1011F000620F6795889400C000C0002C3BB9E6FCE4
:10120000620F00C0002C8BB800C011FF3BB967957E
:101210008894E7FC620F00C000C0002C3BB96795C2
:10122000889400C0002C8BB800C010FF3BB9122F6F
:10123000E110162F919400C000C0002C3BB99A0C0D
:1012400000C000C08BB800C017FF3BB921816627E2
:10125000889400C000C0002C3BB92111280F00C0A9
:10126000002C8BB800C016FF3BB908F42FEF819516
:10127000889400C000C0002C3BB970FD620F00C014
:10128000002C8BB800C015FF3BB96795889471FDA1
:10129000620F00C000C0002C3BB96795889400C065
:1012A000002C8BB800C014FF3BB972FD620F67952C
:1012B000889400C000C0002C3BB973FD620F00C0D1
:1012C000002C8BB800C013FF3BB96795889474FD60
:1012D000620F00C000C0002C3BB96795889400C025
:1012E000002C8BB800C012FF3BB975FD620F6795EB
:1012F000889400C000C0002C3BB976FD620F00C08E
:10130000002C8BB800C011FF3BB96795889477FD1E
:10131000620F00C000C0002C3BB96795889400C0E4
:10132000002C8BB800C010FF3BB9122F7111162F83
:101330008D0D00C000C0002C3BB9119709F086CE7E
:10134000EA81FB812EE130E0DF010E94DE2830E0FF
:1013500020E0A901AAE9EA9F0E0E411DFA9F400D67
:10136000511D11244F0F511DDC01CB01840F951F1E
:10137000A11DB11D893E43E09407A105B10508F404
:1013800034C0885E9340A109B10942E0B695A795A3
:10139000979587954A95D1F747E0849F080E211DC0
:1013A000949F200D311D1124290F311D60914E0293
:1013B00070E0860F971F820F931F40912507509171
:1013C00026076091270770912807292F3327420F9E
:1013D000531F611D711D409325075093260760938D
:1013E00027077093280780934E0278940E94D202B8
:1013F000F201778B668BDF91CF911F910F91FF9058
:10140000EF90DF90CF90BF90AF909F908F907F90A4
:101410005F904F900895579A08956F927F928F92A0
:10142000CF92DF92EF92FF920F931F93CF93DF93B0
:10143000CDB7DEB762970FB6F894DEBF0FBECDBF53
:101440008C016B017A01822FA801475F5F4FB801C1
:101450006A5F7F4F0E9420073B01882ED8011C96AF
:101460002C91C701F7FE04C0882799278E199F0980
:10147000DA82C9829C838B839E838D83688A798A72
:101480008A8A213049F5CE0101960E94740783E0D3
:101490008D871F861E86F7FE02C08DEF8D87D801CF
:1014A000ED91FC910088F189E02DBE016F5F7F4FC7
:1014B000C801099562960FB6F894DEBF0FBECDBF86
:1014C000DF91CF911F910F91FF90EF90DF90CF9020
:1014D0008F907F906F9008951C861B861A861986C0
:1014E00018861F82D4CFCF92DF92EF92FF920F9394
:1014F0001F93CF93DF93CDB7DEB762970FB6F89403
:10150000DEBF0FBECDBF8C016B017A01822FA80117
:10151000475F5F4FB8016A5F7F4F0E9420079B01C2
:10152000482FD8011C968C91DA82C982FC82EB820A
:10153000FE82ED82288B398B4A8B813009F5CE01F2
:1015400001960E9474071D861F861E86D801ED91A4
:10155000FC910088F189E02DBE016F5F7F4FC801CB
:10156000099562960FB6F894DEBF0FBECDBFDF912E
:10157000CF911F910F91FF90EF90DF90CF90089542
:101580001C861B861A86198618861F82DCCF089552
:1015900090910B07911103C0962F682F892F90917E
:1015A0000907992319F097E0961B692F90910A0774
:1015B000992319F097E0981B892F98E0899F900153
:1015C000112470E090910807992339F080FF05C03D
:1015D000C901861B970B07960895C901860F971FAF
:1015E00008958091F4069091F506892B31F481E0FD
:1015F00090E09093F5068093F4068091F406909124
:10160000F506853F914030F084EF91E09093F50628
:101610008093F4062091F4063091F50650E040E006
:1016200068EE73E080E090E00E94B6282230310539
:101630004105510508F448C020931101309312016F
:1016400040931301509314016091F2067091F306D8
:1016500090E080E02091110130911201409113013E
:10166000509114010E94B628C901892BD1F1309301
:101670000E0120930D0180910D0190910E01893C86
:10168000910530F088EC90E090930E0180930D016D
:1016900010923D06109243061092420610923E06AA
:1016A00010923F061092400610924106EDE1F3E0E1
:1016B000119211921192119286E0ED33F807C1F761
:1016C0008FEF80931409089582E090E0A0E0B0E0ED
:1016D0008093110190931201A0931301B093140110
:1016E000B3CF81E090E090930E0180930D01C3CFC2
:1016F000CF9394E0899FF0011124E856F94F628D51
:10170000738D848D958D2091100730911107409134
:10171000120750911307E091FB06C1E0EE2331F070
:101720000E94FA2987FF06C0C0E004C00E9400277B
:101730001816D4F38C2FCF91089590E080E008958F
:10174000FC0164870895FC01848590E00895FC0104
:10175000868597850895FC019081992321F0929FB9
:10176000912D09F09F5F9083FB018081882321F0F8
:10177000829F812D09F08F5F8083FA018081882309
:1017800021F0829F812D09F08F5F808311240895BD
:10179000FC0101900020E9F73197AF01481B590B7C
:1017A000BC0184EC98E00C94FE058AE791E00C946F
:1017B000C80BCF93DF930E949A06EC010E94D50BD1
:1017C0008C0F9D1FDF91CF9108958F929F92AF92C2
:1017D000BF920F931F93CF93DF93CDB7DEB7A1973F
:1017E0000FB6F894DEBF0FBECDBF19A2423008F489
:1017F0004AE08E010F5D1F4F842E912CB12CA12C3D
:10180000A50194010E94B628E62FB901CA01EA3069
:10181000F4F4E05DD801EE938D01232B242B252BCE
:1018200079F790E080E0109719F0CD010E94C80B85
:10183000A1960FB6F894DEBF0FBECDBFDF91CF915A
:101840001F910F91BF90AF909F908F900895E95C8A
:10185000E1CF682F70E090E080E04AE00C94E50B67
:10186000BC0190E080E04AE00C94E50B4F925F925F
:101870006F927F928F929F92AF92BF92CF92DF92A0
:10188000EF92FF92CF93DF936B017C01D42FAC01D9
:101890009B010E94FF29882391F08DE791E0DF9161
:1018A000CF91FF90EF90DF90CF90BF90AF909F903F
:1018B0008F907F906F905F904F900C94C80B260193
:1018C0003701E89477F82FEF3FEF4FE75FE7C30169
:1018D000B2010E94FF2981110DC02FEF3FEF4FE7AA
:1018E0005FE7C301B2010E94002718161CF481E8CB
:1018F00091E0D5CF2FEF3FEF4FE75FE4C701B6018F
:101900000E94FA2918161CF485E891E0C8CF2FEF41
:101910003FEF4FE75FECC701B6010E94002787FD4C
:10192000F3CF20E030E0A901C701B6010E940027F3
:10193000912C812C87FF08C08DE20E9495064C01F6
:10194000F7FAF094F7F8F094CD2FA12C60E070E056
:1019500080E09FE3AD1640F420E030E040E251E447
:101960000E945229A394F6CFA70196010E94E6286F
:101970002B013C010E94CB295B016C014AE00E94D3
:10198000E50B7C01E80CF91CDD2399F1C601B501DA
:101990000E9405279B01AC01C301B2010E94E5280A
:1019A0004B015C018EE20E949506E80EF91EC150C3
:1019B00000F120E030E040E251E4C501B4010E94B2
:1019C00066272B013C010E94CB294B01CB010E94D1
:1019D000300CE80EF91EB40190E080E00E9405276B
:1019E0009B01AC01C301B2010E94E5284B015C01DF
:1019F000DECFC701DF91CF91FF90EF90DF90CF90C6
:101A0000BF90AF909F908F907F906F905F904F901E
:101A10000895CF93DF9380E291E00E949A068BE1D4
:101A200091E00E949A06C1E6D6E08A810E94290CC4
:101A300084E191E00E949A066B817C818D819E8178
:101A400046E050E00E94360C8CE20E9495066F81C1
:101A5000788589859A8546E050E00E94360C8CE2B4
:101A60000E9495066B857C858D859E8546E050E0BD
:101A70000E94360C8CE20E9495066F8578898989D0
:101A80009A8946E050E00E94360C8CE091E00E947A
:101A90009A066B897C898D899E8943E050E00E947B
:101AA000360C8CE20E9495068B8D0E94290C85E0F5
:101AB00091E00E949A066F89788D898D9A8D43E016
:101AC00050E00E94360C8FEF90E00E949A068C8DB9
:101AD0000E94290C89EF90E00E949A068D8D0E9449
:101AE000290C8CE20E9495068E8D0E94290C8CE2B6
:101AF0000E9495068F8D0E94290C83EF90E00E9432
:101B00009A0688A10E94290C8CE20E94950689A160
:101B10000E94290C8CE20E9495068AA10E94290C41
:101B20008DEE90E00E949A068BA10E94290C8CE217
:101B30000E9495068CA10E94290C8CE20E949506B9
:101B40008DA10E94290C87EE90E00E949A068EA13A
:101B50009FA10E94300C8CE20E94950688A50E94ED
:101B6000290CDF91CF910C94D50BCF92DF92EF929D
:101B7000FF92CF93DF936C01092E000CEE08FF0853
:101B800097FF17C08DE20E949506EC016627772724
:101B9000CB016C197D098E099F094AE00E94E50B73
:101BA0008C0F9D1FDF91CF91FF90EF90DF90CF9032
:101BB00008954AE0C701B601DF91CF91FF90EF9001
:101BC000DF90CF900C94E50B8F929F92AF92BF92D3
:101BD000CF92DF92EF92FF92CF93C62F0E943925CA
:101BE0006B017C0120E030E048EC52E40E94522975
:101BF0000E94C429072E000C880B990B0E9407270E
:101C00004B015C0120E030E048EC52E40E94662782
:101C10009B01AC01C701B6010E94E52820E030E03D
:101C200040E752E40E945229A50194010E94E6284F
:101C3000CB7DC33509F49058CF91FF90EF90DF90A2
:101C4000CF90BF90AF909F908F9008950E94042AEC
:101C5000FF920F931F93CF93DF9301E616E0C0E945
:101C6000D1E0F801F1908F01CE010E942728F816EB
:101C700021F06F2DCE010E942F282196C93BF1E063
:101C8000DF0779F7DF91CF911F910F91FF900895B2
:101C90000F931F93CF93DF9301E616E0C0E9D1E0E5
:101CA000CE010E942728F80181938F012196C93B1C
:101CB000F1E0DF07A9F7809161068D3629F4809164
:101CC0006206813009F469C08DE68093610681E087
:101CD0008093620610926306109264061092650665
:101CE00010926606109267061092680610926906B6
:101CF00010926A0610926B0610926C0610926D0696
:101D000010926E0610926F06109270061092710675
:101D1000109272061092730681E79DE3AAEABFE370
:101D20008093740690937506A0937606B093770619
:101D30008FE892ECA5EFBCE3809378069093790648
:101D4000A0937A06B0937B0686E080937C0687E0BA
:101D500080937D0610927E068FEF80937F0610920F
:101D60008006809381069CE89093820610928306F9
:101D700080938406109285061092860688E99AE37D
:101D8000909388068093870684E180938906DF918B
:101D9000CF911F910F910C94280EDF91CF911F913D
:101DA0000F910895FF920F931F93CF93DF9308E94C
:101DB00016E0D0E0C0E0F801F1908F01CE010E9462
:101DC0002728F81621F06F2DCE010E942F2821968A
:101DD000C437D10581F7DF91CF911F910F91FF900B
:101DE00008958F929F92AF92BF92CF92DF92EF921F
:101DF000FF920F931F93CF93DF93CDB7DEB760971A
:101E00000FB6F894DEBF0FBECDBF28E9E22E26E064
:101E1000F22E10E000E0C8010E942728F70181930C
:101E20007F010F5F1F4F04371105A9F780919806B6
:101E3000873A29F480919906863009F407C187EA28
:101E40008093980686E08093990688E0E5E1F1E0CA
:101E5000DE01199601900D928A95E1F788E0EDE197
:101E6000F1E0DE01119601900D928A95E1F74E01A5
:101E7000F9E08F0E911C8AE9C82E86E0D82E8E01DB
:101E80000F5F1F4F92EBA92E96E0B92EF12CE12C9B
:101E9000F40181914F01F60181936F01F801819165
:101EA0008F01F60187831786B7010F2C000C880B72
:101EB000990B0E9407272DEC3CEC4CEC5DE30E9453
:101EC000662723E333E343E35FE30E94E628F5015B
:101ED00061937193819391935F01FFEFEF1AFF0A72
:101EE00088E0E816F104A1F68CE291E09093D30625
:101EF0008093D20681E08093D4069FEF9093D5061D
:101F00001092D6061092D70628EB3BE03093D90604
:101F10002093D8069093DA0640E050E060E87FE333
:101F20004093DB065093DC066093DD067093DE067B
:101F30004DEC5CEC6CEC7EE34093DF065093E006E6
:101F40006093E1067093E20640E050E060E870E4E0
:101F50004093E3065093E4066093E5067093E6062B
:101F600041E75DE36AEC7FE34093E7065093E806C0
:101F70006093E9067093EA0627E02093EB0620EED3
:101F80002093EC0628E32093ED064AE057ED63EA40
:101F90007CE34093EE065093EF066093F006709357
:101FA000F10624EF31E03093F3062093F20622E3AA
:101FB00030E03093F5062093F40641E75DE36AEAEA
:101FC0007FE34093F6065093F7066093F80670930C
:101FD000F90628E22093FA068093FB068093FC061C
:101FE0001092FD069093FE061092FF0610920007D5
:101FF0004DEC5CEC6CE47FE34093010750930207E7
:102000006093030770930407109205071092060768
:1020100090930707809308071092090710920A0708
:1020200010920B0760960FB6F894DEBF0FBECDBFBF
:10203000DF91CF911F910F91FF90EF90DF90CF90A4
:10204000BF90AF909F908F900C94D20E60960FB679
:10205000F894DEBF0FBECDBFDF91CF911F910F91DE
:10206000FF90EF90DF90CF90BF90AF909F908F90B8
:1020700008951F920F920FB60F9211242F933F9342
:102080008F939F93AF93BF938091250790912607DD
:10209000A0912707B09128073091240723E0230F50
:1020A0002D3758F50196A11DB11D2093240780936B
:1020B000250790932607A0932707B09328078091C0
:1020C000290790912A07A0912B07B0912C07019620
:1020D000A11DB11D8093290790932A07A0932B0778
:1020E000B0932C07BF91AF919F918F913F912F910A
:1020F0000F900FBE0F901F90189526E8230F0296A1
:10210000A11DB11DD2CF1F920F920FB60F921124B5
:102110008F939F938091E1009091E100937F909342
:10212000E10083FF0FC01092E90091E09093EB0073
:102130001092EC0092E39093ED0010923A0798E031
:102140009093F00082FF22C093E09093E900909179
:10215000F200992319F09AE39093E80090915502C8
:10216000992341F09091550291509093550291110D
:1021700001C05D9890913907992341F090913907FA
:10218000915090933907911101C0289884FF18C08D
:102190008091E2008E7E81608093E2008091E10078
:1021A0008F7E8093E100809156028E7E80618093C5
:1021B00056029F918F910F900FBE0F901F90189510
:1021C00080FFF7CF8091E2008E7E80618093E200F5
:1021D0008091E1008E7E8093E100809156028E7E98
:1021E0008160E5CF1F920F920FB60F921124CF920C
:1021F000DF92EF92FF920F931F932F933F934F9392
:102200005F936F937F938F939F93AF93BF93EF935E
:10221000FF93CF93DF93CDB7DEB76C97DEBFCDBF13
:102220001092E9008091E80083FF25C068E0CE01AC
:1022300045960E94E60482EF8093E8008D8987FF2F
:1022400039C09091E80090FFFCCF982F907609F06C
:1022500034C19E894F89588D2F89F88C911131C0D6
:10226000803861F5809157028093F1001092F1005F
:102270008EEF8093E8006C960FB6F894DEBF0FBE29
:10228000CDBFDF91CF91FF91EF91BF91AF919F9122
:102290008F917F916F915F914F913F912F911F91FE
:1022A0000F91FF90EF90DF90CF900F900FBE0F90A7
:1022B0001F9018959EEF9093E800C7CF1092F10001
:1022C000D5CF913059F48111D3CF4130510581F6EA
:1022D000809157028D7F80935702CACF933049F483
:1022E0008111C6CF4130510519F6809157028260A5
:1022F000F2CF953041F48091E80080FFFCCF206858
:102300002093E300B5CF963009F0A9C00B8D1C8D4A
:1023100022E01092E9001092530210925202F2123F
:102320002EC010925102109250020E94B5041F82DA
:1023300099E09983FA8291E09E8390EA98879AEFD8
:1023400099872091520230915302275F3F4F3C837F
:102350002B838D831092E900109253021092520247
:10236000109351020093500249E050E0BE016F5FAC
:102370007F4F80E00E948F040E94B50479CF1093B4
:102380005102009350020E94BE02DC0112960D9190
:102390001C910115110509F451C1D801ED91FC9171
:1023A0000480F581E02DBE016B5E7F4FC801099569
:1023B000009709F03EC1F80100851185EACFF3E0EE
:1023C000FF120EC08F89882309F440C0823061F467
:1023D00040E86DE089E891E00E945C04811148CFFB
:1023E00081E28093EB0047CF813029F440E86BE035
:1023F0008DE791E0F1CF833099F70E94BE02DC01B6
:102400001296ED90FC908E010F5F1F4F6801E11452
:10241000F10479F0D701ED91FC910680F781E02D70
:10242000B801C7010995080F111DF701E084F18477
:10243000EECFD8011C92F60101900020E9F7319708
:10244000BF016C197D0940E0C601C6CF67E671E0A7
:10245000FB01449150E080E80E948F0409CF97303F
:1024600009F4BECF983021F481E08093F10000CFD1
:10247000993009F0FDCE837009F0B2CFE6E2F1E0C9
:1024800081E031E096E32191222371F08093E9000D
:102490003093EB00DF0111972C912093EC00909387
:1024A000ED008F5F873079F78EE78093EA00109216
:1024B000EA008F8980933A07DBCE8B8D9C8D10923A
:1024C000E9001092530210925202909351028093AD
:1024D0005002898D811192C08E899D89913A49F46B
:1024E000813209F07DCF47E050E064E071E080E0A8
:1024F000B3CF913209F074CF833269F48F89988D0C
:10250000B0E0A0E08093000190930101A09302014C
:10251000B0930301ADCE803269F48091E80082FF70
:10252000FCCF67E084E091E00E94E6048BEF8093AB
:10253000E8009ECE823209F09BCE8F8980930B01FA
:10254000EEEFFFE7859194918B3F9C4D51F1E0E0D8
:10255000F8E08091040190910501A0910601B091ED
:102560000701803B9440A105B105F1F480910B0176
:1025700080FD1AC0EE3F8AE0F80789F587E797E704
:1025800091838083809160008093540288E19BE076
:102590000FB6F894A895809360000FBE90936000EA
:1025A00067CEEEEFFAE0D5CF8081918187379747EC
:1025B00009F05ECEA89580916000886180936000EC
:1025C0008091540280936000EE3F2AE0F20789F088
:1025D0008091FE0A9091FF0A9183808349CE808189
:1025E00091818737980751F29093FF0A8093FE0AF2
:1025F000C5CF1092FF0A1092FE0A3ACE0E94BE0288
:10260000DC0112960D911C910115110509F4E8CE1B
:10261000D801ED91FC910190F081E02DBE016B5E3F
:102620007F4FC8010995811123CEF80100851185DE
:10263000EBCF181619060CF41BCED2CEF1E0FF1228
:10264000BECE6BE671E004CF1F920F920FB60F92D1
:1026500011242F933F934F935F936F937F938F93A7
:102660009F93AF93BF93EF93FF9387E298E00E940D
:102670007105FF91EF91BF91AF919F918F917F91E4
:102680006F915F914F913F912F910F900FBE0F90DF
:102690001F9018951F920F920FB60F9211242F932F
:1026A0008F939F93EF93FF93E0913708F091380851
:1026B0008081E0913D08F0913E0882FD1BC0908131
:1026C000809140088F5F8F7320914108821741F0FD
:1026D000E0914008F0E0E95DF74F958F8093400866
:1026E000FF91EF919F918F912F910F900FBE0F90BF
:1026F0001F9018958081F4CFE7E2F8E013821282F0
:1027000088EE93E0A0E0B0E084839583A683B7834E
:102710002AE531E0318320832DEC30E035872487B2
:102720002CEC30E03787268728EC30E0318B208B8B
:1027300029EC30E0338B228B2AEC30E0358B248B74
:102740002EEC30E0378B268B118E128E138E148E6A
:10275000E4ECF8E01382128284839583A683B78326
:102760008CE691E0918380838FEF9FEF958784873C
:10277000E4E1F9E0808312821182148613868FEFE0
:102780009FEFDC0187839087A187B2871382148231
:10279000158216820895CF93DF93CDB7DEB7CD565D
:1027A000D1090FB6F894DEBF0FBECDBF789484B5C3
:1027B000826084BD84B5816084BD85B5826085BD3D
:1027C00085B5816085BD80916E00816080936E00CB
:1027D00010928100809181008260809381008091BD
:1027E000810081608093810080918000816080936E
:1027F000800080919100826080939100809191008F
:10280000816080939100809190008160809390001E
:102810008091C10084608093C1008091C10082607A
:102820008093C1008091C10081608093C10080913C
:10283000C30081608093C3008091C0008260809358
:10284000C0008091C20081608093C20080917A00B4
:10285000846080937A0080917A00826080937A000D
:1028600080917A00816080937A0080917A008068FC
:1028700080937A0010923A071092570210925602F3
:102880008091D70081608093D70080EA8093D80040
:1028900089B5806189BD89B5826089BD09B400FEB2
:1028A000FDCF0E94F7028091D8008F7C80618093D9
:1028B000D8008091E000807F8093E0008091E1006B
:1028C0008E7E8093E1008DE08093E200559A209AFD
:1028D0005D9828988FEF9FEF9093D1088093D00850
:1028E000E0913708F091380882E08083E091330866
:1028F000F09134081082E0913508F09136088FECA1
:10290000808310923F08E0913B08F0913C0886E0FC
:102910008083E0913908F0913A088081806180835A
:10292000E0913908F0913A08808188608083E091D5
:102930003908F0913A08808180688083E0913908F5
:10294000F0913A0880818F7D808381E080930C0133
:10295000E7E8F3E02491E8E6F3E08491882399F036
:1029600090E0880F991FFC01E956FE4FA591B491A4
:10297000FC01E05BFC4F859194918FB7F894EC914A
:10298000E22BEC938FBF81E00E94170280917202CC
:10299000811157C010925D0210925C028FEF8093FC
:1029A000600280936102809362028093630280934D
:1029B00064028093650281E08093660280936702DF
:1029C000109269021092680280E797E190936B027F
:1029D00080936A0283E090E090936D0280936C0292
:1029E00010926F0210926E0210925F0210925E02BD
:1029F0008091210890912208892B31F48AE592E098
:102A00009093220880932108E0915802F091590296
:102A1000309721F08AE592E0958384838AE592E0FD
:102A20009093590280935802109271021092700292
:102A300084E491E090935B0280935A0281E080935A
:102A40007202579A8BE397E090935D0280935C0249
:102A500080E490E090936902809368028091170966
:102A600090911809A0911909B0911A09843C29E0A4
:102A70009207A105B10520F484EC99E0A0E0B0E054
:102A80008093170990931809A0931909B0931A0914
:102A90000E94F10E0E94F10A0E94480E19821A82C9
:102AA0001B82AE014F5F5F4F26965FAF4EAF2697FA
:102AB000CA010E940902809114090E941B031E0191
:102AC00051E4250E311CC10102966C969FAF8EAF6A
:102AD0006C97D1011196AE96BFAFAEAFAE97DD2425
:102AE000D39484EC98E00E940607892B09F04FC02C
:102AF00011E087E298E00E945105892B11F40C94B3
:102B0000D21E87E298E00E942F05E0911C038A30D4
:102B100021F08D3011F00C94C61EEE2351F3F0E03D
:102B2000E853FD4F10828091C802843211F00C945A
:102B3000A81EE8ECF2E001900020E9F7CF01895CE3
:102B40009240079710F40C94A81E28EC32E03A83C8
:102B50002983F90101E0DF018191882309F406C688
:102B60008C3209F0FFC5DF0111971C92003108F08B
:102B7000FDC5A02FB0E0AA0FBB1F41E050E04C0FF5
:102B80005D1FA40FB51FED93FC930F5FE4CF84ECA2
:102B900098E00E94C406E091BA028A3019F08D30A4
:102BA00009F0D4C5EE2309F49CCFF0E0E658FD4FC0
:102BB000108269E871E08AE792E00E945B258C014F
:102BC000009709F485C16BE871E00E94092A892BFE
:102BD00029F489E293E00E94D90B7AC161E971E09E
:102BE000C8010E94092A892B09F075C18CE092E086
:102BF0000E949A060AE916E032EBE32E36E0F32E45
:102C0000C12C89E092E00E949A068C2D0E94290C2A
:102C10008DE30E949506F80181918F010E94290C95
:102C20008CE20E949506D80117968C910E94290C7F
:102C30008CE20E949506F80187850E94290C8CE29F
:102C40000E949506D7016D917D918D919D917D0199
:102C500043E050E00E94360CC394B8E0CB12D1CFD1
:102C600081E092E00E949A068091D2069091D3066C
:102C70000E94300C8CE20E9495068091D4060E943E
:102C8000290C8CE20E9495068091D5060E94290CA1
:102C90008CE20E9495068091D6060E94290C8CE257
:102CA0000E9495068091D7060E94290C8CE20E9412
:102CB00095068091D8069091D9060E94300C87EF36
:102CC00091E00E949A068091DA060E94290C81EF19
:102CD00091E00E949A066091DB067091DC0680917B
:102CE000DD069091DE0643E050E00E94360C8CE257
:102CF0000E9495066091DF067091E0068091E106E2
:102D00009091E20643E050E00E94360C8CE20E9473
:102D100095066091E3067091E4068091E506909136
:102D2000E60643E050E00E94360C8CE20E949506D5
:102D30006091E7067091E8068091E9069091EA06B5
:102D400043E050E00E94360C8AEE91E00E949A0621
:102D50008091EB060E94290C8CE20E9495068091DE
:102D6000EC060E94290C8CE20E9495068091ED06EB
:102D70000E94290C83EE91E00E949A066091EE0673
:102D80007091EF068091F0069091F10643E050E0DB
:102D90000E94360C8CED91E00E949A068091F2061A
:102DA0009091F3060E94300C84ED91E00E949A0607
:102DB0008091F4069091F5060E94300C8CEC91E025
:102DC0000E949A066091F6067091F7068091F806C7
:102DD0009091F90643E050E00E94360C83EC91E0BC
:102DE0000E949A068091FA060E94290C8AEB91E0D3
:102DF0000E949A068091FB060E94290C81EB91E0CB
:102E00000E949A068091FC060E94290C8CE20E9486
:102E100095068091FD060E94290C8CE20E94950681
:102E20008091FE060E94290C8CE20E9495068091FA
:102E3000FF060E94290C8BEA91E00E949A0680917D
:102E400000070E94290C8CE20E9495066091010700
:102E500070910207809103079091040743E050E0CE
:102E60000E94360C8CE20E949506809105070E9414
:102E7000290C8CE20E949506809106070E94290C7D
:102E80008CE20E949506809107070E94290C85EA32
:102E900091E00E949A06809108070E94290C8CE21A
:102EA0000E949506809109070E94290C8CE20E94DD
:102EB000950680910A070E94290C8CE20E949506D3
:102EC00080910B070E94290C0E94D50B0E94090DCE
:102ED0001092BA0206CE60E971E0C8010E94092A88
:102EE000892BA1F365E971E0C8010E94092A892BA9
:102EF00039F40E94D20E0E94280E81E293E06BCE3C
:102F00006AE971E0C8010E94092A892B49F40E94EC
:102F1000F10E0E94F10A0E94480E89E193E05BCE17
:102F20006FE971E0C8010E94092A892B99F469E8C8
:102F300071E090E080E00E945B25FC01892B21F08C
:102F400091E08081813309F090E0909310018FE04F
:102F500093E041CE6BEB71E0C8010E94092A892BF6
:102F600079F569E871E090E080E00E945B250E94BD
:102F70003D258C0169E871E090E080E00E945B25CE
:102F80000E943D25E82E69E871E090E080E00E9413
:102F90005B250E943D25F82E69E871E090E080E015
:102FA0000E945B250E943D250830110530F4F80190
:102FB000E856F94FE282F286828B86E093E00BCEF0
:102FC00066EA71E0C8010E94092A892B11F569E8B7
:102FD00071E090E080E00E945B250E943D258C011D
:102FE00069E871E090E080E00E945B250E9439254D
:102FF0000830110558F4000F111F000F111FF801C0
:10300000E856F94F628F738F848F958F89EF92E026
:10301000E2CD60EB71E0C8010E94092A892B39F5E5
:1030200069E871E090E080E00E945B250E943D2508
:103030009093D3068093D20669E871E090E080E037
:103040000E945B250E943D258093D40669E871E0CB
:1030500090E080E00E945B25009731F00E943D25C2
:103060009093D9068093D80680EF92E0B4CD66EBBA
:1030700071E0C8010E94092A892B09F569E871E00D
:1030800090E080E00E945B250E943D258093D5065C
:1030900069E871E090E080E00E945B250E943D2598
:1030A0008093D60669E871E090E080E00E945B259D
:1030B0000E943D258093D70682EE92E08CCD61EC94
:1030C00071E0C8010E94092A892B09F043C069E810
:1030D00071E090E080E00E945B250E9439256093BA
:1030E000DB067093DC068093DD069093DE0669E8CC
:1030F00071E090E080E00E945B250E94392560939A
:10310000DF067093E0068093E1069093E20669E89B
:1031100071E090E080E00E945B250E943925609379
:10312000E3067093E4068093E5069093E60669E86B
:1031300071E090E080E00E945B250E943925609359
:10314000E7067093E8068093E9069093EA0689ED16
:1031500092E041CD67EC71E0C8010E94092A892BF9
:1031600009F569E871E090E080E00E945B250E942B
:103170003D258093EB0669E871E090E080E00E94D5
:103180005B250E943D258093EC0669E871E090E0A4
:1031900080E00E945B250E943D258093ED068CEC2B
:1031A00092E019CD61ED71E0C8010E94092A892BD6
:1031B00099F469E871E090E080E00E945B250E944C
:1031C00039256093EE067093EF068093F006909396
:1031D000F10682EC92E0FFCC68ED71E0C8010E943C
:1031E000092A892B89F469E871E090E080E00E9467
:1031F0005B250E943D259093F3068093F2060E9482
:10320000F10A8AEB92E0E7CC6DED71E0C8010E9413
:10321000092A892B89F469E871E090E080E00E9436
:103220005B250E943D259093F5068093F4060E944D
:10323000F10A81EB92E0CFCC63EE71E0C8010E940D
:10324000092A892B99F469E871E090E080E00E94F6
:103250005B250E9439256093F6067093F7068093EC
:10326000F8069093F90688EA92E0B5CC6AEE71E030
:10327000C8010E94092A892B69F469E871E090E08D
:1032800080E00E945B250E943D258093FA068EE92E
:1032900092E0A1CC69EE71E0C8010E94092A892B55
:1032A00069F469E871E090E080E00E945B250E948B
:1032B0003D258093DA0683E992E08DCC61EF71E0E1
:1032C000C8010E94092A892B89F469E871E090E01D
:1032D00080E00E945B250E943D2521E0892B09F4B6
:1032E00020E02093FB0689E892E075CC68EF71E05E
:1032F000C8010E94092A892B79F569E871E090E0FC
:1033000080E00E945B250E943D2521E0892B09F485
:1033100020E02093FC0669E871E090E080E00E94E4
:103320005B250E943D258093FD0669E871E090E0F1
:1033300080E00E945B250E943D258093FE0669E89F
:1033400071E090E080E00E945B250E943D25809323
:10335000FF068FE792E03FCC6FEF71E0C8010E945B
:10336000092A892B09F03FC069E871E090E080E00C
:103370000E945B250E943D2521E0892B09F420E075
:103380002093000769E871E090E080E00E945B25EF
:103390000E94392560930107709302078093030709
:1033A0009093040769E871E090E080E00E945B255B
:1033B0000E943D258093050769E871E090E080E078
:1033C0000E945B250E943D258093060769E871E015
:1033D00090E080E00E945B250E943D2580930707D6
:1033E00088E792E0F8CB63E072E0C8010E94092A06
:1033F000892BD9F569E871E090E080E00E945B25B7
:103400000E943D2521E0892B09F420E02093080744
:1034100069E871E090E080E00E945B250E943D2514
:1034200021E0892B09F420E02093090769E871E085
:1034300090E080E00E945B250E943D2521E0892BE1
:1034400009F420E020930A0769E871E090E080E049
:103450000E945B250E943D2521E0892B09F420E094
:1034600020930B0781E792E0B6CB67E072E0C801DA
:103470000E94092A892B89F469E871E090E080E0D4
:103480000E945B250E943D2521E0892B09F420E064
:103490002093440689E692E09ECB6CE072E0C8017E
:1034A0000E94092A892B89F469E871E090E080E0A4
:1034B0000E945B250E943D2521E0892B09F420E034
:1034C0002093630680E692E086CB62E172E0C80159
:1034D0000E94092A892B09F043C069E871E090E055
:1034E00080E00E945B250E943925609364067093FA
:1034F0006506809366069093670669E871E090E040
:1035000080E00E945B250E943925609368067093D5
:10351000690680936A0690936B0669E871E090E013
:1035200080E00E945B250E94392560936C067093B1
:103530006D0680936E0690936F0669E871E090E0E7
:1035400080E00E945B250E9439256093700670938D
:103550007106809372069093730685E592E03BCBEB
:103560006AE172E0C8010E94092A892BF9F469E82E
:1035700071E090E080E00E945B250E943925609315
:10358000740670937506809376069093770669E8C3
:1035900071E090E080E00E945B25009721F00E949E
:1035A0003D2580937C068CE492E015CB60E272E0CE
:1035B000C8010E94092A892B99F469E871E090E01A
:1035C00080E00E945B250E94392560937806709305
:1035D000790680937A0690937B0683E492E0FBCA97
:1035E00066E272E0C8010E94092A892B71F469E839
:1035F00071E090E080E00E945B250E943D2587708D
:1036000080937D068BE392E0E6CA6BE272E0C8012C
:103610000E94092A892B09F043C069E871E090E013
:1036200080E00E945B250E943D258C0169E871E0E5
:1036300090E080E00E945B250E943D25E82E69E82D
:1036400071E090E080E00E945B250E943D25F82E0D
:1036500069E871E090E080E00E945B250E943D25D2
:103660000115110549F4E0927E06F0927F068093E1
:10367000800683E392E0AFCA0130110539F4E0928D
:103680008106F092820680938306F3CF0230110503
:1036900081F7E0928406F092850680938606E9CF52
:1036A00060E372E0C8010E94092A892BD9F469E815
:1036B00071E090E080E00E945B250E943D259093A0
:1036C00088068093870669E871E090E080E00E94B8
:1036D0005B25009721F00E943D25809389068BE2AF
:1036E00092E079CA65E372E0C8010E94092A892B39
:1036F00049F410924A0610924906D0920F0181E2D5
:1037000092E069CA6CE372E0C8010E94092A892B21
:1037100099F410924A0610924906109248061092A7
:1037200047061092460610924506D0920F0110925D
:10373000C70285E192E04FCA80E192E00E949A06BA
:10374000C8010E94C80B0E94D50BC2CBEF3308F012
:10375000C8C991E09E0F9093BA02F0E0E658FD4F81
:103760008083BFC98A3209F0F6C91C92E981FA81C7
:10377000DF010D900020E9F71197AE1BBF0B1697E4
:1037800008F4E6C27F0153E0E50EF11C43E050E08F
:1037900065E472E0C7010E94122A892B09F0E4C295
:1037A000093008F4E1C2ED81FE81808191E081342D
:1037B00009F090E090935C06813409F0C9C2E98574
:1037C000FA856081611101C06EE48F819885009750
:1037D00009F4C2C2DC012C91222309F4BDC20E946B
:1037E000E40D6093570670935806809359069093A2
:1037F0005A06ED85FE856081611101C065E48B8507
:103800009C85009709F4ACC2FC012081222309F4B5
:10381000A7C20E94E40D60935306709354068093F0
:103820005506909356068F859889DC012C912223AA
:1038300081F00E94392526E53EE04DEE5FE30E94CF
:10384000662760934F0670935006809351069093BD
:10385000520689899A89FC012081222351F00E9415
:10386000392560934B0670934C0680934D069093D8
:103870004E0680916306882309F46AC280915C0633
:10388000882309F465C2C0906406D0906506E09074
:103890006606F090670620E030E0A901C701B60196
:1038A0000E940027811110C020E030E0A901609142
:1038B00068067091690680916A0690916B060E9475
:1038C0000027882309F444C220916C0630916D06CC
:1038D00040916E0650916F0666962CAF3DAF4EAF8D
:1038E0005FAF669720E030E0A90166966CAD7DADD4
:1038F0008EAD9FAD66970E940027811110C020E019
:1039000030E0A90160917006709171068091720695
:10391000909173060E940027882309F419C28091B0
:10392000570690915806A0915906B0915A06A49650
:103930008CAF9DAFAEAFBFAFA4972091530630912F
:10394000540640915506509156066A962CAF3DAFED
:103950004EAF5FAF6A978091C702882309F4DAC13E
:103960006091890670E090E080E00E940727209136
:103970004F063091500640915106509152060E94D8
:10398000002718160CF4C6C180917006909171063C
:10399000A0917206B0917306A8968CAF9DAFAEAFA2
:1039A000BFAFA897209168063091690640916A06DA
:1039B00050916B062A962CAF3DAF4EAF5FAF2A9762
:1039C0008091C3029091C402A091C502B091C60239
:1039D0002E968CAF9DAFAEAFBFAF2E972091BF029A
:1039E0003091C0024091C1025091C20262962CAF48
:1039F0003DAF4EAF5FAF62972A962CAD3DAD4EAD59
:103A00005FAD2A97A8966CAD7DAD8EAD9FADA897A2
:103A10000E94E5284B015C01A701960166966CADFA
:103A20007DAD8EAD9FAD66970E94E5282B013C01D0
:103A3000A70196012E966CAD7DAD8EAD9FAD2E97F4
:103A40000E94E528A50194010E946627A0966CAF0C
:103A50007DAF8EAF9FAFA0972A962CAD3DAD4EADFA
:103A60005FAD2A9762966CAD7DAD8EAD9FAD6297CE
:103A70000E94E528A30192010E9466279B01AC01E8
:103A8000A0966CAD7DAD8EAD9FADA0970E94E52850
:103A9000A0966CAF7DAF8EAF9FAFA097A7019601A8
:103AA000A4966CAD7DAD8EAD9FADA4970E94E52828
:103AB000A50194010E9466274B015C012A962CAD5A
:103AC0003DAD4EAD5FAD2A976A966CAD7DAD8EADC6
:103AD0009FAD6A970E94E528A30192010E94662784
:103AE0009B01AC01C501B4010E94E528AC966CAF06
:103AF0007DAF8EAF9FAFAC9762962CAD3DAD4EAD16
:103B00005FAD62976A966CAD7DAD8EAD9FAD6A97E5
:103B10000E94E5282B013C012E962CAD3DAD4EAD0B
:103B20005FAD2E97A4966CAD7DAD8EAD9FADA49785
:103B30000E94E5284B015C012E962CAD3DAD4EADAB
:103B40005FAD2E97C701B6010E94E528A30192013F
:103B50000E9466276B017C0162962CAD3DAD4EAD97
:103B60005FAD62972A966CAD7DAD8EAD9FAD2A9705
:103B70000E94E528A50194010E9466279B01AC01E3
:103B8000C701B6010E94E5286B017C012E962CAD81
:103B90003DAD4EAD5FAD2E9766966CAD7DAD8EADF5
:103BA0009FAD66970E94E528A30192010E946627B7
:103BB0002B013C0162962CAD3DAD4EAD5FAD6297E1
:103BC000A8966CAD7DAD8EAD9FADA8970E94E528FF
:103BD000A50194010E9466279B01AC01C301B201BB
:103BE0000E94E5284B015C0120E030E0A901A0968D
:103BF0006CAD7DAD8EAD9FADA0970E94FA291816D1
:103C00006CF420E030E0A901AC966CAD7DAD8EADDA
:103C10009FADAC970E94002787FD1BC020E030E0DD
:103C2000A901A0966CAD7DAD8EAD9FADA0970E9411
:103C3000002787FF6FC020E030E0A901AC966CAD93
:103C40007DAD8EAD9FADAC970E94FA2918160CF091
:103C500061C020E030E0A901C701B6010E94FA2945
:103C600018164CF420E030E0A901C501B4010E940F
:103C7000002787FD12C020E030E0A901C701B6018E
:103C80000E94002787FF46C020E030E0A901C5015F
:103C9000B4010E94FA291816ECF50E940F03C09097
:103CA000BB02D090BC02E090BD02F090BE029B012E
:103CB000AC012C193D094E095F0969017A01209177
:103CC0008706309188064901B12CA12C8C149D04E3
:103CD000AE04BF04F8F46093BB027093BC028093FF
:103CE000BD029093BE028091490690914A0690933E
:103CF00048068093470610924A0610924906109390
:103D00000F018091450690914606019690934606D4
:103D100080934506A4968CAD9DADAEADBFADA49786
:103D20008093C3029093C402A093C502B093C602CD
:103D30006A962CAD3DAD4EAD5FAD6A972093BF0244
:103D40003093C0024093C1025093C2021093C70245
:103D500010921C030C94791560E070E0CB0141CD0A
:103D600060E070E0CB0157CD43E050E069E472E0E1
:103D7000C7010E94122A892B59F7083048F38F8512
:103D800098890E943D2580935B06E2CFE33500F7DA
:103D900091E09E0F90931C03F0E0E853FD4F808369
:103DA0000C9479150E940F032B013C018091200790
:103DB00090912107A0912207B0912307B301A2019E
:103DC000481B590B6A0B7B0B8091110190911201DA
:103DD000A0911301B0911401481759076A077B0796
:103DE00008F490C140922007509221076092220768
:103DF00070922307EEE3F3E0E49190917B008E2F25
:103E0000880F880F80729F7D892B80937B00809123
:103E10000C0130E4839FC0011124E770E82BE0938C
:103E20007C0080917A00806480937A0080917A008F
:103E300086FDFCCF6091780070917900072E000C10
:103E4000880B990B0E94072720E030E040EA50E4FD
:103E50000E94662720E030EC4FE754E40E9452298C
:103E60004B015C0180921C0790921D07A0921E07D7
:103E7000B0921F078091DB069091DC06A091DD06D1
:103E8000B091DE062A968CAF9DAFAEAFBFAF2A973A
:103E90009C01AD016091E3067091E4068091E50616
:103EA0009091E6060E94E5282E966CAF7DAF8EAF0E
:103EB0009FAF2E97C090DF06D090E006E090E1061D
:103EC000F090E2069F772DEB37E346E855E30E943A
:103ED000002787FD36C0A70196016091E706709123
:103EE000E8068091E9069091EA060E94E52862962C
:103EF0006CAF7DAF8EAF9FAF62972A962CAD3DAD74
:103F00004EAD5FAD2A97C501B4010E94E5289B0123
:103F1000AC0162966CAD7DAD8EAD9FAD62970E9497
:103F200066272E962CAD3DAD4EAD5FAD2E970E940F
:103F300052299B01AC01C701B6010E94E6286B0122
:103F40007C01C0921807D0921907E0921A07F092EC
:103F50001B07209142063091430680900D019090FE
:103F60000E01A0903D06B12C8501000F111F000F1E
:103F7000111F2815390508F493C0F801E35EFC4FC2
:103F8000208131814281538160913E0670913F06CC
:103F900080914006909141060E94E52860933E067C
:103FA00070933F068093400690934106F801E35ECC
:103FB000FC4FC082D182E282F38220913E06309192
:103FC0003F064091400650914106C701B6010E944C
:103FD000E6286B017C01C0923E06D0923F06E0923B
:103FE0004006F0924106C5010196B4010E948E2858
:103FF00080933D06609142067091430690E080E018
:104000000E9405279B01AC01C701B6010E945229FD
:104010006B017C01C0921007D0921107E092120749
:10402000F092130780916306882309F46BC0809097
:10403000740690907506A0907606B0907706209151
:1040400078063091790640917A0650917B062A963F
:104050002CAF3DAF4EAF5FAF2A978091FB0611E0CA
:10406000A5019401882319F1C701B6010E94002718
:1040700018160CF410E0A50194012A966CAD7DADE4
:104080008EAD9FAD2A970E94E6289B01AC0101E00E
:10409000C701B6010E94FA2987FF22C000E020C0B4
:1040A0002F5F3F4F30934306209342067FCFC701D7
:1040B000B6010E94FA2987FD10E02A962CAD3DAD8D
:1040C0004EAD5FAD2A97C501B4010E94E5289B0162
:1040D000AC0101E0C701B6010E9400271816F4F2F6
:1040E00080910F01882309F45CC2112359F080915B
:1040F000490690914A06019690934A068093490694
:1041000010920F01C0901007D0901107E090120795
:10411000F09013078091140790911507A09116074E
:10412000B0911707A3019201281B390B4A0B5B0BB7
:10413000DA01C9018A3F9105A105B105A0F14092BC
:104140001407509215076092160770921707209176
:104150000C0730910D0740910E0750910F07C701D2
:10416000B6010E94E5282A966CAF7DAF8EAF9FAF57
:104170002A978090EE069090EF06A090F006B090FF
:10418000F106A50194010E94FA2918160CF010C23C
:1041900081E080939706C0920C07D0920D07E092C1
:1041A0000E07F0920F072091F6063091F706409126
:1041B000F8065091F9068091FB0611E0882309F476
:1041C00009C2C701B6010E94002718160CF408C2E4
:1041D0008091D8069091D906A3019201280F391F2A
:1041E000411D511DDA01C9018093930690939406F5
:1041F000A0939506B09396061093920680918E0632
:1042000090918F06A0919006B0919106A301920122
:10421000281B390B4A0B5B0BDA01C9014E97A1052C
:10422000B10508F471C040928E0650928F066092DC
:1042300090067092910600914406002309F4E5C1AE
:1042400081E00E94170219821A821B82CE01019618
:104250000E94090210E00FEF60E0812F0E94C80A5F
:10426000FC01EE0FFF1FE80FF91FE55CF84F00831C
:10427000118212821F5F183079F700E01FEF602F64
:1042800080E00E94C80AFC01EE0FFF1FE80FF91F33
:10429000E55CF84F1082118212830F5F083079F7C6
:1042A00060E080E00E94C80AFC01EE0FFF1FE80FEB
:1042B000F91FE55CF84F10831183128360E087E0FB
:1042C0000E94C80AFC01EE0FFF1FE80FF91FE55C12
:1042D000F84F108280E8818312820BE317E0A80177
:1042E0004E5F5F4FB8016F5F7F4F2091FA06C801A4
:1042F0000E94AB0B0D5F1F4F37E00B3F130779F7A1
:10430000809114090E941B0380911001882309F4F5
:10431000A7C080918A0690918B06A0918C06B091DF
:104320008D06A3019201281B390B4A0B5B0BDA01A6
:10433000C90184369105A105B10508F491C04092E8
:104340008A0650928B0660928C0670928D0610E061
:1043500000E0F12C802F0E94780B882341F081E04F
:1043600090E0002E01C0880F0A94EAF7F82A0F5F48
:104370001F4F0830110571F7109100071123A9F0A4
:1043800011E02091100730911107409112075091D0
:1043900013076091010770910207809103079091C4
:1043A00004070E94FA2987FD10E00091FC06002313
:1043B00019F001E0F11000E08AE493E00E949A060F
:1043C00060911C0770911D0780911E0790911F0737
:1043D00043E050E00E94360C80E20E949506609116
:1043E00018077091190780911A0790911B0743E0F5
:1043F00050E00E94360C80E20E9495066091100702
:1044000070911107809112079091130743E050E0DB
:104410000E94360C80E20E94950680919706082E35
:10442000000C990B0E94B50D80E20E9495068F2D1D
:104430000E94290C80E20E9495068091920690E0ED
:104440000E94B50D80E20E949506802F0E94290CE3
:1044500080E20E949506812F0E94290C0E94D50BB4
:1044600080911001882309F48CC080916306882311
:1044700009F487C080915D0690915E06A0915F0669
:10448000B0916006A3019201281B390B4A0B5B0B0C
:10449000DA01C9018A3F9105A105B10508F471C08F
:1044A00040925D0650925E0660925F0670926006D2
:1044B0008DE493E00E949A0680915C0690E00E9451
:1044C000B50D80E20E94950680915B060E94290C42
:1044D00080E20E949506609157067091580680917F
:1044E000590690915A0646E050E00E94360C80E250
:1044F0000E9495066091530670915406809155066E
:104500009091560646E050E00E94360C80E20E94F0
:10451000950660914F0670915006809151069091DA
:10452000520641E050E00E94360C80E20E9495065F
:1045300060914B0670914C0680914D0690914E060D
:1045400050E040E00E94360C80E20E949506809187
:10455000490690914A060E94300C80E20E9495061E
:1045600080914706909148060E94300C80E20E949C
:10457000950680914506909146060E94300C0E9457
:10458000D50B80E090E0892B11F40C946F150E94FC
:104590005D05882311F40C946F150E9400000C94A3
:1045A0006F15002309F4AECD81E080930F01AACDF1
:1045B000A501940150582A966CAD7DAD8EAD9FAD8E
:1045C0002A970E94002787FF02C08FEFE2CD10924A
:1045D0009706E1CDC701B6010E94FA2987FFF8CD01
:1045E0008091930690919406A0919506B0919606BD
:1045F00084199509A609B70911E0181619061A06B3
:104600001B060CF4F9CD10E0F7CD19821A821B823B
:10461000CE0101960E940902AE014F5F5F4F2896BE
:104620005FAF4EAF28974A01D4011D924D01A215EC
:10463000B305D1F780910007882309F455C1209173
:104640000107309102074091030750910407C70109
:10465000B6010E94002718160CF446C1D090070737
:10466000C0900607B090050783E0F401808384E0E2
:104670008183740101E0D701AD907D0163E08A2D53
:104680000E94C80AFC01EE0FFF1FE80FF91FE55C4E
:10469000F84FB082C182D282E1E0F0E0EC0FFD1F62
:1046A0008E0F9F1FDC010C9364E08A2D0E94C80AC4
:1046B000FC01EE0FFF1FE80FF91FE55CF84FB08219
:1046C000C182D282E1E0F0E0EC0FFD1F8E0F9F1F50
:1046D000DC010C936C96EEADFFAD6C97EE15FF050B
:1046E00051F601E0AE014F5F5F4F6A01F12CE12C02
:1046F000D6018D916D01882369F02091FA06A701FA
:10470000435C584FB701645C784FC701855C984F94
:104710000E94AB0BB3E0EB0EF11CE0ECEE16F104E3
:1047200039F7112309F49CC101119AC18091D40673
:104730008130D1F40091D2061091D30601151105F4
:1047400011F40CE211E00E940F03980150E040E0E8
:104750000E94B628DA01C90180959095A095B09580
:10476000182F117020FD38C08091D7069091D60681
:104770002091D506D1012C9311969C9311971296F6
:104780008C932091DA066C964EAD5FAD6C97AE9629
:104790006EAD7FADAE97C1010E94AB0B2BE337E04E
:1047A0002896EEADFFAD289781912896FFAFEEAF2A
:1047B0002897811108C0F10180819181A281F901BE
:1047C00080839183A2832D5F3F4F28964EAD5FADCE
:1047D00028978416950621F781E081270E94170209
:1047E00080916306882309F48BCD80917D068770C4
:1047F000E82E00917C06023008F402E010E0C09040
:104800004906D0904A0690908606A0908506B09002
:104810008406C016D10688F4C801019790908306DB
:10482000A0908206B0908106C816D90631F090900B
:104830008006A0907F06B0907E06F12C6E2D8F2D05
:104840000E94C80AFC01EE0FFF1FE80FF91FE55C8C
:10485000F84F108211821282F39458E0F512EECFD5
:10486000C016D10608F4FEC00091D2061091D306FE
:104870000115110511F40CE211E00E940F039801DB
:1048800050E040E00E94B62820FD3ACD10E01F1510
:1048900009F436CDD101BC921196AC9211971296C3
:1048A0009C922091FA066C964EAD5FAD6C97AE96D9
:1048B0006EAD7FADAE97C1010E94AB0B6E2D812F07
:1048C0000E94C80A9C01220F331F820F931F9C0174
:1048D000255C384FF10180819181A281F9018083AB
:1048E0009183A2831F5FD3CF80919706181634F06F
:1048F000882309F4B2C08091EC0602C08091EB06D7
:10490000B8E9EB2EB6E0FB2EA12CB12C282F30E01D
:1049100068963FAF2EAF68978B2D0E94780B882347
:1049200009F447C0A394D7015296BC912B96BFAF10
:104930002B97F701F2852F96FFAF2F97D70112968D
:10494000BC916396BFAF6397D12CC12C68968EAD96
:104950009FAD68970C2C02C0959587950A94E2F755
:1049600080FF20C06C2D8B2D0E94C80AFC01EE0F29
:10497000FF1FE80FF91FE55CF84F63962FAD6397B3
:1049800020832F963FAD2F9731832B964FAD2B97DA
:104990004283A1E0B0E0AC0FBD1F8A0F9B1F21E056
:1049A000FC0120833FEFC31AD30A48E0C416D104A8
:1049B00069F6B3945FEFE51AF50A88E0B812ACCF58
:1049C0008091FC06882309F48DCEA1108BCEC09077
:1049D000FF06B090FE06A090FD0683E0D1018C9307
:1049E00084E011968C937101F701D1907F0163E00F
:1049F0008D2D0E94C80AFC01EE0FFF1FE80FF91F62
:104A0000E55CF84FA082B182C28221E030E02C0F39
:104A10003D1F820F931FE1E0DC01EC9364E08D2DDC
:104A20000E94C80AFC01EE0FFF1FE80FF91FE55CAA
:104A3000F84FA082B182C28221E030E02C0F3D1FEE
:104A4000820F931FE1E0DC01EC936C962EAD3FAD3D
:104A50006C97E216F30641F645CE8091ED0650CFF5
:104A600081E0BCCE39E0C316D10408F00FCFFC2C96
:104A70000DCF662777270C948F25FC01882799276F
:104A8000E89421912032E9F3293010F02E30C8F358
:104A90002B3241F02D3239F4689404C00E948725EE
:104AA000820F911D219120532A30C0F31EF490955E
:104AB00081959F4F089541E259E00E946025089535
:104AC000FA01A191B081009719F41097E1F0CD019E
:104AD000DC01CD010D90002011F4C00113C0FB01D9
:104AE0002191222319F02015D9F7F3CFFB01219151
:104AF000201519F41E92119606C02223C1F70D90BD
:104B00000020A1F7D001FA01A193B08308957AE0C3
:104B1000979F902D879F802D910D11240895B0E0CF
:104B2000A0E0E5E9F5E20C944E285C017B016115FB
:104B3000710519F0DB018D939C9385010F5F1F4F69
:104B4000F501D0818D2F90E00E94DF266C01892B2A
:104B5000B9F5DD32B9F50F5F1F4FD5011196DC9124
:104B6000C1E05801F1E0AF1AB10843E050E064EB56
:104B700070E0C5010E94E826892B69F5680182E092
:104B8000C80ED11C45E050E06FEA70E0C6010E94FB
:104B9000E826892B21F4680197E0C90ED11CE114A5
:104BA000F10419F0D701CD92DC9260E070E080E86A
:104BB0009FEFC111FFC060E070E080E89FE7FAC09E
:104BC0005801BBCFDB3229F485010E5F1F4FF50181
:104BD000D181C0E0C6CF43E050E06CEA70E0C5018F
:104BE0000E94E826892BE9F0F80110E000E020E0BF
:104BF00030E0A9015F01B0ED8B2E8D0E89E08815A4
:104C0000C8F19C2E689491F88C2F8870C2FF16C052
:104C1000811102C00F5F1F4F3196D501DC91C92D64
:104C2000E9CFE114F10429F00E5F1F4FF701118362
:104C3000008360E070E080EC9FE7BCC0882311F047
:104C400001501109A5E0B0E00E943D289B01AC0194
:104C5000220F331F441F551F280D311D411D511DAB
:104C6000283999E93907490799E15907A8F2C66037
:104C70009C2ED2CFAEEF8A1206C0C3FD3CC09C2E44
:104C8000689493F8C9CFDF7DD534A9F580818D3242
:104C900039F4C061DF011296818162E070E006C0E4
:104CA000DF018B32C1F3119661E070E080535D014A
:104CB000A61AB70A8A30F8F4E0E8CE16ECE0DE0671
:104CC0005CF4B601660F771F660F771FC60ED71EFE
:104CD000CC0CDD1CC80ED11C5D01FFEFAF1ABF0A62
:104CE0008C9180538A30A8F1C4FF03C0D194C19441
:104CF000D1080C0D1D1DC1FF09C0E114F10431F0F4
:104D000081E0A81AB108D701AD92BC92CA01B901DD
:104D10000E940527C370C33009F490584B015C0111
:104D200020E030E0A9010E940027882309F440C058
:104D3000C3EED0E017FF05C0119501951109CBEC2A
:104D4000D0E06E01B8E1CB1AD10880E2E82EF12C58
:104D50000FC0D501B1CFFE012591359145915491F8
:104D60000E191F09C501B4010E9466274B015C01A1
:104D7000D501C4010E151F0574F72497F594E79427
:104D8000CC16DD06A9F78A2F880F8B2F881F8F3F3F
:104D900049F020E030E0A901C501B4010E940027DC
:104DA000811106C082E290E0909324098093230948
:104DB000C501B401CDB7DEB7ECE00C946A289111BF
:104DC0000C94D327803219F089508550C8F7089584
:104DD000FB01DC014150504088F08D9181341CF082
:104DE0008B350CF4805E659161341CF06B350CF4EE
:104DF000605E861B611171F3990B0895881BFCCFCF
:104E00000E94422708F481E00895E89409C097FBC6
:104E10003EF490958095709561957F4F8F4F9F4F91
:104E20009923A9F0F92F96E9BB279395F6958795D5
:104E300077956795B795F111F8CFFAF4BB0F11F498
:104E400060FF1BC06F5F7F4F8F4F9F4F16C088233F
:104E500011F096E911C0772321F09EE8872F762F75
:104E600005C0662371F096E8862F70E060E02AF0B6
:104E70009A95660F771F881FDAF7880F96958795A2
:104E800097F90895990F0008550FAA0BE0E8FEEF77
:104E900016161706E807F907C0F012161306E407FE
:104EA000F50798F0621B730B840B950B39F40A26F7
:104EB00061F0232B242B252B21F408950A2609F4D5
:104EC000A140A6958FEF811D811D08950E9479272D
:104ED0000C94ED270E94DF2738F00E94E62720F08F
:104EE000952311F00C94D6270C94DC2711240C94F4
:104EF00021280E94FE2770F3959FC1F3950F50E083
:104F0000551F629FF001729FBB27F00DB11D639F7B
:104F1000AA27F00DB11DAA1F649F6627B00DA11D21
:104F2000661F829F2227B00DA11D621F739FB00DC7
:104F3000A11D621F839FA00D611D221F749F332737
:104F4000A00D611D231F849F600D211D822F762FD0
:104F50006A2F11249F5750409AF0F1F088234AF0AD
:104F6000EE0FFF1FBB1F661F771F881F9150504019
:104F7000A9F79E3F510580F00C94D6270C94212868
:104F80005F3FE4F3983ED4F3869577956795B795A0
:104F9000F795E7959F5FC1F7FE2B880F911D9695BA
:104FA000879597F9089599278827089597F99F6716
:104FB00080E870E060E008959FEF80EC08950024A1
:104FC0000A941616170618060906089500240A946E
:104FD00012161306140605060895092E0394000CF4
:104FE00011F4882352F0BB0F40F4BF2B11F460FF83
:104FF00004C06F5F7F4F8F4F9F4F089557FD9058AC
:10500000440F551F59F05F3F71F04795880F97FB8C
:10501000991F61F09F3F79F0879508951216130646
:105020001406551FF2CF4695F1DF08C01616170675
:105030001806991FF1CF86957105610508940895AA
:10504000E894BB2766277727CB0197F90895F9994C
:10505000FECF92BD81BDF89A992780B50895262F7D
:10506000F999FECF1FBA92BD81BD20BD0FB6F8944D
:10507000FA9AF99A0FBE019608950E947F28A59F7B
:10508000900DB49F900DA49F800D911D1124089543
:105090002F923F924F925F926F927F928F929F9248
:1050A000AF92BF92CF92DF92EF92FF920F931F9336
:1050B000CF93DF93CDB7DEB7CA1BDB0B0FB6F894E7
:1050C000DEBF0FBECDBF09942A88398848885F8427
:1050D0006E847D848C849B84AA84B984C884DF8098
:1050E000EE80FD800C811B81AA81B981CE0FD11D7C
:1050F0000FB6F894DEBF0FBECDBFED010895A29F9D
:10510000B001B39FC001A39F700D811D1124911D9B
:10511000B29F700D811D1124911D0895AA1BBB1B08
:1051200051E107C0AA1FBB1FA617B70710F0A61BA7
:10513000B70B881F991F5A95A9F780959095BC01C8
:10514000CD01089597FB072E16F4009407D077FD44
:1051500009D00E948E2807FC05D03EF490958195D9
:105160009F4F0895709561957F4F0895A1E21A2E83
:10517000AA1BBB1BFD010DC0AA1FBB1FEE1FFF1FFB
:10518000A217B307E407F50720F0A21BB30BE40B4B
:10519000F50B661F771F881F991F1A9469F7609592
:1051A0007095809590959B01AC01BD01CF0108954C
:1051B000EE0FFF1F0590F491E02D09940E947F28C7
:1051C000B7FF0895821B930B08955058BB27AA2759
:1051D0000E94FD280C94ED270E94DF2738F00E94E2
:1051E000E62720F039F49F3F19F426F40C94DC27CD
:1051F0000EF4E095E7FB0C94D627E92F0E94FE27DA
:1052000058F3BA17620773078407950720F079F4FB
:10521000A6F50C9420280EF4E0950B2EBA2FA02DA5
:105220000B01B90190010C01CA01A0011124FF2753
:10523000591B99F0593F50F4503E68F11A16F0404E
:10524000A22F232F342F4427585FF3CF469537954D
:105250002795A795F0405395C9F77EF41F16BA0B12
:10526000620B730B840BBAF09150A1F0FF0FBB1FC0
:10527000661F771F881FC2F70EC0BA0F621F731F09
:10528000841F48F4879577956795B795F7959E3F66
:1052900008F0B0CF9395880F08F09927EE0F9795F7
:1052A000879508950E9466290C94ED270E94E627B1
:1052B00058F00E94DF2740F029F45F3F29F00C945A
:1052C000D62751110C9421280C94DC270E94FE272C
:1052D00068F39923B1F3552391F3951B550BBB2725
:1052E000AA2762177307840738F09F5F5F4F220F6A
:1052F000331F441FAA1FA9F335D00E2E3AF0E0E861
:1053000032D091505040E695001CCAF72BD0FE2FAA
:1053100029D0660F771F881FBB1F2617370748073E
:10532000AB07B0E809F0BB0B802DBF01FF279358F6
:105330005F4F3AF09E3F510578F00C94D6270C94BD
:1053400021285F3FE4F3983ED4F3869577956795DF
:10535000B795F7959F5FC9F7880F911D969587952B
:1053600097F90895E1E0660F771F881FBB1F62174A
:1053700073078407BA0720F0621B730B840BBA0B08
:10538000EE1F88F7E09508950E94CB296894B1112B
:105390000C94212808950E94062888F09F5798F0C1
:1053A000B92F9927B751B0F0E1F0660F771F881F2A
:1053B000991F1AF0BA95C9F714C0B13091F00E9444
:1053C0002028B1E008950C942028672F782F882793
:1053D000B85F39F0B93FCCF3869577956795B3956B
:1053E000D9F73EF490958095709561957F4F8F4FDA
:1053F0009F4F08950E94422708F48FEF08950E945E
:105400004227880B990B089581E090E0F8940C9462
:10541000202AFB01DC018D91019080190110D9F344
:10542000990B0895FB01DC014150504030F08D9103
:105430000190801919F40020B9F7881B990B089581
:04544000F894FFCF0E
:10544400FFFFFFFF00E10000000000000101000178
:105454000164000000000000FFFFFFFFFFFFFFFFEB
:10546400FFC878280000C18081000000000000000F
:10547400260E260E260EA70B7107A30BA00B9D0B61
:1054840000000000730A0D0A0B0AA70B7107A30B97
:10549400A00B2B04B107000000009205F3042005C3
:1054A400DE0551052F054305000000007F06FE05BB
:1054B400C006B5060607C406E2060D0A006E616E54
:1054C40000696E66006F766600200050494E470002
:1054D400474745540053415645004C4F41440053FF
:1054E400545245414D00434F4C4C414D42444100C0
:1054F400414C45525400414C455254434F4C4F5239
:105504000043414C4942005452454E44524F575374
:1055140000535441424C45004D41564700535241BB
:10552400544500414C41524D004142524947485470
:105534000044494553454C0043454E544552004CA4
:105544004F57004D41500054455354004750534564
:105554004E004750534C494E4500424F4C494D0074
:1055640042485953540042524F570042434F4C0053
:10557400424C415000425245534554004C41505214
:0E5584004553455400524D4300474741000037
:00000001FF
