:100000000C9494010C94BC010C94BC010C94BC01A4
:100010000C94BC010C94BC010C94BC010C94BC016C
:100020000C94BC010C94BC010C94810D0C94F00D4B
:100030000C94BC010C94BC010C94BC010C94BC014C
:100040000C94BC010C94BC010C94BC010C94BC013C
:100050000C94BC010C94BC010C94BC010C94370DA5
:100060000C94BC010C94BC010C94BC010C94BC011C
:100070000C94BC010C94BC010C94BC010C94BC010C
:100080000C94BC010C94BC010C94BC010C94BC01FC
:100090000C94BC010C94BC010C94BC010C94BC01EC
:1000A0000C94BC010C94BC010C94BC014E414E4913
:1000B0004E495459494E46CDCCCC3D0AD7233C1726
:1000C000B7D13877CC2B329595E6241FB14F0A0073
:1000D0000020410000C84200401C4620BCBE4CCA63
:1000E0001B0E5AAEC59D74080B00020202000009E7
:1000F0000400000102020000052400100105240193
:1001000001010424020605240600010705810310ED
:10011000004009040100020A000000070502024035
:1001200000000705830240000004030904120100D7
:1001300002EF020140412337800001010203014127
:10014000726475696E6F204C4C430041726475692E
:100150006E6F204D6963726F00000000002400275D
:10016000002A002D003000204D41503D00204C4F12
:10017000573D002043454E5445523D0020444945DB
:1001800053454C3D00204252494748543D002041D0
:100190004C41524D3D002053524154453D00204DAD
:1001A0004156473D0020535441423D0020524F5795
:1001B000533D002043414C3D0020414252494748B5
:1001C000543D0020414C4552543D002043004346DD
:1001D000470045525220004F4B2054455354004F86
:1001E0004B204D4150004F4B204C4F57004F4B2060
:1001F00043454E544552004F4B2044494553454CCE
:10020000004F4B2041425249474854004F4B204237
:100210005249474854004F4B20414C41524D004FEA
:100220004B205352415445004F4B204D41564700FF
:100230004F4B20535441424C45004F4B20545245A4
:100240004E44524F5753004F4B2043414C494200BC
:100250004F4B20414C455254434F4C4F52004F4B53
:1002600020414C455254004F4B20434F4C4C414D84
:10027000424441004F4B20434F4C4F52004F4B20C4
:1002800053545245414D004F4B204C4F4144004F79
:100290004B205341564500504F4E47205061696EE8
:1002A000656C4C616D62646120763100070605045F
:1002B0000100080A0B0C0D09442000000000002575
:1002C0000028002B002E0031000404040404030461
:1002D00005020202020403020202020606060606E4
:1002E00006040402020204040408020110408040D3
:1002F000102040804080080204018040201002014C
:10030000108010204040200000000200090F000073
:10031000030401000C0000000000000000000000C9
:10032000000000000000221011241FBECFEFDAE011
:10033000DEBFCDBF27E0A8EFB1E001C01D92AB3812
:10034000B207E1F711E0A0E0B1E0ECEDFFE302C09D
:1003500005900D92A83FB107D9F711E0C4E9D1E0AB
:1003600004C02197FE010E94B91EC339D107C9F705
:100370000E9449100C94EC1F0C940000EAE3F6E094
:10038000DC012D913D914C91219331934193B6E045
:10039000EA3FFB07A9F70895E1E1F3E02491E2EFDA
:1003A000F2E03491E3EDF2E09491992309F430C046
:1003B0002223E9F021502F30D0F4E22FF0E0ED516C
:1003C000FE4F0C94B91E11021502F20109020D0232
:1003D000F701F701F70118021E02220226022C0281
:1003E000F7013002209180002F7720938000E92FC1
:1003F000F0E0EE0FFF1FE554FD4FA591B4919FB7BC
:10040000F894EC91811132C030953E233C939FBF0C
:100410000895209180002F7DE8CF20918000277FD4
:10042000E4CF24B52F7724BDE2CF24B52F7DFBCFB9
:10043000209190002F7720939000D9CF20919000A9
:100440002F7DF9CF20919000277FF5CF2091C0001C
:100450002F772093C000CBCF2091C0002F7DF9CF04
:100460002091C200277F2093C200C1CF3E2BCECF68
:10047000FC0180913906882311F13FB7F89482E09E
:100480008093E9002091F200822F90E0181619065F
:1004900014F481E090E0882339F0289A44E64093F0
:1004A00038064091F1004083222339F02091F20078
:1004B000211103C02BE62093E8003FBF08958FEF82
:1004C0009FEF08952FB7F89483E08093E90090910F
:1004D000E800892F807295FF04C09091F20080E4BB
:1004E000891B2FBF08958091300681110DC082E0D5
:1004F00080932C0684E080932D0610922F06109294
:100500002E0681E0809330068CE296E008953FB796
:10051000F8948091280690912906A0912A06B0911E
:100520002B0626B5A89B05C02F3F19F00196A11DEB
:10053000B11D3FBFBA2FA92F982F8827BC01CD012D
:10054000620F711D811D911D42E0660F771F881F8C
:10055000991F4A95D1F70895AF92BF92DF92EF921B
:10056000FF920F931F93CF93DF93D82E80917D0737
:1005700090917E07A0917F07B0918007892B8A2BED
:100580008B2BD9F00E948702009126071091270734
:100590002091280730912907601B710B820B930B68
:1005A00000917D0710917E0720917F073091800791
:1005B0006017710782079307C8F20E948702609351
:1005C0002607709327078093280790932907E091C7
:1005D0008507F0918607309759F040918107509137
:1005E000820760918307709184078D2D0995D82E1D
:1005F000C0912407D091250784E0E82E87E0F82EEB
:100600008701209749F187E00432180729F18D8589
:100610008823F1F0E881F981A284B3840680F78110
:10062000E02DCE010995BC01CE01F5010995F80137
:100630009183808380917B0790917C07843691051C
:1006400008F41C860C80DD81C02D0E5F1F4FD9CFB2
:10065000F80111821082EECFC0912407D0912507B6
:1006600000E110E02097A9F08D85882361F04E8588
:100670005F856A817B81E881F9810280F381E02DC9
:100680002D2DCE0109950C80DD81C02D0150110961
:1006900049F7C0912407D09125072097C9F0F4E2CB
:1006A000EF16F7E0FF06A1F08D85882351F0F701E2
:1006B00060817181E881F9810484F585E02DCE01A6
:1006C00009950C80DD81C02DF2E0EF0EF11CE5CF25
:1006D00080910207909103079C012F5F3F4F309359
:1006E00003072093020749970CF44AC08FB7F89488
:1006F0002091FA063091FB064091FC065091FD06D0
:100700008FBF8091FE069091FF06A0910007B091E7
:100710000107281B390B4A0B5B0B21F421E030E069
:1007200040E050E0E0910207F091030788EE93E08B
:10073000E89FB001E99F700DF89F700D1124072EFE
:10074000000C880B990B0E94971E30937C07209316
:100750007B0710920307109202072FB7F89480913D
:10076000FA069091FB06A091FC06B091FD062FBF02
:100770008093FE069093FF06A0930007B0930107B5
:10078000DF91CF911F910F91FF90EF90DF90BF907D
:10079000AF900895CF92DF92EF92FF920E9487026E
:1007A0006B017C010E9487026C197D098E099F09EB
:1007B000683E734081059105A8F3FF90EF90DF90AC
:1007C000CF90089580E991E008954091FC01509107
:1007D000FD012091FA013091FB0142175307B4F457
:1007E0009091E8009570E1F39091E80092FD19C0B6
:1007F0008093F1008091FC019091FD0101968F732F
:100800009927892B19F48EEF8093E8008091FC01E1
:100810009091FD0101969093FD018093FC0181E090
:10082000089580E00895EF92FF920F931F93CF9366
:10083000DF93F82E192FE62E042F81E0860F880F04
:100840000E94E50383E00E94E503CF2DD12FEC0E3B
:10085000FD2EF11CCE15DF05B9F007FF13C0FE0118
:1008600084910E94E503182F80E00E94E503812314
:1008700021968111EFCFDF91CF911F910F91FF90C2
:10088000EF9008958881EDCF81E0F5CFDF92EF9270
:10089000FF920F931F93CF93DF93D82E8A01EB0122
:1008A0007B01E40EF51ECE15DF0559F0D7FE12C010
:1008B000FE0184910E94E50321968111F4CF0FEF90
:1008C0001FEFC801DF91CF911F910F91FF90EF9023
:1008D000DF9008958881EECF0F931F93CF93DF931E
:1008E0001F92CDB7DEB782E0898342E450E067EE25
:1008F00070E080E80E9446040E947302DC011296B8
:100900000D911C910115110589F0D801ED91FC9113
:100910000280F381E02DBE016F5F7F4FC801099512
:1009200097FD04C0F80100851185ECCF89810F90F7
:10093000DF91CF911F910F910895615030F0209178
:10094000F100FC0120830196F8CF289A84E6809379
:10095000380608958F929F92AF92BF92CF92DF9206
:10096000EF92FF920F931F93CF93DF936C017B0164
:100970008A0180910B01882309F458C080913906BF
:10098000882309F453C08091000280FF05C0809144
:10099000E00082608093E000E801B12C8AEFA82E8D
:1009A00093E0892E2AE3922E209711F4BB20B9F10F
:1009B0000E946202811106C0AA94AA20B9F10E9485
:1009C000CA03F2CF8C171D0611F00CF08C2F9FB7C5
:1009D000F8948092E9002091E80025FD02C09FBFB5
:1009E000E3CF282F30E0C21BD30BF701815020F05A
:1009F00041914093F100FACFE20EF31EBB2021F0AB
:100A00009092E800B12CEBCF8091E80085FDE7CF14
:100A10009092E800BB24B394209709F3F3CF5D9A3A
:100A200084E68093FF01101611063CF081E090E00F
:100A3000F6019383828310E000E0C801DF91CF913B
:100A40001F910F91FF90EF90DF90CF90BF90AF90EC
:100A50009F908F900895CF93DF931F92CDB7DEB70D
:100A60006983DC01ED91FC910280F381E02D41E08E
:100A700050E0BE016F5F7F4F09950F90DF91CF91DE
:100A80000895682F8AE297E00C942B050F931F932B
:100A9000CF93DF938C01D0E0C0E0F801EC0FFD1F95
:100AA0006491662341F08AE297E00E942B05892B2E
:100AB00011F02196F2CFCE01DF91CF911F910F91CE
:100AC000089583E08093E9008091F200882319F073
:100AD0008AE38093E80008950E94620290E00895FE
:100AE000CF93DF931F92CDB7DEB7FC018485958548
:100AF00097FD08C02FEF3FEF358724870F90DF91D8
:100B0000CF910895CE0101960E943802019719F401
:100B1000898190E0F3CF8FEF9FEFF0CF0F931F937A
:100B2000CF93DF931F92CDB7DEB78C01FC01848594
:100B3000958597FF0BC0CE0101960E943802019760
:100B400071F4898190E0F80195878487F8018485A4
:100B500095850F90DF91CF911F910F9108958FEFA1
:100B60009FEFF1CFFC018485958597FD0BC09FB762
:100B7000F89482E08093E9008091F2009FBF90E0BA
:100B8000019608959FB7F89482E08093E9008091E0
:100B9000F2009FBF90E00895AF92BF92CF92DF9294
:100BA000EF92FF920F931F93CF93DF9300D01F928A
:100BB000CDB7DEB75A0119821A821B82882361F1F0
:100BC0008B01E1E0F0E0E82EF12CD8012D918D01B0
:100BD0002223F1F06F01B1E0CB1AD108D501AC0DA1
:100BE000BD1D4C914423A1F030E02F5F3F4FD70152
:100BF0000E94601EA42FB0E011969B01AC010E94E0
:100C00001E1EA1E0B0E0AC0FBD1FAC0DBD1D8C934E
:100C10003196E430F105C9F669817A818B810F90B4
:100C20000F900F90DF91CF911F910F91FF90EF9058
:100C3000DF90CF90BF90AF90089581E090E008954D
:100C40000F931F93CF93DF932091F9012F5F322FE2
:100C500037703093F90120FF2BC020E831FD20646C
:100C6000347009F02062205FFC01EC01239600E063
:100C700011E06785662329F070E0C8010E94831E99
:100C80006F5F6187822F869F080E80E0811D11248F
:100C9000811110C01682662311F061506187319670
:100CA000EC17FD0731F7DF91CF911F910F91089558
:100CB00020E0D4CF81508683EECF4F925F927F9217
:100CC0008F929F92AF92BF92CF92DF92EF92FF925C
:100CD0000F931F93CF93DF932C01EB010E948702A8
:100CE000F20126893789621B730B6A307105B0F3F4
:100CF000F8948A819B81181619060CF0CDC1E88101
:100D0000F9816BB1862E689487F83BB13F773BB988
:100D1000DA848F812D2D281B822F2F834C85042E62
:100D2000000C550BAA81BB817889FF84E9887F5F1D
:100D3000F394E3949E819884B984AB841181C12C8F
:100D40006C2D0C2D2C2D2181112788942111280F19
:100D500008F42FEF8195889470FD120F17958894F1
:100D600071FD120F1795889472FD120F17958894D4
:100D700073FD120F1795889474FD120F17958894C0
:100D800075FD120F1795889476FD120F17958894AC
:100D900077FD120F17958894622F7111612F8D0DB9
:100DA000162F002C8BB800C017FF3BB92081662797
:100DB000889400C000C0002C3BB92111290F00C04D
:100DC000002C8BB800C016FF3BB908F42FEF9195AB
:100DD000889400C000C0002C3BB9F0FC620F00C03A
:100DE000002C8BB800C015FF3BB967958894F1FCC7
:100DF000620F00C000C0002C3BB96795889400C00A
:100E0000002C8BB800C014FF3BB9F2FC620F679551
:100E1000889400C000C0002C3BB9F3FC620F00C0F6
:100E2000002C8BB800C013FF3BB967958894F4FC85
:100E3000620F00C000C0002C3BB96795889400C0C9
:100E4000002C8BB800C012FF3BB9F5FC620F679510
:100E5000889400C000C0002C3BB9F6FC620F00C0B3
:100E6000002C8BB800C011FF3BB967958894F7FC44
:100E7000620F00C000C0002C3BB96795889400C089
:100E8000002C8BB800C010FF3BB9122FF110162FA9
:100E90009B0D00C000C0002C3BB900C000C0002C5E
:100EA0008BB800C017FF3BB922816627889400C029
:100EB00000C0002C3BB92111290D00C0002C8BB8BB
:100EC00000C016FF3BB908F42FEFE40FF51F00C078
:100ED00000C0002C3BB9E0FC620F00C0002C8BB8B6
:100EE00000C015FF3BB967958894E1FC620F00C014
:100EF00000C0002C3BB96795889400C0002C8BB8CB
:100F000000C014FF3BB9E2FC620F6795889400C0F3
:100F100000C0002C3BB9E3FC620F00C0002C8BB872
:100F200000C013FF3BB967958894E4FC620F00C0D2
:100F300000C0002C3BB96795889400C0002C8BB88A
:100F400000C012FF3BB9E5FC620F6795889400C0B2
:100F500000C0002C3BB9E6FC620F00C0002C8BB82F
:100F600000C011FF3BB967958894E7FC620F00C091
:100F700000C0002C3BB96795889400C0002C8BB84A
:100F800000C010FF3BB9122FE110162F919400C042
:100F900000C0002C3BB99A0C00C000C08BB800C048
:100FA00017FF3BB921816627889400C000C0002C40
:100FB0003BB92111280F00C0002C8BB800C016FFD0
:100FC0003BB908F42FEF8195889400C000C0002C35
:100FD0003BB970FD620F00C0002C8BB800C015FF3C
:100FE0003BB96795889471FD620F00C000C0002C6A
:100FF0003BB96795889400C0002C8BB800C014FFE3
:101000003BB972FD620F6795889400C000C0002C48
:101010003BB973FD620F00C0002C8BB800C013FFFA
:101020003BB96795889474FD620F00C000C0002C26
:101030003BB96795889400C0002C8BB800C012FFA4
:101040003BB975FD620F6795889400C000C0002C05
:101050003BB976FD620F00C0002C8BB800C011FFB9
:101060003BB96795889477FD620F00C000C0002CE3
:101070003BB96795889400C0002C8BB800C010FF66
:101080003BB9122F7111162F8D0D00C000C0002C1E
:101090003BB9119709F086CEEA81FB812EE130E061
:1010A000DF010E94BF1E30E020E0A901AAE9EA9F0B
:1010B0000E0E411DFA9F400D511D11244F0F511D61
:1010C000DC01CB01840F951FA11DB11D893E43E0BA
:1010D0009407A105B10508F434C0885E9340A109C6
:1010E000B10942E0B695A795979587954A95D1F7AE
:1010F00047E0849F080E211D949F200D311D11246F
:10110000290F311D6091F80170E0860F971F820F43
:10111000931F4091FA065091FB066091FC06709176
:10112000FD06292F3327420F531F611D711D409368
:10113000FA065093FB066093FC067093FD068093BD
:10114000F80178940E948702F201778B668BDF9119
:10115000CF911F910F91FF90EF90DF90CF90BF90B4
:10116000AF909F908F907F905F904F900895579A87
:1011700008956F927F928F92CF92DF92EF92FF92BB
:101180000F931F93CF93DF93CDB7DEB762970FB660
:10119000F894DEBF0FBECDBF8C016B017A01822FA8
:1011A000A801475F5F4FB8016A5F7F4F0E94CC057F
:1011B0003B01882ED8011C962C91C701F7FE04C074
:1011C000882799278E199F09DA82C9829C838B838D
:1011D0009E838D83688A798A8A8A213049F5CE0177
:1011E00001960E94200683E08D871F861E86F7FEEB
:1011F00002C08DEF8D87D801ED91FC910088F189B7
:10120000E02DBE016F5F7F4FC801099562960FB652
:10121000F894DEBF0FBECDBFDF91CF911F910F912C
:10122000FF90EF90DF90CF908F907F906F90089518
:101230001C861B861A86198618861F82D4CFCF92E9
:10124000DF92EF92FF920F931F93CF93DF93CDB76F
:10125000DEB762970FB6F894DEBF0FBECDBF8C012C
:101260006B017A01822FA801475F5F4FB8016A5F67
:101270007F4F0E94CC059B01482FD8011C968C9172
:10128000DA82C982FC82EB82FE82ED82288B398B66
:101290004A8B813009F5CE0101960E9420061D86F9
:1012A0001F861E86D801ED91FC910088F189E02D02
:1012B000BE016F5F7F4FC801099562960FB6F89423
:1012C000DEBF0FBECDBFDF91CF911F910F91FF9079
:1012D000EF90DF90CF9008951C861B861A861986A2
:1012E00018861F82DCCF089590910E06911103C0DD
:1012F000962F682F892F90910C06992319F097E06B
:10130000961B692F90910D06992319F097E0981B71
:10131000892F98E0899F9001112470E090910B062D
:10132000992339F080FF05C0C901861B970B0796EA
:101330000895C901860F971F08958091F705909130
:10134000F805892B31F481E090E09093F8058093C3
:10135000F7058091F7059091F805853F914030F0B1
:1013600084EF91E09093F8058093F7052091F705BD
:101370003091F80550E040E068EE73E080E090E0E6
:101380000E94971E223031054105510508F448C0DE
:1013900020931001309311014093120150931301D7
:1013A0006091F5057091F60590E080E020911001C4
:1013B0003091110140911201509113010E94971E2A
:1013C000C901892BD1F130930E0120930D01809139
:1013D0000D0190910E01893C910530F088EC90E070
:1013E00090930E0180930D011092850510928B054C
:1013F00010928A0510928605109287051092880532
:1014000010928905E5E6F2E0119211921192119283
:1014100085E0E538F807C1F78FEF80937A070895E4
:1014200082E090E0A0E0B0E0809310019093110181
:10143000A0931201B0931301B3CF81E090E0909399
:101440000E0180930D01C3CFCF9394E0899FF001EB
:101450001124E556FA4F628D738D848D958D209100
:101460001306309114064091150650911606E0912E
:10147000FE05C1E0EE2331F00E94D41F87FF06C0B5
:10148000C0E004C00E94E11C1816D4F38C2FCF9149
:10149000089590E080E00895FC0164870895FC01C0
:1014A000848590E00895FC01868597850895FC0168
:1014B0009081992321F0929F912D09F09F5F908355
:1014C000FB018081882321F0829F812D09F08F5FAD
:1014D0008083FA018081882321F0829F812D09F089
:1014E0008F5F808311240895FC0101900020E9F7AB
:1014F0003197AF01481B590BBC018AE297E00C946D
:10150000AA048F929F92AF92BF920F931F93CF9393
:10151000DF93CDB7DEB7A1970FB6F894DEBF0FBE4D
:10152000CDBF19A2423008F44AE08E010F5D1F4F73
:10153000842E912CB12CA12CA50194010E94971E00
:10154000E62FB901CA01EA30F4F4E05DD801EE9368
:101550008D01232B242B252B79F790E080E0109729
:1015600019F0CD010E94740AA1960FB6F894DEBF5F
:101570000FBECDBFDF91CF911F910F91BF90AF9064
:101580009F908F900895E95CE1CFCF93DF930E9405
:101590004605EC0187E691E00E94740A8C0F9D1FBE
:1015A000DF91CF910895682F70E090E080E04AE0ED
:1015B0000C94810A4F925F926F927F928F929F92CA
:1015C000AF92BF92CF92DF92EF92FF92CF936B01D7
:1015D0007C01AC019B010E94D91F882389F08AE617
:1015E00091E0CF91FF90EF90DF90CF90BF90AF90C0
:1015F0009F908F907F906F905F904F900C94740AA3
:1016000046015701E894B7F82FEF3FEF4FE75FE748
:10161000C501B4010E94D91F81110DC02FEF3FEF0A
:101620004FE75FE7C501B4010E94E11C18161CF4E6
:101630008EE691E0D6CF2FEF3FEF4FE75FE4C70193
:10164000B6010E94D41F18161CF482E791E0C9CF9E
:101650002FEF3FEF4FE75FECC701B6010E94E11C9F
:1016600087FDF3CF20E030E0A901C701B6010E9459
:10167000E11CB12CA12C87FF08C08DE20E9441051E
:101680005C01F7FAF094F7F8F0942EE632E143E0CB
:101690005AE3C701B6010E94C71E2B013C010E94FC
:1016A000A51F6B017C010E94E61C9B01AC01C301DC
:1016B000B2010E94C61E2B013C014AE0C701B601DF
:1016C0000E94810A7C01EA0CFB1C8EE20E9441050B
:1016D000E80EF91EC4E0C15019F120E030E040E20C
:1016E00051E4C301B2010E94471D2B013C010E943D
:1016F000A51F4B01B12CA12C4AE0C501B4010E94E9
:10170000810AE80EF91EC501B4010E94E61C9B0186
:10171000AC01C301B2010E94C61E2B013C01DBCF0C
:10172000C701CF91FF90EF90DF90CF90BF90AF9027
:101730009F908F907F906F905F904F900895CF9281
:10174000DF92EF92FF92CF93DF936C01092E000C92
:10175000EE08FF0897FF17C08DE20E944105EC01DB
:1017600066277727CB016C197D098E099F094AE00E
:101770000E94810A8C0F9D1FDF91CF91FF90EF9007
:10178000DF90CF9008954AE0C701B601DF91CF9175
:10179000FF90EF90DF90CF900C94810A0E94DE1FA3
:1017A000FF920F931F93CF93DF930BE915E0D0E0E7
:1017B000C0E0F801F1908F01CE010E94081EF816DA
:1017C00021F06F2DCE010E94101E2196C437D10545
:1017D00081F7DF91CF911F910F91FF9008958F9224
:1017E0009F92AF92BF92CF92DF92EF92FF920F93B0
:1017F0001F93CF93DF93CDB7DEB760970FB6F89402
:10180000DEBF0FBECDBF2BE9E22E25E0F22E10E0A9
:1018100000E0C8010E94081EF70181937F010F5F5D
:101820001F4F04371105A9F780919B05873A29F4CA
:1018300080919C05863009F407C187EA80939B0557
:1018400086E080939C0588E0E4E1F1E0DE011996F2
:1018500001900D928A95E1F788E0ECE1F1E0DE017C
:10186000119601900D928A95E1F74E01F9E08F0EE5
:10187000911C8DE9C82E85E0D82E8E010F5F1F4F79
:1018800095EBA92E95E0B92EF12CE12CF401819174
:101890004F01F60181936F01F80181918F01F601EB
:1018A00087831786B7010F2C000C880B990B0E94B9
:1018B000E81C2DEC3CEC4CEC5DE30E94471D23E35F
:1018C00033E343E35FE30E94C71EF5016193719325
:1018D000819391935F01FFEFEF1AFF0A88E0E8160A
:1018E000F104A1F68CE291E09093D6058093D505A2
:1018F00081E08093D7059FEF9093D8051092D9058A
:101900001092DA0528EB3BE03093DC052093DB05F1
:101910009093DD0540E050E060E87FE34093DE0512
:101920005093DF056093E0057093E1054DEC5CECAE
:101930006CEC7EE34093E2055093E3056093E4058D
:101940007093E50540E050E060E870E44093E60500
:101950005093E7056093E8057093E90541E75DE37F
:101960006AEC7FE34093EA055093EB056093EC0546
:101970007093ED0527E02093EE0520EE2093EF0510
:1019800028E32093F0054AE057ED63EA7CE34093B7
:10199000F1055093F2056093F3057093F40524EF7D
:1019A00031E03093F6052093F50522E330E03093E3
:1019B000F8052093F70541E75DE36AEA7FE340938A
:1019C000F9055093FA056093FB057093FC0528E236
:1019D0002093FD058093FE058093FF05109200067D
:1019E0009093010610920206109203064DEC5CECF7
:1019F0006CE47FE34093040650930506609306066B
:101A000070930706109208061092090690930A0632
:101A100080930B0610920C0610920D0610920E0683
:101A200060960FB6F894DEBF0FBECDBFDF91CF91A9
:101A30001F910F91FF90EF90DF90CF90BF90AF90EC
:101A40009F908F900C94D00B60960FB6F894DEBFE9
:101A50000FBECDBFDF91CF911F910F91FF90EF90FF
:101A6000DF90CF90BF90AF909F908F9008951F927E
:101A70000F920FB60F9211242F933F938F939F9342
:101A8000AF93BF938091FA069091FB06A091FC065C
:101A9000B091FD063091270623E0230F2D3758F52E
:101AA0000196A11DB11D209327068093FA069093FD
:101AB000FB06A093FC06B093FD068091280690914A
:101AC0002906A0912A06B0912B060196A11DB11DF1
:101AD0008093280690932906A0932A06B0932B069C
:101AE000BF91AF919F918F913F912F910F900FBE1A
:101AF0000F901F90189526E8230F0296A11DB11D87
:101B0000D2CF1F920F920FB60F9211248F939F93F3
:101B10008091E1009091E100937F9093E10083FF39
:101B20000FC01092E90091E09093EB001092EC004E
:101B300092E39093ED001092390698E09093F000B4
:101B400082FF22C093E09093E9009091F2009923E4
:101B500019F09AE39093E8009091FF01992341F0E6
:101B60009091FF0191509093FF01911101C05D98F8
:101B700090913806992341F09091380691509093B6
:101B80003806911101C0289884FF18C08091E200A6
:101B90008E7E81608093E2008091E1008F7E809351
:101BA000E100809100028E7E8061809300029F910F
:101BB0008F910F900FBE0F901F90189580FFF7CF59
:101BC0008091E2008E7E80618093E2008091E1004E
:101BD0008E7E8093E100809100028E7E8160E5CF51
:101BE0001F920F920FB60F921124CF92DF92EF92B5
:101BF000FF920F931F932F933F934F935F936F9396
:101C00007F938F939F93AF93BF93EF93FF93CF9364
:101C1000DF93CDB7DEB76C97DEBFCDBF1092E90082
:101C20008091E80083FF25C068E0CE0145960E94C0
:101C30009D0482EF8093E8008D8987FF39C09091E1
:101C4000E80090FFFCCF982F907609F034C19E8970
:101C50004F89588D2F89F88C911131C0803861F5EA
:101C6000809101028093F1001092F1008EEF809339
:101C7000E8006C960FB6F894DEBF0FBECDBFDF91C3
:101C8000CF91FF91EF91BF91AF919F918F917F91F4
:101C90006F915F914F913F912F911F910F91FF9005
:101CA000EF90DF90CF900F900FBE0F901F90189580
:101CB0009EEF9093E800C7CF1092F100D5CF9130FE
:101CC00059F48111D3CF4130510581F68091010241
:101CD0008D7F80930102CACF933049F48111C6CF22
:101CE0004130510519F6809101028260F2CF9530A2
:101CF00041F48091E80080FFFCCF20682093E3004E
:101D0000B5CF963009F0A9C00B8D1C8D22E0109242
:101D1000E9001092FD011092FC01F2122EC0109207
:101D2000FB011092FA010E946C041F8299E09983D2
:101D3000FA8291E09E8390EA98879AEF99872091A2
:101D4000FC013091FD01275F3F4F3C832B838D8346
:101D50001092E9001092FD011092FC011093FB011A
:101D60000093FA0149E050E0BE016F5F7F4F80E0D1
:101D70000E9446040E946C0479CF1093FB010093EB
:101D8000FA010E947302DC0112960D911C9101155B
:101D9000110509F451C1D801ED91FC910480F58140
:101DA000E02DBE016B5E7F4FC8010995009709F0D9
:101DB0003EC1F80100851185EACFF3E0FF120EC0A5
:101DC0008F89882309F440C0823061F440E86DE0D7
:101DD0008BE491E00E941304811148CF81E280934B
:101DE000EB0047CF813029F440E86BE08FE391E0CE
:101DF000F1CF833099F70E947302DC011296ED90C7
:101E0000FC908E010F5F1F4F6801E114F10479F01F
:101E1000D701ED91FC910680F781E02DB801C70153
:101E20000995080F111DF701E084F184EECFD80168
:101E30001C92F60101900020E9F73197BF016C195F
:101E40007D0940E0C601C6CF69E271E0FB01449123
:101E500050E080E80E94460409CF973009F4BECFD5
:101E6000983021F481E08093F10000CF993009F09F
:101E7000FDCE837009F0B2CFE5E2F1E081E031E020
:101E800096E32191222371F08093E9003093EB00D7
:101E9000DF0111972C912093EC009093ED008F5F60
:101EA000873079F78EE78093EA001092EA008F89F5
:101EB00080933906DBCE8B8D9C8D1092E9001092B9
:101EC000FD011092FC019093FB018093FA01898D32
:101ED000811192C08E899D89913A49F4813209F02D
:101EE0007DCF47E050E064E071E080E0B3CF913215
:101EF00009F074CF833269F48F89988DB0E0A0E047
:101F00008093000190930101A0930201B09303011B
:101F1000ADCE803269F48091E80082FFFCCF67E0AB
:101F200084E091E00E949D048BEF8093E8009ECEB8
:101F3000823209F09BCE8F8980930B01EEEFFFE791
:101F4000859194918B3F9C4D51F1E0E0F8E08091B8
:101F5000040190910501A0910601B0910701803B19
:101F60009440A105B105F1F480910B0180FD1AC0E8
:101F7000EE3F8AE0F80789F587E797E7918380834A
:101F8000809160008093FE0188E19BE00FB6F89499
:101F9000A895809360000FBE9093600067CEEEEF2F
:101FA000FAE0D5CF808191818737974709F05ECEDF
:101FB000A895809160008861809360008091FE0107
:101FC00080936000EE3F2AE0F20789F08091FE0ADC
:101FD0009091FF0A9183808349CE808191818737D8
:101FE000980751F29093FF0A8093FE0AC5CF109292
:101FF000FF0A1092FE0A3ACE0E947302DC0112968A
:102000000D911C910115110509F4E8CED801ED914F
:10201000FC910190F081E02DBE016B5E7F4FC80105
:102020000995811123CEF80100851185EBCF181693
:1020300019060CF41BCED2CEF1E0FF12BECE6DE23B
:1020400071E004CFEAE2F7E01382128288EE93E0B7
:10205000A0E0B0E084839583A683B78389E591E00F
:10206000918380838FEF9FEF95878487EAE7F7E07E
:10207000808312821182148613868FEF9FEFDC011A
:1020800087839087A187B287138214821582168274
:102090000895CF93DF93CDB7DEB7C655D1090FB6FC
:1020A000F894DEBF0FBECDBF789484B5826084BD46
:1020B00084B5816084BD85B5826085BD85B581604C
:1020C00085BD80916E00816080936E0010928100CA
:1020D0008091810082608093810080918100816085
:1020E0008093810080918000816080938000809146
:1020F0009100826080939100809191008160809333
:102100009100809190008160809390008091C10047
:1021100084608093C1008091C10082608093C1007F
:102120008091C10081608093C1008091C300816073
:102130008093C3008091C00082608093C000809132
:10214000C20081608093C20080917A008460809395
:102150007A0080917A00826080937A0080917A0080
:10216000816080937A0080917A00806880937A0001
:102170001092390610920102109200028091D7004D
:1021800081608093D70080EA8093D80089B5806110
:1021900089BD89B5826089BD09B400FEFDCF0E946A
:1021A000CA038091D8008F7C80618093D800809191
:1021B000E000807F8093E0008091E1008E7E80933C
:1021C000E1008DE08093E200559A209A5D9828986E
:1021D0008FEF9FEF909337078093360781E08093CE
:1021E0000C01E2EFF2E02491E3EDF2E08491882328
:1021F00099F090E0880F991FFC01E75AFE4FA591D6
:10220000B491FC01E554FD4F859194918FB7F894FA
:10221000EC91E22BEC938FBF81E00E94CC01809186
:102220001C02811157C010920702109206028FEF14
:1022300080930A0280930B0280930C0280930D021C
:1022400080930E0280930F0281E0809310028093AE
:102250001102109213021092120280E797E19093FC
:1022600015028093140283E090E09093170280930C
:10227000160210921902109218021092090210927E
:1022800008028091240790912507892B31F484E07E
:1022900092E09093250780932407E0910202F09149
:1022A0000302309721F084E092E09583848384E0F8
:1022B00092E0909303028093020210921B0210920C
:1022C0001A0283E491E0909305028093040281E076
:1022D00080931C02579A8AE396E0909307028093BA
:1022E000060280E490E090931302809312028091A2
:1022F0007D0790917E07A0917F07B0918007843C75
:1023000029E09207A105B10520F484EC99E0A0E052
:10231000B0E080937D0790937E07A0937F07B093F2
:1023200080070E94EF0B0E949D0919821A821B826E
:10233000CE0101960E94BE0180917A070E94AC02F4
:102340001E0131E4230E311CA1014E5F5F4F6296E6
:102350005FAF4EAF6297C101019667969FAF8EAF98
:1023600067978AE297E00E94B205892B09F489C435
:102370008AE297E00E947005E09164028A3019F0C9
:102380008D3009F072C4EE2361F3F0E0EC5DFD4F97
:10239000108266E771E084E292E00E943C1B8C01AF
:1023A000009751F068E771E00E94E31F892B39F430
:1023B00087E992E00E94C50A10926402D2CF6DE7CD
:1023C00071E0C8010E94E31F892B09F06FC18EECF8
:1023D00091E00E9446050DE915E065EBE62E65E00B
:1023E000F62ED12C8BEC91E00E9446058D2D0E949B
:1023F000D30A8DE30E944105D8018D918D010E9481
:10240000D30A8CE20E944105F80187810E94D30A19
:102410008CE20E944105D8011F968C910E94D30A3C
:102420008CE20E944105F701619171918191919136
:102430007F010E94DA0AD394F8E0DF12D3CF83EC55
:1024400091E00E9446056091D5057091D60590E017
:1024500080E04AE00E94810A8CE20E94410580915E
:10246000D7050E94D30A8CE20E9441058091D805CD
:102470000E94D30A8CE20E9441058091D9050E94F6
:10248000D30A8CE20E9441058091DA050E94D30AAA
:102490008CE20E9441056091DB057091DC0590E0C3
:1024A00080E04AE00E94810A89EB91E00E944605A3
:1024B0008091DD050E94D30A83EB91E00E944605DE
:1024C0006091DE057091DF058091E0059091E10556
:1024D0000E94DA0A8CE20E9441056091E205709147
:1024E000E3058091E4059091E5050E94DA0A8CE20B
:1024F0000E9441056091E6057091E7058091E8052D
:102500009091E9050E94DA0A8CE20E9441056091EF
:10251000EA057091EB058091EC059091ED050E9424
:10252000DA0A8CEA91E00E9446058091EE050E944D
:10253000D30A8CE20E9441058091EF050E94D30AE4
:102540008CE20E9441058091F0050E94D30A85EA41
:1025500091E00E9446056091F1057091F20580912D
:10256000F3059091F4050E94DA0A8EE991E00E9449
:1025700046056091F5057091F60590E080E04AE02F
:102580000E94810A86E991E00E9446056091F70564
:102590007091F80590E080E04AE00E94810A8EE8A0
:1025A00091E00E9446056091F9057091FA058091CD
:1025B000FB059091FC050E94DA0A85E891E00E94F3
:1025C00046058091FD050E94D30A8CE791E00E94A8
:1025D00046058091FE050E94D30A83E791E00E94A0
:1025E00046058091FF050E94D30A8CE20E944105B6
:1025F000809100060E94D30A8CE20E9441058091DE
:1026000001060E94D30A8CE20E94410580910206D5
:102610000E94D30A8DE691E00E9446058091030650
:102620000E94D30A8CE20E944105609104067091D9
:10263000050680910606909107060E94DA0A8CE250
:102640000E944105809108060E94D30A8CE20E94F4
:102650004105809109060E94D30A8CE20E9441053F
:1026600080910A060E94D30A87E691E00E944605FF
:1026700080910B060E94D30A8CE20E944105809152
:102680000C060E94D30A8CE20E94410580910D063F
:102690000E94D30A8CE20E94410580910E060E949E
:1026A000D30A87E691E00E94740A86CE61E871E061
:1026B000C8010E94E31F892B29F40E94D00B8FE8E8
:1026C00092E078CE66E871E0C8010E94E31F892B92
:1026D00039F40E94EF0B0E949D0987E892E06ACED0
:1026E0006BE871E0C8010E94E31F892B99F466E74B
:1026F00071E090E080E00E943C1BFC01892B21F0FE
:1027000091E08081813309F090E090930F018DE793
:1027100092E050CE67EA71E0C8010E94E31F892B66
:1027200079F566E771E090E080E00E943C1B0E9432
:102730001E1B8C0166E771E090E080E00E943C1B6C
:102740000E941E1BE82E66E771E090E080E00E9488
:102750003C1B0E941E1BF82E66E771E090E080E0B3
:102760000E943C1B0E941E1B0830110530F4F8012A
:10277000E556FA4FE282F286828B84E792E01ACE27
:1027800062E971E0C8010E94E31F892B11F566E739
:1027900071E090E080E00E943C1B0E941E1B8C01B7
:1027A00066E771E090E080E00E943C1B0E941A1BEB
:1027B0000830110558F4000F111F000F111FF80108
:1027C000E556FA4F628F738F848F958F87E692E07C
:1027D000F1CD6CE971E0C8010E94E31F892B39F546
:1027E00066E771E090E080E00E943C1B0E941E1BA7
:1027F0009093D6058093D50566E771E090E080E080
:102800000E943C1B0E941E1B8093D70566E771E067
:1028100090E080E00E943C1B009731F00E941E1B5C
:102820009093DC058093DB058EE592E0C3CD62EAF0
:1028300071E0C8010E94E31F892B09F566E771E08A
:1028400090E080E00E943C1B0E941E1B8093D805F4
:1028500066E771E090E080E00E943C1B0E941E1B36
:102860008093D90566E771E090E080E00E943C1B10
:102870000E941E1B8093DA0580E592E09BCD6DEAF5
:1028800071E0C8010E94E31F892B09F043C066E78D
:1028900071E090E080E00E943C1B0E941A1B609354
:1028A000DE057093DF058093E0059093E10566E710
:1028B00071E090E080E00E943C1B0E941A1B609334
:1028C000E2057093E3058093E4059093E50566E7E0
:1028D00071E090E080E00E943C1B0E941A1B609314
:1028E000E6057093E7058093E8059093E90566E7B0
:1028F00071E090E080E00E943C1B0E941A1B6093F4
:10290000EA057093EB058093EC059093ED0587E461
:1029100092E050CD63EB71E0C8010E94E31F892B68
:1029200009F566E771E090E080E00E943C1B0E94A0
:102930001E1B8093EE0566E771E090E080E00E9448
:102940003C1B0E941E1B8093EF0566E771E090E040
:1029500080E00E943C1B0E941E1B8093F0058AE3CE
:1029600092E028CD6DEB71E0C8010E94E31F892B36
:1029700099F466E771E090E080E00E943C1B0E94C1
:102980001A1B6093F1057093F2058093F305909301
:10299000F40580E392E00ECD64EC71E0C8010E9482
:1029A000E31F892B89F466E771E090E080E00E94E4
:1029B0003C1B0E941E1B9093F6058093F5050E9418
:1029C0009D0988E292E0F6CC69EC71E0C8010E94B2
:1029D000E31F892B89F466E771E090E080E00E94B4
:1029E0003C1B0E941E1B9093F8058093F7050E94E4
:1029F0009D098FE192E0DECC6FEC71E0C8010E948E
:102A0000E31F892B99F466E771E090E080E00E9473
:102A10003C1B0E941A1B6093F9057093FA05809382
:102A2000FB059093FC0586E192E0C4CC66ED71E075
:102A3000C8010E94E31F892B69F466E771E090E00A
:102A400080E00E943C1B0E941E1B8093FD058CE0D1
:102A500092E0B0CC65ED71E0C8010E94E31F892BC4
:102A600069F466E771E090E080E00E943C1B0E9400
:102A70001E1B8093DD0581E092E09CCC6DED71E042
:102A8000C8010E94E31F892B89F466E771E090E09A
:102A900080E00E943C1B0E941E1B21E0892B09F450
:102AA00020E02093FE0587EF91E084CC64EE71E096
:102AB000C8010E94E31F892B79F566E771E090E079
:102AC00080E00E943C1B0E941E1B21E0892B09F420
:102AD00020E02093FF0566E771E090E080E00E942F
:102AE0003C1B0E941E1B8093000666E771E090E08D
:102AF00080E00E943C1B0E941E1B8093010666E73B
:102B000071E090E080E00E943C1B0E941E1B8093BD
:102B100002068DEE91E04ECC6BEE71E0C8010E9492
:102B2000E31F892B09F03FC066E771E090E080E089
:102B30000E943C1B0E941E1B21E0892B09F420E00F
:102B40002093030666E771E090E080E00E943C1B62
:102B50000E941A1B60930406709305068093060674
:102B60009093070666E771E090E080E00E943C1BCE
:102B70000E941E1B8093080666E771E090E080E0EB
:102B80000E943C1B0E941E1B8093090666E771E0B1
:102B900090E080E00E943C1B0E941E1B80930A066E
:102BA00086EE91E007CC6FEE71E0C8010E94E31F52
:102BB000892BD9F566E771E090E080E00E943C1B2C
:102BC0000E941E1B21E0892B09F420E020930B06B4
:102BD00066E771E090E080E00E943C1B0E941E1BB3
:102BE00021E0892B09F420E020930C0666E771E0D0
:102BF00090E080E00E943C1B0E941E1B21E0892B7C
:102C000009F420E020930D0666E771E090E080E093
:102C10000E943C1B0E941E1B21E0892B09F420E02E
:102C200020930E068FED91E0C5CB63EF71E0C801F4
:102C30000E94E31F892B89F466E771E090E080E051
:102C40000E943C1B0E941E1B21E0892B09F420E0FE
:102C500020938C0587ED91E0ADCB82ED91E00E9451
:102C60004605C8010E94740A1CCDEF3308F079CBE9
:102C700091E09E0F90936402F0E0EC5DFD4F808345
:102C800070CB8FB7F8944090FA065090FB06609096
:102C9000FC067090FD068FBF80912306909124065C
:102CA000A0912506B0912606B301A201481B590B3D
:102CB0006A0B7B0B8091100190911101A091120180
:102CC000B0911301481759076A077B0708F41CC124
:102CD00040922306509224066092250670922606A2
:102CE000ECEAF2E0849120917B00982F990F990FE4
:102CF00090722F7D922B90937B0020910C01F0E439
:102D00002F9F900111248770822B80937C008091EB
:102D10007A00806480937A0080917A0086FDFCCFEF
:102D20006091780070917900072E000C880B990B48
:102D30000E94E81C20E030E040EA50E40E94471D79
:102D400020E030EC4FE754E40E94331F4B015C015C
:102D500080921F0690922006A0922106B092220631
:102D60002091DE053091DF054091E0055091E105AD
:102D700028962CAF3DAF4EAF5FAF28976091E60528
:102D80007091E7058091E8059091E9050E94C61EC3
:102D90002C966CAF7DAF8EAF9FAF2C97C090E205A5
:102DA000D090E305E090E405F090E5059F772DEBEA
:102DB00037E346E855E30E94E11C87FD36C0A701D2
:102DC00096016091EA057091EB058091EC05909178
:102DD000ED050E94C61E60966CAF7DAF8EAF9FAFB3
:102DE000609728962CAD3DAD4EAD5FAD2897C501DF
:102DF000B4010E94C61E9B01AC0160966CAD7DAD16
:102E00008EAD9FAD60970E94471D2C962CAD3DADB9
:102E10004EAD5FAD2C970E94331F9B01AC01C701E3
:102E2000B6010E94C71E6B017C01C0921B06D092A6
:102E30001C06E0921D06F0921E0620918A05309134
:102E40008B0580900D0190900E01A0908505B12C0E
:102E50008501000F111F000F111F2815390508F4F7
:102E6000CAC0F801EB59FD4F208131814281538165
:102E700060918605709187058091880590918905FC
:102E80000E94C61E6093860570938705809388050F
:102E900090938905F801EB59FD4FC082D182E282FF
:102EA000F3822091860530918705409188055091E5
:102EB0008905C701B6010E94C71E6B017C01C09243
:102EC0008605D0928705E0928805F0928905C501B4
:102ED0000196B4010E946F1E8093850560918A055A
:102EE00070918B0590E080E00E94E61C9B01AC0194
:102EF000C701B6010E94331F609313067093140636
:102F00008093150690931606C0901306D090140671
:102F1000E0901506F090160680911706909118061D
:102F2000A0911906B0911A06A3019201281B390B32
:102F30004A0B5B0BDA01C9018A3F9105A105B10576
:102F400098F14092170650921806609219067092F6
:102F50001A0620910F0630911006409111065091EB
:102F60001206C701B6010E94C61E28966CAF7DAF3F
:102F70008EAF9FAF28978090F1059090F205A090BA
:102F8000F305B090F405A50194010E94D41F181612
:102F9000CCF531E030939A05C0920F06D09210061E
:102FA000E0921106F09212066091F9057091FA050F
:102FB0008091FB059091FC052091FE0511E0A70191
:102FC0002223A1F196010E94D41F87FF34C0809173
:102FD000960590919705A0919805B091990584194F
:102FE0009509A609B70911E0181619061A061B0655
:102FF000B4F110E034C02F5F3F4F30938B05209326
:103000008A0548CFA5019401505828966CAD7DAD36
:103010008EAD9FAD28970E94E11C87FF04C08FEF03
:1030200080939A05B9CF10929A05B6CF96010E9467
:10303000E11C181664F28091DB059091DC05A30178
:103040009201280F391F411D511DDA01C9018093DA
:10305000960590939705A0939805B09399051093C2
:1030600095058091910590919205A0919305B0915D
:103070009405A3019201281B390B4A0B5B0BDA0163
:10308000C9014E97A105B10508F472C0409291059F
:1030900050929205609293057092940500918C0570
:1030A000002309F415C181E00E94CC0119821A8223
:1030B0001B82CE0101960E94BE0110E00FEF60E07E
:1030C000812F0E947409FC01EE0FFF1FE80FF91F0A
:1030D000E65CF94F0083118212821F5F183079F786
:1030E00000E01FEF602F80E00E947409FC01EE0FEA
:1030F000FF1FE80FF91FE65CF94F1082118212835F
:103100000F5F083079F760E080E00E947409FC01ED
:10311000EE0FFF1FE80FF91FE65CF94F10831183D4
:10312000128360E087E00E947409FC01EE0FFF1F2C
:10313000E80FF91FE65CF94F108280E88183128264
:103140000AE316E0A8014E5F5F4FB8016F5F7F4F43
:103150002091FD05C8010E94570A0D5F1F4F4AEFDD
:1031600056E04017510771F780917A070E94AC0230
:1031700080910F01882309F4A3C080918D0590915F
:103180008E05A0918F05B0919005A3019201281B97
:10319000390B4A0B5B0BDA01C90184369105A10595
:1031A000B10508F48DC040928D0550928E05609255
:1031B0008F057092900510E000E0F12C802F0E94A6
:1031C000240A882341F081E090E0002E01C0880F9E
:1031D0000A94EAF7F82A0F5F1F4F0830110571F7BC
:1031E000109103061123A9F011E0209113063091EC
:1031F00014064091150650911606609104067091D0
:10320000050680910606909107060E94D41F87FD4F
:1032100010E00091FF05002319F001E0F11000E03B
:1032200088EB92E00E94460560911F06709120068F
:1032300080912106909122060E94DA0A80E20E9483
:10324000410560911B0670911C0680911D069091AE
:103250001E060E94DA0A80E20E9441056091130670
:103260007091140680911506909116060E94DA0A54
:1032700080E20E94410580919A05082E000C990B6E
:103280000E949F0B80E20E9441058F2D0E94D30A6D
:1032900080E20E9441058091950590E00E949F0B7D
:1032A00080E20E944105802F0E94D30A80E20E94A2
:1032B0004105812F0E94D30A87E691E00E94740A9B
:1032C00040E050E0452B09F44CC80E94000049C87A
:1032D00019821A821B82CE0101960E94BE01CE0184
:1032E000019626969FAF8EAF26974C01F40111925E
:1032F0004F01E215F305D1F780910306882309F405
:10330000DBC0A701960160910406709105068091CB
:103310000606909107060E94D41F87FDCDC000913C
:103320000A06D0900906C090080683E0D4018C9369
:1033300084E011968C937401F701B1907F0163E0F2
:103340008B2D0E947409FC01EE0FFF1FE80FF91F7F
:10335000E65CF94FC082D182028321E030E02C0F7D
:103360003D1F820F931FE1E0DC01EC9364E08B2DA5
:103370000E947409FC01EE0FFF1FE80FF91FE65CC5
:10338000F94FC082D182028321E030E02C0F3D1F33
:10339000820F931FE1E0DC01EC9362962EAD3FAD0E
:1033A0006297E216F30641F601E0AE014F5F5F4F10
:1033B0006A01F12CE12CD6018D916D01882369F011
:1033C0002091FD05A701445C594FB701655C794F19
:1033D000C701865C994F0E94570AB3E0EB0EF11CBF
:1033E000E0ECEE16F10439F7112309F421C10111C3
:1033F0001FC18091D705813011F52091D5053091FD
:10340000D6052115310511F42CE231E04FB7F894BF
:103410006091FA067091FB068091FC069091FD0682
:103420004FBF50E040E00E94971EDA01C90180952D
:103430009095A095B095182F117020FD38C08091FF
:10344000DA059091D9052091D805D1012C931196D8
:103450009C93119712968C932091DD0562964EAD48
:103460005FAD629767966EAD7FAD6797C1010E94B1
:10347000570A2AE336E02696EEADFFAD26978191F6
:103480002696FFAFEEAF2697811108C0F10180812B
:103490009181A281F90180839183A2832D5F3F4FA7
:1034A00026964EAD5FAD26974815590521F781E068
:1034B00081270E94CC0158CE80919A05181634F0CD
:1034C000882309F4B2C08091EF0502C08091EE0517
:1034D0005BE9E52E55E0F52EA12CB12C482F50E0EC
:1034E00065965FAF4EAF65978B2D0E94240A8823A7
:1034F00009F447C0A394D7015296BC912996BFAF57
:103500002997F701F2852D96FFAF2D97D7011296D7
:10351000BC916396BFAF6397D12CC12C65968EADDD
:103520009FAD65970C2C02C0959587950A94E2F79C
:1035300080FF20C06C2D8B2D0E947409FC01EE0FC2
:10354000FF1FE80FF91FE65CF94F63962FAD6397F5
:1035500020832D963FAD2D97318329964FAD299726
:103560004283A1E0B0E0AC0FBD1F8A0F9B1F21E09A
:10357000FC0120833FEFC31AD30A48E0C416D104EC
:1035800069F6B3945FEFE51AF50A88E0B812ACCF9C
:103590008091FF05882309F408CFA11006CFD090B1
:1035A0000206C0900106B090000683E0D1018C9322
:1035B00084E011968C937101F701A1907F0163E083
:1035C0008A2D0E947409FC01EE0FFF1FE80FF91FFE
:1035D000E65CF94FB082C182D28221E030E02C0F4C
:1035E0003D1F820F931FE1E0DC01EC9364E08A2D24
:1035F0000E947409FC01EE0FFF1FE80FF91FE65C43
:10360000F94FB082C182D28221E030E02C0F3D1F01
:10361000820F931FE1E0DC01EC9362962EAD3FAD8B
:1036200062972E153F0541F6C0CE8091F00550CF30
:1036300081E03FCF662777270C94701BFC01882719
:103640009927E89421912032E9F3293010F02E30A7
:10365000C8F32B3241F02D3239F4689404C00E9433
:10366000681B820F911D219120532A30C0F31EF454
:10367000909581959F4F089547E857E00E94411B20
:103680000895FA01A191B081009719F41097E1F023
:10369000CD01DC01CD010D90002011F4C00113C05B
:1036A000FB012191222319F02015D9F7F3CFFB015B
:1036B0002191201519F41E92119606C02223C1F7FC
:1036C0000D900020A1F7D001FA01A193B0830895D5
:1036D0007AE0979F902D879F802D910D112408955A
:1036E000B0E0A0E0E6E7FBE10C942F1E5C017B015B
:1036F0006115710519F0DB018D939C9385010F5FB6
:103700001F4FF501D0818D2F90E00E94C01C6C01ED
:10371000892BB9F5DD32B9F50F5F1F4FD501119631
:10372000DC91C1E05801F1E0AF1AB10843E050E08C
:1037300064EB70E0C5010E94C91C892B69F5680122
:1037400082E0C80ED11C45E050E06FEA70E0C6018F
:103750000E94C91C892B21F4680197E0C90ED11C75
:10376000E114F10419F0D701CD92DC9260E070E031
:1037700080E89FEFC111FFC060E070E080E89FE744
:10378000FAC05801BBCFDB3229F485010E5F1F4F11
:10379000F501D181C0E0C6CF43E050E06CEA70E0B3
:1037A000C5010E94C91C892BE9F0F80110E000E076
:1037B00020E030E0A9015F01B0ED8B2E8D0E89E095
:1037C0008815C8F19C2E689491F88C2F8870C2FFE0
:1037D00016C0811102C00F5F1F4F3196D501DC91D9
:1037E000C92DE9CFE114F10429F00E5F1F4FF70155
:1037F0001183008360E070E080EC9FE7BCC0882309
:1038000011F001501109A5E0B0E00E941E1E9B01BD
:10381000AC01220F331F441F551F280D311D411DC0
:10382000511D283999E93907490799E15907A8F243
:10383000C6609C2ED2CFAEEF8A1206C0C3FD3CC03C
:103840009C2E689493F8C9CFDF7DD534A9F580818B
:103850008D3239F4C061DF011296818162E070E03F
:1038600006C0DF018B32C1F3119661E070E0805336
:103870005D01A61AB70A8A30F8F4E0E8CE16ECE04B
:10388000DE065CF4B601660F771F660F771FC60E63
:10389000D71ECC0CDD1CC80ED11C5D01FFEFAF1A8A
:1038A000BF0A8C9180538A30A8F1C4FF03C0D19421
:1038B000C194D1080C0D1D1DC1FF09C0E114F10414
:1038C00031F081E0A81AB108D701AD92BC92CA01CB
:1038D000B9010E94E61CC370C33009F490584B0133
:1038E0005C0120E030E0A9010E94E11C882309F47A
:1038F00040C0C3EED0E017FF05C011950195110936
:10390000CBECD0E06E01B8E1CB1AD10880E2E82E12
:10391000F12C0FC0D501B1CFFE0125913591459114
:1039200054910E191F09C501B4010E94471D4B0196
:103930005C01D501C4010E151F0574F72497F59499
:10394000E794CC16DD06A9F78A2F880F8B2F881FE6
:103950008F3F49F020E030E0A901C501B4010E9489
:10396000E11C811106C082E290E090938A07809367
:103970008907C501B401CDB7DEB7ECE00C944B1E4E
:1039800091110C94B41D803219F089508550C8F7FC
:103990000895FB01DC014150504088F08D91813445
:1039A0001CF08B350CF4805E659161341CF06B3536
:1039B0000CF4605E861B611171F3990B0895881BEE
:1039C000FCCF0E94231D08F481E00895E89409C00B
:1039D00097FB3EF490958095709561957F4F8F4F42
:1039E0009F4F9923A9F0F92F96E9BB279395F69558
:1039F000879577956795B795F111F8CFFAF4BB0FD6
:103A000011F460FF1BC06F5F7F4F8F4F9F4F16C039
:103A1000882311F096E911C0772321F09EE8872FC3
:103A2000762F05C0662371F096E8862F70E060E07F
:103A30002AF09A95660F771F881FDAF7880F9695F8
:103A4000879597F90895990F0008550FAA0BE0E89C
:103A5000FEEF16161706E807F907C0F01216130650
:103A6000E407F50798F0621B730B840B950B39F490
:103A70000A2661F0232B242B252B21F408950A26F6
:103A800009F4A140A6958FEF811D811D08950E9424
:103A90005A1D0C94CE1D0E94C01D38F00E94C71DF7
:103AA00020F0952311F00C94B71D0C94BD1D11242A
:103AB0000C94021E0E94DF1D70F3959FC1F3950FB9
:103AC00050E0551F629FF001729FBB27F00DB11DA2
:103AD000639FAA27F00DB11DAA1F649F6627B00D32
:103AE000A11D661F829F2227B00DA11D621F739F1B
:103AF000B00DA11D621F839FA00D611D221F749F29
:103B00003327A00D611D231F849F600D211D822F6F
:103B1000762F6A2F11249F5750409AF0F1F0882396
:103B20004AF0EE0FFF1FBB1F661F771F881F9150C3
:103B30005040A9F79E3F510580F00C94B71D0C949E
:103B4000021E5F3FE4F3983ED4F386957795679520
:103B5000B795F795E7959F5FC1F7FE2B880F911DED
:103B60009695879597F9089599278827089597F945
:103B70009F6780E870E060E008959FEF80EC089513
:103B800000240A941616170618060906089500243C
:103B90000A9412161306140605060895092E0394B6
:103BA000000C11F4882352F0BB0F40F4BF2B11F42A
:103BB00060FF04C06F5F7F4F8F4F9F4F089557FD89
:103BC0009058440F551F59F05F3F71F04795880F8B
:103BD00097FB991F61F09F3F79F087950895121622
:103BE00013061406551FF2CF4695F1DF08C01616CE
:103BF00017061806991FF1CF86957105610508947F
:103C00000895E894BB2766277727CB0197F9089595
:103C1000F999FECF92BD81BDF89A992780B5089594
:103C2000262FF999FECF1FBA92BD81BD20BD0FB6D8
:103C3000F894FA9AF99A0FBE019608950E94601EB0
:103C4000A59F900DB49F900DA49F800D911D1124F0
:103C500008952F923F924F925F926F927F928F9230
:103C60009F92AF92BF92CF92DF92EF92FF920F930B
:103C70001F93CF93DF93CDB7DEB7CA1BDB0B0FB615
:103C8000F894DEBF0FBECDBF09942A8839884888D2
:103C90005F846E847D848C849B84AA84B984C88468
:103CA000DF80EE80FD800C811B81AA81B981CE0F5F
:103CB000D11D0FB6F894DEBF0FBECDBFED01089544
:103CC000A29FB001B39FC001A39F700D811D11245D
:103CD000911DB29F700D811D1124911D0895AA1B85
:103CE000BB1B51E107C0AA1FBB1FA617B70710F0E7
:103CF000A61BB70B881F991F5A95A9F78095909519
:103D0000BC01CD01089597FB072E16F4009407D04F
:103D100077FD09D00E946F1E07FC05D03EF49095F8
:103D200081959F4F0895709561957F4F0895A1E209
:103D30001A2EAA1BBB1BFD010DC0AA1FBB1FEE1F25
:103D4000FF1FA217B307E407F50720F0A21BB30B70
:103D5000E40BF50B661F771F881F991F1A9469F7EC
:103D600060957095809590959B01AC01BD01CF0148
:103D70000895EE0FFF1F0590F491E02D09940E9425
:103D8000601EB7FF0895821B930B08955058BB2700
:103D9000AA270E94DE1E0C94CE1D0E94C01D38F082
:103DA0000E94C71D20F039F49F3F19F426F40C94AB
:103DB000BD1D0EF4E095E7FB0C94B71DE92F0E94A2
:103DC000DF1D58F3BA17620773078407950720F0C1
:103DD00079F4A6F50C94011E0EF4E0950B2EBA2F83
:103DE000A02D0B01B90190010C01CA01A001112401
:103DF000FF27591B99F0593F50F4503E68F11A16AD
:103E0000F040A22F232F342F4427585FF3CF46953D
:103E100037952795A795F0405395C9F77EF41F165F
:103E2000BA0B620B730B840BBAF09150A1F0FF0F29
:103E3000BB1F661F771F881FC2F70EC0BA0F621F15
:103E4000731F841F48F4879577956795B795F79505
:103E50009E3F08F0B0CF9395880F08F09927EE0F9A
:103E60009795879508950E94471F0C94CE1D0E9438
:103E7000C71D58F00E94C01D40F029F45F3F29F093
:103E80000C94B71D51110C94021E0C94BD1D0E9480
:103E9000DF1D68F39923B1F3552391F3951B550B5F
:103EA000BB27AA2762177307840738F09F5F5F4F0D
:103EB000220F331F441FAA1FA9F335D00E2E3AF04C
:103EC000E0E832D091505040E695001CCAF72BD064
:103ED000FE2F29D0660F771F881FBB1F26173707B5
:103EE0004807AB07B0E809F0BB0B802DBF01FF27E7
:103EF00093585F4F3AF09E3F510578F00C94B71DF0
:103F00000C94021E5F3FE4F3983ED4F386957795B8
:103F10006795B795F7959F5FC9F7880F911D96959F
:103F2000879597F90895E1E0660F771F881FBB1FFB
:103F3000621773078407BA0720F0621B730B840BA8
:103F4000BA0BEE1F88F7E09508950E94E71D88F0F0
:103F50009F5798F0B92F9927B751B0F0E1F0660F4D
:103F6000771F881F991F1AF0BA95C9F714C0B1308E
:103F700091F00E94011EB1E008950C94011E672F7C
:103F8000782F8827B85F39F0B93FCCF386957795BD
:103F90006795B395D9F73EF49095809570956195A6
:103FA0007F4F8F4F9F4F08950E94231D08F48FEF7E
:103FB00008950E94231D880B990B089581E090E0DD
:103FC000F8940C94EC1FFB01DC018D910190801999
:0C3FD0000110D9F3990B0895F894FFCF6D
:103FDC00FFFFFFFF00E100000000000001010001F5
:103FEC0064000000000000FFFFFFFFFFFFFFFFFF6A
:103FFC00C878280000C1808100000000000000CEBD
:10400C000BCE0BCE0B530A1D064F0A4C0A490A0065
:10401C000000001F09B908B708530A1D064F0A4CC7
:10402C000AE2035D06000000002B05AA046C056182
:10403C0005B20570058E050D0A006E616E00696E85
:10404C0066006F766600200050494E470047455485
:10405C000053415645004C4F414400535452454186
:10406C004D00434F4C4C414D42444100414C455254
:10407C005400414C455254434F4C4F520043414C19
:10408C004942005452454E44524F575300535441E9
:10409C00424C45004D415647005352415445004156
:1040AC004C41524D00414252494748540044494505
:1040BC0053454C0043454E544552004C4F57004D10
:0840CC0041500054455354001B
:00000001FF
