:100000000C9429010C9451010C9451010C94510150
:100010000C9451010C9451010C9451010C94510118
:100020000C9451010C9451010C94D50B0C94440C7C
:100030000C9451010C9451010C9451010C945101F8
:100040000C9451010C9451010C9451010C945101E8
:100050000C9451010C9451010C9451010C948B0B94
:100060000C9451010C9451010C9451010C945101C8
:100070000C9451010C9451010C9451010C945101B8
:100080000C9451010C9451010C9451010C945101A8
:100090000C9451010C9451010C9451010C94510198
:1000A0000C9451010C9451010C9451014E414E4954
:1000B0004E495459494E46CDCCCC3D0AD7233C1726
:1000C000B7D13877CC2B329595E6241FB14F0A0073
:1000D0000020410000C84200401C4620BCBE4CCA63
:1000E0001B0E5AAEC59D74080B00020202000009E7
:1000F0000400000102020000052400100105240193
:1001000001010424020605240600010705810310ED
:10011000004009040100020A000000070502024035
:1001200000000705830240000004030904120100D7
:1001300002EF020140412337800001010203014127
:10014000726475696E6F204C4C430041726475692E
:100150006E6F204D6963726F0020425249474854C8
:100160003D0020414C41524D3D00205352415445E9
:100170003D00204D4156473D0020535441423D0033
:1001800020524F57533D002043414C3D0020414CED
:100190004552543D002043004346470045525220FB
:1001A000004F4B20425249474854004F4B20414C8E
:1001B00041524D004F4B205352415445004F4B206C
:1001C0004D415647004F4B20535441424C45004F40
:1001D0004B205452454E44524F5753004F4B2043EF
:1001E000414C4942004F4B20414C455254434F4CE7
:1001F0004F52004F4B20414C455254004F4B20432F
:100200004F4C4C414D424441004F4B20434F4C4FCB
:1002100052004F4B2053545245414D004F4B204C00
:100220004F4144004F4B205341564500504F4E47DD
:10023000205061696E656C4C616D6264612076313D
:1002400000070605040100080A0B0C0D09442000F4
:10025000760E11241FBECFEFDAE0DEBFCDBF27E060
:10026000ACEDB1E001C01D92A535B207E1F711E098
:10027000A0E0B1E0E8E4F6E302C005900D92AC3DE9
:10028000B107D9F711E0C9E2D1E004C02197FE011E
:100290000E94F619C832D107C9F70E949D0E0C942E
:1002A000221B0C940000FC018091C306882311F1ED
:1002B0003FB7F89482E08093E9002091F200822F0A
:1002C00090E01816190614F481E090E0882339F0C4
:1002D000289A44E64093C2064091F10040832223CD
:1002E00039F02091F200211103C02BE62093E800A1
:1002F0003FBF08958FEF9FEF08952FB7F89483E0E5
:100300008093E9009091E800892F807295FF04C0E6
:100310009091F20080E4891B2FBF08958091BA0666
:1003200081110DC082E08093B60684E08093B70609
:100330001092B9061092B80681E08093BA0686EB57
:1003400096E008953FB7F8948091B2069091B30675
:10035000A091B406B091B50626B5A89B05C02F3F65
:1003600019F00196A11DB11D3FBFBA2FA92F982FDB
:100370008827BC01CD01620F711D811D911D42E0D6
:10038000660F771F881F991F4A95D1F70895AF927E
:10039000BF92DF92EF92FF920F931F93CF93DF9361
:1003A000D82E8091470790914807A0914907B091B6
:1003B0004A07892B8A2B8B2BD9F00E94A20100912E
:1003C000F0061091F1062091F2063091F306601BC1
:1003D000710B820B930B00914707109148072091F6
:1003E000490730914A076017710782079307C8F2DF
:1003F0000E94A2016093F0067093F1068093F206CA
:100400009093F306E0914F07F0915007309759F021
:1004100040914B0750914C0760914D0770914E07EA
:100420008D2D0995D82EC091EE06D091EF068EEC59
:10043000E82E86E0F82E8701209749F186E00E3EEF
:10044000180729F18D858823F1F0E881F981A284CC
:10045000B3840680F781E02DCE010995BC01CE0161
:10046000F5010995F801918380838091450790916A
:1004700046078436910508F41C860C80DD81C02D6A
:100480000E5F1F4FD9CFF80111821082EECFC091BD
:10049000EE06D091EF0600E110E02097A9F08D85DF
:1004A000882361F04E855F856A817B81E881F981CF
:1004B0000280F381E02D2D2DCE0109950C80DD8188
:1004C000C02D0150110949F7C091EE06D091EF06F9
:1004D0002097C9F0FEEEEF16F6E0FF06A1F08D853D
:1004E000882351F0F70160817181E881F9810484EA
:1004F000F585E02DCE0109950C80DD81C02DF2E05F
:10050000EF0EF11CE5CF8091CC069091CD069C01B9
:100510002F5F3F4F3093CD062093CC0649970CF4C4
:100520004AC08FB7F8942091C4063091C506409117
:10053000C6065091C7068FBF8091C8069091C90624
:10054000A091CA06B091CB06281B390B4A0B5B0B56
:1005500021F421E030E040E050E0E091CC06F09161
:10056000CD0688EE93E0E89FB001E99F700DF89FFB
:10057000700D1124072E000C880B990B0E94CD19C9
:1005800030934607209345071092CD061092CC0673
:100590002FB7F8948091C4069091C506A091C60625
:1005A000B091C7062FBF8093C8069093C906A09349
:1005B000CA06B093CB06DF91CF911F910F91FF90A8
:1005C000EF90DF90BF90AF900895CF92DF92EF92BF
:1005D000FF920E94A2016B017C010E94A2016C1992
:1005E0007D098E099F09683E734081059105A8F336
:1005F000FF90EF90DF90CF90089580E991E008950B
:100600004091E0015091E1012091DE013091DF0144
:1006100042175307B4F49091E8009570E1F390917C
:10062000E80092FD19C08093F1008091E001909163
:10063000E10101968F739927892B19F48EEF80932E
:10064000E8008091E0019091E10101969093E10131
:100650008093E00181E0089580E00895EF92FF9299
:100660000F931F93CF93DF93F82E192FE62E042FAD
:1006700081E0860F880F0E94000383E00E94000340
:10068000CF2DD12FEC0EFD2EF11CCE15DF05B9F0CC
:1006900007FF13C0FE0184910E940003182F80E021
:1006A0000E940003812321968111EFCFDF91CF912A
:1006B0001F910F91FF90EF9008958881EDCF81E019
:1006C000F5CFDF92EF92FF920F931F93CF93DF93BB
:1006D000D82E8A01EB017B01E40EF51ECE15DF0555
:1006E00059F0D7FE12C0FE0184910E9400032196AA
:1006F0008111F4CF0FEF1FEFC801DF91CF911F9150
:100700000F91FF90EF90DF9008958881EECF0F93C7
:100710001F93CF93DF931F92CDB7DEB782E089831B
:1007200042E450E067EE70E080E80E9461030E94BE
:100730008E01DC0112960D911C910115110589F0B5
:10074000D801ED91FC910280F381E02DBE016F5F35
:100750007F4FC801099597FD04C0F80100851185F8
:10076000ECCF89810F90DF91CF911F910F91089568
:10077000615030F02091F100FC0120830196F8CF08
:10078000289A84E68093C20608958F929F92AF9232
:10079000BF92CF92DF92EF92FF920F931F93CF936E
:1007A000DF936C017B018A0180910B01882309F49E
:1007B00058C08091C306882309F453C08091E40196
:1007C00080FF05C08091E00082608093E000E80136
:1007D000B12C8AEFA82E93E0892E2AE3922E20973F
:1007E00011F4BB20B9F10E947D01811106C0AA94C9
:1007F000AA20B9F10E94E502F2CF8C171D0611F074
:100800000CF08C2F9FB7F8948092E9002091E800BB
:1008100025FD02C09FBFE3CF282F30E0C21BD30BC2
:10082000F701815020F041914093F100FACFE20EA0
:10083000F31EBB2021F09092E800B12CEBCF809109
:10084000E80085FDE7CF9092E800BB24B3942097A1
:1008500009F3F3CF5D9A84E68093E3011016110645
:100860003CF081E090E0F6019383828310E000E0A9
:10087000C801DF91CF911F910F91FF90EF90DF9012
:10088000CF90BF90AF909F908F900895CF93DF93BC
:100890001F92CDB7DEB76983DC01ED91FC91028038
:1008A000F381E02D41E050E0BE016F5F7F4F09957D
:1008B0000F90DF91CF9108950F931F93CF93DF9304
:1008C0008C01D0E0C0E0F801EC0FFD1F64916623BD
:1008D00041F084EF96E00E944604892B11F02196A6
:1008E000F2CFCE01DF91CF911F910F910895682F24
:1008F00084EF96E00C94460483E08093E9008091B5
:10090000F200882319F08AE38093E80008950E949A
:100910007D0190E00895CF93DF931F92CDB7DEB7AE
:10092000FC018485958597FD08C02FEF3FEF358743
:1009300024870F90DF91CF910895CE0101960E94F8
:100940005301019719F4898190E0F3CF8FEF9FEF66
:10095000F0CF0F931F93CF93DF931F92CDB7DEB7E6
:100960008C01FC018485958597FF0BC0CE01019613
:100970000E945301019771F4898190E0F8019587F5
:100980008487F801848595850F90DF91CF911F9121
:100990000F9108958FEF9FEFF1CFFC01848595852E
:1009A00097FD0BC09FB7F89482E08093E900809197
:1009B000F2009FBF90E0019608959FB7F89482E0FF
:1009C0008093E9008091F2009FBF90E00895AF927C
:1009D000BF92CF92DF92EF92FF920F931F93CF932C
:1009E000DF9300D01F92CDB7DEB75A0119821A8269
:1009F0001B82882361F18B01E1E0F0E0E82EF12C0D
:100A0000D8012D918D012223F1F06F01B1E0CB1AB5
:100A1000D108D501AC0DBD1D4C914423A1F030E0AF
:100A20002F5F3F4FD7010E949619A42FB0E0119677
:100A30009B01AC010E945419A1E0B0E0AC0FBD1FB6
:100A4000AC0DBD1D8C933196E430F105C9F669817A
:100A50007A818B810F900F900F90DF91CF911F9132
:100A60000F91FF90EF90DF90CF90BF90AF900895DF
:100A700081E090E008950F931F93CF93DF9320912F
:100A8000DD012F5F322F37703093DD0120FF2BC047
:100A900020E831FD2064347009F02062205FFC0101
:100AA000EC01239600E011E06785662329F070E0F1
:100AB000C8010E94B9196F5F6187822F869F080E57
:100AC00080E0811D1124811110C01682662311F06F
:100AD000615061873196EC17FD0731F7DF91CF91B7
:100AE0001F910F91089520E0D4CF81508683EECFDF
:100AF0004F925F927F928F929F92AF92BF92CF92CE
:100B0000DF92EF92FF920F931F93CF93DF932C010D
:100B1000EB010E94A201F20126893789621B730B47
:100B20006A307105B0F3F8948A819B811816190612
:100B30000CF0CDC1E881F9816BB1862E689487F8FD
:100B40003BB13F773BB9DA848F812D2D281B822F53
:100B50002F834C85042E000C550BAA81BB8178890C
:100B6000FF84E9887F5FF394E3949E819884B9843D
:100B7000AB841181C12C6C2D0C2D2C2D21811127C2
:100B800088942111280F08F42FEF8195889470FD27
:100B9000120F1795889471FD120F1795889472FDA6
:100BA000120F1795889473FD120F1795889474FD92
:100BB000120F1795889475FD120F1795889476FD7E
:100BC000120F1795889477FD120F17958894622F4E
:100BD0007111612F8D0D162F002C8BB800C017FFDF
:100BE0003BB920816627889400C000C0002C3BB927
:100BF0002111290F00C0002C8BB800C016FF3BB993
:100C000008F42FEF9195889400C000C0002C3BB9E8
:100C1000F0FC620F00C0002C8BB800C015FF3BB980
:100C200067958894F1FC620F00C000C0002C3BB9AE
:100C30006795889400C0002C8BB800C014FF3BB9A6
:100C4000F2FC620F6795889400C000C0002C3BB98D
:100C5000F3FC620F00C0002C8BB800C013FF3BB93F
:100C600067958894F4FC620F00C000C0002C3BB96B
:100C70006795889400C0002C8BB800C012FF3BB968
:100C8000F5FC620F6795889400C000C0002C3BB94A
:100C9000F6FC620F00C0002C8BB800C011FF3BB9FE
:100CA00067958894F7FC620F00C000C0002C3BB928
:100CB0006795889400C0002C8BB800C010FF3BB92A
:100CC000122FF110162F9B0D00C000C0002C3BB955
:100CD00000C000C0002C8BB800C017FF3BB92281B8
:100CE0006627889400C000C0002C3BB92111290D53
:100CF00000C0002C8BB800C016FF3BB908F42FEFE2
:100D0000E40FF51F00C000C0002C3BB9E0FC620FEF
:100D100000C0002C8BB800C015FF3BB967958894C4
:100D2000E1FC620F00C000C0002C3BB967958894BD
:100D300000C0002C8BB800C014FF3BB9E2FC620F6E
:100D40006795889400C000C0002C3BB9E3FC620F9B
:100D500000C0002C8BB800C013FF3BB96795889486
:100D6000E4FC620F00C000C0002C3BB9679588947A
:100D700000C0002C8BB800C012FF3BB9E5FC620F2D
:100D80006795889400C000C0002C3BB9E6FC620F58
:100D900000C0002C8BB800C011FF3BB96795889448
:100DA000E7FC620F00C000C0002C3BB96795889437
:100DB00000C0002C8BB800C010FF3BB9122FE1100F
:100DC000162F919400C000C0002C3BB99A0C00C0B3
:100DD00000C08BB800C017FF3BB9218166278894FB
:100DE00000C000C0002C3BB92111280F00C0002C0E
:100DF0008BB800C016FF3BB908F42FEF819588949B
:100E000000C000C0002C3BB970FD620F00C0002C78
:100E10008BB800C015FF3BB96795889471FD620FD0
:100E200000C000C0002C3BB96795889400C0002C1E
:100E30008BB800C014FF3BB972FD620F67958894B0
:100E400000C000C0002C3BB973FD620F00C0002C35
:100E50008BB800C013FF3BB96795889474FD620F8F
:100E600000C000C0002C3BB96795889400C0002CDE
:100E70008BB800C012FF3BB975FD620F679588946F
:100E800000C000C0002C3BB976FD620F00C0002CF2
:100E90008BB800C011FF3BB96795889477FD620F4E
:100EA00000C000C0002C3BB96795889400C0002C9E
:100EB0008BB800C010FF3BB9122F7111162F8D0D8A
:100EC00000C000C0002C3BB9119709F086CEEA8122
:100ED000FB812EE130E0DF010E94EF1930E020E0DD
:100EE000A901AAE9EA9F0E0E411DFA9F400D511D6E
:100EF00011244F0F511DDC01CB01840F951FA11D43
:100F0000B11D893E43E09407A105B10508F434C042
:100F1000885E9340A109B10942E0B695A7959795DF
:100F200087954A95D1F747E0849F080E211D949F2D
:100F3000200D311D1124290F311D6091DC0170E05D
:100F4000860F971F820F931F4091C4065091C506CC
:100F50006091C6067091C706292F3327420F531F91
:100F6000611D711D4093C4065093C5066093C6066B
:100F70007093C7068093DC0178940E94A201F2016D
:100F8000778B668BDF91CF911F910F91FF90EF9040
:100F9000DF90CF90BF90AF909F908F907F905F90A9
:100FA0004F900895579A08956F927F928F92CF92A3
:100FB000DF92EF92FF920F931F93CF93DF93CDB702
:100FC000DEB762970FB6F894DEBF0FBECDBF8C01BF
:100FD0006B017A01822FA801475F5F4FB8016A5FFA
:100FE0007F4F0E94E7043B01882ED8011C962C916C
:100FF000C701F7FE04C0882799278E199F09DA8256
:10100000C9829C838B839E838D83688A798A8A8A2E
:10101000213049F5CE0101960E943B0583E08D8782
:101020001F861E86F7FE02C08DEF8D87D801ED91D9
:10103000FC910088F189E02DBE016F5F7F4FC801F0
:10104000099562960FB6F894DEBF0FBECDBFDF9153
:10105000CF911F910F91FF90EF90DF90CF908F90E5
:101060007F906F9008951C861B861A8619861886B5
:101070001F82D4CFCF92DF92EF92FF920F931F93F4
:10108000CF93DF93CDB7DEB762970FB6F894DEBF8C
:101090000FBECDBF8C016B017A01822FA801475F83
:1010A0005F4FB8016A5F7F4F0E94E7049B01482FA2
:1010B000D8011C968C91DA82C982FC82EB82FE8276
:1010C000ED82288B398B4A8B813009F5CE01019650
:1010D0000E943B051D861F861E86D801ED91FC915E
:1010E0000088F189E02DBE016F5F7F4FC80109952F
:1010F00062960FB6F894DEBF0FBECDBFDF91CF91E1
:101100001F910F91FF90EF90DF90CF9008951C8674
:101110001B861A86198618861F82DCCF0895809157
:10112000920690919306892B31F481E090E09093A0
:101130009306809392068091920690919306853F44
:10114000914030F084EF91E0909393068093920663
:10115000209192063091930650E040E068EE73E0F3
:1011600080E090E00E94CD19223031054105510503
:1011700008F449C0209310013093110140931201EB
:1011800050931301609190067091910690E080E079
:1011900020911001309111014091120150911301E1
:1011A0000E94CD19C901892BD9F130930E012093EA
:1011B0000D0180910D0190910E01893C910530F057
:1011C00088EC90E090930E0180930D0110926905D8
:1011D00010926F0510926E0510926A0510926B05C1
:1011E00010926C0510926D05E9E4F2E011921192F3
:1011F0001192119285E0E936F807C1F780919806BF
:1012000080934407089582E090E0A0E0B0E08093EE
:10121000100190931101A0931201B0931301B2CF6A
:1012200081E090E090930E0180930D01C2CF90E099
:1012300080E00895FC0164870895FC01848590E0B6
:101240000895FC01868597850895FC010190002092
:10125000E9F73197AF01481B590BBC0184EF96E0C9
:101260000C94C5038F929F92AF92BF920F931F93DE
:10127000CF93DF93CDB7DEB7A1970FB6F894DEBF5B
:101280000FBECDBF19A2423008F44AE08E010F5DB7
:101290001F4F842E912CB12CA12CA50194010E94EA
:1012A000CD19E62FB901CA01EA30F4F4E05DD801A6
:1012B000EE938D01232B242B252B79F790E080E0F2
:1012C000109719F0CD010E942509A1960FB6F89448
:1012D000DEBF0FBECDBFDF91CF911F910F91BF90A9
:1012E000AF909F908F900895E95CE1CFCF93DF930B
:1012F0000E945C04EC0187E691E00E9425098C0FB6
:101300009D1FDF91CF910895682F70E090E080E0FD
:101310004AE00C9432094F925F926F927F928F92C3
:101320009F92AF92BF92CF92DF92EF92FF92CF93B4
:101330006B017C01AC019B010E940F1B882389F08B
:101340008AE691E0CF91FF90EF90DF90CF90BF9031
:10135000AF909F908F907F906F905F904F900C9484
:10136000250946015701E894B7F82FEF3FEF4FE703
:101370005FE7C501B4010E940F1B81110DC02FEF63
:101380003FEF4FE75FE7C501B4010E941718181639
:101390001CF48EE691E0D6CF2FEF3FEF4FE75FE4EE
:1013A000C701B6010E940A1B18161CF482E791E0DF
:1013B000C9CF2FEF3FEF4FE75FECC701B6010E94A7
:1013C000171887FDF3CF20E030E0A901C701B6016F
:1013D0000E941718B12CA12C87FF08C08DE20E9433
:1013E00077045C01F7FAF094F7F8F0942EE632E116
:1013F00043E05AE3C701B6010E94FD192B013C01ED
:101400000E94DB1A6B017C010E941C189B01AC013D
:10141000C301B2010E94FC192B013C014AE0C70143
:10142000B6010E9432097C01EA0CFB1C8EE20E948C
:101430007704E80EF91EC4E0C15019F120E030E055
:1014400040E251E4C301B2010E947D182B013C012E
:101450000E94DB1A4B01B12CA12C4AE0C501B4015A
:101460000E943209E80EF91EC501B4010E941C1841
:101470009B01AC01C301B2010E94FC192B013C018C
:10148000DBCFC701CF91FF90EF90DF90CF90BF905F
:10149000AF909F908F907F906F905F904F90089546
:1014A0000E94141BFF920F931F93CF93DF9309E3C6
:1014B00016E0D0E0C0E0F801F1908F01CE010E946B
:1014C0003E19F81621F06F2DCE010E944619219683
:1014D000C036D10581F7DF91CF911F910F91FF9019
:1014E00008958F929F92AF92BF92CF92DF92EF9228
:1014F000FF920F931F93CF93DF93CDB7DEB7609723
:101500000FB6F894DEBF0FBECDBF29E3E22E26E072
:10151000F22E10E000E0C8010E943E19F70181930D
:101520007F010F5F1F4F00361105A9F78091390623
:10153000873A29F480913A06813009F4D9C087EAC4
:101540008093390681E080933A0688E0E4E1F1E097
:10155000DE01199601900D928A95E1F788E0ECE1A1
:10156000F1E0DE01119601900D928A95E1F74E01AE
:10157000F9E08F0E911C8BE3C82E86E0D82E8E01E9
:101580000F5F1F4F93E5A92E96E0B92EF12CE12CA9
:10159000F40181914F01F60181936F01F80181916E
:1015A0008F01F60187831786B7010F2C000C880B7B
:1015B000990B0E941E182DEC3CEC4CEC5DE30E9454
:1015C0007D1823E333E343E35FE30E94FD19F50154
:1015D00061937193819391935F01FFEFEF1AFF0A7B
:1015E00088E0E816F104A1F68CE291E0909374068D
:1015F0008093730681E0809375068FEF8093760663
:10160000109277061092780680E090E0A0E8BFE3A1
:101610008093790690937A06A0937B06B0937C061C
:101620008DEC9CECACECBEE380937D0690937E0643
:10163000A0937F06B093800680E090E0A0E8B0E43D
:101640008093810690938206A0938306B0938406CC
:1016500081E79DE3AAECBFE380938506909386061D
:10166000A0938706B093880687E08093890680EE72
:1016700080938A0688E380938B068AE097EDA3EA3D
:10168000BCE380938C0690938D06A0938E06B09356
:101690008F0684EF91E0909391068093900682E309
:1016A00090E0909393068093920683E393E3A3EBF9
:1016B000BFE38093940690939506A0939606B0930B
:1016C000970688E28093980660960FB6F894DEBF7E
:1016D0000FBECDBFDF91CF911F910F91FF90EF9083
:1016E000DF90CF90BF90AF909F908F900C94520A54
:1016F00060960FB6F894DEBF0FBECDBFDF91CF91DD
:101700001F910F91FF90EF90DF90CF90BF90AF901F
:101710009F908F9008951F920F920FB60F921124F1
:101720002F933F938F939F93AF93BF938091C40662
:101730009091C506A091C606B091C7063091B1063A
:1017400023E0230F2D3758F50196A11DB11D2093DD
:10175000B1068093C4069093C506A093C606B093C5
:10176000C7068091B2069091B306A091B406B091DD
:10177000B5060196A11DB11D8093B2069093B306E4
:10178000A093B406B093B506BF91AF919F918F918E
:101790003F912F910F900FBE0F901F90189526E844
:1017A000230F0296A11DB11DD2CF1F920F920FB62B
:1017B0000F9211248F939F938091E1009091E1000B
:1017C000937F9093E10083FF0FC01092E90091E0B6
:1017D0009093EB001092EC0092E39093ED00109246
:1017E000C30698E09093F00082FF22C093E09093AC
:1017F000E9009091F200992319F09AE39093E800A0
:101800009091E301992341F09091E30191509093DD
:10181000E301911101C05D989091C206992341F0B6
:101820009091C20691509093C206911101C02898E0
:1018300084FF18C08091E2008E7E81608093E20078
:101840008091E1008F7E8093E1008091E4018E7EA3
:1018500080618093E4019F918F910F900FBE0F9054
:101860001F90189580FFF7CF8091E2008E7E8061F7
:101870008093E2008091E1008E7E8093E100809170
:10188000E4018E7E8160E5CF1F920F920FB60F921A
:101890001124CF92DF92EF92FF920F931F932F9319
:1018A0003F934F935F936F937F938F939F93AF93E8
:1018B000BF93EF93FF93CF93DF93CDB7DEB76C97D2
:1018C000DEBFCDBF1092E9008091E80083FF25C004
:1018D00068E0CE0145960E94B80382EF8093E8004D
:1018E0008D8987FF39C09091E80090FFFCCF982F39
:1018F000907609F034C19E894F89588D2F89F88CD4
:10190000911131C0803861F58091E5018093F1003B
:101910001092F1008EEF8093E8006C960FB6F89469
:10192000DEBF0FBECDBFDF91CF91FF91EF91BF9191
:10193000AF919F918F917F916F915F914F913F9167
:101940002F911F910F91FF90EF90DF90CF900F900C
:101950000FBE0F901F9018959EEF9093E800C7CF91
:101960001092F100D5CF913059F48111D3CF41308D
:10197000510581F68091E5018D7F8093E501CACF05
:10198000933049F48111C6CF4130510519F6809149
:10199000E5018260F2CF953041F48091E80080FF4C
:1019A000FCCF20682093E300B5CF963009F0A9C0A2
:1019B0000B8D1C8D22E01092E9001092E101109233
:1019C000E001F2122EC01092DF011092DE010E949F
:1019D00087031F8299E09983FA8291E09E8390EABF
:1019E00098879AEF99872091E0013091E101275F74
:1019F0003F4F3C832B838D831092E9001092E101CD
:101A00001092E0011093DF010093DE0149E050E005
:101A1000BE016F5F7F4F80E00E9461030E948703D9
:101A200079CF1093DF010093DE010E948E01DC016B
:101A300012960D911C910115110509F451C1D8019F
:101A4000ED91FC910480F581E02DBE016B5E7F4F2E
:101A5000C8010995009709F03EC1F801008511857C
:101A6000EACFF3E0FF120EC08F89882309F440C04B
:101A7000823061F440E86DE08BE491E00E942E0337
:101A8000811148CF81E28093EB0047CF813029F468
:101A900040E86BE08FE391E0F1CF833099F70E944B
:101AA0008E01DC011296ED90FC908E010F5F1F4FAE
:101AB0006801E114F10479F0D701ED91FC91068001
:101AC000F781E02DB801C7010995080F111DF70135
:101AD000E084F184EECFD8011C92F6010190002041
:101AE000E9F73197BF016C197D0940E0C601C6CF07
:101AF00069E271E0FB01449150E080E80E946103DB
:101B000009CF973009F4BECF983021F481E080935B
:101B1000F10000CF993009F0FDCE837009F0B2CF0B
:101B2000E5E2F1E081E031E096E32191222371F0DA
:101B30008093E9003093EB00DF0111972C91209303
:101B4000EC009093ED008F5F873079F78EE78093FC
:101B5000EA001092EA008F898093C306DBCE8B8D5A
:101B60009C8D1092E9001092E1011092E001909397
:101B7000DF018093DE01898D811192C08E899D895C
:101B8000913A49F4813209F07DCF47E050E064E0BA
:101B900071E080E0B3CF913209F074CF833269F401
:101BA0008F89988DB0E0A0E08093000190930101AF
:101BB000A0930201B0930301ADCE803269F480910D
:101BC000E80082FFFCCF67E084E091E00E94B80368
:101BD0008BEF8093E8009ECE823209F09BCE8F89F6
:101BE00080930B01EEEFFFE7859194918B3F9C4D25
:101BF00051F1E0E0F8E08091040190910501A0919D
:101C00000601B0910701803B9440A105B105F1F4B4
:101C100080910B0180FD1AC0EE3F8AE0F80789F53C
:101C200087E797E791838083809160008093E2014A
:101C300088E19BE00FB6F894A895809360000FBEF2
:101C40009093600067CEEEEFFAE0D5CF808191816E
:101C50008737974709F05ECEA8958091600088612C
:101C6000809360008091E20180936000EE3F2AE063
:101C7000F20789F08091FE0A9091FF0A9183808398
:101C800049CE808191818737980751F29093FF0A5E
:101C90008093FE0AC5CF1092FF0A1092FE0A3ACE38
:101CA0000E948E01DC0112960D911C910115110507
:101CB00009F4E8CED801ED91FC910190F081E02D7E
:101CC000BE016B5E7F4FC8010995811123CEF801DB
:101CD00000851185EBCF181619060CF41BCED2CE59
:101CE000F1E0FF12BECE6DE271E004CFE4EFF6E06A
:101CF0001382128288EE93E0A0E0B0E084839583A3
:101D0000A683B78389E591E0918380838FEF9FEF6E
:101D100095878487E4E4F7E0808312821182148639
:101D200013868FEF9FEFDC0187839087A187B287AF
:101D300013821482158216820895CF93DF93CDB754
:101D4000DEB7CC54D1090FB6F894DEBF0FBECDBFBD
:101D5000789484B5826084BD84B5816084BD85B586
:101D6000826085BD85B5816085BD80916E00816092
:101D700080936E0010928100809181008260809338
:101D8000810080918100816080938100809180003A
:101D900081608093800080919100826080939100A7
:101DA000809191008160809391008091900081608A
:101DB000809390008091C10084608093C1008091E5
:101DC000C10082608093C1008091C10081608093D6
:101DD000C1008091C30081608093C3008091C000E6
:101DE00082608093C0008091C20081608093C200B5
:101DF00080917A00846080937A0080917A0082607A
:101E000080937A0080917A00816080937A0080913B
:101E10007A00806880937A001092C3061092E501E0
:101E20001092E4018091D70081608093D70080EA0E
:101E30008093D80089B5806189BD89B5826089BDEC
:101E400009B400FEFDCF0E94E5028091D8008F7C8E
:101E500080618093D8008091E000807F8093E000D3
:101E60008091E1008E7E8093E1008DE08093E2001E
:101E7000559A209A5D9828988FEF9FEF90930107CD
:101E80008093000791E090930C01809100028111F2
:101E900056C01092EB011092EA018FEF8093EE0191
:101EA0008093EF018093F0018093F1018093F20120
:101EB0008093F3019093F4019093F5011092F70150
:101EC0001092F60180E797E19093F9018093F80171
:101ED00083E090E09093FB018093FA011092FD0162
:101EE0001092FC011092ED011092EC018091EE062F
:101EF0009091EF06892B31F488EE91E09093EF06F4
:101F00008093EE06E091E601F091E701309721F031
:101F100088EE91E09583848388EE91E09093E701C9
:101F20008093E6011092FF011092FE0183E491E09C
:101F30009093E9018093E80181E080930002579A31
:101F400080E795E09093EB018093EA0180E490E0D4
:101F50009093F7018093F60180914707909148078D
:101F6000A0914907B0914A07843C29E09207A10556
:101F7000B10520F484EC99E0A0E0B0E0809347073D
:101F800090934807A0934907B0934A070E94710AAB
:101F90000E948F08E0E7F5E01082118212823396EA
:101FA00036E0E033F307C1F7809144070E94C70190
:101FB0001E0141E4240E311C84EF96E00E94CD0402
:101FC000892B09F4FAC284EF96E00E948B04E09119
:101FD00048028A3019F08D3009F0E3C2EE2361F334
:101FE000F0E0E85FFD4F108266E771E088E092E084
:101FF0000E9472168C01009751F068E771E00E9410
:10200000191B892B39F48CE292E00E947609109218
:102010004802D2CF6DE771E0C8010E94191B892BDD
:1020200009F0EFC088E991E00E945C040BE316E040
:1020300083E5E82E86E0F82ED12C85E991E00E9418
:102040005C048D2D0E9484098DE30E947704D801E1
:102050008D918D010E9484098CE20E947704F80121
:1020600087810E9484098CE20E947704D8011F9620
:102070008C910E9484098CE20E947704F70161919F
:102080007191819191917F010E948B09D394F8E025
:10209000DF12D3CF8DE891E00E945C04609173065B
:1020A0007091740690E080E04AE00E9432098CE270
:1020B0000E947704809175060E9484098CE20E9438
:1020C0007704809176060E9484098CE20E9477044E
:1020D000809177060E9484098CE20E9477048091A7
:1020E00078060E94840987E891E00E945C04609170
:1020F000790670917A0680917B0690917C060E9409
:102100008B098CE20E94770460917D0670917E06B7
:1021100080917F06909180060E948B098CE20E943C
:102120007704609181067091820680918306909178
:1021300084060E948B098CE20E94770460918506D8
:102140007091860680918706909188060E948B097F
:1021500080E891E00E945C04809189060E948409D5
:102160008CE20E94770480918A060E9484098CE2A6
:102170000E94770480918B060E94840989E791E090
:102180000E945C0460918C0670918D0680918E0691
:1021900090918F060E948B0982E791E00E945C0477
:1021A000609190067091910690E080E04AE00E9474
:1021B00032098AE691E00E945C0460919206709177
:1021C000930690E080E04AE00E94320982E691E0C6
:1021D0000E945C0460919406709195068091960629
:1021E000909197060E948B0989E591E00E945C041A
:1021F000809198060E94840987E691E00E94250953
:1022000006CF61E871E0C8010E94191B892B29F4EF
:102210000E94520A84E292E0F8CE66E871E0C801BA
:102220000E94191B892B39F40E94710A0E948F08A1
:102230008CE192E0EACE6BE871E0C8010E94191BC4
:10224000892B99F466E771E090E080E00E947216B5
:10225000FC01892B21F091E08081813309F090E02D
:1022600090930F0182E192E0D0CE67EA71E0C8015D
:102270000E94191B892B79F566E771E090E080E0F8
:102280000E9472160E9454168C0166E771E090E07D
:1022900080E00E9472160E945416E82E66E771E0F4
:1022A00090E080E00E9472160E945416F82E66E7B5
:1022B00071E090E080E00E9472160E94541608308F
:1022C000110530F4F801E75CF94FE282F286828B67
:1022D00089E092E09ACE62E971E0C8010E94191B80
:1022E000892B11F566E771E090E080E00E9472169C
:1022F0000E9454168C0166E771E090E080E00E9435
:1023000072160E9450160830110558F4000F111F64
:10231000000F111FF801E75CF94F628F738F848FF4
:10232000958F8CEF91E071CE6CE971E0C8010E944D
:10233000191B892BC9F466E771E090E080E00E94E8
:1023400072160E945416909374068093730666E783
:1023500071E090E080E00E9472160E945416809313
:10236000750683EF91E051CE62EA71E0C8010E94E8
:10237000191B892B09F566E771E090E080E00E9467
:1023800072160E9454168093760666E771E090E01C
:1023900080E00E9472160E9454168093770666E7CA
:1023A00071E090E080E00E9472160E9454168093C3
:1023B000780685EE91E029CE6DEA71E0C8010E94B1
:1023C000191B892B09F043C066E771E090E080E0BB
:1023D0000E9472160E9450166093790670937A06D6
:1023E00080937B0690937C0666E771E090E080E046
:1023F0000E9472160E94501660937D0670937E06AE
:1024000080937F069093800666E771E090E080E01D
:102410000E9472160E945016609381067093820685
:10242000809383069093840666E771E090E080E0F5
:102430000E9472160E94501660938506709386065D
:1024400080938706909388068CED91E0DECD63EB58
:1024500071E0C8010E94191B892B09F566E771E03C
:1024600090E080E00E9472160E94541680938906C4
:1024700066E771E090E080E00E9472160E945416B8
:1024800080938A0666E771E090E080E00E94721611
:102490000E94541680938B068FEC91E0B6CD6DEBC5
:1024A00071E0C8010E94191B892B99F466E771E05D
:1024B00090E080E00E9472160E94501660938C0695
:1024C00070938D0680938E0690938F0685EC91E035
:1024D0009CCD64EC71E0C8010E94191B892B89F422
:1024E00066E771E090E080E00E9472160E94541648
:1024F00090939106809390060E948F088DEB91E057
:1025000084CD69EC71E0C8010E94191B892B89F404
:1025100066E771E090E080E00E9472160E94541617
:1025200090939306809392060E948F0884EB91E02B
:102530006CCD6FEC71E0C8010E94191B892B99F4D6
:1025400066E771E090E080E00E9472160E945016EB
:1025500060939406709395068093960690939706E1
:102560008BEA91E052CD65ED71E0C8010E94191B24
:10257000892B79F466E771E090E080E00E947216A2
:102580000E945416809398068093440781EA91E054
:102590003CCD8CE991E00E945C04C8010E942509B1
:1025A0002BCEEF3308F008CD91E09E0F90934802B8
:1025B000F0E0E85FFD4F8083FFCC8FB7F894209167
:1025C000C4063091C5064091C6065091C7062596AF
:1025D0002CAF3DAF4EAF5FAF25978FBF8091AD065B
:1025E0009091AE06A091AF06B091B00625964CAD85
:1025F0005DAD6EAD7FAD2597481B590B6A0B7B0B0C
:102600008091100190911101A0911201B0911301DC
:10261000481759076A077B0708F41AC125968CAD3D
:102620009DADAEADBFAD25978093AD069093AE0640
:10263000A093AF06B093B006E1E4F2E0849120915C
:102640007B00982F990F990F90722F7D922B90936A
:102650007B0020910C01F0E42F9F900111248770E2
:10266000822B80937C0080917A00806480937A0032
:1026700080917A0086FDFCCF60917800709179009E
:10268000072E000C880B990B0E941E1820E030E0EA
:1026900040EA50E40E947D1820E030EC4FE754E41B
:1026A0000E94691A4B015C018092A9069092AA06C9
:1026B000A092AB06B092AC062091790630917A06D2
:1026C00040917B0650917C0629962CAF3DAF4EAFD2
:1026D0005FAF299760918106709182068091830691
:1026E000909184060E94FC192B013C01C0907D064C
:1026F000D0907E06E0907F06F09080069F772DEBCD
:1027000037E346E855E30E94171887FD32C0A7015A
:10271000960160918506709186068091870690915A
:1027200088060E94FC192D966CAF7DAF8EAF9FAFCF
:102730002D9729962CAD3DAD4EAD5FAD2997C501C6
:10274000B4010E94FC199B01AC012D966CAD7DADCE
:102750008EAD9FAD2D970E947D18A30192010E941E
:10276000691A9B01AC01C701B6010E94FD196B01FA
:102770007C01C092A506D092A606E092A706F09230
:10278000A80620916E0530916F0580900D01909004
:102790000E01A0906905B12C8501000F111F000FDB
:1027A000111F2815390508F47EC1F801E75BFD4FBC
:1027B000208131814281538160916A0570916B055E
:1027C00080916C0590916D050E94FC1960936A05DB
:1027D00070936B0580936C0590936D05F801E75B32
:1027E000FD4FC082D182E282F38220916A0530914E
:1027F0006B0540916C0550916D05C701B6010E94B3
:10280000FD196B017C01C0926A05D0926B05E092C4
:102810006C05F0926D05C5010196B4010E94A519E1
:102820008093690560916E0570916F0590E080E07E
:102830000E941C189B01AC01C701B6010E94691AD5
:1028400060939D0670939E0680939F069093A006CA
:102850008091A1069091A206A091A306B091A40632
:1028600025962CAD3DAD4EAD5FAD2597281B390BA0
:102870004A0B5B0BDA01C9018A3F9105A105B1053D
:1028800008F43EC025968CAD9DADAEADBFAD25978D
:102890008093A1069093A206A093A306B093A406EA
:1028A00080909D0690909E06A0909F06B090A006F6
:1028B0002091990630919A0640919B0650919C0672
:1028C000C501B4010E94FC192B013C01C0908C068B
:1028D000D0908D06E0908E06F0908F06A7019601AD
:1028E0000E940A1B18160CF0E5C091E09093380680
:1028F0008092990690929A06A0929B06B0929C06AE
:102900008091340690913506A0913606B091370635
:1029100025962CAD3DAD4EAD5FAD2597281B390BEF
:102920004A0B5B0BDA01C9014E97A105B10508F40A
:10293000F2C025968CAD9DADAEADBFAD2597809311
:10294000340690933506A0933606B0933706E0E739
:10295000F5E0108211821282339696E0E033F90797
:10296000C1F7DE0111966D013D01F30111923F01A6
:102970002E163F06D1F7809138064090890618162A
:1029800034F040908A06811102C040908B068090FE
:102990009D0690909E06A0909F06B090A00623E50D
:1029A00036E027963FAF2EAF2797F9E3EF2EF6E0FC
:1029B000FF2E10E000E0512C2796AEADBFAD27975B
:1029C0006D917D918D919D912796BFAFAEAF279769
:1029D000A50194010E9417181816ACF1F70142895D
:1029E0005285628130E020E0A7E0B0E0A01BB10B8F
:1029F000C201022E02C0959587950A94E2F780FFE6
:102A00001DC0C901E3E0880F991FEA95E1F720FF97
:102A100061C08A0F9B1FFC01EE0FFF1FE80FF91F1B
:102A2000E059FA4F608351834283E1E0F0E0EC0F1C
:102A3000FD1F8E0F9F1F71E0FC0170832F5F3F4FC2
:102A400028303105A9F60F5F1F4F8FEFE81AF80AFB
:102A50000830110509F0B0CF209194063091950609
:102A60004091960650919706C501B4010E940A1B39
:102A700087FD4DC080917506813079F1809178068F
:102A80009091770620917606E0E7F5E0D6013D913A
:102A90006D01311103C02083918382833396C61464
:102AA000D704A1F734C02F5F3F4F30936F052093B9
:102AB0006E0594CEA70196015058C301B2010E9441
:102AC000171887FF04C08FEF8093380611CF10923C
:102AD00038060ECF800F911F9ECF20917306309144
:102AE00074062115310511F42CE231E04FB7F8944A
:102AF0006091C4067091C5068091C6069091C70684
:102B00004FBF50E040E00E94CD1920FFB7CF809129
:102B100044070E94C70180910F01882309F4B8C0BF
:102B20008091300690913106A0913206B091330623
:102B300025962CAD3DAD4EAD5FAD2597281B390BCD
:102B40004A0B5B0BDA01C90184369105A105B10579
:102B500008F49EC025968CAD9DADAEADBFAD25975A
:102B60008093300690933106A0933206B0933306DB
:102B700080909D0690909E06A0909F06B090A00623
:102B800003E516E093E7E92E96E0F92ED12CD80163
:102B90006D917D918D919D918D01A50194010E9472
:102BA000171818160CF0D394E016F10681F78DE48F
:102BB00092E00E945C046091A9067091AA0680913F
:102BC000AB069091AC060E948B0980E20E947704CC
:102BD0006091A5067091A6068091A7069091A8061F
:102BE0000E948B0980E20E94770460919D0670919B
:102BF0009E0680919F069091A0060E948B0980E21C
:102C00000E94770480903806082C000C9908AA08C6
:102C1000BB084AE0C501B401B7FE0BC08DE20E94BB
:102C2000770466277727CB01681979098A099B09F8
:102C30004AE00E94320980E20E9477048D2D0E94B2
:102C4000840980E20E947704C12CD12C7601C394C0
:102C500020919D0630919E0640919F065091A006BE
:102C600060919406709195068091960690919706D2
:102C70000E94171818161CF4C12CD12C76014AE0BA
:102C8000C701B6010E94320987E691E00E9425093A
:102C900080E090E0892B09F48FC90E9400008CC964
:102CA000662777270C94A616FC0188279927E894B5
:102CB00021912032E9F3293010F02E30C8F32B3265
:102CC00041F02D3239F4689404C00E949E16820FA0
:102CD000911D219120532A30C0F31EF490958195C7
:102CE0009F4F089541E557E00E9477160895FA0135
:102CF000A191B081009719F41097E1F0CD01DC01AA
:102D0000CD010D90002011F4C00113C0FB012191F1
:102D1000222319F02015D9F7F3CFFB0121912015BB
:102D200019F41E92119606C02223C1F70D900020BF
:102D3000A1F7D001FA01A193B08308957AE0979F9B
:102D4000902D879F802D910D11240895B0E0A0E073
:102D5000ECEAF6E10C9465195C017B0161157105E3
:102D600019F0DB018D939C9385010F5F1F4FF501D7
:102D7000D0818D2F90E00E94F6176C01892BB9F558
:102D8000DD32B9F50F5F1F4FD5011196DC91C1E01F
:102D90005801F1E0AF1AB10843E050E064EB70E095
:102DA000C5010E94FF17892B69F5680182E0C80EF2
:102DB000D11C45E050E06FEA70E0C6010E94FF17A9
:102DC000892B21F4680197E0C90ED11CE114F104AC
:102DD00019F0D701CD92DC9260E070E080E89FEFBF
:102DE000C111FFC060E070E080E89FE7FAC05801C1
:102DF000BBCFDB3229F485010E5F1F4FF501D18176
:102E0000C0E0C6CF43E050E06CEA70E0C5010E942C
:102E1000FF17892BE9F0F80110E000E020E030E036
:102E2000A9015F01B0ED8B2E8D0E89E08815C8F1E8
:102E30009C2E689491F88C2F8870C2FF16C0811167
:102E400002C00F5F1F4F3196D501DC91C92DE9CF2C
:102E5000E114F10429F00E5F1F4FF7011183008385
:102E600060E070E080EC9FE7BCC0882311F0015067
:102E70001109A5E0B0E00E9454199B01AC01220F9A
:102E8000331F441F551F280D311D411D511D283969
:102E900099E93907490799E15907A8F2C6609C2EBC
:102EA000D2CFAEEF8A1206C0C3FD3CC09C2E689400
:102EB00093F8C9CFDF7DD534A9F580818D3239F4FF
:102EC000C061DF011296818162E070E006C0DF011F
:102ED0008B32C1F3119661E070E080535D01A61A58
:102EE000B70A8A30F8F4E0E8CE16ECE0DE065CF4CF
:102EF000B601660F771F660F771FC60ED71ECC0C64
:102F0000DD1CC80ED11C5D01FFEFAF1ABF0A8C910A
:102F100080538A30A8F1C4FF03C0D194C194D10872
:102F20000C0D1D1DC1FF09C0E114F10431F081E059
:102F3000A81AB108D701AD92BC92CA01B9010E948A
:102F40001C18C370C33009F490584B015C0120E099
:102F500030E0A9010E941718882309F440C0C3EE8D
:102F6000D0E017FF05C0119501951109CBECD0E019
:102F70006E01B8E1CB1AD10880E2E82EF12C0FC027
:102F8000D501B1CFFE0125913591459154910E198E
:102F90001F09C501B4010E947D184B015C01D501D8
:102FA000C4010E151F0574F72497F594E794CC1609
:102FB000DD06A9F78A2F880F8B2F881F8F3F49F0D6
:102FC00020E030E0A901C501B4010E941718811169
:102FD00006C082E290E09093540780935307C501A6
:102FE000B401CDB7DEB7ECE00C94811991110C94CB
:102FF000EA18803219F089508550C8F70895FB010E
:10300000DC014150504088F08D9181341CF08B35AB
:103010000CF4805E659161341CF06B350CF4605EDD
:10302000861B611171F3990B0895881BFCCF0E94D8
:10303000591808F481E00895E89409C097FB3EF41C
:1030400090958095709561957F4F8F4F9F4F9923F5
:10305000A9F0F92F96E9BB279395F6958795779573
:103060006795B795F111F8CFFAF4BB0F11F460FF33
:103070001BC06F5F7F4F8F4F9F4F16C0882311F08B
:1030800096E911C0772321F09EE8872F762F05C09F
:10309000662371F096E8862F70E060E02AF09A953A
:1030A000660F771F881FDAF7880F9695879597F92F
:1030B0000895990F0008550FAA0BE0E8FEEF1616C9
:1030C0001706E807F907C0F012161306E407F5071C
:1030D00098F0621B730B840B950B39F40A2661F090
:1030E000232B242B252B21F408950A2609F4A14033
:1030F000A6958FEF811D811D08950E9490180C9454
:1031000004190E94F61838F00E94FD1820F095234B
:1031100011F00C94ED180C94F31811240C94381938
:103120000E94151970F3959FC1F3950F50E0551F3C
:10313000629FF001729FBB27F00DB11D639FAA270C
:10314000F00DB11DAA1F649F6627B00DA11D661F5B
:10315000829F2227B00DA11D621F739FB00DA11D7C
:10316000621F839FA00D611D221F749F3327A00D36
:10317000611D231F849F600D211D822F762F6A2FD2
:1031800011249F5750409AF0F1F088234AF0EE0F37
:10319000FF1FBB1F661F771F881F91505040A9F764
:1031A0009E3F510580F00C94ED180C9438195F3F48
:1031B000E4F3983ED4F3869577956795B795F795A0
:1031C000E7959F5FC1F7FE2B880F911D9695879518
:1031D00097F9089599278827089597F99F6780E8B8
:1031E00070E060E008959FEF80EC089500240A9459
:1031F0001616170618060906089500240A941216D2
:103200001306140605060895092E0394000C11F404
:10321000882352F0BB0F40F4BF2B11F460FF04C0B1
:103220006F5F7F4F8F4F9F4F089557FD9058440F0A
:10323000551F59F05F3F71F04795880F97FB991F15
:1032400061F09F3F79F087950895121613061406D2
:10325000551FF2CF4695F1DF08C01616170618065F
:10326000991FF1CF86957105610508940895E8943A
:10327000BB2766277727CB0197F90895F999FECFE9
:1032800092BD81BDF89A992780B50895262FF999A6
:10329000FECF1FBA92BD81BD20BD0FB6F894FA9A39
:1032A000F99A0FBE019608950E949619A59F900D58
:1032B000B49F900DA49F800D911D112408952F920D
:1032C0003F924F925F926F927F928F929F92AF92B6
:1032D000BF92CF92DF92EF92FF920F931F93CF9303
:1032E000DF93CDB7DEB7CA1BDB0B0FB6F894DEBF9A
:1032F0000FBECDBF09942A88398848885F846E84C0
:103300007D848C849B84AA84B984C884DF80EE8009
:10331000FD800C811B81AA81B981CE0FD11D0FB612
:10332000F894DEBF0FBECDBFED010895A29FB0019E
:10333000B39FC001A39F700D811D1124911DB29FE9
:10334000700D811D1124911D0895AA1BBB1B51E115
:1033500007C0AA1FBB1FA617B70710F0A61BB70B05
:10336000881F991F5A95A9F780959095BC01CD01AA
:10337000089597FB072E16F4009407D077FD09D027
:103380000E94A51907FC05D03EF4909581959F4FAA
:103390000895709561957F4F0895A1E21A2EAA1B9A
:1033A000BB1BFD010DC0AA1FBB1FEE1FFF1FA217F5
:1033B000B307E407F50720F0A21BB30BE40BF50BF2
:1033C000661F771F881F991F1A9469F7609570957B
:1033D000809590959B01AC01BD01CF0108950E949D
:1033E0009619B7FF0895821B930B0895EE0FFF1FE8
:1033F0000590F491E02D09945058BB27AA270E940C
:10340000141A0C9404190E94F61838F00E94FD1842
:1034100020F039F49F3F19F426F40C94F3180EF4BD
:10342000E095E7FB0C94ED18E92F0E94151958F36D
:10343000BA17620773078407950720F079F4A6F599
:103440000C9437190EF4E0950B2EBA2FA02D0B011A
:10345000B90190010C01CA01A0011124FF27591BD9
:1034600099F0593F50F4503E68F11A16F040A22FDF
:10347000232F342F4427585FF3CF46953795279550
:10348000A795F0405395C9F77EF41F16BA0B620B4F
:10349000730B840BBAF09150A1F0FF0FBB1F661F96
:1034A000771F881FC2F70EC0BA0F621F731F841FD9
:1034B00048F4879577956795B795F7959E3F08F0FF
:1034C000B0CF9395880F08F09927EE0F97958795C1
:1034D00008950E947D1A0C9404190E94FD1858F05A
:1034E0000E94F61840F029F45F3F29F00C94ED1883
:1034F00051110C9438190C94F3180E94151968F3A3
:103500009923B1F3552391F3951B550BBB27AA279C
:1035100062177307840738F09F5F5F4F220F331FD6
:10352000441FAA1FA9F335D00E2E3AF0E0E832D09E
:1035300091505040E695001CCAF72BD0FE2F29D0A1
:10354000660F771F881FBB1F261737074807AB0773
:10355000B0E809F0BB0B802DBF01FF2793585F4FE8
:103560003AF09E3F510578F00C94ED180C94381900
:103570005F3FE4F3983ED4F3869577956795B795CA
:10358000F7959F5FC9F7880F911D9695879597F9D5
:103590000895E1E0660F771F881FBB1F621773074E
:1035A0008407BA0720F0621B730B840BBA0BEE1F63
:1035B00088F7E09508950E941D1988F09F5798F0AC
:1035C000B92F9927B751B0F0E1F0660F771F881F28
:1035D000991F1AF0BA95C9F714C0B13091F00E9442
:1035E0003719B1E008950C943719672F782F882781
:1035F000B85F39F0B93FCCF3869577956795B39569
:10360000D9F73EF490958095709561957F4F8F4FD7
:103610009F4F08950E94591808F48FEF08950E9453
:103620005918880B990B089581E090E0F8940C9458
:10363000221BFB01DC018D91019080190110D9F34F
:08364000990B0895F894FFCFE7
:10364800FFFFFFFF00E10000000000000101000192
:1036580064000000000000FFFFFFFFFFFFFFFFFF07
:10366800C878280000C180810000000000000050D8
:103678000A500A500A210938051D091A09170900B4
:103688000000003A08D407D207210938051D091A95
:1036980009FD027805000000004604C50387047C84
:1036A80004CD048B04A9040D0A006E616E00696ED6
:1036B80066006F766600200050494E470047455423
:1036C8000053415645004C4F414400535452454124
:1036D8004D00434F4C4C414D42444100414C4552F2
:1036E8005400414C455254434F4C4F520043414CB7
:1036F8004942005452454E44524F57530053544187
:10370800424C45004D4156470053524154450041F3
:0C3718004C41524D0042524947485400B9
:00000001FF
