:100000000C94F4010C941C020C941C020C941C0221
:100010000C941C020C941C020C941C020C941C02E8
:100020000C941C020C941C020C947A100C94E91091
:100030000C941C020C941C020C941C020C941C02C8
:100040000C941C020C941C020C941C020C941C02B8
:100050000C941C020C941C020C941C020C94301086
:100060000C941C020C9441130C941B130C941C0252
:100070000C941C020C941C020C941C020C941C0288
:100080000C941C020C941C020C941C020C941C0278
:100090000C941C020C941C020C941C020C941C0268
:1000A0000C941C020C941C020C941C0205A84CCD50
:1000B000B2D44EB93836A9020C50B9918688083CA2
:1000C000A6AAAA2ABE000000803F4E414E494E49D2
:1000D0005459494E46CDCCCC3D0AD7233C17B7D115
:1000E0003877CC2B329595E6241FB14F0A000020BB
:1000F000410000C84200401C4620BCBE4CCA1B0E3A
:100100005AAEC59D74204C41503D00204243323DC3
:1001100000204243313D00204243303D0020524FF9
:10012000573D00204445423D0020424F4C494D3D43
:10013000002052414E47453D002050543D0020458F
:100140004E3D004743464700080B000202020000F4
:10015000090400000102020000052400100105242A
:10016000010101042402060524060001070581039C
:1001700010004009040100020A0000000705020205
:100180004000000705830240000004030904120137
:100190000002EF0201404123378000010102030108
:1001A00041726475696E6F204C4C430041726475F6
:1001B000696E6F204D6963726F00000000002400BB
:1001C00027002A002D003000204D41503D00204CDA
:1001D0004F573D002043454E5445523D0020444971
:1001E0004553454C3D00204252494748543D00206C
:1001F000414C41524D3D002053524154453D002059
:100200004D4156473D0020535441423D0020524F3E
:1002100057533D002043414C3D0020414252494745
:1002200048543D0020414C4552543D00204300437A
:1002300046470045525220004F4B204C41505245FA
:10024000534554004F4B20425245534554004F4BA9
:1002500020424C4150004F4B2042434F4C004F4BEB
:100260002042524F57004F4B2042444542004F4BD3
:1002700020424F4C494D004F4B204752414E47457D
:10028000004F4B204750535054004F4B2047505382
:10029000454E004F4B2054455354004F4B204D4189
:1002A00050004F4B204C4F57004F4B2043454E546E
:1002B0004552004F4B2044494553454C004F4B207D
:1002C00041425249474854004F4B20425249474807
:1002D00054004F4B20414C41524D004F4B20535244
:1002E000415445004F4B204D415647004F4B205342
:1002F0005441424C45004F4B205452454E44524FBE
:100300005753004F4B2043414C4942004F4B204133
:100310004C455254434F4C4F52004F4B20414C459B
:100320005254004F4B20434F4C4C414D42444100EE
:100330004F4B20434F4C4F52004F4B20535452458C
:10034000414D004F4B204C4F4144004F4B205341F7
:10035000564500504F4E47205061696E656C4C61A8
:100360006D62646120763100070605040100080A09
:100370000B0C0D0944200047200000000000250060
:1003800028002B002E00310004040404040304059B
:100390000202020204030202020206060606060622
:1003A0000404020202040404080201104080401008
:1003B000204080408008020401804020100201108B
:1003C0008010204040200000000200090F000003C0
:1003D0000401000C0000000000000000000000000C
:1003E000000000000000731311241FBECFEFDAE0FD
:1003F000DEBFCDBF29E0A6E5B2E001C01D92A93263
:10040000B207E1F712E0A0E0B1E0E6E2F6E502C0F3
:1004100005900D92A635B107D9F711E0C4EFD1E0F0
:1004200004C02197FE010E94EF28C33FD107C9F7FE
:100430000E94C2130C94112B0C940000EFE3F7E020
:10044000DC012D913D914C91219331934193B7E083
:10045000EF3FFB07A9F70895E0EDF3E02491E1EB0E
:10046000F3E03491E2E9F3E09491992309F430C088
:100470002223E9F021502F30D0F4E22FF0E0ED5BA1
:10048000FD4F0C94EF2871027502520269026D0251
:1004900057025702570278027E02820286028C02BD
:1004A00057029002209180002F7720938000E92F3F
:1004B000F0E0EE0FFF1FE658FC4FA591B4919FB7F7
:1004C000F894EC91811132C030953E233C939FBF4C
:1004D0000895209180002F7DE8CF20918000277F14
:1004E000E4CF24B52F7724BDE2CF24B52F7DFBCFF9
:1004F000209190002F7720939000D9CF20919000E9
:100500002F7DF9CF20919000277FF5CF2091C0005B
:100510002F772093C000CBCF2091C0002F7DF9CF43
:100520002091C200277F2093C200C1CF3E2BCECFA7
:10053000FC0180913E07882311F13FB7F89482E0D7
:100540008093E9002091F200822F90E0181619069E
:1005500014F481E090E0882339F0289A44E640932F
:100560003D074091F1004083222339F02091F200B1
:10057000211103C02BE62093E8003FBF08958FEFC1
:100580009FEF08952FB7F89483E08093E90090914E
:10059000E800892F807295FF04C09091F20080E4FA
:1005A000891B2FBF08958091350781110DC082E00E
:1005B0008093310784E080933207109234071092C1
:1005C000330781E08093350781E397E008953FB7D3
:1005D000F89480912D0790912E07A0912F07B0914C
:1005E000300726B5A89B05C02F3F19F00196A11D25
:1005F000B11D3FBFBA2FA92F982F8827BC01CD016D
:10060000620F711D811D911D42E0660F771F881FCB
:10061000991F4A95D1F70895CF92DF92EF92FF92FA
:100620000E94E7026B017C010E94E7026C197D09C0
:100630008E099F09683E734081059105A8F3FF90DC
:10064000EF90DF90CF9008952FB7F894609129072D
:1006500070912A0780912B0790912C072FBF089546
:10066000AF92BF92CF92DF92EF92FF920F931F93C0
:10067000CF93DF93D82E80911B0990911C09A091F4
:100680001D09B0911E09892B8A2B8B2BD9F00E9452
:10069000E70200912708109128082091290830913D
:1006A0002A08601B710B820B930B00911B091091A0
:1006B0001C0920911D0930911E09601771078207DE
:1006C0009307C8F20E94E7026093270870932808F6
:1006D0008093290890932A08E0912309F091240936
:1006E000309759F040911F095091200960912109DC
:1006F000709122098D2D0995D82EC0912508D09191
:10070000260885E0E82E88E0F82E8701209749F139
:1007100088E00532180729F18D858823F1F0E881FA
:10072000F981A284B3840680F781E02DCE0109957A
:10073000BC01CE01F5010995F80191838083809178
:10074000190990911A098436910508F41C860C80C9
:10075000DD81C02D0E5F1F4FD9CFF80111821082AD
:10076000EECFC0912508D091260800E110E0209737
:10077000A9F08D85882361F04E855F856A817B8134
:10078000E881F9810280F381E02D2D2DCE010995BC
:100790000C80DD81C02D0150110949F7C091250859
:1007A000D09126082097C9F0F5E2EF16F8E0FF0691
:1007B000A1F08D85882351F0F70160817181E88176
:1007C000F9810484F585E02DCE0109950C80DD8149
:1007D000C02DF2E0EF0EF11CE5CF8091030890915F
:1007E0000408EC012196D0930408C09303084997AC
:1007F000E4F10E9424030091FF071091000820916A
:100800000108309102086B017C01C01AD10AE20A8A
:10081000F30AA7019601211531054105510521F47F
:1008200021E030E040E050E088EE93E0C89FB00166
:10083000C99F700DD89F700D1124072E000C880BD6
:10084000990B0E94CD2830931A0920931909109210
:100850000408109203080E9424036093FF0770931A
:1008600000088093010890930208DF91CF911F91B7
:100870000F91FF90EF90DF90CF90BF90AF900895D1
:100880000E94C20290E0089580E991E008954091AD
:100890005A0250915B02209158023091590242173E
:1008A0005307B4F49091E8009570E1F39091E8005B
:1008B00092FD19C08093F10080915A0290915B02E1
:1008C00001968F739927892B19F48EEF8093E80096
:1008D00080915A0290915B02019690935B02809303
:1008E0005A0281E0089580E00895EF92FF920F93FD
:1008F0001F93CF93DF93F82E192FE62E042F81E05C
:10090000860F880F0E94470483E00E944704CF2D82
:10091000D12FEC0EFD2EF11CCE15DF05B9F007FF2F
:1009200013C0FE0184910E944704182F80E00E94AA
:100930004704812321968111EFCFDF91CF911F9141
:100940000F91FF90EF9008958881EDCF81E0F5CF72
:10095000DF92EF92FF920F931F93CF93DF93D82EE6
:100960008A01EB017B01E40EF51ECE15DF0559F07F
:10097000D7FE12C0FE0184910E9447042196811186
:10098000F4CF0FEF1FEFC801DF91CF911F910F91AF
:10099000FF90EF90DF9008958881EECF0F931F9323
:1009A000CF93DF931F92CDB7DEB782E0898342E415
:1009B00050E068E471E080E80E94A8040E94D3023D
:1009C000DC0112960D911C910115110589F0D801D9
:1009D000ED91FC910280F381E02DBE016F5F7F4FAE
:1009E000C801099597FD04C0F80100851185ECCF79
:1009F00089810F90DF91CF911F910F9108956150E0
:100A000030F02091F100FC0120830196F8CF289A64
:100A100084E680933D070895AF92BF92CF92DF9214
:100A2000EF92FF920F931F93CF93DF936C017B01A3
:100A30008B01040F151FEB015E01AE18BF08C01734
:100A4000D10759F06991D601ED91FC910190F081A7
:100A5000E02DC6010995892B79F7C501DF91CF916A
:100A60001F910F91FF90EF90DF90CF90BF90AF90CC
:100A70000895FC01538D448D252F30E0842F90E0A4
:100A8000821B930B541710F0CF9608950197089589
:100A9000FC01918D828D981761F0A28DAE0FBF2F52
:100AA000B11D5D968C91928D9F5F9F73928F90E0A8
:100AB00008958FEF9FEF0895FC01918D828D981717
:100AC00031F0828DE80FF11D858D90E008958FEF54
:100AD0009FEF0895FC01918D228D892F90E0805C1D
:100AE0009F4F821B91098F73992708958BE298E09D
:100AF0000E946A0521E0892B09F420E0822F0895E5
:100B000080E090E0892B29F00E94760581110C94F9
:100B100000000895FC01A48DA80FB92FB11DA35AA0
:100B2000BF4F2C91848D90E001968F739927848F0D
:100B3000A689B7892C93A089B1898C9182748C93F2
:100B4000938D848D981306C00288F389E02D8081EF
:100B50008F7D80830895EF92FF920F931F93CF9321
:100B6000DF93EC0181E0888F9B8D8C8D981319C0E9
:100B7000E889F989808185FF14C09FB7F894EE89D0
:100B8000FF896083E889F9898081827480839FBFAF
:100B900081E090E0DF91CF911F910F91FF90EF9056
:100BA0000895F62E0B8D10E00F5F1F4F0F73112766
:100BB000E02E8C8D8E110CC00FB607FCFACFE889A1
:100BC000F989808185FFF5CFCE010E948A05F1CF9A
:100BD000EB8DEC0FFD2FF11DE35AFF4FF0829FB715
:100BE000F8940B8FEA89FB8980818062CFCFCF9305
:100BF000DF93EC01888D8823B9F0AA89BB89E88945
:100C0000F9898C9185FD03C0808186FD0DC00FB6EA
:100C100007FCF7CF8C9185FFF2CF808185FFEDCF68
:100C2000CE010E948A05E9CFDF91CF9108958F927E
:100C30009F92AF92BF92CF92DF92EF92FF920F936B
:100C40001F93CF93DF936C017B018A0180910B018D
:100C5000882309F458C080913E07882309F453C0C3
:100C600080915E0280FF05C08091E00082608093E9
:100C7000E000E801B12C8AEFA82E93E0892E2AE348
:100C8000922E209711F4BB20B9F10E94C20281116B
:100C900006C0AA94AA20B9F10E940C03F2CF8C17C7
:100CA0001D0611F00CF08C2F9FB7F8948092E9008C
:100CB0002091E80025FD02C09FBFE3CF282F30E040
:100CC000C21BD30BF701815020F041914093F100FA
:100CD000FACFE20EF31EBB2021F09092E800B12C77
:100CE000EBCF8091E80085FDE7CF9092E800BB2430
:100CF000B394209709F3F3CF5D9A84E680935D0265
:100D0000101611063CF081E090E0F6019383828397
:100D100010E000E0C801DF91CF911F910F91FF908B
:100D2000EF90DF90CF90BF90AF909F908F900895FD
:100D3000CF93DF931F92CDB7DEB76983DC01ED91CE
:100D4000FC910280F381E02D41E050E0BE016F5F35
:100D50007F4F09950F90DF91CF910895682F88EC10
:100D600098E00C9498060F931F93CF93DF938C0118
:100D7000D0E0C0E0F801EC0FFD1F6491662341F064
:100D800088EC98E00E949806892B11F02196F2CF0A
:100D9000CE01DF91CF911F910F91089583E0809351
:100DA000E9008091F200882319F08AE38093E8003B
:100DB0000895CF93DF931F92CDB7DEB7FC018485F2
:100DC000958597FD08C02FEF3FEF358724870F905B
:100DD000DF91CF910895CE0101960E94980201976C
:100DE00019F4898190E0F3CF8FEF9FEFF0CF0F934D
:100DF0001F93CF93DF931F92CDB7DEB78C01FC0119
:100E00008485958597FF0BC0CE0101960E949802BC
:100E1000019771F4898190E0F80195878487F80142
:100E2000848595850F90DF91CF911F910F91089543
:100E30008FEF9FEFF1CFFC018485958597FD0BC067
:100E40009FB7F89482E08093E9008091F2009FBF01
:100E500090E0019608959FB7F89482E08093E900AE
:100E60008091F2009FBF90E00895AF92BF92CF9221
:100E7000DF92EF92FF920F931F93CF93DF9300D0F7
:100E80001F92CDB7DEB75A0119821A821B828823BE
:100E900061F18B01E1E0F0E0E82EF12CD8012D9119
:100EA0008D012223F1F06F01B1E0CB1AD108D501F9
:100EB000AC0DBD1D4C914423A1F030E02F5F3F4F9E
:100EC000D7010E949628A42FB0E011969B01AC0197
:100ED0000E945428A1E0B0E0AC0FBD1FAC0DBD1DB9
:100EE0008C933196E430F105C9F669817A818B8162
:100EF0000F900F900F90DF91CF911F910F91FF9066
:100F0000EF90DF90CF90BF90AF90089581E090E098
:100F100008950F931F93CF93DF93209157022F5F74
:100F2000322F37703093570220FF2BC020E831FD5D
:100F30002064347009F02062205FFC01EC012396EC
:100F400000E011E06785662329F070E0C8010E9487
:100F5000B9286F5F6187822F869F080E80E0811D10
:100F60001124811110C01682662311F0615061872F
:100F70003196EC17FD0731F7DF91CF911F910F915B
:100F8000089520E0D4CF81508683EECF4F925F92B8
:100F90007F928F929F92AF92BF92CF92DF92EF9209
:100FA000FF920F931F93CF93DF932C01EB010E94CD
:100FB000E702F20126893789621B730B6A307105DB
:100FC000B0F3F8948A819B81181619060CF0CDC1F4
:100FD000E881F9816BB1862E689487F83BB13F7741
:100FE0003BB9DA848F812D2D281B822F2F834C85CE
:100FF000042E000C550BAA81BB817889FF84E988F7
:101000007F5FF394E3949E819884B984AB841181CB
:10101000C12C6C2D0C2D2C2D218111278894211190
:10102000280F08F42FEF8195889470FD120F179503
:10103000889471FD120F1795889472FD120F179501
:10104000889473FD120F1795889474FD120F1795ED
:10105000889475FD120F1795889476FD120F1795D9
:10106000889477FD120F17958894622F7111612F64
:101070008D0D162F002C8BB800C017FF3BB92081B7
:101080006627889400C000C0002C3BB92111290FAD
:1010900000C0002C8BB800C016FF3BB908F42FEF3E
:1010A0009195889400C000C0002C3BB9F0FC620F01
:1010B00000C0002C8BB800C015FF3BB96795889421
:1010C000F1FC620F00C000C0002C3BB9679588940A
:1010D00000C0002C8BB800C014FF3BB9F2FC620FBB
:1010E0006795889400C000C0002C3BB9F3FC620FE8
:1010F00000C0002C8BB800C013FF3BB967958894E3
:10110000F4FC620F00C000C0002C3BB967958894C6
:1011100000C0002C8BB800C012FF3BB9F5FC620F79
:101120006795889400C000C0002C3BB9F6FC620FA4
:1011300000C0002C8BB800C011FF3BB967958894A4
:10114000F7FC620F00C000C0002C3BB96795889483
:1011500000C0002C8BB800C010FF3BB9122FF1105B
:10116000162F9B0D00C000C0002C3BB900C000C072
:10117000002C8BB800C017FF3BB9228166278894EA
:1011800000C000C0002C3BB92111290D00C0002C6B
:101190008BB800C016FF3BB908F42FEFE40FF51F22
:1011A00000C000C0002C3BB9E0FC620F00C0002C66
:1011B0008BB800C015FF3BB967958894E1FC620FBE
:1011C00000C000C0002C3BB96795889400C0002C7B
:1011D0008BB800C014FF3BB9E2FC620F679588949E
:1011E00000C000C0002C3BB9E3FC620F00C0002C23
:1011F0008BB800C013FF3BB967958894E4FC620F7D
:1012000000C000C0002C3BB96795889400C0002C3A
:101210008BB800C012FF3BB9E5FC620F679588945C
:1012200000C000C0002C3BB9E6FC620F00C0002CDF
:101230008BB800C011FF3BB967958894E7FC620F3B
:1012400000C000C0002C3BB96795889400C0002CFA
:101250008BB800C010FF3BB9122FE110162F9194EC
:1012600000C000C0002C3BB99A0C00C000C08BB875
:1012700000C017FF3BB921816627889400C000C0D9
:10128000002C3BB92111280F00C0002C8BB800C0E6
:1012900016FF3BB908F42FEF8195889400C000C079
:1012A000002C3BB970FD620F00C0002C8BB800C051
:1012B00015FF3BB96795889471FD620F00C000C0AF
:1012C000002C3BB96795889400C0002C8BB800C0F7
:1012D00014FF3BB972FD620F6795889400C000C08F
:1012E000002C3BB973FD620F00C0002C8BB800C00E
:1012F00013FF3BB96795889474FD620F00C000C06E
:10130000002C3BB96795889400C0002C8BB800C0B6
:1013100012FF3BB975FD620F6795889400C000C04D
:10132000002C3BB976FD620F00C0002C8BB800C0CA
:1013300011FF3BB96795889477FD620F00C000C02C
:10134000002C3BB96795889400C0002C8BB800C076
:1013500010FF3BB9122F7111162F8D0D00C000C068
:10136000002C3BB9119709F086CEEA81FB812EE172
:1013700030E0DF010E94F52830E020E0A901AAE971
:10138000EA9F0E0E411DFA9F400D511D11244F0F73
:10139000511DDC01CB01840F951FA11DB11D893E9C
:1013A00043E09407A105B10508F434C0885E93407A
:1013B000A109B10942E0B695A795979587954A95F9
:1013C000D1F747E0849F080E211D949F200D311D09
:1013D0001124290F311D6091560270E0860F971F6E
:1013E000820F931F4091290750912A0760912B0784
:1013F00070912C07292F3327420F531F611D711D38
:101400004093290750932A0760932B0770932C076A
:101410008093560278940E94E702F201778B668BE4
:10142000DF91CF911F910F91FF90EF90DF90CF90C0
:10143000BF90AF909F908F907F905F904F90089556
:10144000579A08956F927F928F92CF92DF92EF9288
:10145000FF920F931F93CF93DF93CDB7DEB76297C1
:101460000FB6F894DEBF0FBECDBF8C016B017A01C1
:10147000822FA801475F5F4FB8016A5F7F4F0E94CC
:1014800035073B01882ED8011C962C91C701F7FE29
:1014900004C0882799278E199F09DA82C9829C8304
:1014A0008B839E838D83688A798A8A8A213049F565
:1014B000CE0101960E94890783E08D871F861E86D4
:1014C000F7FE02C08DEF8D87D801ED91FC91008869
:1014D000F189E02DBE016F5F7F4FC80109956296CB
:1014E0000FB6F894DEBF0FBECDBFDF91CF911F9135
:1014F0000F91FF90EF90DF90CF908F907F906F9043
:1015000008951C861B861A86198618861F82D4CFDA
:10151000CF92DF92EF92FF920F931F93CF93DF93BF
:10152000CDB7DEB762970FB6F894DEBF0FBECDBF62
:101530008C016B017A01822FA801475F5F4FB801D0
:101540006A5F7F4F0E9435079B01482FD8011C9688
:101550008C91DA82C982FC82EB82FE82ED82288B3A
:10156000398B4A8B813009F5CE0101960E9489079B
:101570001D861F861E86D801ED91FC910088F18999
:10158000E02DBE016F5F7F4FC801099562960FB6CF
:10159000F894DEBF0FBECDBFDF91CF911F910F91A9
:1015A000FF90EF90DF90CF9008951C861B861A86DF
:1015B000198618861F82DCCF089590910F0791112C
:1015C00003C0962F682F892F90910D07992319F04A
:1015D00097E0961B692F90910E07992319F097E0D9
:1015E000981B892F98E0899F9001112470E09091B9
:1015F0000C07992339F080FF05C0C901861B970BA2
:1016000007960895C901860F971F08958091F806DF
:101610009091F906892B31F481E090E09093F906DE
:101620008093F8068091F8069091F906853F9140E5
:1016300030F084EF91E09093F9068093F8062091C2
:10164000F8063091F90650E040E068EE73E080E083
:1016500090E00E94CD28223031054105510508F463
:1016600048C0209315013093160140931701509301
:1016700018016091F6067091F70690E080E02091E5
:1016800015013091160140911701509118010E94E7
:10169000CD28C901892BD1F130930E0120930D0182
:1016A00080910D0190910E01893C910530F088ECFC
:1016B00090E090930E0180930D01109245061092D8
:1016C0004B0610924A061092460610924706109258
:1016D000480610924906E5E2F3E011921192119248
:1016E000119286E0E534F807C1F78FEF809318096F
:1016F000089582E090E0A0E0B0E08093150190931F
:101700001601A0931701B0931801B3CF81E090E0C8
:1017100090930E0180930D01C3CFCF9394E0899FE6
:10172000F0011124E456F94F628D738D848D958DEF
:101730002091140730911507409116075091170713
:10174000E091FF06C1E0EE2331F00E94552A87FFA9
:1017500006C0C0E004C00E9417271816D4F38C2FCF
:10176000CF91089590E080E00895FC01648708958A
:10177000FC01848590E00895FC0186859785089595
:10178000FC019081992321F0929F912D09F09F5F98
:101790009083FB018081882321F0829F812D09F0B5
:1017A0008F5F8083FA018081882321F0829F812DC1
:1017B00009F08F5F808311240895FC0101900020BF
:1017C000E9F73197AF01481B590BBC0188EC98E051
:1017D0000C9417068EE791E00C94DD0BCF93DF930A
:1017E0000E94B306EC010E94EA0B8C0F9D1FDF9153
:1017F000CF9108958F929F92AF92BF920F931F93B4
:10180000CF93DF93CDB7DEB7A1970FB6F894DEBFC5
:101810000FBECDBF19A2423008F44AE08E010F5D21
:101820001F4F842E912CB12CA12CA50194010E9454
:10183000CD28E62FB901CA01EA30F4F4E05DD80101
:10184000EE938D01232B242B252B79F790E080E05C
:10185000109719F0CD010E94DD0BA1960FB6F894F8
:10186000DEBF0FBECDBFDF91CF911F910F91BF9013
:10187000AF909F908F900895E95CE1CF682F70E062
:1018800090E080E04AE00C94FA0BBC0190E080E02C
:101890004AE00C94FA0B4F925F926F927F928F9274
:1018A0009F92AF92BF92CF92DF92EF92FF920F93EF
:1018B0001F93CF936B017C01742EAC019B010E949E
:1018C000A02A882399F081E891E0CF911F910F9190
:1018D000FF90EF90DF90CF90BF90AF909F908F9050
:1018E0007F906F905F904F900C94DD0B46015701F5
:1018F000E894B7F82FEF3FEF4FE75FE7C501B4017A
:101900000E94A02A81110DC02FEF3FEF4FE75FE744
:10191000C501B4010E94172718161CF485E891E050
:10192000D4CF2FEF3FEF4FE75FE4C701B6010E942E
:10193000552A18161CF489E891E0C7CF2FEF3FEF26
:101940004FE75FECC701B6010E94172787FDF3CF71
:1019500020E030E0A901C701B6010E94172710E07E
:1019600000E087FF08C08DE20E94AE068C01F7FA06
:10197000F094F7F8F094C0E060E070E080E09FE35E
:101980007C1641F020E030E040E251E40E946E29F4
:10199000CF5FF6CFA70196010E94FD282B013C01E5
:1019A0000E94E7294B015C014AE00E94FA0B7C018E
:1019B000E00EF11ECC2399F1C501B4010E941C2751
:1019C0009B01AC01C301B2010E94FC284B015C01E8
:1019D0008EE20E94AE06E80EF91EC15000F120E032
:1019E00030E040E251E4C501B4010E947D272B01A3
:1019F0003C010E94E7294B01CB010E94450CE80EF7
:101A0000F91EB40190E080E00E941C279B01AC010C
:101A1000C301B2010E94FC284B015C01DECFC7016B
:101A2000CF911F910F91FF90EF90DF90CF90BF90DB
:101A3000AF909F908F907F906F905F904F900895A0
:101A40000C944B0CCF93DF9383E491E00E94B30698
:101A50008EE391E00E94B306C0E5D6E08A810E9441
:101A60003E0C89E391E00E94B3066B817C818D81FD
:101A70009E8146E050E00E94200D8CE20E94AE065E
:101A80006F81788589859A8546E050E00E94200D17
:101A900081E391E00E94B3068B859C850E94450CF2
:101AA00089E291E00E94B3066D857E858F859889D5
:101AB00043E050E00E94200D8CE20E94AE068B892C
:101AC0000E943E0C83E291E00E94B30689899A89C4
:101AD0000E94450C8DE191E00E94B3068C890E9422
:101AE0003E0C87E191E00E94B3068D890E943E0C76
:101AF0008CE20E94AE068E890E943E0C8CE20E940F
:101B0000AE068F890E943E0C81E191E00E94B306EF
:101B1000888D0E943E0C8CE20E94AE06898D0E9448
:101B20003E0C8CE20E94AE068A8D0E943E0C8BE039
:101B300091E00E94B3068B8D0E943E0C8CE20E94C5
:101B4000AE068C8D0E943E0C8CE20E94AE068D8DFE
:101B50000E943E0C85E091E00E94B3068E8D9F8D21
:101B60000E94450C8CE20E94AE0688A10E943E0CA9
:101B7000DF91CF910C94EA0BCF92DF92EF92FF921C
:101B8000CF93DF936C01092E000CEE08FF0897FF3E
:101B900017C08DE20E94AE06EC0166277727CB01C5
:101BA0006C197D098E099F094AE00E94FA0B8C0F7F
:101BB0009D1FDF91CF91FF90EF90DF90CF90089520
:101BC0004AE0C701B601DF91CF91FF90EF90DF901F
:101BD000CF900C94FA0B8F929F92AF92BF92CF92BC
:101BE000DF92EF92FF92CF93C62F0E9414256B01D4
:101BF0007C0120E030E048EC52E40E946E290E9413
:101C0000E029072E000C880B990B0E941E274B0120
:101C10005C0120E030E048EC52E40E947D279B010B
:101C2000AC01C701B6010E94FC2820E030E040E78B
:101C300052E40E946E29A50194010E94FD28CB7DEB
:101C4000C33509F49058CF91FF90EF90DF90CF907B
:101C5000BF90AF909F908F9008950E94F52AFF92B9
:101C60000F931F93CF93DF9300E516E0C0E9D1E017
:101C7000F801F1908F01CE010E943E28F81621F064
:101C80006F2DCE010E9446282196C13BF1E0DF076F
:101C900079F7DF91CF911F910F91FF9008950F93E6
:101CA0001F93CF93DF9300E516E0C0E9D1E0CE01AA
:101CB0000E943E28F80181938F012196C13BF1E0FB
:101CC000DF07A9F7809150068D3629F480915106DF
:101CD000833009F459C08DE68093500683E08093E9
:101CE000510610925206109253061092540610920A
:101CF00055061092560610925706109258061092EA
:101D0000590610925A068EE190E090935C068093FB
:101D10005B0681E79DE3AAEABFE380935D069093AB
:101D20005E06A0935F06B093600680ED97E0909307
:101D300062068093610686E08093630687E0809365
:101D40006406109265068FEF809366061092670610
:101D5000809368069CE89093690610926A068093C7
:101D60006B0610926C0610926D0688E99AE39093C8
:101D70006F0680936E0684E180937006DF91CF91A9
:101D80001F910F910C942F0EDF91CF911F910F9106
:101D90000895FF920F931F93CF93DF930CE916E002
:101DA000D0E0C0E0F801F1908F01CE010E943E2802
:101DB000F81621F06F2DCE010E9446282196C437D7
:101DC000D10581F7DF91CF911F910F91FF90089579
:101DD0008F929F92AF92BF92CF92DF92EF92FF923B
:101DE0000F931F93CF93DF93CDB7DEB760970FB6F6
:101DF000F894DEBF0FBECDBF2CE9E22E26E0F22E16
:101E000010E000E0C8010E943E28F70181937F01A5
:101E10000F5F1F4F04371105A9F780919C06873A81
:101E200029F480919D06863009F407C187EA8093E2
:101E30009C0686E080939D0688E0E9E1F1E0DE0102
:101E4000199601900D928A95E1F788E0E1E2F1E0C0
:101E5000DE01119601900D928A95E1F74E01F9E0AD
:101E60008F0E911C8EE9C82E86E0D82E8E010F5F52
:101E70001F4F96EBA92E96E0B92EF12CE12CF40120
:101E800081914F01F60181936F01F80181918F01DA
:101E9000F60187831786B7010F2C000C880B990B6E
:101EA0000E941E272DEC3CEC4CEC5DE30E947D274C
:101EB00023E333E343E35FE30E94FD28F5016193ED
:101EC0007193819391935F01FFEFEF1AFF0A88E00E
:101ED000E816F104A1F68CE291E09093D706809386
:101EE000D60681E08093D8069FEF9093D906109292
:101EF000DA061092DB0628EB3BE03093DD062093F8
:101F0000DC069093DE0640E050E060E87FE340931B
:101F1000DF065093E0066093E1067093E2064DEC15
:101F20005CEC6CEC7EE34093E3065093E406609334
:101F3000E5067093E60640E050E060E870E4409308
:101F4000E7065093E8066093E9067093EA0641E7D6
:101F50005DE36AEC7FE34093EB065093EC066093FD
:101F6000ED067093EE0627E02093EF0620EE209317
:101F7000F00628E32093F1064AE057ED63EA7CE39C
:101F80004093F2065093F3066093F4067093F506BF
:101F900024EF31E03093F7062093F60622E330E099
:101FA0003093F9062093F80641E75DE36AEA7FE3A0
:101FB0004093FA065093FB066093FC067093FD066F
:101FC00028E22093FE068093FF068093000710927C
:101FD00001079093020710920307109204074DEC3B
:101FE0005CEC6CE47FE34093050750930607609335
:101FF0000707709308071092090710920A07909339
:102000000B0780930C0710920D0710920E07109289
:102010000F0760960FB6F894DEBF0FBECDBFDF91FD
:10202000CF911F910F91FF90EF90DF90CF90BF90D5
:10203000AF909F908F900C94C90E60960FB6F89455
:10204000DEBF0FBECDBFDF91CF911F910F91FF90EB
:10205000EF90DF90CF90BF90AF909F908F900895BA
:102060001F920F920FB60F9211242F933F938F93CD
:102070009F93AF93BF938091290790912A07A091D6
:102080002B07B0912C073091280723E0230F2D3721
:1020900058F50196A11DB11D2093280780932907AB
:1020A00090932A07A0932B07B0932C0780912D07BC
:1020B00090912E07A0912F07B09130070196A11D96
:1020C000B11D80932D0790932E07A0932F07B093F7
:1020D0003007BF91AF919F918F913F912F910F90BA
:1020E0000FBE0F901F90189526E8230F0296A11D92
:1020F000B11DD2CF1F920F920FB60F9211248F9362
:102100009F938091E1009091E100937F9093E10093
:1021100083FF0FC01092E90091E09093EB001092C2
:10212000EC0092E39093ED0010923E0798E09093BC
:10213000F00082FF22C093E09093E9009091F200BA
:10214000992319F09AE39093E80090915D02992306
:1021500041F090915D02915090935D02911101C008
:102160005D9890913D07992341F090913D079150E2
:1021700090933D07911101C0289884FF18C0809169
:10218000E2008E7E81608093E2008091E1008F7E8C
:102190008093E10080915E028E7E806180935E027A
:1021A0009F918F910F900FBE0F901F90189580FFF9
:1021B000F7CF8091E2008E7E80618093E200809173
:1021C000E1008E7E8093E10080915E028E7E8160D0
:1021D000E5CF1F920F920FB60F921124CF92DF928C
:1021E000EF92FF920F931F932F933F934F935F9321
:1021F0006F937F938F939F93AF93BF93EF93FF93CF
:10220000CF93DF93CDB7DEB76C97DEBFCDBF109213
:10221000E9008091E80083FF25C068E0CE01459683
:102220000E94FF0482EF8093E8008D8987FF39C008
:102230009091E80090FFFCCF982F907609F034C180
:102240009E894F89588D2F89F88C911131C0803823
:1022500061F580915F028093F1001092F1008EEFA2
:102260008093E8006C960FB6F894DEBF0FBECDBF2A
:10227000DF91CF91FF91EF91BF91AF919F918F919E
:102280007F916F915F914F913F912F911F910F918E
:10229000FF90EF90DF90CF900F900FBE0F901F90A8
:1022A00018959EEF9093E800C7CF1092F100D5CF1C
:1022B000913059F48111D3CF4130510581F680918D
:1022C0005F028D7F80935F02CACF933049F4811102
:1022D000C6CF4130510519F680915F028260F2CF7E
:1022E000953041F48091E80080FFFCCF2068209376
:1022F000E300B5CF963009F0A9C00B8D1C8D22E00C
:102300001092E90010925B0210925A02F2122EC053
:1023100010925902109258020E94CE041F8299E036
:102320009983FA8291E09E8390EA98879AEF998741
:1023300020915A0230915B02275F3F4F3C832B83F1
:102340008D831092E90010925B0210925A02109352
:1023500059020093580249E050E0BE016F5F7F4F81
:1023600080E00E94A8040E94CE0479CF1093590205
:10237000009358020E94D302DC0112960D911C9129
:102380000115110509F451C1D801ED91FC910480AA
:10239000F581E02DBE016B5E7F4FC8010995009766
:1023A00009F03EC1F80100851185EACFF3E0FF1284
:1023B0000EC08F89882309F440C0823061F440E860
:1023C0006DE08CEA91E00E947504811148CF81E2B2
:1023D0008093EB0047CF813029F440E86BE080EA3E
:1023E00091E0F1CF833099F70E94D302DC0112967D
:1023F000ED90FC908E010F5F1F4F6801E114F10416
:1024000079F0D701ED91FC910680F781E02DB801BC
:10241000C7010995080F111DF701E084F184EECF83
:10242000D8011C92F60101900020E9F73197BF0115
:102430006C197D0940E0C601C6CF6AE871E0FB0176
:10244000449150E080E80E94A80409CF973009F435
:10245000BECF983021F481E08093F10000CF993015
:1024600009F0FDCE837009F0B2CFEAE2F1E081E03D
:1024700031E096E32191222371F08093E9003093BB
:10248000EB00DF0111972C912093EC009093ED006D
:102490008F5F873079F78EE78093EA001092EA0029
:1024A0008F8980933E07DBCE8B8D9C8D1092E90047
:1024B00010925B0210925A02909359028093580234
:1024C000898D811192C08E899D89913A49F481321A
:1024D00009F07DCF47E050E064E071E080E0B3CFE9
:1024E000913209F074CF833269F48F89988DB0E00E
:1024F000A0E08093000190930101A0930201B093AA
:102500000301ADCE803269F48091E80082FFFCCFF8
:1025100067E084E091E00E94FF048BEF8093E80085
:102520009ECE823209F09BCE8F8980930B01EEEF15
:10253000FFE7859194918B3F9C4D51F1E0E0F8E0ED
:102540008091040190910501A0910601B0910701CD
:10255000803B9440A105B105F1F480910B0180FD11
:102560001AC0EE3F8AE0F80789F587E797E791837D
:1025700080838091600080935C0288E19BE00FB6CD
:10258000F894A895809360000FBE9093600067CE8A
:10259000EEEFFAE0D5CF808191818737974709F038
:1025A0005ECEA895809160008861809360008091E4
:1025B0005C0280936000EE3F2AE0F20789F0809190
:1025C000FE0A9091FF0A9183808349CE8081918198
:1025D0008737980751F29093FF0A8093FE0AC5CF80
:1025E0001092FF0A1092FE0A3ACE0E94D302DC013A
:1025F00012960D911C910115110509F4E8CED80130
:10260000ED91FC910190F081E02DBE016B5E7F4F5A
:10261000C8010995811123CEF80100851185EBCF02
:10262000181619060CF41BCED2CEF1E0FF12BECE66
:102630006EE871E004CF1F920F920FB60F92112433
:102640002F933F934F935F936F937F938F939F93BA
:10265000AF93BF93EF93FF938BE298E00E948A05BC
:10266000FF91EF91BF91AF919F918F917F916F916A
:102670005F914F913F912F910F900FBE0F901F9040
:1026800018951F920F920FB60F9211242F938F93CC
:102690009F93EF93FF93E0913B08F0913C0880817A
:1026A000E0914108F091420882FD1BC09081809129
:1026B00044088F5F8F7320914508821741F0E091A5
:1026C0004408F0E0E55DF74F958F80934408FF9153
:1026D000EF919F918F912F910F900FBE0F901F90B0
:1026E00018958081F4CFEBE2F8E01382128288EE35
:1026F00093E0A0E0B0E084839583A683B7832EE5C2
:1027000031E0318320832DEC30E0358724872CECB9
:1027100030E03787268728EC30E0318B208B29EC9E
:1027200030E0338B228B2AEC30E0358B248B2EEC7F
:1027300030E0378B268B118E128E138E148EE8ECC0
:10274000F8E01382128284839583A683B78380E79F
:1027500091E0918380838FEF9FEF95878487E8E1F5
:10276000F9E0808312821182148613868FEF9FEF27
:10277000DC0187839087A187B28713821482158238
:1027800016820895CF93DF93CDB7DEB7CD55D1092B
:102790000FB6F894DEBF0FBECDBF789484B58260CB
:1027A00084BD84B5816084BD85B5826085BD85B5F5
:1027B000816085BD80916E00816080936E00109273
:1027C00081008091810082608093810080918100EE
:1027D000816080938100809180008160809380007F
:1027E000809191008260809391008091910081603E
:1027F00080939100809190008160809390008091FF
:10280000C10084608093C1008091C1008260809388
:10281000C1008091C10081608093C1008091C3009C
:1028200081608093C3008091C00082608093C0006B
:102830008091C20081608093C20080917A008460A0
:1028400080937A0080917A00826080937A008091F0
:102850007A00816080937A0080917A00806880930A
:102860007A0010923E0710925F0210925E028091F1
:10287000D70081608093D70080EA8093D80089B523
:10288000806189BD89B5826089BD09B400FEFDCF34
:102890000E940C038091D8008F7C80618093D800C7
:1028A0008091E000807F8093E0008091E1008E7E47
:1028B0008093E1008DE08093E200559A209A5D9824
:1028C00028988FEF9FEF9093D5088093D408E091DC
:1028D0003B08F0913C0882E08083E0913708F0915A
:1028E00038081082E0913908F0913A088FEC808323
:1028F00010924308E0913F08F091400886E0808301
:10290000E0913D08F0913E08808180618083E091F4
:102910003D08F0913E08808188608083E0913D0809
:10292000F0913E08808180688083E0913D08F091BD
:102930003E0880818F7D808381E080930C01E1EBF4
:10294000F3E02491E2E9F3E08491882399F090E0A8
:10295000880F991FFC01E654FE4FA591B491FC012C
:10296000E658FC4F859194918FB7F894EC91E22B47
:10297000EC938FBF81E00E942C0280917A0281113A
:1029800057C010926502109264028FEF8093680224
:102990008093690280936A0280936B0280936C0239
:1029A00080936D0281E080936E0280936F0210929B
:1029B00071021092700280E797E190937302809306
:1029C000720283E090E090937502809374021092FB
:1029D000770210927602109267021092660280913E
:1029E000250890912608892B31F482E692E0909395
:1029F000260880932508E0916002F09161023097EB
:102A000021F082E692E09583848382E692E09093BF
:102A1000610280936002109279021092780288E439
:102A200091E0909363028093620281E080937A0246
:102A3000579A8FE397E0909365028093640280E455
:102A400090E0909371028093700280911B099091A5
:102A50001C09A0911D09B0911E09843C29E0920730
:102A6000A105B10520F484EC99E0A0E0B0E08093EA
:102A70001B0990931C09A0931D09B0931E090E9485
:102A8000E80E0E94060B0E944F0E19821A821B82CA
:102A9000AE014F5F5F4F26965FAF4EAF2697CA01DC
:102AA0000E941E02809118090E9430031E0151E409
:102AB000250E311CC101029668969FAF8EAF6897B4
:102AC000D10111966E96BFAFAEAF6E97DD24D39451
:102AD00088EC98E00E941B07892B09F04DC011E09B
:102AE0008BE298E00E946A05892B11F40C947D1EFC
:102AF0008BE298E00E944805E09124038A3021F09F
:102B00008D3011F00C94701EEE2351F3F0E0E05381
:102B1000FD4F10828091D002843209F0CCC6E0EDE6
:102B2000F2E001900020E9F7CF01815D9240079724
:102B300008F4C1C620ED32E03A832983F90101E0AF
:102B4000DF018191882309F4F9C58C3209F0F2C5BF
:102B5000DF0111971C92003108F0F0C5A02FB0E002
:102B6000AA0FBB1F41E050E04C0F5D1FA40FB51F23
:102B7000ED93FC930F5FE4CF88EC98E00E94D906B8
:102B8000E091C2028A3019F08D3009F0C7C5EE23FA
:102B900009F49ECFF0E0EE57FD4F10826DE871E032
:102BA00082E892E00E945D258C01009709F485C1BE
:102BB0006FE871E00E94FA2A892B29F483E593E0FB
:102BC0000E94EE0B7AC165E971E0C8010E94FA2A01
:102BD000892B09F075C18FE292E00E94B3060EE9DD
:102BE00016E046EBE42E46E0F42EC12C8CE292E097
:102BF0000E94B3068C2D0E943E0C8DE30E94AE060F
:102C0000F80181918F010E943E0C8CE20E94AE0679
:102C1000D80117968C910E943E0C8CE20E94AE0661
:102C2000F80187850E943E0C8CE20E94AE06D70117
:102C30006D917D918D919D917D0143E050E00E94C9
:102C4000200DC394B8E0CB12D1CF84E292E00E9471
:102C5000B3068091D6069091D7060E94450C8CE26F
:102C60000E94AE068091D8060E943E0C8CE20E9423
:102C7000AE068091D9060E943E0C8CE20E94AE0600
:102C80008091DA060E943E0C8CE20E94AE06809192
:102C9000DB060E943E0C8CE20E94AE068091DC06B0
:102CA0009091DD060E94450C8AE192E00E94B306F5
:102CB0008091DE060E943E0C84E192E00E94B30601
:102CC0006091DF067091E0068091E1069091E20646
:102CD00043E050E00E94200D8CE20E94AE0660911D
:102CE000E3067091E4068091E5069091E60643E0E4
:102CF00050E00E94200D8CE20E94AE066091E70633
:102D00007091E8068091E9069091EA0643E050E070
:102D10000E94200D8CE20E94AE066091EB0670913D
:102D2000EC068091ED069091EE0643E050E00E94A3
:102D3000200D8DE092E00E94B3068091EF060E9484
:102D40003E0C8CE20E94AE068091F0060E943E0C82
:102D50008CE20E94AE068091F1060E943E0C86E055
:102D600092E00E94B3066091F2067091F3068091A2
:102D7000F4069091F50643E050E00E94200D8FEF9D
:102D800091E00E94B3068091F6069091F7060E94AA
:102D9000450C87EF91E00E94B3068091F806909170
:102DA000F9060E94450C8FEE91E00E94B3066091F7
:102DB000FA067091FB068091FC069091FD0643E0B7
:102DC00050E00E94200D86EE91E00E94B3068091B3
:102DD000FE060E943E0C8DED91E00E94B3068091AC
:102DE000FF060E943E0C84ED91E00E94B3068091A4
:102DF00000070E943E0C8CE20E94AE068091010703
:102E00000E943E0C8CE20E94AE06809102070E9456
:102E10003E0C8CE20E94AE06809103070E943E0C9D
:102E20008EEC91E00E94B306809104070E943E0C54
:102E30008CE20E94AE0660910507709106078091B2
:102E400007079091080743E050E00E94200D8CE2B4
:102E50000E94AE06809109070E943E0C8CE20E94FF
:102E6000AE0680910A070E943E0C8CE20E94AE06DC
:102E700080910B070E943E0C88EC91E00E94B30603
:102E800080910C070E943E0C8CE20E94AE0680915D
:102E90000D070E943E0C8CE20E94AE0680910E0748
:102EA0000E943E0C8CE20E94AE0680910F070E94A9
:102EB0003E0C0E94EA0B0E94220D1092C20208CE24
:102EC00064E971E0C8010E94FA2A892BA1F369E93B
:102ED00071E0C8010E94FA2A892B39F40E94C90EB8
:102EE0000E942F0E8BE493E06BCE6EE971E0C80177
:102EF0000E94FA2A892B49F40E94E80E0E94060BD0
:102F00000E944F0E83E493E05BCE63EA71E0C80158
:102F10000E94FA2A892B99F46DE871E090E080E034
:102F20000E945D25FC01892B21F091E08081813395
:102F300009F090E09093140189E393E041CE6FEBA8
:102F400071E0C8010E94FA2A892B79F56DE871E0D9
:102F500090E080E00E945D250E9418258C016DE8BC
:102F600071E090E080E00E945D250E941825E82E27
:102F70006DE871E090E080E00E945D250E941825D8
:102F8000F82E6DE871E090E080E00E945D250E94DF
:102F900018250830110530F4F801E456F94FE282A3
:102FA000F286828B80E393E00BCE6AEA71E0C8017F
:102FB0000E94FA2A892B11F56DE871E090E080E01B
:102FC0000E945D250E9418258C016DE871E090E05B
:102FD00080E00E945D250E9414250830110558F4F8
:102FE000000F111F000F111FF801E456F94F628FF7
:102FF000738F848F958F83E293E0E2CD64EB71E071
:10300000C8010E94FA2A892B39F56DE871E090E039
:1030100080E00E945D250E9418259093D70680933A
:10302000D6066DE871E090E080E00E945D250E9488
:1030300018258093D8066DE871E090E080E00E944A
:103040005D25009731F00E9418259093DD0680934E
:10305000DC068AE193E0B4CD6AEB71E0C8010E941E
:10306000FA2A892B09F56DE871E090E080E00E9472
:103070005D250E9418258093D9066DE871E090E0E7
:1030800080E00E945D250E9418258093DA066DE895
:1030900071E090E080E00E945D250E9418258093F9
:1030A000DB068CE093E08CCD65EC71E0C8010E94FA
:1030B000FA2A892B09F043C06DE871E090E080E0C6
:1030C0000E945D250E9414256093DF067093E00640
:1030D0008093E1069093E2066DE871E090E080E075
:1030E0000E945D250E9414256093E3067093E40618
:1030F0008093E5069093E6066DE871E090E080E04D
:103100000E945D250E9414256093E7067093E806EF
:103110008093E9069093EA066DE871E090E080E024
:103120000E945D250E9414256093EB067093EC06C7
:103130008093ED069093EE0683E093E041CD6BEC37
:1031400071E0C8010E94FA2A892B09F56DE871E047
:1031500090E080E00E945D250E9418258093EF0694
:103160006DE871E090E080E00E945D250E941825E6
:103170008093F0066DE871E090E080E00E945D25AC
:103180000E9418258093F10686EF92E019CD65ED37
:1031900071E0C8010E94FA2A892B99F46DE871E068
:1031A00090E080E00E945D250E9414256093F20665
:1031B0007093F3068093F4069093F5068CEE92E0FC
:1031C000FFCC6CED71E0C8010E94FA2A892B89F4CA
:1031D0006DE871E090E080E00E945D250E94182576
:1031E0009093F7068093F6060E94060B84EE92E019
:1031F000E7CC61EE71E0C8010E94FA2A892B89F4BC
:103200006DE871E090E080E00E945D250E94182545
:103210009093F9068093F8060E94060B8BED92E0DE
:10322000CFCC67EE71E0C8010E94FA2A892B99F48D
:103230006DE871E090E080E00E945D250E94142519
:103240006093FA067093FB068093FC069093FD064C
:1032500082ED92E0B5CC6EEE71E0C8010E94FA2AD0
:10326000892B69F46DE871E090E080E00E945D25B3
:103270000E9418258093FE0688EC92E0A1CC6DEEAA
:1032800071E0C8010E94FA2A892B69F46DE871E0A7
:1032900090E080E00E945D250E9418258093DE0664
:1032A0008DEB92E08DCC65EF71E0C8010E94FA2AA7
:1032B000892B89F46DE871E090E080E00E945D2543
:1032C0000E94182521E0892B09F420E02093FF06B5
:1032D00083EB92E075CC6CEF71E0C8010E94FA2A92
:1032E000892B79F56DE871E090E080E00E945D2522
:1032F0000E94182521E0892B09F420E02093000783
:103300006DE871E090E080E00E945D250E94182544
:10331000809301076DE871E090E080E00E945D25F8
:103320000E941825809302076DE871E090E080E02C
:103330000E945D250E9418258093030789EA92E088
:103340003FCC63E072E0C8010E94FA2A892B09F0A1
:103350003FC06DE871E090E080E00E945D250E9432
:10336000182521E0892B09F420E0209304076DE85B
:1033700071E090E080E00E945D250E94142560933A
:1033800005077093060780930707909308076DE879
:1033900071E090E080E00E945D250E9418258093F6
:1033A00009076DE871E090E080E00E945D250E94D1
:1033B000182580930A076DE871E090E080E00E9494
:1033C0005D250E94182580930B0782EA92E0F8CBD6
:1033D00067E072E0C8010E94FA2A892BD9F56DE8EE
:1033E00071E090E080E00E945D250E94182521E0B8
:1033F000892B09F420E020930C076DE871E090E040
:1034000080E00E945D250E94182521E0892B09F4A7
:1034100020E020930D076DE871E090E080E00E94CD
:103420005D250E94182521E0892B09F420E02093D6
:103430000E076DE871E090E080E00E945D250E943B
:10344000182521E0892B09F420E020930F078BE950
:1034500092E0B6CB6BE072E0C8010E94FA2A892B99
:1034600089F46DE871E090E080E00E945D250E94A3
:10347000182521E0892B09F420E02093710683E9C7
:1034800092E09ECB60E172E0C8010E94FA2A892B8B
:1034900089F46DE871E090E080E00E945D250E9473
:1034A000182521E0892B09F420E0209352068AE8B0
:1034B00092E086CB66E172E0C8010E94FA2A892B6D
:1034C00029F56DE871E090E080E00E945D250E94A2
:1034D0001425609353067093540680935506909379
:1034E00056066DE871E090E080E00E945D250E9444
:1034F000142560935706709358068093590690934D
:103500005A061092CF0281E892E05ACB6CE172E049
:10351000C8010E94FA2A892B79F46DE871E090E0E5
:1035200080E00E945D250E94362570935C066093C2
:103530005B0687E792E044CB63E272E0C8010E9439
:10354000FA2A892BF9F46DE871E090E080E00E949E
:103550005D250E94142560935D0670935E0680933E
:103560005F06909360066DE871E090E080E00E9455
:103570005D25009721F00E941825809363068EE652
:1035800092E01ECB69E272E0C8010E94FA2A892B00
:1035900079F46DE871E090E080E00E945D250E9482
:1035A0003625709362066093610686E692E008CB4A
:1035B0006EE272E0C8010E94FA2A892B71F46DE86C
:1035C00071E090E080E00E945D250E9418258770E0
:1035D000809364068EE592E0F3CA63E372E0C8016B
:1035E0000E94FA2A892B09F043C06DE871E090E04F
:1035F00080E00E945D250E9418258C016DE871E035
:1036000090E080E00E945D250E941825E82E6DE87C
:1036100071E090E080E00E945D250E941825F82E60
:103620006DE871E090E080E00E945D250E94182521
:103630000115110549F4E0926506F0926606809343
:10364000670686E592E0BCCA0130110539F4E092C4
:103650006806F092690680936A06F3CF023011057E
:1036600081F7E0926B06F0926C0680936D06E9CFCD
:1036700068E372E0C8010E94FA2A892BD9F46DE848
:1036800071E090E080E00E945D250E9418259093F3
:103690006F0680936E066DE871E090E080E00E9416
:1036A0005D25009721F00E941825809370068EE416
:1036B00092E086CA6DE372E0C8010E94FA2A892B63
:1036C00049F41092770610927606D0920F0184E4A6
:1036D00092E076CA64E472E0C8010E94FA2A892B5B
:1036E00099F4109277061092760610927506109251
:1036F00074061092730610927206D0920F01109207
:10370000CF0288E392E05CCA83E392E00E94B306B2
:10371000C8010E94DD0B0E94EA0BCFCBEF3308F00B
:10372000D7C991E09E0F9093C202F0E0EE57FD4F93
:103730008083CEC98A3209F003CA1C92E981FA81DA
:10374000DF010D900020E9F71197AE1BBF0B169714
:1037500008F4B1C07F0153E0E50EF11C43E050E0F6
:103760006DE472E0C7010E94032B892B09F0A4C20B
:10377000093008F4A1C2ED81FE81808191E081349D
:1037800009F090E090938906813409F094C0E985AE
:10379000FA856081611101C06EE48F819885009780
:1037A00009F48CC0DC012C91222309F487C00E940B
:1037B000EB0D609384067093850680938606909344
:1037C0008706ED85FE856081611101C065E48B850A
:1037D0009C85009709F476C0FC012081222309F41E
:1037E00071C00E94EB0D60938006709381068093F8
:1037F0008206909383068F859889DC012C91222381
:1038000081F00E94142526E53EE04DEE5FE30E9424
:103810007D2760937C0670937D0680937E0690934F
:103820007F0689899A89FC012081222351F00E9418
:103830001425609378067093790680937A069093A6
:103840007B06409053065090540660905506709049
:1038500056062091570630915806409159065091CE
:103860005A062A962CAF3DAF4EAF5FAF2A9720E0A5
:1038700030E0A901C301B2010E941727811126C0BF
:1038800020E030E0A9012A966CAD7DAD8EAD9FADF4
:103890002A970E941727811119C080E090E0A0E8C4
:1038A000BFEB8093100190931101A0931201B0938C
:1038B00013011092CF021092240312C960E070E04D
:1038C000CB0177CF60E070E0CB018DCF20918006F7
:1038D00030918106409182065091830662962CAF0A
:1038E0003DAF4EAF5FAF62978091840690918506A1
:1038F000A0918606B09187066C968CAF9DAFAEAF57
:10390000BFAF6C9724E33AEF4EE85CE3C301B2012A
:103910000E947D270E94692920E03CE649ED57E49A
:103920000E947D272E966CAF7DAF8EAF9FAF2E97F6
:103930002A962CAD3DAD4EAD5FAD2A9762966CAD2B
:103940007DAD8EAD9FAD62970E94FC282E962CAD6A
:103950003DAD4EAD5FAD2E970E947D276B017C0182
:10396000A30192016C966CAD7DAD8EAD9FAD6C9751
:103970000E94FC2820E03CE649ED57E40E947D27A8
:103980004B015C01A7019601C701B6010E947D278A
:1039900066966CAF7DAF8EAF9FAF6697A501940121
:1039A000C501B4010E947D279B01AC0166966CADF8
:1039B0007DAD8EAD9FAD66970E94FD280E94602A66
:1039C0006093100170931101809312019093130181
:1039D00080915206882309F445C18091CF02882343
:1039E00009F440C16091700670E090E080E00E94B0
:1039F0001E2720917C0630917D0640917E065091D5
:103A00007F060E94172718160CF42CC12A962CAD9D
:103A10003DAD4EAD5FAD2A976091CB027091CC0267
:103A20008091CD029091CE020E94FC282E962CAD62
:103A30003DAD4EAD5FAD2E970E947D272A966CAFAF
:103A40007DAF8EAF9FAF2A97A30192016091C7020D
:103A50007091C8028091C9029091CA020E94FC280C
:103A600020E03CE649ED57E40E947D272E966CAF9E
:103A70007DAF8EAF9FAF2E972A962CAD3DAD4EAD4C
:103A80005FAD2A97C701B6010E94FC286B017C013B
:103A90002E962CAD3DAD4EAD5FAD2E97C501B40158
:103AA0000E94FC282B013C01A7019601C701B60129
:103AB0000E947D274B015C01A3019201C301B20169
:103AC0000E947D279B01AC01C501B4010E94FD2825
:103AD0004B015C0120E030E0A9010E94552A181634
:103AE0000CF0DFC0A70196012A966CAD7DAD8EADBE
:103AF0009FAD2A970E947D2766966CAF7DAF8EAFF3
:103B00009FAF6697A30192012E966CAD7DAD8EADF1
:103B10009FAD2E970E947D279B01AC0166966CADF0
:103B20007DAD8EAD9FAD66970E94FD289058A50192
:103B300094010E946E294B015C0120E030E0A90154
:103B40000E94172787FDADC020E030E040E85FE32A
:103B5000C501B4010E94552A18160CF4A6C0A5018F
:103B60009401C701B6010E947D272A962CAD3DAD78
:103B70004EAD5FAD2A970E94FD286B017C01A50127
:103B80009401C301B2010E947D272E962CAD3DAD5C
:103B90004EAD5FAD2E970E94FD284B015C01A70141
:103BA0009601C701B6010E947D276B017C01A5012A
:103BB0009401C501B4010E947D279B01AC01C7019E
:103BC000B6010E94FD280E94602A6B017C01609171
:103BD0005B0670915C0690E080E00E941C27A701C4
:103BE00096010E94552A87FD3DC00E942403C09083
:103BF000C302D090C402E090C502F090C6029B01BF
:103C0000AC012C193D094E095F0969017A01209127
:103C10006E0630916F064901B12CA12C8C149D04C5
:103C2000AE04BF04F8F46093C3027093C40280939F
:103C3000C5029093C6028091760690917706909384
:103C4000750680937406109277061092760610938C
:103C50000F018091720690917306019690937306FE
:103C6000809372066C968CAD9DADAEADBFAD6C977A
:103C70008093C7029093C802A093C902B093CA026E
:103C800062962CAD3DAD4EAD5FAD62972093CB02F9
:103C90003093CC024093CD025093CE021093CF02CA
:103CA0000ACE812C912C54015ACF812C912C90E872
:103CB000A92E9FE3B92E53CF43E050E061E572E0B7
:103CC000C7010E94032B892B09F0F5CD083008F4B9
:103CD000F2CD8F8598890E94182580938806EBCDB8
:103CE000E33508F0E8CD91E09E0F90932403F0E0D7
:103CF000E053FD4F80830C9470150E9424032B0128
:103D00003C018091240790912507A0912607B0914E
:103D10002707B301A201481B590B6A0B7B0B80914B
:103D2000150190911601A0911701B0911801481743
:103D300059076A077B0708F480C140922407509214
:103D400025076092260770922707E8E6F3E0E491E2
:103D500090917B008E2F880F880F80729F7D892B1A
:103D600080937B0080910C0130E4839FC00111247B
:103D7000E770E82BE0937C0080917A008064809368
:103D80007A0080917A0086FDFCCF60917800709176
:103D90007900072E000C880B990B0E941E2720E04B
:103DA00030E040EA50E40E947D2720E030EC4FE70D
:103DB00054E40E946E296B017C01C0922007D092CE
:103DC0002107E0922207F09223078091DF0690916D
:103DD000E006A091E106B091E2062A968CAF9DAF75
:103DE000AEAFBFAF2A979C01AD016091E70670911D
:103DF000E8068091E9069091EA060E94FC282E963A
:103E00006CAF7DAF8EAF9FAF2E978090E306909002
:103E1000E406A090E506B090E6069F772DEB37E329
:103E200046E855E30E94172787FD36C0A501940197
:103E30006091EB067091EC068091ED069091EE0694
:103E40000E94FC2862966CAF7DAF8EAF9FAF6297E9
:103E50002A962CAD3DAD4EAD5FAD2A97C701B60198
:103E60000E94FC289B01AC0162966CAD7DAD8EADCD
:103E70009FAD62970E947D272E962CAD3DAD4EAD35
:103E80005FAD2E970E946E299B01AC01C501B40164
:103E90000E94FD284B015C0180921C0790921D0737
:103EA000A0921E07B0921F0720914A0630914B0640
:103EB000C0900D01D0900E01E0904506F12C8701D5
:103EC000000F111F000F111F2C153D0508F473C0C2
:103ED000F801EB5DFC4F208131814281538160917B
:103EE00046067091470680914806909149060E94C7
:103EF000FC2860934606709347068093480690938B
:103F00004906F801EB5DFC4F80829182A282B38268
:103F10002091460630914706409148065091490647
:103F2000C501B4010E94FD284B015C018092460648
:103F300090924706A0924806B0924906C7010196A2
:103F4000B6010E94A5288093450660914A067091AB
:103F50004B0690E080E00E941C279B01AC01C5014C
:103F6000B4010E946E296B017C01C0921407D092AB
:103F70001507E0921607F0921707809152068823E2
:103F800009F45BC00E9424034B015C018091FF0691
:103F900011E020915D0630915E0640915F065091E0
:103FA0006006882379F0C701B6010E94172718160A
:103FB0007CF410E00DC02F5F3F4F30934B062093F1
:103FC0004A069FCFC701B6010E94552A87FDF1CF4F
:103FD00080910F0181111CC080914C0690914D067B
:103FE000A0914E06B0914F06B501A401481B590B94
:103FF0006A0B7B0B8091610690916206B0E0A0E0B5
:10400000481759076A077B07C0F081E080930F01CA
:10401000112399F0809176069091770601969093FE
:1040200077068093760610920F0180924C0690924C
:104030004D06A0924E06B0924F06809118079091BF
:104040001907A0911A07B0911B07A3019201281B21
:10405000390B4A0B5B0BDA01C901C0901407D090F1
:104060001507E0901607F09017078A3F9105A10504
:10407000B10598F1409218075092190760921A07FB
:1040800070921B0720911007309111074091120781
:1040900050911307C701B6010E94FC282A966CAF05
:1040A0007DAF8EAF9FAF2A978090F2069090F30677
:1040B000A090F406B090F506A50194010E94552A3F
:1040C000181694F581E080939B06C0921007D09259
:1040D0001107E0921207F09213076091FA067091AF
:1040E000FB068091FC069091FD062091FF0611E0F1
:1040F000A701222359F196010E94552A87FF2BC060
:104100008091970690919806A0919906B0919A0691
:1041100084199509A609B70911E0181619061A0697
:104120001B066CF110E02BC0A501940150582A9693
:104130006CAD7DAD8EAD9FAD2A970E94172787FF8E
:1041400002C08FEFC0CF10929B06BFCF96010E9496
:1041500017271816ACF28091DC069091DD06A301BA
:104160009201280F391F411D511DDA01C9018093A9
:10417000970690939806A0939906B0939A06109389
:1041800096068091920690919306A0919406B09124
:104190009506A3019201281B390B4A0B5B0BDA0130
:1041A000C9014E97A105B10508F474C0409292066A
:1041B0005092930660929406709295060091710653
:1041C000002309F4CAC181E00E942C0219821A82DC
:1041D0001B82CE0101960E941E0210E00FEF60E0EC
:1041E000812F0E94DD0AFC01EE0FFF1FE80FF91F6F
:1041F000E15CF84F0083118212821F5F183079F75B
:1042000000E01FEF602F80E00E94DD0AFC01EE0F4E
:10421000FF1FE80FF91FE15CF84F10821182128333
:104220000F5F083079F760E080E00E94DD0AFC0152
:10423000EE0FFF1FE80FF91FE15CF84F10831183A9
:10424000128360E087E00E94DD0AFC01EE0FFF1F91
:10425000E80FF91FE15CF84F108280E88183128239
:104260000FE317E0EFEFEE2EE7E0FE2EA8014E5F22
:104270005F4FB8016F5F7F4F2091FE06C8010E941B
:10428000C00B0D5F1F4FE016F10681F780911809F2
:104290000E94300380911401882309F44EC180915B
:1042A0008E0690918F06A0919006B0919106A30181
:1042B0009201281B390B4A0B5B0BDA01C9018436CA
:1042C0009105A105B10508F49EC00E94C202882391
:1042D00009F499C040928E0650928F066092900623
:1042E00070929106F12CE12CD12C01E010E08E2D82
:1042F0000E948D0B882339F0C8010E2C01C0880F55
:104300000A94EAF7D82A3FEFE31AF30A48E0E416E2
:10431000F10469F7109104071123A9F011E020912D
:1043200014073091150740911607509117076091B7
:1043300005077091060780910707909108070E9472
:10434000552A87FD10E000910007002319F001E0D5
:10435000D11000E084E793E00E94B306609120074B
:1043600070912107809122079091230743E050E04C
:104370000E94200D80E20E94AE0660911C077091A1
:104380001D0780911E0790911F0743E050E00E9497
:10439000200D80E20E94AE0660911407709115070F
:1043A000809116079091170743E050E00E94200D7E
:1043B00080E20E94AE0680919B06082E000C990BAD
:1043C0000E94BC0D80E20E94AE068D2D0E943E0C24
:1043D00080E20E94AE068091960690E00E94BC0D9D
:1043E00080E20E94AE06802F0E943E0C80E20E9476
:1043F000AE06812F0E943E0C0E94EA0B80911401B0
:10440000882309F49AC080918A0690918B06A09126
:104410008C06B0918D06A3019201281B390B4A0B23
:104420005B0BDA01C9018A3F9105A105B10508F4CA
:1044300084C00E94C202882309F47FC040928A0689
:1044400050928B0660928C0670928D0687E793E0FF
:104450000E94B3068091890690E00E94BC0D80E224
:104460000E94AE06809188060E943E0C80E20E9467
:10447000AE066091840670918506809186069091C3
:10448000870646E050E00E94200D80E20E94AE06C2
:1044900060918006709181068091820690918306DA
:1044A00046E050E00E94200D80E20E94AE0660913E
:1044B0007C0670917D0680917E0690917F0641E09A
:1044C00050E00E94200D80E20E94AE0660917806C6
:1044D0007091790680917A0690917B0650E040E0D9
:1044E0000E94200D80E20E94AE0680917606909197
:1044F00077060E94450C80E20E94AE068091740609
:10450000909175060E94450C80E20E94AE06809153
:104510007206909173060E94450C80E20E94AE06DE
:10452000609110017091110180911201909113011D
:1045300041E00E944B0C0E94EA0B80E090E0892B46
:1045400011F40C9466150E947605882311F40C94DE
:1045500066150E9400000C94601519821A821B8255
:10456000CE0101960E941E02AE014F5F5F4F28965A
:104570005FAF4EAF28974A01D4011D924D012A1614
:104580003B06D1F780910407882309F454C1A701A1
:104590009601609105077091060780910707909139
:1045A00008070E94552A87FD46C1D0900B07C0908E
:1045B0000A07B090090783E0F101808384E08183DA
:1045C000710101E0D701AD907D0163E08A2D0E9469
:1045D000DD0AFC01EE0FFF1FE80FF91FE15CF84F49
:1045E000B082C182D282E1E0F0E0EC0FFD1F8E0FBD
:1045F0009F1FDC010C9364E08A2D0E94DD0AFC0100
:10460000EE0FFF1FE80FF91FE15CF84FB082C18287
:10461000D282E1E0F0E0EC0FFD1F8E0F9F1FDC0166
:104620000C936896EEADFFAD6897EE16FF0651F657
:1046300001E09E012F5F3F4F6901F12CE12CD60173
:104640008D916D01882369F02091FE06A7014F5BD3
:10465000584FB701605C784FC701815C984F0E944A
:10466000C00BB3E0EB0EF11CE0ECEE16F10439F7F1
:10467000112309F4D0C10111CEC18091D806813037
:10468000D1F40091D6061091D7060115110511F449
:104690000CE211E00E942403980150E040E00E94E7
:1046A000CD28DA01C90180959095A095B095182F75
:1046B000117020FD38C08091DB069091DA062091C0
:1046C000D906D1012C9311969C93119712968C9335
:1046D0002091DE0668964EAD5FAD68976E966EAD22
:1046E0007FAD6E97C1010E94C00B2FE337E0289683
:1046F000EEADFFAD289781912896FFAFEEAF2897DA
:10470000811108C0F10180819181A281F90180832A
:104710009183A2832D5F3F4F28964EAD5FAD2897C2
:104720004815590521F781E081270E942C028091CC
:104730005206882309F4AACD809164068770E82E7A
:1047400000916306023008F402E010E0C0907606A3
:10475000D090770690906D06A0906C06B0906B0696
:10476000C016D10688F4C801019790906A06A090FF
:104770006906B0906806C816D90631F090906706B1
:10478000A0906606B0906506F12C6E2D8F2D0E94CC
:10479000DD0AFC01EE0FFF1FE80FF91FE15CF84F87
:1047A000108211821282F39458E0F512EECFC016F7
:1047B000D10608F432C10091D6061091D706011532
:1047C000110511F40CE211E00E942403980150E05D
:1047D00040E00E94CD2820FD59CD10E01F1509F4BE
:1047E00055CDD101BC921196AC92119712969C9224
:1047F0002091FE0668964EAD5FAD68976E966EADE1
:104800007FAD6E97C1010E94C00B6E2D812F0E945B
:10481000DD0A9C01220F331F820F931F9C01215C34
:10482000384FF10180819181A281F90180839183C8
:10483000A2831F5FD3CF80919B06181634F0882384
:1048400009F4E6C08091F00602C08091EF063CE9D1
:10485000E32E36E0F32EA12CB12C282F30E0649605
:104860003FAF2EAF64978B2D0E948D0B882309F4E8
:1048700047C0A394D7015296BC912B96BFAF2B97FC
:10488000F701F2852F96FFAF2F97D7011296BC91B3
:104890006996BFAF6997D12CC12C64968EAD9FAD40
:1048A00064970C2C02C0959587950A94E2F780FFD7
:1048B00020C06C2D8B2D0E94DD0AFC01EE0FFF1F26
:1048C000E80FF91FE15CF84F69962FAD69972083D7
:1048D0002F963FAD2F9731832B964FAD2B97428369
:1048E000A1E0B0E0AC0FBD1F8A0F9B1F21E0FC01CF
:1048F00020833FEFC31AD30A48E0C416D10469F6F7
:10490000B3945FEFE51AF50A88E0B812ACCF809156
:104910000007882309F48DCEA1108BCEC090030729
:10492000B0900207A090010783E0D1018C9384E04E
:1049300011968C937101F701D1907F0163E08D2D69
:104940000E94DD0AFC01EE0FFF1FE80FF91FE15C7A
:10495000F84FA082B182C28221E030E02C0F3D1FCF
:10496000820F931FE1E0DC01EC9364E08D2D0E9447
:10497000DD0AFC01EE0FFF1FE80FF91FE15CF84FA5
:10498000A082B182C28221E030E02C0F3D1F820F55
:10499000931FE1E0DC01EC9368962EAD3FAD689784
:1049A000E216F30641F680918806833008F441CE82
:1049B000E2E0FE2EDD24DA94CC24C39472E0E72EEC
:1049C00032E0F31639F045E0F41621F0E31611F069
:1049D000E41216C06E2D8F2D0E94DD0AFC01EE0F31
:1049E000FF1FE80FF91FE15CF84F10821182D2829D
:1049F000A1E0B0E0AC0FBD1F8A0F9B1FFC01C0827D
:104A0000E394F6E0EF12DCCFF394FF12D7CF11CE90
:104A10008091F1061CCF81E088CE39E0C316D10425
:104A200008F0DBCEFC2CD9CE662777270C94A62580
:104A3000FC0188279927E89421912032E9F3293055
:104A400010F02E30C8F32B3241F02D3239F4689437
:104A500004C00E949E25820F911D219120532A306F
:104A6000C0F31EF4909581959F4F08951F93FC010C
:104A700099278827BC01E89411911032E9F3193085
:104A800010F01E30C8F31B3251F01D3249F4689407
:104A900006C00E948925610F711D811D911D119114
:104AA00010531A30B0F33EF490958095709561954F
:104AB0007F4F8F4F9F4F1F91089545E259E00E940D
:104AC00062250895FA01A191B081009719F4109719
:104AD000E1F0CD01DC01CD010D90002011F4C00109
:104AE00013C0FB012191222319F02015D9F7F3CF30
:104AF000FB012191201519F41E92119606C0222364
:104B0000C1F70D900020A1F7D001FA01A193B08365
:104B10000895592F482F372F262F660F771F881F8C
:104B2000991F660F771F881F991F620F731F841FBD
:104B3000951F660F771F881F991F08957AE0979F2A
:104B4000902D879F802D910D11240895B0E0A0E055
:104B5000ECEAF5E20C9465285C017B0161157105B6
:104B600019F0DB018D939C9385010F5F1F4FF501B9
:104B7000D0818D2F90E00E94F6266C01892BB9F52B
:104B8000DD32B9F50F5F1F4FD5011196DC91C1E001
:104B90005801F1E0AF1AB10843E050E062ED70E077
:104BA000C5010E94FF26892B69F5680182E0C80EC5
:104BB000D11C45E050E06DEC70E0C6010E94FF267C
:104BC000892B21F4680197E0C90ED11CE114F1048E
:104BD00019F0D701CD92DC9260E070E080E89FEFA1
:104BE000C111FFC060E070E080E89FE7FAC05801A3
:104BF000BBCFDB3229F485010E5F1F4FF501D18158
:104C0000C0E0C6CF43E050E06AEC70E0C5010E940E
:104C1000FF26892BE9F0F80110E000E020E030E009
:104C2000A9015F01B0ED8B2E8D0E89E08815C8F1CA
:104C30009C2E689491F88C2F8870C2FF16C0811149
:104C400002C00F5F1F4F3196D501DC91C92DE9CF0E
:104C5000E114F10429F00E5F1F4FF7011183008367
:104C600060E070E080EC9FE7BCC0882311F0015049
:104C70001109A5E0B0E00E9454289B01AC01220F6D
:104C8000331F441F551F280D311D411D511D28394B
:104C900099E93907490799E15907A8F2C6609C2E9E
:104CA000D2CFAEEF8A1206C0C3FD3CC09C2E6894E2
:104CB00093F8C9CFDF7DD534A9F580818D3239F4E1
:104CC000C061DF011296818162E070E006C0DF0101
:104CD0008B32C1F3119661E070E080535D01A61A3A
:104CE000B70A8A30F8F4E0E8CE16ECE0DE065CF4B1
:104CF000B601660F771F660F771FC60ED71ECC0C46
:104D0000DD1CC80ED11C5D01FFEFAF1ABF0A8C91EC
:104D100080538A30A8F1C4FF03C0D194C194D10854
:104D20000C0D1D1DC1FF09C0E114F10431F081E03B
:104D3000A81AB108D701AD92BC92CA01B9010E946C
:104D40001C27C370C33009F490584B015C0120E06C
:104D500030E0A9010E941727882309F440C0C1E070
:104D6000D1E017FF05C0119501951109C9EED0E0FA
:104D70006E01B8E1CB1AD10880E2E82EF12C0FC009
:104D8000D501B1CFFE0125913591459154910E1970
:104D90001F09C501B4010E947D274B015C01D501AB
:104DA000C4010E151F0574F72497F594E794CC16EB
:104DB000DD06A9F78A2F880F8B2F881F8F3F49F0B8
:104DC00020E030E0A901C501B4010E94172781113C
:104DD00006C082E290E09093280980932709C501DC
:104DE000B401CDB7DEB7ECE00C94812891110C949E
:104DF000EA27803219F089508550C8F70895FB01E1
:104E0000DC014150504088F08D9181341CF08B358D
:104E10000CF4805E659161341CF06B350CF4605EBF
:104E2000861B611171F3990B0895881BFCCF0E94BA
:104E3000592708F481E00895E89409C097FB3EF4EF
:104E400090958095709561957F4F8F4F9F4F9923D7
:104E5000A9F0F92F96E9BB279395F6958795779555
:104E60006795B795F111F8CFFAF4BB0F11F460FF15
:104E70001BC06F5F7F4F8F4F9F4F16C0882311F06D
:104E800096E911C0772321F09EE8872F762F05C081
:104E9000662371F096E8862F70E060E02AF09A951C
:104EA000660F771F881FDAF7880F9695879597F911
:104EB0000895990F0008550FAA0BE0E8FEEF1616AB
:104EC0001706E807F907C0F012161306E407F507FE
:104ED00098F0621B730B840B950B39F40A2661F072
:104EE000232B242B252B21F408950A2609F4A14015
:104EF000A6958FEF811D811D08950E9490270C9427
:104F000004280E94F62738F00E94FD2720F0952300
:104F100011F00C94ED270C94F32711240C943828ED
:104F20000E94152870F3959FC1F3950F50E0551F0F
:104F3000629FF001729FBB27F00DB11D639FAA27EE
:104F4000F00DB11DAA1F649F6627B00DA11D661F3D
:104F5000829F2227B00DA11D621F739FB00DA11D5E
:104F6000621F839FA00D611D221F749F3327A00D18
:104F7000611D231F849F600D211D822F762F6A2FB4
:104F800011249F5750409AF0F1F088234AF0EE0F19
:104F9000FF1FBB1F661F771F881F91505040A9F746
:104FA0009E3F510580F00C94ED270C9438285F3F0C
:104FB000E4F3983ED4F3869577956795B795F79582
:104FC000E7959F5FC1F7FE2B880F911D96958795FA
:104FD00097F9089599278827089597F99F6780E89A
:104FE00070E060E008959FEF80EC089500240A943B
:104FF0001616170618060906089500240A941216B4
:105000001306140605060895092E0394000C11F4E6
:10501000882352F0BB0F40F4BF2B11F460FF04C093
:105020006F5F7F4F8F4F9F4F089557FD9058440FEC
:10503000551F59F05F3F71F04795880F97FB991FF7
:1050400061F09F3F79F087950895121613061406B4
:10505000551FF2CF4695F1DF08C016161706180641
:10506000991FF1CF86957105610508940895E8941C
:10507000BB2766277727CB0197F90895F999FECFCB
:1050800092BD81BDF89A992780B50895262FF99988
:10509000FECF1FBA92BD81BD20BD0FB6F894FA9A1B
:1050A000F99A0FBE019608950E949628A59F900D2B
:1050B000B49F900DA49F800D911D112408952F92EF
:1050C0003F924F925F926F927F928F929F92AF9298
:1050D000BF92CF92DF92EF92FF920F931F93CF93E5
:1050E000DF93CDB7DEB7CA1BDB0B0FB6F894DEBF7C
:1050F0000FBECDBF09942A88398848885F846E84A2
:105100007D848C849B84AA84B984C884DF80EE80EB
:10511000FD800C811B81AA81B981CE0FD11D0FB6F4
:10512000F894DEBF0FBECDBFED010895A29FB00180
:10513000B39FC001A39F700D811D1124911DB29FCB
:10514000700D811D1124911D0895AA1BBB1B51E1F7
:1051500007C0AA1FBB1FA617B70710F0A61BB70BE7
:10516000881F991F5A95A9F780959095BC01CD018C
:10517000089597FB072E16F4009407D077FD09D009
:105180000E94A52807FC05D03EF4909581959F4F7D
:105190000895709561957F4F0895A1E21A2EAA1B7C
:1051A000BB1BFD010DC0AA1FBB1FEE1FFF1FA217D7
:1051B000B307E407F50720F0A21BB30BE40BF50BD4
:1051C000661F771F881F991F1A9469F7609570955D
:1051D000809590959B01AC01BD01CF010895EE0F24
:1051E000FF1F0590F491E02D09940E949628B7FFC7
:1051F0000895821B930B08955058BB27AA270E943D
:1052000014290C9404280E94F62738F00E94FD27E8
:1052100020F039F49F3F19F426F40C94F3270EF490
:10522000E095E7FB0C94ED27E92F0E94152858F331
:10523000BA17620773078407950720F079F4A6F57B
:105240000C9437280EF4E0950B2EBA2FA02D0B01ED
:10525000B90190010C01CA01A0011124FF27591BBB
:1052600099F0593F50F4503E68F11A16F040A22FC1
:10527000232F342F4427585FF3CF46953795279532
:10528000A795F0405395C9F77EF41F16BA0B620B31
:10529000730B840BBAF09150A1F0FF0FBB1F661F78
:1052A000771F881FC2F70EC0BA0F621F731F841FBB
:1052B00048F4879577956795B795F7959E3F08F0E1
:1052C000B0CF9395880F08F09927EE0F97958795A3
:1052D00008950E94182AE3950C94412A0E9482297D
:1052E0000C9404280E94FD2758F00E94F62740F0F5
:1052F00029F45F3F29F00C94ED2751110C943828C4
:105300000C94F3270E94152868F39923B1F35523D1
:1053100091F3951B550BBB27AA27621773078407C8
:1053200038F09F5F5F4F220F331F441FAA1FA9F35E
:1053300035D00E2E3AF0E0E832D091505040E6954C
:10534000001CCAF72BD0FE2F29D0660F771F881FAD
:10535000BB1F261737074807AB07B0E809F0BB0BA0
:10536000802DBF01FF2793585F4F3AF09E3F5105B4
:1053700078F00C94ED270C9438285F3FE4F3983EC6
:10538000D4F3869577956795B795F7959F5FC9F79D
:10539000880F911D9695879597F90895E1E0660F1E
:1053A000771F881FBB1F621773078407BA0720F097
:1053B000621B730B840BBA0BEE1F88F7E095089500
:1053C0000E94E7296894B1110C94382808950E942E
:1053D0001D2888F09F5798F0B92F9927B751B0F042
:1053E000E1F0660F771F881F991F1AF0BA95C9F769
:1053F00014C0B13091F00E943728B1E008950C94A8
:105400003728672F782F8827B85F39F0B93FCCF35A
:10541000869577956795B395D9F73EF490958095E5
:10542000709561957F4F8F4F9F4F08950C94F32790
:105430000E941D28D8F3E894E0E0BB279F57F0F0C6
:105440002AED3FE049EC06C0EE0FBB0F661F771F49
:10545000881F28F0B23A62077307840728F0B25A0F
:10546000620B730B840BE3959A9572F7803830F4D6
:105470009A95BB0F661F771F881FD2F790480C9430
:10548000A72AEF93E0FF07C0A2EA2AED3FE049EC2C
:105490005FEB0E9414290E9404280F90039401FCE2
:1054A0009058ECEAF0E00C94BA2A0E94592708F4CC
:1054B0008FEF089519F416F40C94F3270C94A52A91
:1054C0000E941D28B8F39923C9F3B6F39F57550BD3
:1054D00087FF0E94B32A0024A0E640EA900180588A
:1054E0005695979528F4805C660F771F881F20F0EB
:1054F00026173707480730F4621B730B840B2029EB
:1055000031294A2BA69517940794202531254A273F
:1055100058F7660F771F881F20F0261737074807B0
:1055200030F4620B730B840B200D311D411DA095CF
:1055300081F7B901842F9158880F96958795089522
:105540000E945927880B990B08959F3F31F0915085
:1055500020F4879577956795B795880F911D969557
:10556000879597F9089591505040660F771F881FCF
:10557000D2F708959F938F937F936F93FF93EF9349
:105580009B01AC010E947D27EF91FF910E94CE2AE2
:105590002F913F914F915F910C947D27DF93CF9393
:1055A0001F930F93FF92EF92DF927B018C0168941F
:1055B00006C0DA2EEF010E949027FE01E894A59123
:1055C0002591359145915591A6F3EF010E9414293B
:1055D000FE019701A801DA9469F7DF90EF90FF9040
:1055E0000F911F91CF91DF91089581E090E0F894A1
:1055F0000C94112BFB01DC018D910190801901109D
:10560000D9F3990B0895FB01DC014150504030F073
:105610008D910190801919F40020B9F7881B990B1E
:065620000895F894FFCF8D
:10562600FFFFFFFF00E10000000000000101000194
:10563600000080BF0164000000000000FFFFFFFFC4
:10564600FFFFFFFFFFC878280000C180810000002F
:10565600000000002D0E2D0E2D0EBC0B8607B80B7C
:10566600B50BB20B00000000880A220A200ABC0B08
:105676008607B80BB50B4404C60700000000AB054F
:105686000C053905F7056A0548055C0500000000AC
:10569600980617064004CE061B07D906F7060D0A1C
:1056A600006E616E00696E66006F766600200050BF
:1056B600494E4700474745540053415645004C4F15
:1056C60041440053545245414D00434F4C4C414DCB
:1056D60042444100414C45525400414C45525443CA
:1056E6004F4C4F520043414C4942005452454E44A0
:1056F600524F575300535441424C45004D41564773
:1057060000535241544500414C41524D00414252D2
:10571600494748540044494553454C0043454E5477
:105726004552004C4F57004D4150005445535400CC
:10573600475053454E004750535054004752414E30
:10574600474500424F4C494D0042444542004252B3
:105756004F570042434F4C00424C41500042524585
:10576600534554004C4150524553455400524D4305
:065776000047474100005E
:00000001FF
