:100000000C948E010C94B6010C94B6010C94B601BC
:100010000C94B6010C94B6010C94B6010C94B60184
:100020000C94B6010C94B6010C94670D0C94D60D8B
:100030000C94B6010C94B6010C94B6010C94B60164
:100040000C94B6010C94B6010C94B6010C94B60154
:100050000C94B6010C94B6010C94B6010C941D0DD1
:100060000C94B6010C94B6010C94B6010C94B60134
:100070000C94B6010C94B6010C94B6010C94B60124
:100080000C94B6010C94B6010C94B6010C94B60114
:100090000C94B6010C94B6010C94B6010C94B60104
:1000A0000C94B6010C94B6010C94B6014E414E4925
:1000B0004E495459494E46CDCCCC3D0AD7233C1726
:1000C000B7D13877CC2B329595E6241FB14F0A0073
:1000D0000020410000C84200401C4620BCBE4CCA63
:1000E0001B0E5AAEC59D74080B00020202000009E7
:1000F0000400000102020000052400100105240193
:1001000001010424020605240600010705810310ED
:10011000004009040100020A000000070502024035
:1001200000000705830240000004030904120100D7
:1001300002EF020140412337800001010203014127
:10014000726475696E6F204C4C430041726475692E
:100150006E6F204D6963726F00000000002400275D
:10016000002A002D003000204D41503D0020434525
:100170004E5445523D002044494553454C3D0020D6
:100180004252494748543D0020414C41524D3D00A8
:100190002053524154453D00204D4156473D0020DB
:1001A000535441423D0020524F57533D002043419C
:1001B0004C3D0020414252494748543D0020414CAB
:1001C0004552543D002043004346470045525220CB
:1001D000004F4B2054455354004F4B204D4150008D
:1001E0004F4B2043454E544552004F4B2044494508
:1001F00053454C004F4B2041425249474854004F11
:100200004B20425249474854004F4B20414C4152E9
:100210004D004F4B205352415445004F4B204D4110
:100220005647004F4B20535441424C45004F4B2002
:100230005452454E44524F5753004F4B2043414C6C
:100240004942004F4B20414C455254434F4C4F5272
:10025000004F4B20414C455254004F4B20434F4CD4
:100260004C414D424441004F4B20434F4C4F5200B4
:100270004F4B2053545245414D004F4B204C4F4162
:1002800044004F4B205341564500504F4E4720509D
:1002900061696E656C4C616D626461207631000746
:1002A0000605040100080A0B0C0D0944200000009B
:1002B0000000250028002B002E0031000404040457
:1002C00004030405020202020403020202020606FB
:1002D00006060606040402020204040408020110D1
:1002E000408040102040804080080204018040206F
:1002F0001002011080102040402000000002000980
:100300000F0000030401000C0000000000000000CA
:1003100000000000000000000000081011241FBEB3
:10032000CFEFDAE0DEBFCDBF27E0A4EFB1E001C040
:100330001D92AF37B207E1F711E0A0E0B1E0E2ECC7
:10034000FDE302C005900D92A43FB107D9F711E07B
:10035000CEE8D1E004C02197FE010E94AC1DCD384B
:10036000D107C9F70E942F100C94DF1E0C940000D7
:10037000EEE2F6E0DC012D913D914C912193319319
:100380004193B6E0EE3EFB07A9F70895E4E0F3E001
:100390002491E5EEF2E03491E6ECF2E094919923B9
:1003A00009F430C02223E9F021502F30D0F4E22F9D
:1003B000F0E0E352FE4F0C94AC1D0B020F02EC0177
:1003C00003020702F101F101F101120218021C02FD
:1003D00020022602F1012A02209180002F7720932B
:1003E0008000E92FF0E0EE0FFF1FE255FD4FA591D1
:1003F000B4919FB7F894EC91811132C030953E23AF
:100400003C939FBF0895209180002F7DE8CF2091DD
:100410008000277FE4CF24B52F7724BDE2CF24B519
:100420002F7DFBCF209190002F7720939000D9CF84
:10043000209190002F7DF9CF20919000277FF5CF5C
:100440002091C0002F772093C000CBCF2091C00017
:100450002F7DF9CF2091C200277F2093C200C1CF0A
:100460003E2BCECFFC0180912D06882311F13FB7A2
:10047000F89482E08093E9002091F200822F90E0CE
:100480001816190614F481E090E0882339F0289AB0
:1004900044E640932C064091F1004083222339F03A
:1004A0002091F200211103C02BE62093E8003FBF0A
:1004B00008958FEF9FEF08952FB7F89483E080930E
:1004C000E9009091E800892F807295FF04C0909117
:1004D000F20080E4891B2FBF0895809124068111CA
:1004E0000DC082E08093200684E080932106109264
:1004F00023061092220681E08093240680E296E093
:1005000008953FB7F89480911C0690911D06A09124
:100510001E06B0911F0626B5A89B05C02F3F19F0F7
:100520000196A11DB11D3FBFBA2FA92F982F882773
:10053000BC01CD01620F711D811D911D42E0660F4E
:10054000771F881F991F4A95D1F70895AF92BF92E0
:10055000DF92EF92FF920F931F93CF93DF93D82EEA
:100560008091710790917207A0917307B091740701
:10057000892B8A2B8B2BD9F00E94810200911A07BC
:1005800010911B0720911C0730911D07601B710BF8
:10059000820B930B009171071091720720917307E2
:1005A000309174076017710782079307C8F20E94A1
:1005B000810260931A0770931B0780931C07909326
:1005C0001D07E0917907F0917A07309759F0409133
:1005D00075075091760760917707709178078D2D98
:1005E0000995D82EC0911807D091190788EFE82EE9
:1005F00086E0F82E8701209749F187E00831180737
:1006000029F18D858823F1F0E881F981A284B384F2
:100610000680F781E02DCE010995BC01CE01F501E0
:100620000995F8019183808380916F0790917007FD
:100630008436910508F41C860C80DD81C02D0E5F88
:100640001F4FD9CFF80111821082EECFC091180749
:10065000D091190700E110E02097A9F08D8588233B
:1006600061F04E855F856A817B81E881F981028036
:10067000F381E02D2D2DCE0109950C80DD81C02D5B
:100680000150110949F7C0911807D0911907209717
:10069000C9F0F8E1EF16F7E0FF06A1F08D85882399
:1006A00051F0F70160817181E881F9810484F58559
:1006B000E02DCE0109950C80DD81C02DF2E0EF0E1A
:1006C000F11CE5CF8091F6069091F7069C012F5F13
:1006D0003F4F3093F7062093F60649970CF44AC033
:1006E0008FB7F8942091EE063091EF064091F00616
:1006F0005091F1068FBF8091F2069091F306A09180
:10070000F406B091F506281B390B4A0B5B0B21F45C
:1007100021E030E040E050E0E091F606F091F7068D
:1007200088EE93E0E89FB001E99F700DF89F700D8F
:100730001124072E000C880B990B0E948A1D309300
:10074000700720936F071092F7061092F6062FB7E6
:10075000F8948091EE069091EF06A091F006B0918A
:10076000F1062FBF8093F2069093F306A093F40650
:10077000B093F506DF91CF911F910F91FF90EF900D
:10078000DF90BF90AF900895CF92DF92EF92FF92EB
:100790000E9481026B017C010E9481026C197D091B
:1007A0008E099F09683E734081059105A8F3FF906B
:1007B000EF90DF90CF90089580E991E00895409107
:1007C000F8015091F9012091F6013091F70142179B
:1007D0005307B4F49091E8009570E1F39091E8002C
:1007E00092FD19C08093F1008091F8019091F90178
:1007F00001968F739927892B19F48EEF8093E80067
:100800008091F8019091F90101969093F9018093FC
:10081000F80181E0089580E00895EF92FF920F9330
:100820001F93CF93DF93F82E192FE62E042F81E02C
:10083000860F880F0E94DF0383E00E94DF03CF2D25
:10084000D12FEC0EFD2EF11CCE15DF05B9F007FF00
:1008500013C0FE0184910E94DF03182F80E00E94E4
:10086000DF03812321968111EFCFDF91CF911F917B
:100870000F91FF90EF9008958881EDCF81E0F5CF43
:10088000DF92EF92FF920F931F93CF93DF93D82EB7
:100890008A01EB017B01E40EF51ECE15DF0559F050
:1008A000D7FE12C0FE0184910E94DF0321968111C0
:1008B000F4CF0FEF1FEFC801DF91CF911F910F9180
:1008C000FF90EF90DF9008958881EECF0F931F93F4
:1008D000CF93DF931F92CDB7DEB782E0898342E4E6
:1008E00050E067EE70E080E80E9440040E946D02D4
:1008F000DC0112960D911C910115110589F0D801AA
:10090000ED91FC910280F381E02DBE016F5F7F4F7E
:10091000C801099597FD04C0F80100851185ECCF49
:1009200089810F90DF91CF911F910F9108956150B0
:1009300030F02091F100FC0120830196F8CF289A35
:1009400084E680932C0608958F929F92AF92BF9277
:10095000CF92DF92EF92FF920F931F93CF93DF938B
:100960006C017B018A0180910B01882309F458C036
:1009700080912D06882309F453C08091FC0180FFEB
:1009800005C08091E00082608093E000E801B12C16
:100990008AEFA82E93E0892E2AE3922E209711F455
:1009A000BB20B9F10E945C02811106C0AA94AA2062
:1009B000B9F10E94C403F2CF8C171D0611F00CF0A0
:1009C0008C2F9FB7F8948092E9002091E80025FDD4
:1009D00002C09FBFE3CF282F30E0C21BD30BF7012B
:1009E000815020F041914093F100FACFE20EF31EC6
:1009F000BB2021F09092E800B12CEBCF8091E80071
:100A000085FDE7CF9092E800BB24B394209709F3CB
:100A1000F3CF5D9A84E68093FB01101611063CF03B
:100A200081E090E0F6019383828310E000E0C8014A
:100A3000DF91CF911F910F91FF90EF90DF90CF90BA
:100A4000BF90AF909F908F900895CF93DF931F92A8
:100A5000CDB7DEB76983DC01ED91FC910280F381B3
:100A6000E02D41E050E0BE016F5F7F4F09950F9090
:100A7000DF91CF910895682F8EE197E00C942505C2
:100A80000F931F93CF93DF938C01D0E0C0E0F80168
:100A9000EC0FFD1F6491662341F08EE197E00E9408
:100AA0002505892B11F02196F2CFCE01DF91CF9150
:100AB0001F910F91089583E08093E9008091F200E7
:100AC000882319F08AE38093E80008950E945C026D
:100AD00090E00895CF93DF931F92CDB7DEB7FC016E
:100AE0008485958597FD08C02FEF3FEF35872487D4
:100AF0000F90DF91CF910895CE0101960E943202AE
:100B0000019719F4898190E0F3CF8FEF9FEFF0CF39
:100B10000F931F93CF93DF931F92CDB7DEB78C0156
:100B2000FC018485958597FF0BC0CE0101960E943C
:100B30003202019771F4898190E0F80195878487EA
:100B4000F801848595850F90DF91CF911F910F91CA
:100B500008958FEF9FEFF1CFFC018485958597FD78
:100B60000BC09FB7F89482E08093E9008091F20077
:100B70009FBF90E0019608959FB7F89482E080931C
:100B8000E9008091F2009FBF90E00895AF92BF927C
:100B9000CF92DF92EF92FF920F931F93CF93DF9349
:100BA00000D01F92CDB7DEB75A0119821A821B827C
:100BB000882361F18B01E1E0F0E0E82EF12CD8010F
:100BC0002D918D012223F1F06F01B1E0CB1AD108F4
:100BD000D501AC0DBD1D4C914423A1F030E02F5F39
:100BE0003F4FD7010E94531DA42FB0E011969B01E7
:100BF000AC010E94111DA1E0B0E0AC0FBD1FAC0D17
:100C0000BD1D8C933196E430F105C9F669817A8176
:100C10008B810F900F900F90DF91CF911F910F91CB
:100C2000FF90EF90DF90CF90BF90AF90089581E05C
:100C300090E008950F931F93CF93DF932091F501D8
:100C40002F5F322F37703093F50120FF2BC020E843
:100C500031FD2064347009F02062205FFC01EC015A
:100C6000239600E011E06785662329F070E0C80153
:100C70000E94761D6F5F6187822F869F080E80E03D
:100C8000811D1124811110C01682662311F061505C
:100C900061873196EC17FD0731F7DF91CF911F91F6
:100CA0000F91089520E0D4CF81508683EECF4F92EC
:100CB0005F927F928F929F92AF92BF92CF92DF927C
:100CC000EF92FF920F931F93CF93DF932C01EB01D1
:100CD0000E948102F20126893789621B730B6A30F8
:100CE0007105B0F3F8948A819B81181619060CF0EF
:100CF000CDC1E881F9816BB1862E689487F83BB14C
:100D00003F773BB9DA848F812D2D281B822F2F83CB
:100D10004C85042E000C550BAA81BB817889FF8479
:100D2000E9887F5FF394E3949E819884B984AB84CF
:100D30001181C12C6C2D0C2D2C2D21811127889413
:100D40002111280F08F42FEF8195889470FD120F60
:100D50001795889471FD120F1795889472FD120FE4
:100D60001795889473FD120F1795889474FD120FD0
:100D70001795889475FD120F1795889476FD120FBC
:100D80001795889477FD120F17958894622F71112B
:100D9000612F8D0D162F002C8BB800C017FF3BB9AB
:100DA00020816627889400C000C0002C3BB9211127
:100DB000290F00C0002C8BB800C016FF3BB908F407
:100DC0002FEF9195889400C000C0002C3BB9F0FC37
:100DD000620F00C0002C8BB800C015FF3BB96795AF
:100DE0008894F1FC620F00C000C0002C3BB96795ED
:100DF000889400C0002C8BB800C014FF3BB9F2FCF3
:100E0000620F6795889400C000C0002C3BB9F3FCCA
:100E1000620F00C0002C8BB800C013FF3BB9679570
:100E20008894F4FC620F00C000C0002C3BB96795A9
:100E3000889400C0002C8BB800C012FF3BB9F5FCB1
:100E4000620F6795889400C000C0002C3BB9F6FC87
:100E5000620F00C0002C8BB800C011FF3BB9679532
:100E60008894F7FC620F00C000C0002C3BB9679566
:100E7000889400C0002C8BB800C010FF3BB9122F23
:100E8000F110162F9B0D00C000C0002C3BB900C014
:100E900000C0002C8BB800C017FF3BB92281662729
:100EA000889400C000C0002C3BB92111290D00C05E
:100EB000002C8BB800C016FF3BB908F42FEFE40FED
:100EC000F51F00C000C0002C3BB9E0FC620F00C061
:100ED000002C8BB800C015FF3BB967958894E1FCE6
:100EE000620F00C000C0002C3BB96795889400C019
:100EF000002C8BB800C014FF3BB9E2FC620F679571
:100F0000889400C000C0002C3BB9E3FC620F00C015
:100F1000002C8BB800C013FF3BB967958894E4FCA4
:100F2000620F00C000C0002C3BB96795889400C0D8
:100F3000002C8BB800C012FF3BB9E5FC620F67952F
:100F4000889400C000C0002C3BB9E6FC620F00C0D2
:100F5000002C8BB800C011FF3BB967958894E7FC63
:100F6000620F00C000C0002C3BB96795889400C098
:100F7000002C8BB800C010FF3BB9122FE110162FC8
:100F8000919400C000C0002C3BB99A0C00C000C076
:100F90008BB800C017FF3BB921816627889400C039
:100FA00000C0002C3BB92111280F00C0002C8BB8C9
:100FB00000C016FF3BB908F42FEF8195889400C05C
:100FC00000C0002C3BB970FD620F00C0002C8BB834
:100FD00000C015FF3BB96795889471FD620F00C092
:100FE00000C0002C3BB96795889400C0002C8BB8DA
:100FF00000C014FF3BB972FD620F6795889400C072
:1010000000C0002C3BB973FD620F00C0002C8BB8F0
:1010100000C013FF3BB96795889474FD620F00C050
:1010200000C0002C3BB96795889400C0002C8BB899
:1010300000C012FF3BB975FD620F6795889400C030
:1010400000C0002C3BB976FD620F00C0002C8BB8AD
:1010500000C011FF3BB96795889477FD620F00C00F
:1010600000C0002C3BB96795889400C0002C8BB859
:1010700000C010FF3BB9122F7111162F8D0D00C04B
:1010800000C0002C3BB9119709F086CEEA81FB81A4
:101090002EE130E0DF010E94B21D30E020E0A90126
:1010A000AAE9EA9F0E0E411DFA9F400D511D112421
:1010B0004F0F511DDC01CB01840F951FA11DB11DE8
:1010C000893E43E09407A105B10508F434C0885E69
:1010D0009340A109B10942E0B695A79597958795E8
:1010E0004A95D1F747E0849F080E211D949F200D5B
:1010F000311D1124290F311D6091F40170E0860F1C
:10110000971F820F931F4091EE065091EF0660915A
:10111000F0067091F106292F3327420F531F611DEE
:10112000711D4093EE065093EF066093F0067093A6
:10113000F1068093F40178940E948102F201778B8A
:10114000668BDF91CF911F910F91FF90EF90DF9011
:10115000CF90BF90AF909F908F907F905F904F9077
:101160000895579A08956F927F928F92CF92DF924F
:10117000EF92FF920F931F93CF93DF93CDB7DEB71C
:1011800062970FB6F894DEBF0FBECDBF8C016B0126
:101190007A01822FA801475F5F4FB8016A5F7F4FD6
:1011A0000E94C6053B01882ED8011C962C91C701D0
:1011B000F7FE04C0882799278E199F09DA82C98211
:1011C0009C838B839E838D83688A798A8A8A213067
:1011D00049F5CE0101960E941A0683E08D871F868D
:1011E0001E86F7FE02C08DEF8D87D801ED91FC9130
:1011F0000088F189E02DBE016F5F7F4FC80109951E
:1012000062960FB6F894DEBF0FBECDBFDF91CF91CF
:101210001F910F91FF90EF90DF90CF908F907F9074
:101220006F9008951C861B861A86198618861F8261
:10123000D4CFCF92DF92EF92FF920F931F93CF9371
:10124000DF93CDB7DEB762970FB6F894DEBF0FBE5F
:10125000CDBF8C016B017A01822FA801475F5F4FE0
:10126000B8016A5F7F4F0E94C6059B01482FD801D5
:101270001C968C91DA82C982FC82EB82FE82ED821E
:10128000288B398B4A8B813009F5CE0101960E945B
:101290001A061D861F861E86D801ED91FC910088D6
:1012A000F189E02DBE016F5F7F4FC80109956296FD
:1012B0000FB6F894DEBF0FBECDBFDF91CF911F9167
:1012C0000F91FF90EF90DF90CF9008951C861B86C2
:1012D0001A86198618861F82DCCF0895909102061F
:1012E000911103C0962F682F892F909100069923A2
:1012F00019F097E0961B692F90910106992319F038
:1013000097E0981B892F98E0899F9001112470E045
:101310009091FF05992339F080FF05C0C901861B14
:10132000970B07960895C901860F971F089580911E
:10133000F3059091F405892B31F481E090E09093CE
:10134000F4058093F3058091F3059091F405853FB2
:10135000914030F084EF91E09093F4058093F30591
:101360002091F3053091F40550E040E068EE73E021
:1013700080E090E00E948A1D223031054105510530
:1013800008F448C0209310013093110140931201DA
:10139000509313016091F1057091F20590E080E0A7
:1013A00020911001309111014091120150911301CF
:1013B0000E948A1DC901892BD1F130930E0120931F
:1013C0000D0180910D0190910E01893C910530F045
:1013D00088EC90E090930E0180930D0110928105AE
:1013E000109287051092860510928205109283054F
:1013F0001092840510928505E1E6F2E011921192B7
:101400001192119285E0E138F807C1F78FEF8093D0
:101410006E07089582E090E0A0E0B0E080931001B4
:1014200090931101A0931201B0931301B3CF81E007
:1014300090E090930E0180930D01C3CFCF9394E081
:10144000899FF0011124E956FA4F628D738D848DC6
:10145000958D20910706309108064091090650911C
:101460000A06E091FA05C1E0EE2331F00E94C71EA2
:1014700087FF06C0C0E004C00E94D41B1816D4F336
:101480008C2FCF91089590E080E00895FC0164874F
:101490000895FC01848590E00895FC018685978578
:1014A0000895FC019081992321F0929F912D09F0DC
:1014B0009F5F9083FB018081882321F0829F812D93
:1014C00009F08F5F8083FA018081882321F0829F59
:1014D000812D09F08F5F808311240895FC01019014
:1014E0000020E9F73197AF01481B590BBC018EE191
:1014F00097E00C94A4048F929F92AF92BF920F93A7
:101500001F93CF93DF93CDB7DEB7A1970FB6F894B3
:10151000DEBF0FBECDBF19A2423008F44AE08E01F3
:101520000F5D1F4F842E912CB12CA12CA50194018D
:101530000E948A1DE62FB901CA01EA30F4F4E05D89
:10154000D801EE938D01232B242B252B79F790E0E6
:1015500080E0109719F0CD010E946E0AA1960FB697
:10156000F894DEBF0FBECDBFDF91CF911F910F91D9
:10157000BF90AF909F908F900895E95CE1CFCF939B
:10158000DF930E944005EC0187E691E00E946E0A1D
:101590008C0F9D1FDF91CF910895682F70E090E030
:1015A00080E04AE00C947B0A4F925F926F927F92A8
:1015B0008F929F92AF92BF92CF92DF92EF92FF9263
:1015C000CF936B017C01AC019B010E94CC1E882350
:1015D00089F08AE691E0CF91FF90EF90DF90CF9075
:1015E000BF90AF909F908F907F906F905F904F9043
:1015F0000C946E0A46015701E894B7F82FEF3FEFBD
:101600004FE75FE7C501B4010E94CC1E81110DC0F8
:101610002FEF3FEF4FE75FE7C501B4010E94D41BF6
:1016200018161CF48EE691E0D6CF2FEF3FEF4FE770
:101630005FE4C701B6010E94C71E18161CF482E7BA
:1016400091E0C9CF2FEF3FEF4FE75FECC701B60145
:101650000E94D41B87FDF3CF20E030E0A901C70131
:10166000B6010E94D41BB12CA12C87FF08C08DE2CB
:101670000E943B055C01F7FAF094F7F8F0942EE62F
:1016800032E143E05AE3C701B6010E94BA1D2B01C3
:101690003C010E94981E6B017C010E94D91B9B019A
:1016A000AC01C301B2010E94B91D2B013C014AE00B
:1016B000C701B6010E947B0A7C01EA0CFB1C8EE28A
:1016C0000E943B05E80EF91EC4E0C15019F120E06C
:1016D00030E040E251E4C301B2010E943A1C2B0108
:1016E0003C010E94981E4B01B12CA12C4AE0C5017F
:1016F000B4010E947B0AE80EF91EC501B4010E94E4
:10170000D91B9B01AC01C301B2010E94B91D2B0181
:101710003C01DBCFC701CF91FF90EF90DF90CF90DE
:10172000BF90AF909F908F907F906F905F904F9001
:101730000895CF92DF92EF92FF92CF93DF936C01E7
:10174000092E000CEE08FF0897FF17C08DE20E94DB
:101750003B05EC0166277727CB016C197D098E09C3
:101760009F094AE00E947B0A8C0F9D1FDF91CF9159
:10177000FF90EF90DF90CF9008954AE0C701B60147
:10178000DF91CF91FF90EF90DF90CF900C947B0A88
:101790000E94D11EFF920F931F93CF93DF9307E90F
:1017A00015E0D0E0C0E0F801F1908F01CE010E9479
:1017B000FB1CF81621F06F2DCE010E94031D21960F
:1017C000CC36D10581F7DF91CF911F910F91FF901A
:1017D00008958F929F92AF92BF92CF92DF92EF9235
:1017E000FF920F931F93CF93DF93CDB7DEB7609730
:1017F0000FB6F894DEBF0FBECDBF27E9E22E25E07D
:10180000F22E10E000E0C8010E94FB1CF70181935A
:101810007F010F5F1F4F0C361105A9F780919705C7
:10182000873A29F480919805853009F4F3C087EA56
:101830008093970585E08093980588E0E4E1F1E0E6
:10184000DE01199601900D928A95E1F788E0ECE1AE
:10185000F1E0DE01119601900D928A95E1F74E01BB
:10186000F9E08F0E911C89E9C82E85E0D82E8E01F3
:101870000F5F1F4F91EBA92E95E0B92EF12CE12CB3
:10188000F40181914F01F60181936F01F80181917B
:101890008F01F60187831786B7010F2C000C880B88
:1018A000990B0E94DB1B2DEC3CEC4CEC5DE30E94A1
:1018B0003A1C23E333E343E35FE30E94BA1DF501DF
:1018C00061937193819391935F01FFEFEF1AFF0A88
:1018D00088E0E816F104A1F68CE291E09093D2053D
:1018E0008093D10581E08093D3059FEF9093D40539
:1018F0001092D5051092D60528EB3BE03093D80521
:101900002093D7059093D90540E050E060E87FE34D
:101910004093DA055093DB056093DC057093DD0599
:101920004DEC5CEC6CEC7EE34093DE055093DF0500
:101930006093E0057093E10540E050E060E870E4FA
:101940004093E2055093E3056093E4057093E50549
:1019500041E75DE36AEC7FE34093E6055093E705DA
:101960006093E8057093E90527E02093EA0520EEEF
:101970002093EB0528E32093EC054AE057ED63EA5A
:101980007CE34093ED055093EE056093EF05709373
:10199000F00524EF31E03093F2052093F10522E3C6
:1019A00030E03093F4052093F30541E75DE36AEA04
:1019B0007FE34093F5055093F6056093F705709328
:1019C000F80528E22093F9058093FA058093FB053A
:1019D0001092FC059093FD051092FE058093FF0583
:1019E00010920006109201061092020660960FB641
:1019F000F894DEBF0FBECDBFDF91CF911F910F9145
:101A0000FF90EF90DF90CF90BF90AF909F908F901E
:101A10000C94CA0B60960FB6F894DEBF0FBECDBF14
:101A2000DF91CF911F910F91FF90EF90DF90CF90BA
:101A3000BF90AF909F908F9008951F920F920FB616
:101A40000F9211242F933F938F939F93AF93BF9344
:101A50008091EE069091EF06A091F006B091F1060C
:101A600030911B0623E0230F2D3758F50196A11D59
:101A7000B11D20931B068093EE069093EF06A09372
:101A8000F006B093F10680911C0690911D06A0917E
:101A90001E06B0911F060196A11DB11D80931C0664
:101AA00090931D06A0931E06B0931F06BF91AF91A1
:101AB0009F918F913F912F910F900FBE0F901F908C
:101AC000189526E8230F0296A11DB11DD2CF1F92B3
:101AD0000F920FB60F9211248F939F938091E10084
:101AE0009091E100937F9093E10083FF0FC01092EB
:101AF000E90091E09093EB001092EC0092E3909358
:101B0000ED0010922D0698E09093F00082FF22C025
:101B100093E09093E9009091F200992319F09AE3F1
:101B20009093E8009091FB01992341F09091FB0183
:101B300091509093FB01911101C05D9890912C06FA
:101B4000992341F090912C06915090932C0691117D
:101B500001C0289884FF18C08091E2008E7E8160C9
:101B60008093E2008091E1008F7E8093E10080917C
:101B7000FC018E7E80618093FC019F918F910F907C
:101B80000FBE0F901F90189580FFF7CF8091E20055
:101B90008E7E80618093E2008091E1008E7E809352
:101BA000E1008091FC018E7E8160E5CF1F920F9253
:101BB0000FB60F921124CF92DF92EF92FF920F9304
:101BC0001F932F933F934F935F936F937F938F93C5
:101BD0009F93AF93BF93EF93FF93CF93DF93CDB7D3
:101BE000DEB76C97DEBFCDBF1092E9008091E800B0
:101BF00083FF25C068E0CE0145960E94970482EFDE
:101C00008093E8008D8987FF39C09091E80090FFAC
:101C1000FCCF982F907609F034C19E894F89588D5A
:101C20002F89F88C911131C0803861F58091FD01C8
:101C30008093F1001092F1008EEF8093E8006C9693
:101C40000FB6F894DEBF0FBECDBFDF91CF91FF91ED
:101C5000EF91BF91AF919F918F917F916F915F9124
:101C60004F913F912F911F910F91FF90EF90DF9037
:101C7000CF900F900FBE0F901F9018959EEF9093EE
:101C8000E800C7CF1092F100D5CF913059F48111FF
:101C9000D3CF4130510581F68091FD018D7F809336
:101CA000FD01CACF933049F48111C6CF41305105AF
:101CB00019F68091FD018260F2CF953041F4809158
:101CC000E80080FFFCCF20682093E300B5CF96307A
:101CD00009F0A9C00B8D1C8D22E01092E900109232
:101CE000F9011092F801F2122EC01092F701109231
:101CF000F6010E9466041F8299E09983FA8291E0BE
:101D00009E8390EA98879AEF99872091F801309105
:101D1000F901275F3F4F3C832B838D831092E900AD
:101D20001092F9011092F8011093F7010093F60157
:101D300049E050E0BE016F5F7F4F80E00E944004A9
:101D40000E94660479CF1093F7010093F6010E9478
:101D50006D02DC0112960D911C910115110509F41B
:101D600051C1D801ED91FC910480F581E02DBE01B7
:101D70006B5E7F4FC8010995009709F03EC1F801DD
:101D800000851185EACFF3E0FF120EC08F8988230A
:101D900009F440C0823061F440E86DE08BE491E0EA
:101DA0000E940D04811148CF81E28093EB0047CF60
:101DB000813029F440E86BE08FE391E0F1CF83308C
:101DC00099F70E946D02DC011296ED90FC908E0155
:101DD0000F5F1F4F6801E114F10479F0D701ED9115
:101DE000FC910680F781E02DB801C7010995080F25
:101DF000111DF701E084F184EECFD8011C92F601A9
:101E000001900020E9F73197BF016C197D0940E08E
:101E1000C601C6CF69E271E0FB01449150E080E861
:101E20000E94400409CF973009F4BECF983021F4C6
:101E300081E08093F10000CF993009F0FDCE8370EE
:101E400009F0B2CFE5E2F1E081E031E096E32191E3
:101E5000222371F08093E9003093EB00DF011197AA
:101E60002C912093EC009093ED008F5F873079F7F1
:101E70008EE78093EA001092EA008F8980932D0606
:101E8000DBCE8B8D9C8D1092E9001092F90110929F
:101E9000F8019093F7018093F601898D811192C02A
:101EA0008E899D89913A49F4813209F07DCF47E0CE
:101EB00050E064E071E080E0B3CF913209F074CF7C
:101EC000833269F48F89988DB0E0A0E0809300019F
:101ED00090930101A0930201B0930301ADCE803233
:101EE00069F48091E80082FFFCCF67E084E091E034
:101EF0000E9497048BEF8093E8009ECE823209F017
:101F00009BCE8F8980930B01EEEFFFE78591949133
:101F10008B3F9C4D51F1E0E0F8E0809104019091FD
:101F20000501A0910601B0910701803B9440A105F5
:101F3000B105F1F480910B0180FD1AC0EE3F8AE0FB
:101F4000F80789F587E797E79183808380916000A0
:101F50008093FA0188E19BE00FB6F894A8958093EE
:101F600060000FBE9093600067CEEEEFFAE0D5CF31
:101F7000808191818737974709F05ECEA89580913F
:101F800060008861809360008091FA018093600016
:101F9000EE3F2AE0F20789F08091FE0A9091FF0A55
:101FA0009183808349CE808191818737980751F250
:101FB0009093FF0A8093FE0AC5CF1092FF0A1092F9
:101FC000FE0A3ACE0E946D02DC0112960D911C9120
:101FD0000115110509F4E8CED801ED91FC910190AD
:101FE000F081E02DBE016B5E7F4FC8010995811124
:101FF00023CEF80100851185EBCF181619060CF4D5
:102000001BCED2CEF1E0FF12BECE6DE271E004CF66
:10201000EEE1F7E01382128288EE93E0A0E0B0E0F8
:1020200084839583A683B78389E591E09183808338
:102030008FEF9FEF95878487EEE6F7E0808312822B
:102040001182148613868FEF9FEFDC0187839087C0
:10205000A187B28713821482158216820895CF93C6
:10206000DF93CDB7DEB7C555D1090FB6F894DEBF03
:102070000FBECDBF789484B5826084BD84B5816085
:1020800084BD85B5826085BD85B5816085BD809143
:102090006E00816080936E001092810080918100BB
:1020A00082608093810080918100816080938100B3
:1020B0008091800081608093800080919100826097
:1020C0008093910080919100816080939100809134
:1020D00090008160809390008091C1008460809323
:1020E000C1008091C10082608093C1008091C100D5
:1020F00081608093C1008091C30081608093C300A0
:102100008091C00082608093C0008091C200816095
:102110008093C20080917A00846080937A008091DD
:102120007A00826080937A0080917A008160809347
:102130007A0080917A00806880937A0010922D0650
:102140001092FD011092FC018091D7008160809374
:10215000D70080EA8093D80089B5806189BD89B5B0
:10216000826089BD09B400FEFDCF0E94C403809146
:10217000D8008F7C80618093D8008091E000807FC0
:102180008093E0008091E1008E7E8093E1008DE0FD
:102190008093E200559A209A5D9828988FEF9FEFE0
:1021A00090932B0780932A0781E080930C01E5EE42
:1021B000F2E02491E6ECF2E08491882399F090E03B
:1021C000880F991FFC01E75AFE4FA591B491FC01BD
:1021D000E255FD4F859194918FB7F894EC91E22BE5
:1021E000EC938FBF81E00E94C6018091180281119B
:1021F00057C010920302109202028FEF80930602E2
:1022000080930702809308028093090280930A0258
:1022100080930B0281E080930C0280930D02109258
:102220000F0210920E0280E797E1909311028093C3
:10223000100283E090E090931302809312021092B8
:10224000150210921402109205021092040280915D
:10225000180790911907892B31F480E092E0909350
:10226000190780931807E091FE01F091FF01309764
:1022700021F080E092E09583848380E092E0909367
:10228000FF018093FE01109217021092160283E460
:1022900091E0909301028093000281E08093180204
:1022A000579A8EE296E0909303028093020280E4B4
:1022B00090E090930F0280930E02809171079091AD
:1022C0007207A0917307B0917407843C29E09207CC
:1022D000A105B10520F484EC99E0A0E0B0E0809382
:1022E000710790937207A0937307B09374070E94CD
:1022F000E90B0E94970919821A821B82CE0101966E
:102300000E94B80180916E070E94A6021E0131E46E
:10231000230E311CA1014E5F5F4F62965FAF4EAF3F
:102320006297C101019666969FAF8EAF66978EE168
:1023300097E00E94AC05892B09F418C48EE197E060
:102340000E946A05E09160028A3019F08D3009F030
:1023500001C4EE2361F3F0E0E05EFD4F108266E71A
:1023600071E080E292E00E942F1A8C01009751F0F8
:1023700068E771E00E94D61E892B39F48AE892E062
:102380000E94BF0A10926002D2CF6DE771E0C801CF
:102390000E94D61E892B09F045C188EC91E00E946D
:1023A000400509E915E031EBE32E35E0F32ED12CA1
:1023B00085EC91E00E9440058D2D0E94CD0A8DE3B1
:1023C0000E943B05D8018D918D010E94CD0A8CE2BF
:1023D0000E943B05F80187810E94CD0A8CE20E9491
:1023E0003B05D8011F968C910E94CD0A8CE20E9479
:1023F0003B05F70161917191819191917F010E945B
:10240000D40AD394F8E0DF12D3CF8DEB91E00E9491
:1024100040056091D1057091D20590E080E04AE0DE
:102420000E947B0A8CE20E943B058091D3050E94AA
:10243000CD0A8CE20E943B058091D4050E94CD0A12
:102440008CE20E943B058091D5050E94CD0A8CE26A
:102450000E943B058091D6050E94CD0A8CE20E9425
:102460003B056091D7057091D80590E080E04AE087
:102470000E947B0A83EB91E00E9440058091D90580
:102480000E94CD0A8DEA91E00E9440056091DA0534
:102490007091DB058091DC059091DD050E94D40AE6
:1024A0008CE20E943B056091DE057091DF05809112
:1024B000E0059091E1050E94D40A8CE20E943B0560
:1024C0006091E2057091E3058091E4059091E50546
:1024D0000E94D40A8CE20E943B056091E60570914F
:1024E000E7058091E8059091E9050E94D40A86EA03
:1024F00091E00E9440058091EA050E94CD0A8CE29D
:102500000E943B058091EB050E94CD0A8CE20E945F
:102510003B058091EC050E94CD0A8FE991E00E9475
:1025200040056091ED057091EE058091EF05909169
:10253000F0050E94D40A88E991E00E94400560916C
:10254000F1057091F20590E080E04AE00E947B0A7C
:1025500080E991E00E9440056091F3057091F405D7
:1025600090E080E04AE00E947B0A88E891E00E94C7
:1025700040056091F5057091F6058091F705909101
:10258000F8050E94D40A8FE791E00E9440058091EF
:10259000F9050E94CD0A86E791E00E9440058091EE
:1025A000FA050E94CD0A8DE691E00E9440058091D7
:1025B000FB050E94CD0A8CE20E943B058091FC0540
:1025C0000E94CD0A8CE20E943B058091FD050E948D
:1025D000CD0A8CE20E943B058091FE050E94CD0A47
:1025E00087E691E00E9440058091FF050E94CD0A98
:1025F0008CE20E943B05809100060E94CD0A8CE28D
:102600000E943B05809101060E94CD0A8CE20E9447
:102610003B05809102060E94CD0A87E691E00E9468
:102620006E0AB0CE61E871E0C8010E94D61E892B07
:1026300029F40E94CA0B82E892E0A2CE66E871E01B
:10264000C8010E94D61E892B39F40E94E90B0E9412
:1026500097098AE792E094CE6BE871E0C8010E9486
:10266000D61E892B99F466E771E090E080E00E9425
:102670002F1AFC01892B21F091E08081813309F030
:1026800090E090930F0180E792E07ACE67EA71E0E4
:10269000C8010E94D61E892B79F566E771E090E0AB
:1026A00080E00E942F1A0E94111A8C0166E771E0E7
:1026B00090E080E00E942F1A0E94111AE82E66E72F
:1026C00071E090E080E00E942F1A0E94111AF82E0B
:1026D00066E771E090E080E00E942F1A0E94111AD4
:1026E0000830110530F4F801E956FA4FE282F2861B
:1026F000828B87E692E044CE62E971E0C8010E94D5
:10270000D61E892B11F566E771E090E080E00E940B
:102710002F1A0E94111A8C0166E771E090E080E0A8
:102720000E942F1A0E940D1A0830110558F4000F4C
:10273000111F000F111FF801E956FA4F628F738FB6
:10274000848F958F8AE592E01BCE6CE971E0C80119
:102750000E94D61E892B39F566E771E090E080E093
:102760000E942F1A0E94111A9093D2058093D105CE
:1027700066E771E090E080E00E942F1A0E94111A33
:102780008093D30566E771E090E080E00E942F1A05
:10279000009731F00E94111A9093D8058093D705C5
:1027A00081E592E0EDCD62EA71E0C8010E94D61E9B
:1027B000892B09F566E771E090E080E00E942F1A0E
:1027C0000E94111A8093D40566E771E090E080E0E2
:1027D0000E942F1A0E94111A8093D50566E771E0B6
:1027E00090E080E00E942F1A0E94111A8093D60573
:1027F00083E492E0C5CD6DEA71E0C8010E94D61E67
:10280000892B09F043C066E771E090E080E00E9408
:102810002F1A0E940D1A6093DA057093DB058093DE
:10282000DC059093DD0566E771E090E080E00E94B2
:102830002F1A0E940D1A6093DE057093DF058093B6
:10284000E0059093E10566E771E090E080E00E948A
:102850002F1A0E940D1A6093E2057093E30580938E
:10286000E4059093E50566E771E090E080E00E9462
:102870002F1A0E940D1A6093E6057093E705809366
:10288000E8059093E9058AE392E07ACD63EB71E085
:10289000C8010E94D61E892B09F566E771E090E019
:1028A00080E00E942F1A0E94111A8093EA0566E7C1
:1028B00071E090E080E00E942F1A0E94111A80932C
:1028C000EB0566E771E090E080E00E942F1A0E941D
:1028D000111A8093EC058DE292E052CD6DEB71E020
:1028E000C8010E94D61E892B99F466E771E090E03A
:1028F00080E00E942F1A0E940D1A6093ED057093DC
:10290000EE058093EF059093F00583E292E038CDD9
:1029100064EC71E0C8010E94D61E892B89F466E739
:1029200071E090E080E00E942F1A0E94111A9093AB
:10293000F2058093F1050E9497098BE192E020CD8A
:1029400069EC71E0C8010E94D61E892B89F466E704
:1029500071E090E080E00E942F1A0E94111A90937B
:10296000F4058093F3050E94970982E192E008CD77
:102970006FEC71E0C8010E94D61E892B99F466E7BE
:1029800071E090E080E00E942F1A0E940D1A60937F
:10299000F5057093F6058093F7059093F80589E0A7
:1029A00092E0EECC66ED71E0C8010E94D61E892B44
:1029B00069F466E771E090E080E00E942F1A0E94BF
:1029C000111A8093F9058FEF91E0DACC65ED71E093
:1029D000C8010E94D61E892B69F466E771E090E079
:1029E00080E00E942F1A0E94111A8093D90584EF6B
:1029F00091E0C6CC6DED71E0C8010E94D61E892B16
:102A000089F466E771E090E080E00E942F1A0E944E
:102A1000111A21E0892B09F420E02093FA058AEEAF
:102A200091E0AECC64EE71E0C8010E94D61E892B05
:102A300079F566E771E090E080E00E942F1A0E942D
:102A4000111A21E0892B09F420E02093FB0566E7A9
:102A500071E090E080E00E942F1A0E94111A80938A
:102A6000FC0566E771E090E080E00E942F1A0E946A
:102A7000111A8093FD0566E771E090E080E00E9406
:102A80002F1A0E94111A8093FE0580EE91E078CCF7
:102A90006BEE71E0C8010E94D61E892BD9F566E75E
:102AA00071E090E080E00E942F1A0E94111A21E04C
:102AB000892B09F420E02093FF0566E771E090E0A0
:102AC00080E00E942F1A0E94111A21E0892B09F43C
:102AD00020E02093000666E771E090E080E00E942D
:102AE0002F1A0E94111A21E0892B09F420E020936B
:102AF000010666E771E090E080E00E942F1A0E94D4
:102B0000111A21E0892B09F420E02093020689EDB7
:102B100091E036CC6FEE71E0C8010E94D61E892B81
:102B200089F466E771E090E080E00E942F1A0E942D
:102B3000111A21E0892B09F420E02093880581ED0A
:102B400091E01ECC8CEC91E00E944005C8010E94EF
:102B50006E0A63CDEF3308F0EACB91E09E0F9093BD
:102B60006002F0E0E05EFD4F8083E1CB8FB7F89428
:102B70004090EE065090EF066090F0067090F106DF
:102B80008FBF8091170690911806A0911906B091F9
:102B90001A06B301A201481B590B6A0B7B0B8091EB
:102BA000100190911101A0911201B09113014817E9
:102BB00059076A077B0708F41CC140921706509218
:102BC00018066092190670921A06EFE9F2E08491F5
:102BD00020917B00982F990F990F90722F7D922B47
:102BE00090937B0020910C01F0E42F9F9001112421
:102BF0008770822B80937C0080917A008064809320
:102C00007A0080917A0086FDFCCF60917800709107
:102C10007900072E000C880B990B0E94DB1B20E02B
:102C200030E040EA50E40E943A1C20E030EC4FE7EC
:102C300054E40E94261E4B015C0180921306909280
:102C40001406A0921506B09216062091DA0530916E
:102C5000DB054091DC055091DD0528962CAF3DAF9A
:102C60004EAF5FAF28976091E2057091E3058091C8
:102C7000E4059091E5050E94B91D2C966CAF7DAFDF
:102C80008EAF9FAF2C97C090DE05D090DF05E0900F
:102C9000E005F090E1059F772DEB37E346E855E33B
:102CA0000E94D41B87FD36C0A70196016091E605FE
:102CB0007091E7058091E8059091E9050E94B91DA2
:102CC00060966CAF7DAF8EAF9FAF609728962CADAE
:102CD0003DAD4EAD5FAD2897C501B4010E94B91D51
:102CE0009B01AC0160966CAD7DAD8EAD9FAD6097E4
:102CF0000E943A1C2C962CAD3DAD4EAD5FAD2C978D
:102D00000E94261E9B01AC01C701B6010E94BA1D9C
:102D10006B017C01C0920F06D0921006E092110662
:102D2000F0921206209186053091870580900D0162
:102D300090900E01A0908105B12C8501000F111F0C
:102D4000000F111F2815390508F4CAC0F801EF5902
:102D5000FD4F2081318142815381609182057091C4
:102D6000830580918405909185050E94B91D60932B
:102D70008205709383058093840590938505F801FF
:102D8000EF59FD4FC082D182E282F3822091820509
:102D9000309183054091840550918505C701B601A6
:102DA0000E94BA1D6B017C01C0928205D0928305FE
:102DB000E0928405F0928505C5010196B4010E9458
:102DC000621D80938105609186057091870590E072
:102DD00080E00E94D91B9B01AC01C701B6010E9493
:102DE000261E609307067093080680930906909349
:102DF0000A06C0900706D0900806E0900906F090F9
:102E00000A0680910B0690910C06A0910D06B091D8
:102E10000E06A3019201281B390B4A0B5B0BDA014A
:102E2000C9018A3F9105A105B10598F140920B06B1
:102E300050920C0660920D0670920E0620910306C9
:102E4000309104064091050650910606C701B6016F
:102E50000E94B91D28966CAF7DAF8EAF9FAF2897AB
:102E60008090ED059090EE05A090EF05B090F005F4
:102E7000A50194010E94C71E1816CCF531E03093CD
:102E80009605C0920306D0920406E0920506F092E1
:102E900006066091F5057091F6058091F705909111
:102EA000F8052091FA0511E0A7012223A1F196016E
:102EB0000E94C71E87FF34C08091920590919305B0
:102EC000A0919405B091950584199509A609B709B3
:102ED00011E0181619061A061B06B4F110E034C0EA
:102EE0002F5F3F4F309387052093860548CFA5017C
:102EF0009401505828966CAD7DAD8EAD9FAD28974E
:102F00000E94D41B87FF04C08FEF80939605B9CF32
:102F100010929605B6CF96010E94D41B181664F243
:102F20008091D7059091D805A3019201280F391FF0
:102F3000411D511DDA01C9018093920590939305BB
:102F4000A0939405B09395051093910580918D05FC
:102F500090918E05A0918F05B0919005A3019201EB
:102F6000281B390B4A0B5B0BDA01C9014E97A105EF
:102F7000B10508F472C040928D0550928E056092A2
:102F80008F057092900580918805882309F4F6C01A
:102F900081E00E94C60119821A821B82CE0101962D
:102FA0000E94B80110E00FEF60E0812F0E946E09CF
:102FB000FC01EE0FFF1FE80FF91FE25DF94F0083E0
:102FC000118212821F5F183079F700E01FEF602F27
:102FD00080E00E946E09FC01EE0FFF1FE80FF91F51
:102FE000E25DF94F1082118212830F5F083079F78A
:102FF00060E080E00E946E09FC01EE0FFF1FE80F09
:10300000F91FE25DF94F10831183128360E087E0BE
:103010000E946E09FC01EE0FFF1FE80FF91FE25D31
:10302000F94F108280E8818312820EE216E0A80137
:103030004E5F5F4FB8016F5F7F4F2091F905C80168
:103040000E94510A0D5F1F4F4EEE56E04017510788
:1030500071F780916E070E94A60280910F0188236C
:1030600009F484C08091890590918A05A0918B050F
:10307000B0918C05A3019201281B390B4A0B5B0B05
:10308000DA01C90184369105A105B10508F46EC0C5
:103090004092890550928A0560928B0570928C054A
:1030A00010E000E0F12C802F0E941E0A882341F0DE
:1030B00081E090E0002E01C0880F0A94EAF7F82A18
:1030C0000F5F1F4F0830110571F71091FB05112399
:1030D00019F011E0F11010E08BEA92E00E94400537
:1030E0006091130670911406809115069091160652
:1030F0000E94D40A80E20E943B0560910F06709105
:10310000100680911106909112060E94D40A80E266
:103110000E943B05609107067091080680910906A0
:1031200090910A060E94D40A80E20E943B05809199
:103130009605082E000C990B0E94990B80E20E94C4
:103140003B058F2D0E94CD0A80E20E943B058091B5
:10315000910590E00E94990B80E20E943B05812F2F
:103160000E94CD0A87E691E00E946E0A40E050E09E
:10317000452B09F4DCC80E940000D9C819821A82C4
:103180001B82CE0101960E94B801CE0101962696BF
:103190009FAF8EAF26974C01F40111924F01E215BB
:1031A000F305D1F78091960518160CF02EC1809189
:1031B000EA0557E9E52E55E0F52EB12C00E0282F61
:1031C00030E064963FAF2EAF6497802F0E941E0AB6
:1031D000882309F441C0B394D7015296AC9052971A
:1031E0001A96BC912996BFAF2997F701F2812D96C7
:1031F000FFAF2D97D12CC12C64968EAD9FAD6497F7
:103200000C2C02C0959587950A94E2F780FF1DC0AB
:103210006C2D802F0E946E09FC01EE0FFF1FE80F3E
:10322000F91FE25DF94F2D962FAD2D97208329963A
:103230003FAD29973183A28241E050E04C0F5D1FE2
:10324000840F951FE1E0DC01EC93FFEFCF1ADF0A5A
:1032500028E0C216D10481F60F5F3FEFE31AF30AAC
:10326000083009F0B2CF8091FB05882309F447C0EC
:10327000B11045C00091FE05D090FD05C090FC0541
:1032800083E0D1018C9384E011968C937101F70156
:10329000B1907F0163E08B2D0E946E09FC01EE0F5F
:1032A000FF1FE80FF91FE25DF94FC082D182028350
:1032B00021E030E02C0F3D1F820F931FE1E0DC0185
:1032C000EC9364E08B2D0E946E09FC01EE0FFF1F52
:1032D000E80FF91FE25DF94FC082D182028321E03D
:1032E00030E02C0F3D1F820F931FE1E0DC01EC93D7
:1032F00062962EAD3FAD62972E153F0541F6AE01A9
:103300004F5F5F4F6A01F12CE12CD6018D916D0169
:10331000882369F02091F905A701405D594FB70155
:10332000615D794FC701825D994F0E94510AB3E0F8
:10333000EB0EF11CE0ECEE16F10439F781E01123FD
:1033400009F460C08091D305813011F52091D10539
:103350003091D2052115310511F42CE231E04FB73F
:10336000F8946091EE067091EF068091F0069091CE
:10337000F1064FBF50E040E00E948A1DDA01C9010A
:1033800080959095A095B095182F117020FD38C0AC
:103390008091D6059091D5052091D405D1012C932B
:1033A00011969C93119712968C932091D905629651
:1033B0004EAD5FAD629766966EAD7FAD6697C1010B
:1033C0000E94510A2EE236E02696EEADFFAD26971A
:1033D00081912696FFAFEEAF2697811108C0F101CB
:1033E00080819181A281F90180839183A2832D5FE5
:1033F0003F4F26964EAD5FAD26978416950621F772
:1034000081E081270E94C60124CE882319F0809193
:10341000EB05CFCE8091EC05CCCE662777270C94B8
:10342000631AFC0188279927E89421912032E9F357
:10343000293010F02E30C8F32B3241F02D3239F400
:10344000689404C00E945B1A820F911D2191205341
:103450002A30C0F31EF4909581959F4F08954BE755
:1034600057E00E94341A0895FA01A191B0810097A3
:1034700019F41097E1F0CD01DC01CD010D90002091
:1034800011F4C00113C0FB012191222319F0201572
:10349000D9F7F3CFFB012191201519F41E92119653
:1034A00006C02223C1F70D900020A1F7D001FA0138
:1034B000A193B08308957AE0979F902D879F802DE8
:1034C000910D11240895B0E0A0E0E9E6FAE10C9432
:1034D000221D5C017B016115710519F0DB018D93E3
:1034E0009C9385010F5F1F4FF501D0818D2F90E0D8
:1034F0000E94B31B6C01892BB9F5DD32B9F50F5F62
:103500001F4FD5011196DC91C1E05801F1E0AF1ACF
:10351000B10843E050E064EB70E0C5010E94BC1BC1
:10352000892B69F5680182E0C80ED11C45E050E0A6
:103530006FEA70E0C6010E94BC1B892B21F4680170
:1035400097E0C90ED11CE114F10419F0D701CD9216
:10355000DC9260E070E080E89FEFC111FFC060E0A6
:1035600070E080E89FE7FAC05801BBCFDB3229F456
:1035700085010E5F1F4FF501D181C0E0C6CF43E04A
:1035800050E06CEA70E0C5010E94BC1B892BE9F099
:10359000F80110E000E020E030E0A9015F01B0EDAB
:1035A0008B2E8D0E89E08815C8F19C2E689491F8B9
:1035B0008C2F8870C2FF16C0811102C00F5F1F4F91
:1035C0003196D501DC91C92DE9CFE114F10429F040
:1035D0000E5F1F4FF7011183008360E070E080EC05
:1035E0009FE7BCC0882311F001501109A5E0B0E0AD
:1035F0000E94111D9B01AC01220F331F441F551F58
:10360000280D311D411D511D283999E939074907F8
:1036100099E15907A8F2C6609C2ED2CFAEEF8A126C
:1036200006C0C3FD3CC09C2E689493F8C9CFDF7DD3
:10363000D534A9F580818D3239F4C061DF0112964D
:10364000818162E070E006C0DF018B32C1F3119628
:1036500061E070E080535D01A61AB70A8A30F8F481
:10366000E0E8CE16ECE0DE065CF4B601660F771FEC
:10367000660F771FC60ED71ECC0CDD1CC80ED11CE2
:103680005D01FFEFAF1ABF0A8C9180538A30A8F119
:10369000C4FF03C0D194C194D1080C0D1D1DC1FFFE
:1036A00009C0E114F10431F081E0A81AB108D70192
:1036B000AD92BC92CA01B9010E94D91BC370C3303C
:1036C00009F490584B015C0120E030E0A9010E9410
:1036D000D41B882309F440C0C3EED0E017FF05C017
:1036E000119501951109CBECD0E06E01B8E1CB1A30
:1036F000D10880E2E82EF12C0FC0D501B1CFFE0138
:1037000025913591459154910E191F09C501B401B8
:103710000E943A1C4B015C01D501C4010E151F0526
:1037200074F72497F594E794CC16DD06A9F78A2F51
:10373000880F8B2F881F8F3F49F020E030E0A901D0
:10374000C501B4010E94D41B811106C082E290E041
:1037500090937E0780937D07C501B401CDB7DEB796
:10376000ECE00C943E1D91110C94A71C803219F0D2
:1037700089508550C8F70895FB01DC014150504045
:1037800088F08D9181341CF08B350CF4805E65914E
:1037900061341CF06B350CF4605E861B611171F3B3
:1037A000990B0895881BFCCF0E94161C08F481E039
:1037B0000895E89409C097FB3EF490958095709524
:1037C00061957F4F8F4F9F4F9923A9F0F92F96E96D
:1037D000BB279395F695879577956795B795F111E2
:1037E000F8CFFAF4BB0F11F460FF1BC06F5F7F4F7F
:1037F0008F4F9F4F16C0882311F096E911C0772391
:1038000021F09EE8872F762F05C0662371F096E899
:10381000862F70E060E02AF09A95660F771F881F68
:10382000DAF7880F9695879597F90895990F00080C
:10383000550FAA0BE0E8FEEF16161706E807F90782
:10384000C0F012161306E407F50798F0621B730B1D
:10385000840B950B39F40A2661F0232B242B252B9E
:1038600021F408950A2609F4A140A6958FEF811D41
:10387000811D08950E944D1C0C94C11C0E94B31C14
:1038800038F00E94BA1C20F0952311F00C94AA1C69
:103890000C94B01C11240C94F51C0E94D21C70F3E3
:1038A000959FC1F3950F50E0551F629FF001729FE5
:1038B000BB27F00DB11D639FAA27F00DB11DAA1FF4
:1038C000649F6627B00DA11D661F829F2227B00D41
:1038D000A11D621F739FB00DA11D621F839FA00DCC
:1038E000611D221F749F3327A00D611D231F849F1C
:1038F000600D211D822F762F6A2F11249F57504073
:103900009AF0F1F088234AF0EE0FFF1FBB1F661FED
:10391000771F881F91505040A9F79E3F510580F0B6
:103920000C94AA1C0C94F51C5F3FE4F3983ED4F36E
:10393000869577956795B795F795E7959F5FC1F75A
:10394000FE2B880F911D9695879597F908959927D5
:103950008827089597F99F6780E870E060E00895F0
:103960009FEF80EC089500240A9416161706180697
:103970000906089500240A94121613061406050673
:103980000895092E0394000C11F4882352F0BB0F04
:1039900040F4BF2B11F460FF04C06F5F7F4F8F4F67
:1039A0009F4F089557FD9058440F551F59F05F3FA2
:1039B00071F04795880F97FB991F61F09F3F79F051
:1039C00087950895121613061406551FF2CF4695D3
:1039D000F1DF08C0161617061806991FF1CF869555
:1039E0007105610508940895E894BB276627772739
:1039F000CB0197F90895F999FECF92BD81BDF89A50
:103A0000992780B50895262FF999FECF1FBA92BD48
:103A100081BD20BD0FB6F894FA9AF99A0FBE0196AF
:103A200008950E94531DA59F900DB49F900DA49FD3
:103A3000800D911D112408952F923F924F925F9215
:103A40006F927F928F929F92AF92BF92CF92DF92AE
:103A5000EF92FF920F931F93CF93DF93CDB7DEB713
:103A6000CA1BDB0B0FB6F894DEBF0FBECDBF0994A7
:103A70002A88398848885F846E847D848C849B84FE
:103A8000AA84B984C884DF80EE80FD800C811B810C
:103A9000AA81B981CE0FD11D0FB6F894DEBF0FBE3B
:103AA000CDBFED010895A29FB001B39FC001A39FB8
:103AB000700D811D1124911DB29F700D811D112467
:103AC000911D0895AA1BBB1B51E107C0AA1FBB1F74
:103AD000A617B70710F0A61BB70B881F991F5A959A
:103AE000A9F780959095BC01CD01089597FB072E0D
:103AF00016F4009407D077FD09D00E94621D07FCE0
:103B000005D03EF4909581959F4F089570956195ED
:103B10007F4F0895A1E21A2EAA1BBB1BFD010DC009
:103B2000AA1FBB1FEE1FFF1FA217B307E407F5076D
:103B300020F0A21BB30BE40BF50B661F771F881F49
:103B4000991F1A9469F760957095809590959B01DF
:103B5000AC01BD01CF010895EE0FFF1F0590F49158
:103B6000E02D09940E94531DB7FF0895821B930B0B
:103B700008955058BB27AA270E94D11D0C94C11C40
:103B80000E94B31C38F00E94BA1C20F039F49F3F09
:103B900019F426F40C94B01C0EF4E095E7FB0C9499
:103BA000AA1CE92F0E94D21C58F3BA1762077307A8
:103BB0008407950720F079F4A6F50C94F41C0EF414
:103BC000E0950B2EBA2FA02D0B01B90190010C012D
:103BD000CA01A0011124FF27591B99F0593F50F445
:103BE000503E68F11A16F040A22F232F342F44279D
:103BF000585FF3CF469537952795A795F040539595
:103C0000C9F77EF41F16BA0B620B730B840BBAF064
:103C10009150A1F0FF0FBB1F661F771F881FC2F7CF
:103C20000EC0BA0F621F731F841F48F487957795E3
:103C30006795B795F7959E3F08F0B0CF9395880F9D
:103C400008F09927EE0F9795879508950E943A1EE0
:103C50000C94C11C0E94BA1C58F00E94B31C40F086
:103C600029F45F3F29F00C94AA1C51110C94F51C07
:103C70000C94B01C0E94D21C68F39923B1F3552315
:103C800091F3951B550BBB27AA276217730784076F
:103C900038F09F5F5F4F220F331F441FAA1FA9F305
:103CA00035D00E2E3AF0E0E832D091505040E695F3
:103CB000001CCAF72BD0FE2F29D0660F771F881F54
:103CC000BB1F261737074807AB07B0E809F0BB0B47
:103CD000802DBF01FF2793585F4F3AF09E3F51055B
:103CE00078F00C94AA1C0C94F51C5F3FE4F3983E0A
:103CF000D4F3869577956795B795F7959F5FC9F744
:103D0000880F911D9695879597F90895E1E0660FC4
:103D1000771F881FBB1F621773078407BA0720F03D
:103D2000621B730B840BBA0BEE1F88F7E0950895A6
:103D30000E94DA1C88F09F5798F0B92F9927B75145
:103D4000B0F0E1F0660F771F881F991F1AF0BA953F
:103D5000C9F714C0B13091F00E94F41CB1E008958D
:103D60000C94F41C672F782F8827B85F39F0B93F7F
:103D7000CCF3869577956795B395D9F73EF49095F2
:103D80008095709561957F4F8F4F9F4F08950E944A
:103D9000161C08F48FEF08950E94161C880B990BCF
:103DA000089581E090E0F8940C94DF1EFB01DC01A3
:103DB0008D91019080190110D9F3990B0895F89411
:023DC000FFCF33
:103DC200FFFFFFFF00E10000000000000101000111
:103DD20064000000000000FFFFFFFFFFFFFFFFFF86
:103DE200C878280000C1808100000000000000C8DF
:103DF2000BC80BC80B4D0A1706490A460A430A00AC
:103E02000000001909B308B1084D0A1706490A460D
:103E12000ADC035706000000002505A40466055BC2
:103E220005AC056A0588050D0A006E616E00696EB3
:103E320066006F766600200050494E4700474554A1
:103E42000053415645004C4F4144005354524541A2
:103E52004D00434F4C4C414D42444100414C455270
:103E62005400414C455254434F4C4F520043414C35
:103E72004942005452454E44524F57530053544105
:103E8200424C45004D415647005352415445004172
:103E92004C41524D00414252494748540044494521
:103EA20053454C0043454E544552004D4150005439
:043EB2004553540020
:00000001FF
