:100000000C9483010C94AB010C94AB010C94AB01E8
:100010000C94AB010C94AB010C94AB010C94AB01B0
:100020000C94AB010C94AB010C943E0D0C94AD0DF3
:100030000C94AB010C94AB010C94AB010C94AB0190
:100040000C94AB010C94AB010C94AB010C94AB0180
:100050000C94AB010C94AB010C94AB010C94F40C1C
:100060000C94AB010C94AB010C94AB010C94AB0160
:100070000C94AB010C94AB010C94AB010C94AB0150
:100080000C94AB010C94AB010C94AB010C94AB0140
:100090000C94AB010C94AB010C94AB010C94AB0130
:1000A0000C94AB010C94AB010C94AB014E414E4946
:1000B0004E495459494E46CDCCCC3D0AD7233C1726
:1000C000B7D13877CC2B329595E6241FB14F0A0073
:1000D0000020410000C84200401C4620BCBE4CCA63
:1000E0001B0E5AAEC59D74080B00020202000009E7
:1000F0000400000102020000052400100105240193
:1001000001010424020605240600010705810310ED
:10011000004009040100020A000000070502024035
:1001200000000705830240000004030904120100D7
:1001300002EF020140412337800001010203014127
:10014000726475696E6F204C4C430041726475692E
:100150006E6F204D6963726F00000000002400275D
:10016000002A002D003000204D41503D0020434525
:100170004E5445523D002044494553454C3D0020D6
:100180004252494748543D0020414C41524D3D00A8
:100190002053524154453D00204D4156473D0020DB
:1001A000535441423D0020524F57533D002043419C
:1001B0004C3D0020414C4552543D002043004346F5
:1001C000470045525220004F4B2054455354004F96
:1001D0004B204D4150004F4B2043454E544552005B
:1001E0004F4B2044494553454C004F4B2042524908
:1001F000474854004F4B20414C41524D004F4B203B
:100200005352415445004F4B204D415647004F4BF0
:1002100020535441424C45004F4B205452454E44CC
:10022000524F5753004F4B2043414C4942004F4BD4
:1002300020414C455254434F4C4F52004F4B2041AC
:100240004C455254004F4B20434F4C4C414D42447F
:1002500041004F4B20434F4C4F52004F4B205354C3
:100260005245414D004F4B204C4F4144004F4B20D5
:100270005341564500504F4E47205061696E656CA2
:100280004C616D626461207631000706050401004F
:10029000080A0B0C0D09442000000000002500286E
:1002A000002B002E003100040404040403040502A2
:1002B0000202020403020202020606060606060401
:1002C00004020202040404080201104080401020CD
:1002D000408040800802040180402010020110800C
:1002E00010204040200000000200090F000003041D
:1002F00001000C00000000000000000000000000F1
:1003000000000000DF0F11241FBECFEFDAE0DEBFD8
:10031000CDBF27E0A4EFB1E001C01D92AE37B20718
:10032000E1F711E0A0E0B1E0E8EBFCE302C00590EA
:100330000D92A43FB107D9F711E0C3E8D1E004C0A2
:100340002197FE010E94271DC238D107C9F70E94DC
:1003500006100C945A1E0C940000EDE2F6E0DC014D
:100360002D913D914C91219331934193B6E0ED3E17
:10037000FB07A9F70895EFEEF2E02491E0EDF2E03B
:100380003491E1EBF2E09491992309F430C02223F7
:10039000E9F021502F30D0F4E22FF0E0EE52FE4F82
:1003A0000C94271D00020402E101F801FC01E601A2
:1003B000E601E60107020D02110215021B02E60129
:1003C0001F02209180002F7720938000E92FF0E01A
:1003D000EE0FFF1FE756FD4FA591B4919FB7F8941C
:1003E000EC91811132C030953E233C939FBF08951C
:1003F000209180002F7DE8CF20918000277FE4CFDF
:1004000024B52F7724BDE2CF24B52F7DFBCF2091DB
:1004100090002F7720939000D9CF209190002F7DCE
:10042000F9CF20919000277FF5CF2091C0002F7742
:100430002093C000CBCF2091C0002F7DF9CF209119
:10044000C200277F2093C200C1CF3E2BCECFFC013C
:1004500080912C06882311F13FB7F89482E08093B5
:10046000E9002091F200822F90E01816190614F48A
:1004700081E090E0882339F0289A44E640932B06E7
:100480004091F1004083222339F02091F2002111A4
:1004900003C02BE62093E8003FBF08958FEF9FEF46
:1004A00008952FB7F89483E08093E9009091E800D5
:1004B000892F807295FF04C09091F20080E4891B1F
:1004C0002FBF08958091230681110DC082E0809393
:1004D0001F0684E0809320061092220610922106C7
:1004E00081E0809323068FE196E008953FB7F8946A
:1004F00080911B0690911C06A0911D06B0911E06CE
:1005000026B5A89B05C02F3F19F00196A11DB11D6E
:100510003FBFBA2FA92F982F8827BC01CD01620FAA
:10052000711D811D911D42E0660F771F881F991F65
:100530004A95D1F70895AF92BF92DF92EF92FF9262
:100540000F931F93CF93DF93D82E809170079091D4
:100550007107A0917207B0917307892B8A2B8B2B9F
:10056000D9F00E9476020091190710911A07209184
:100570001B0730911C07601B710B820B930B0091C2
:1005800070071091710720917207309173076017FF
:10059000710782079307C8F20E94760260931907D9
:1005A00070931A0780931B0790931C07E0917807BC
:1005B000F0917907309759F0409174075091750781
:1005C00060917607709177078D2D0995D82EC0918F
:1005D0001707D091180787EFE82E86E0F82E8701DD
:1005E000209749F187E00731180729F18D85882385
:1005F000F1F0E881F981A284B3840680F781E02DCF
:10060000CE010995BC01CE01F5010995F801918350
:10061000808380916E0790916F078436910508F46E
:100620001C860C80DD81C02D0E5F1F4FD9CFF801D5
:1006300011821082EECFC0911707D091180700E108
:1006400010E02097A9F08D85882361F04E855F85A5
:100650006A817B81E881F9810280F381E02D2D2D73
:10066000CE0109950C80DD81C02D0150110949F79B
:10067000C0911707D09118072097C9F0F7E1EF163E
:10068000F7E0FF06A1F08D85882351F0F701608126
:100690007181E881F9810484F585E02DCE01099509
:1006A0000C80DD81C02DF2E0EF0EF11CE5CF8091D2
:1006B000F5069091F6069C012F5F3F4F3093F606AA
:1006C0002093F50649970CF44AC08FB7F89420910F
:1006D000ED063091EE064091EF065091F0068FBF87
:1006E0008091F1069091F206A091F306B091F40684
:1006F000281B390B4A0B5B0B21F421E030E040E072
:1007000050E0E091F506F091F60688EE93E0E89F60
:10071000B001E99F700DF89F700D1124072E000C99
:10072000880B990B0E94051D30936F0720936E076D
:100730001092F6061092F5062FB7F8948091ED0608
:100740009091EE06A091EF06B091F0062FBF809336
:10075000F1069093F206A093F306B093F406DF91AE
:10076000CF911F910F91FF90EF90DF90BF90AF90CE
:100770000895CF92DF92EF92FF920E9476026B0172
:100780007C010E9476026C197D098E099F09683EE2
:10079000734081059105A8F3FF90EF90DF90CF9013
:1007A000089580E991E008954091F8015091F90190
:1007B0002091F6013091F70142175307B4F490915C
:1007C000E8009570E1F39091E80092FD19C08093E4
:1007D000F1008091F8019091F90101968F739927AA
:1007E000892B19F48EEF8093E8008091F8019091A5
:1007F000F90101969093F9018093F80181E0089541
:1008000080E00895EF92FF920F931F93CF93DF93B1
:10081000F82E192FE62E042F81E0860F880F0E94F4
:10082000D40383E00E94D403CF2DD12FEC0EFD2EF4
:10083000F11CCE15DF05B9F007FF13C0FE0184914E
:100840000E94D403182F80E00E94D40381232196B4
:100850008111EFCFDF91CF911F910F91FF90EF901A
:1008600008958881EDCF81E0F5CFDF92EF92FF927E
:100870000F931F93CF93DF93D82E8A01EB017B0157
:10088000E40EF51ECE15DF0559F0D7FE12C0FE01AD
:1008900084910E94D40321968111F4CF0FEF1FEFB2
:1008A000C801DF91CF911F910F91FF90EF90DF90E2
:1008B00008958881EECF0F931F93CF93DF931F92FC
:1008C000CDB7DEB782E0898342E450E067EE70E0A6
:1008D00080E80E9435040E946202DC0112960D91AC
:1008E0001C910115110589F0D801ED91FC91028050
:1008F000F381E02DBE016F5F7F4FC801099597FD21
:1009000004C0F80100851185ECCF89810F90DF913B
:10091000CF911F910F910895615030F02091F10017
:10092000FC0120830196F8CF289A84E680932B0659
:1009300008958F929F92AF92BF92CF92DF92EF92E3
:10094000FF920F931F93CF93DF936C017B018A017A
:1009500080910B01882309F458C080912C068823CC
:1009600009F453C08091FC0180FF05C08091E00034
:1009700082608093E000E801B12C8AEFA82E93E01A
:10098000892E2AE3922E209711F4BB20B9F10E9400
:100990005102811106C0AA94AA20B9F10E94B9039C
:1009A000F2CF8C171D0611F00CF08C2F9FB7F89426
:1009B0008092E9002091E80025FD02C09FBFE3CFAF
:1009C000282F30E0C21BD30BF701815020F041915A
:1009D0004093F100FACFE20EF31EBB2021F090927B
:1009E000E800B12CEBCF8091E80085FDE7CF909235
:1009F000E800BB24B394209709F3F3CF5D9A84E613
:100A00008093FB01101611063CF081E090E0F601A6
:100A10009383828310E000E0C801DF91CF911F91A2
:100A20000F91FF90EF90DF90CF90BF90AF909F908D
:100A30008F900895CF93DF931F92CDB7DEB7698370
:100A4000DC01ED91FC910280F381E02D41E050E06A
:100A5000BE016F5F7F4F09950F90DF91CF91089591
:100A6000682F8DE197E00C941A050F931F93CF9395
:100A7000DF938C01D0E0C0E0F801EC0FFD1F649122
:100A8000662341F08DE197E00E941A05892B11F051
:100A90002196F2CFCE01DF91CF911F910F91089552
:100AA00083E08093E9008091F200882319F08AE3C3
:100AB0008093E80008950E94510290E00895CF933A
:100AC000DF931F92CDB7DEB7FC018485958597FD36
:100AD00008C02FEF3FEF358724870F90DF91CF912C
:100AE0000895CE0101960E942702019719F4898189
:100AF00090E0F3CF8FEF9FEFF0CF0F931F93CF9343
:100B0000DF931F92CDB7DEB78C01FC0184859585FC
:100B100097FF0BC0CE0101960E942702019771F446
:100B2000898190E0F80195878487F801848595850F
:100B30000F90DF91CF911F910F9108958FEF9FEF4D
:100B4000F1CFFC018485958597FD0BC09FB7F89484
:100B500082E08093E9008091F2009FBF90E00196CF
:100B600008959FB7F89482E08093E9008091F200A5
:100B70009FBF90E00895AF92BF92CF92DF92EF9225
:100B8000FF920F931F93CF93DF9300D01F92CDB7A7
:100B9000DEB75A0119821A821B82882361F18B0108
:100BA000E1E0F0E0E82EF12CD8012D918D01222317
:100BB000F1F06F01B1E0CB1AD108D501AC0DBD1D2C
:100BC0004C914423A1F030E02F5F3F4FD7010E94AA
:100BD000CE1CA42FB0E011969B01AC010E948C1C8E
:100BE000A1E0B0E0AC0FBD1FAC0DBD1D8C933196E4
:100BF000E430F105C9F669817A818B810F900F90FD
:100C00000F90DF91CF911F910F91FF90EF90DF90A8
:100C1000CF90BF90AF90089581E090E008950F933A
:100C20001F93CF93DF932091F5012F5F322F377001
:100C30003093F50120FF2BC020E831FD2064347093
:100C400009F02062205FFC01EC01239600E011E036
:100C50006785662329F070E0C8010E94F11C6F5F70
:100C60006187822F869F080E80E0811D11248111EB
:100C700010C01682662311F0615061873196EC171F
:100C8000FD0731F7DF91CF911F910F91089520E07B
:100C9000D4CF81508683EECF4F925F927F928F9216
:100CA0009F92AF92BF92CF92DF92EF92FF920F93FB
:100CB0001F93CF93DF932C01EB010E947602F20188
:100CC00026893789621B730B6A307105B0F3F8947B
:100CD0008A819B81181619060CF0CDC1E881F98133
:100CE0006BB1862E689487F83BB13F773BB9DA84C5
:100CF0008F812D2D281B822F2F834C85042E000CD5
:100D0000550BAA81BB817889FF84E9887F5FF394C2
:100D1000E3949E819884B984AB841181C12C6C2D9D
:100D20000C2D2C2D2181112788942111280F08F4D6
:100D30002FEF8195889470FD120F1795889471FD9F
:100D4000120F1795889472FD120F1795889473FDF2
:100D5000120F1795889474FD120F1795889475FDDE
:100D6000120F1795889476FD120F1795889477FDCA
:100D7000120F17958894622F7111612F8D0D162F08
:100D8000002C8BB800C017FF3BB9208166278894E0
:100D900000C000C0002C3BB92111290F00C0002C5D
:100DA0008BB800C016FF3BB908F42FEF91958894DB
:100DB00000C000C0002C3BB9F0FC620F00C0002C4A
:100DC0008BB800C015FF3BB967958894F1FC620FA2
:100DD00000C000C0002C3BB96795889400C0002C6F
:100DE0008BB800C014FF3BB9F2FC620F6795889482
:100DF00000C000C0002C3BB9F3FC620F00C0002C07
:100E00008BB800C013FF3BB967958894F4FC620F60
:100E100000C000C0002C3BB96795889400C0002C2E
:100E20008BB800C012FF3BB9F5FC620F6795889440
:100E300000C000C0002C3BB9F6FC620F00C0002CC3
:100E40008BB800C011FF3BB967958894F7FC620F1F
:100E500000C000C0002C3BB96795889400C0002CEE
:100E60008BB800C010FF3BB9122FF110162F9B0D4D
:100E700000C000C0002C3BB900C000C0002C8BB8E3
:100E800000C017FF3BB922816627889400C000C0CC
:100E9000002C3BB92111290D00C0002C8BB800C0DB
:100EA00016FF3BB908F42FEFE40FF51F00C000C098
:100EB000002C3BB9E0FC620F00C0002C8BB800C0D6
:100EC00015FF3BB967958894E1FC620F00C000C034
:100ED000002C3BB96795889400C0002C8BB800C0EB
:100EE00014FF3BB9E2FC620F6795889400C000C014
:100EF000002C3BB9E3FC620F00C0002C8BB800C093
:100F000013FF3BB967958894E4FC620F00C000C0F2
:100F1000002C3BB96795889400C0002C8BB800C0AA
:100F200012FF3BB9E5FC620F6795889400C000C0D2
:100F3000002C3BB9E6FC620F00C0002C8BB800C04F
:100F400011FF3BB967958894E7FC620F00C000C0B1
:100F5000002C3BB96795889400C0002C8BB800C06A
:100F600010FF3BB9122FE110162F919400C000C062
:100F7000002C3BB99A0C00C000C08BB800C017FF12
:100F80003BB921816627889400C000C0002C3BB982
:100F90002111280F00C0002C8BB800C016FF3BB9F0
:100FA00008F42FEF8195889400C000C0002C3BB955
:100FB00070FD620F00C0002C8BB800C015FF3BB95C
:100FC0006795889471FD620F00C000C0002C3BB98A
:100FD0006795889400C0002C8BB800C014FF3BB903
:100FE00072FD620F6795889400C000C0002C3BB969
:100FF00073FD620F00C0002C8BB800C013FF3BB91B
:101000006795889474FD620F00C000C0002C3BB946
:101010006795889400C0002C8BB800C012FF3BB9C4
:1010200075FD620F6795889400C000C0002C3BB925
:1010300076FD620F00C0002C8BB800C011FF3BB9D9
:101040006795889477FD620F00C000C0002C3BB903
:101050006795889400C0002C8BB800C010FF3BB986
:10106000122F7111162F8D0D00C000C0002C3BB93E
:10107000119709F086CEEA81FB812EE130E0DF0195
:101080000E942D1D30E020E0A901AAE9EA9F0E0E82
:10109000411DFA9F400D511D11244F0F511DDC01C0
:1010A000CB01840F951FA11DB11D893E43E094071C
:1010B000A105B10508F434C0885E9340A109B109C7
:1010C00042E0B695A795979587954A95D1F747E061
:1010D000849F080E211D949F200D311D1124290F7E
:1010E000311D6091F40170E0860F971F820F931FEE
:1010F0004091ED065091EE066091EF067091F0067A
:10110000292F3327420F531F611D711D4093ED0698
:101110005093EE066093EF067093F0068093F4010F
:1011200078940E947602F201778B668BDF91CF91E3
:101130001F910F91FF90EF90DF90CF90BF90AF90F5
:101140009F908F907F905F904F900895579A089549
:101150006F927F928F92CF92DF92EF92FF920F93D6
:101160001F93CF93DF93CDB7DEB762970FB6F89496
:10117000DEBF0FBECDBF8C016B017A01822FA801AB
:10118000475F5F4FB8016A5F7F4F0E94BB053B011D
:10119000882ED8011C962C91C701F7FE04C0882721
:1011A00099278E199F09DA82C9829C838B839E833B
:1011B0008D83688A798A8A8A213049F5CE01019621
:1011C0000E940F0683E08D871F861E86F7FE02C0F1
:1011D0008DEF8D87D801ED91FC910088F189E02D8C
:1011E000BE016F5F7F4FC801099562960FB6F894F4
:1011F000DEBF0FBECDBFDF91CF911F910F91FF904A
:10120000EF90DF90CF908F907F906F9008951C8625
:101210001B861A86198618861F82D4CFCF92DF923A
:10122000EF92FF920F931F93CF93DF93CDB7DEB76B
:1012300062970FB6F894DEBF0FBECDBF8C016B0175
:101240007A01822FA801475F5F4FB8016A5F7F4F25
:101250000E94BB059B01482FD8011C968C91DA8215
:10126000C982FC82EB82FE82ED82288B398B4A8B0D
:10127000813009F5CE0101960E940F061D861F865A
:101280001E86D801ED91FC910088F189E02DBE0108
:101290006F5F7F4FC801099562960FB6F894DEBF65
:1012A0000FBECDBFDF91CF911F910F91FF90EF90B7
:1012B000DF90CF9008951C861B861A8619861886A3
:1012C0001F82DCCF089590910106911103C0962FE3
:1012D000682F892F9091FF05992319F097E0961BAD
:1012E000692F90910006992319F097E0981B892F98
:1012F00098E0899F9001112470E09091FE05992358
:1013000039F080FF05C0C901861B970B0796089529
:10131000C901860F971F08958091F2059091F305FA
:10132000892B31F481E090E09093F3058093F205EE
:101330008091F2059091F305853F914030F084EF64
:1013400091E09093F3058093F2052091F20530919E
:10135000F30550E040E068EE73E080E090E00E942A
:10136000051D223031054105510508F449C020937F
:1013700010013093110140931201509313016091B9
:10138000F0057091F10590E080E02091100130911E
:10139000110140911201509113010E94051DC901D4
:1013A000892BD9F130930E0120930D0180910D010D
:1013B00090910E01893C910530F088EC90E090937B
:1013C0000E0180930D0110928105109287051092F5
:1013D0008605109282051092830510928405109262
:1013E0008505E1E6F2E0119211921192119285E0E9
:1013F000E138F807C1F78091F80580936D070895EB
:1014000082E090E0A0E0B0E08093100190931101A1
:10141000A0931201B0931301B2CF81E090E09093BA
:101420000E0180930D01C2CFCF9394E0899FF0010C
:101430001124E956FA4F628D738D848D958D20911C
:101440000606309107064091080650910906E09182
:10145000F905C1E0EE2331F00E94421E87FF06C06D
:10146000C0E004C00E944F1B1816D4F38C2FCF91FC
:10147000089590E080E00895FC0164870895FC01E0
:10148000848590E00895FC01868597850895FC0188
:1014900001900020E9F73197AF01481B590BBC01BF
:1014A0008DE197E00C9499048F929F92AF92BF9236
:1014B0000F931F93CF93DF93CDB7DEB7A1970FB6EE
:1014C000F894DEBF0FBECDBF19A2423008F44AE047
:1014D0008E010F5D1F4F842E912CB12CA12CA501E4
:1014E00094010E94051DE62FB901CA01EA30F4F407
:1014F000E05DD801EE938D01232B242B252B79F76A
:1015000090E080E0109719F0CD010E94470AA19663
:101510000FB6F894DEBF0FBECDBFDF91CF911F9104
:101520000F91BF90AF909F908F900895E95CE1CFAD
:10153000CF93DF930E943505EC0187E691E00E948E
:10154000470A8C0F9D1FDF91CF910895682F70E09F
:1015500090E080E04AE00C94540A4F925F926F92C0
:101560007F928F929F92AF92BF92CF92DF92EF9233
:10157000FF92CF936B017C01AC019B010E94471E3F
:10158000882389F08AE691E0CF91FF90EF90DF9079
:10159000CF90BF90AF909F908F907F906F905F9013
:1015A0004F900C94470A46015701E894B7F82FEF83
:1015B0003FEF4FE75FE7C501B4010E94471E81116D
:1015C0000DC02FEF3FEF4FE75FE7C501B4010E9469
:1015D0004F1B18161CF48EE691E0D6CF2FEF3FEF8D
:1015E0004FE75FE4C701B6010E94421E18161CF4C3
:1015F00082E791E0C9CF2FEF3FEF4FE75FECC701E4
:10160000B6010E944F1B87FDF3CF20E030E0A90117
:10161000C701B6010E944F1BB12CA12C87FF08C047
:101620008DE20E9430055C01F7FAF094F7F8F0942F
:101630002EE632E143E05AE3C701B6010E94351DB0
:101640002B013C010E94131E6B017C010E94541B64
:101650009B01AC01C301B2010E94341D2B013C016E
:101660004AE0C701B6010E94540A7C01EA0CFB1C47
:101670008EE20E943005E80EF91EC4E0C15019F157
:1016800020E030E040E251E4C301B2010E94B51B0A
:101690002B013C010E94131E4B01B12CA12C4AE0EE
:1016A000C501B4010E94540AE80EF91EC501B40137
:1016B0000E94541B9B01AC01C301B2010E94341D66
:1016C0002B013C01DBCFC701CF91FF90EF90DF9062
:1016D000CF90BF90AF909F908F907F906F905F90D2
:1016E0004F900895CF92DF92EF92FF92CF93DF93C6
:1016F0006C01092E000CEE08FF0897FF17C08DE261
:101700000E943005EC0166277727CB016C197D0913
:101710008E099F094AE00E94540A8C0F9D1FDF9199
:10172000CF91FF90EF90DF90CF9008954AE0C701EE
:10173000B601DF91CF91FF90EF90DF90CF900C94A6
:10174000540A0E944C1EFF920F931F93CF93DF9376
:1017500007E915E0D0E0C0E0F801F1908F01CE017B
:101760000E94761CF81621F06F2DCE010E947E1C7F
:101770002196CB36D10581F7DF91CF911F910F9143
:10178000FF9008958F929F92AF92BF92CF92DF9277
:10179000EF92FF920F931F93CF93DF93CDB7DEB7F6
:1017A00060970FB6F894DEBF0FBECDBF27E9E22EDB
:1017B00025E0F22E10E000E0C8010E94761CF7013F
:1017C00081937F010F5F1F4F0B361105A9F78091A1
:1017D0009705873A29F480919805843009F4F1C07F
:1017E00087EA8093970584E08093980588E0E4E198
:1017F000F1E0DE01199601900D928A95E1F788E0FB
:10180000ECE1F1E0DE01119601900D928A95E1F78D
:101810004E01F9E08F0E911C89E9C82E85E0D82E83
:101820008E010F5F1F4F91EBA92E95E0B92EF12C81
:10183000E12CF40181914F01F60181936F01F801D0
:1018400081918F01F60187831786B7010F2C000C59
:10185000880B990B0E94561B2DEC3CEC4CEC5DE385
:101860000E94B51B23E333E343E35FE30E94351D8E
:10187000F50161937193819391935F01FFEFEF1AEB
:10188000FF0A88E0E816F104A1F68CE291E090935B
:10189000D2058093D10581E08093D3059FEF90938B
:1018A000D4051092D5051092D60528EB3BE0309375
:1018B000D8052093D70540E050E060E87FE34093EF
:1018C000D9055093DA056093DB057093DC054DEC88
:1018D0005CEC6CEC7EE34093DD055093DE05609399
:1018E000DF057093E00540E050E060E870E440936D
:1018F000E1055093E2056093E3057093E40541E749
:101900005DE36AEC7FE34093E5055093E605609361
:10191000E7057093E80527E02093E90520EE209382
:10192000EA0528E32093EB054AE057ED63EA7CE300
:101930004093EC055093ED056093EE057093EF0531
:1019400024EF31E03093F1052093F00522E330E0FD
:101950003093F3052093F20541E75DE36AEA7FE304
:101960004093F4055093F5056093F6057093F705E1
:1019700028E22093F8058093F9058093FA051092E8
:10198000FB059093FC051092FD058093FE051092D7
:10199000FF05109200061092010660960FB6F894AB
:1019A000DEBF0FBECDBFDF91CF911F910F91FF9092
:1019B000EF90DF90CF90BF90AF909F908F900C945E
:1019C000A30B60960FB6F894DEBF0FBECDBFDF91BC
:1019D000CF911F910F91FF90EF90DF90CF90BF902C
:1019E000AF909F908F9008951F920F920FB60F9215
:1019F00011242F933F938F939F93AF93BF93809125
:101A0000ED069091EE06A091EF06B091F0063091B0
:101A10001A0623E0230F2D3758F50196A11DB11D9D
:101A200020931A068093ED069093EE06A093EF069E
:101A3000B093F00680911B0690911C06A0911D06A4
:101A4000B0911E060196A11DB11D80931B069093B7
:101A50001C06A0931D06B0931E06BF91AF919F91E7
:101A60008F913F912F910F900FBE0F901F9018955F
:101A700026E8230F0296A11DB11DD2CF1F920F920F
:101A80000FB60F9211248F939F938091E100909154
:101A9000E100937F9093E10083FF0FC01092E90073
:101AA00091E09093EB001092EC0092E39093ED00A4
:101AB00010922C0698E09093F00082FF22C093E0F1
:101AC0009093E9009091F200992319F09AE3909392
:101AD000E8009091FB01992341F09091FB01915016
:101AE0009093FB01911101C05D9890912B06992371
:101AF00041F090912B06915090932B06911101C0CB
:101B0000289884FF18C08091E2008E7E81608093C7
:101B1000E2008091E1008F7E8093E1008091FC01E2
:101B20008E7E80618093FC019F918F910F900FBEFC
:101B30000F901F90189580FFF7CF8091E2008E7E66
:101B400080618093E2008091E1008E7E8093E100CD
:101B50008091FC018E7E8160E5CF1F920F920FB6BF
:101B60000F921124CF92DF92EF92FF920F931F9367
:101B70002F933F934F935F936F937F938F939F9395
:101B8000AF93BF93EF93FF93CF93DF93CDB7DEB7C0
:101B90006C97DEBFCDBF1092E9008091E80083FF13
:101BA00025C068E0CE0145960E948C0482EF8093A8
:101BB000E8008D8987FF39C09091E80090FFFCCF45
:101BC000982F907609F034C19E894F89588D2F89BE
:101BD000F88C911131C0803861F58091FD018093BE
:101BE000F1001092F1008EEF8093E8006C960FB632
:101BF000F894DEBF0FBECDBFDF91CF91FF91EF9183
:101C0000BF91AF919F918F917F916F915F914F9114
:101C10003F912F911F910F91FF90EF90DF90CF9008
:101C20000F900FBE0F901F9018959EEF9093E800B5
:101C3000C7CF1092F100D5CF913059F48111D3CF95
:101C40004130510581F68091FD018D7F8093FD012A
:101C5000CACF933049F48111C6CF4130510519F6EE
:101C60008091FD018260F2CF953041F48091E800CF
:101C700080FFFCCF20682093E300B5CF963009F0B9
:101C8000A9C00B8D1C8D22E01092E9001092F90181
:101C90001092F801F2122EC01092F7011092F60184
:101CA0000E945B041F8299E09983FA8291E09E83EF
:101CB00090EA98879AEF99872091F8013091F9017D
:101CC000275F3F4F3C832B838D831092E900109256
:101CD000F9011092F8011093F7010093F60149E021
:101CE00050E0BE016F5F7F4F80E00E9435040E948C
:101CF0005B0479CF1093F7010093F6010E94620212
:101D0000DC0112960D911C910115110509F451C1C8
:101D1000D801ED91FC910480F581E02DBE016B5E50
:101D20007F4FC8010995009709F03EC1F801008571
:101D30001185EACFF3E0FF120EC08F89882309F4E2
:101D400040C0823061F440E86DE08BE491E00E9495
:101D50000204811148CF81E28093EB0047CF8130AC
:101D600029F440E86BE08FE391E0F1CF833099F7FD
:101D70000E946202DC011296ED90FC908E010F5FD2
:101D80001F4F6801E114F10479F0D701ED91FC9146
:101D90000680F781E02DB801C7010995080F111DD4
:101DA000F701E084F184EECFD8011C92F601019096
:101DB0000020E9F73197BF016C197D0940E0C601A9
:101DC000C6CF69E271E0FB01449150E080E80E94D7
:101DD000350409CF973009F4BECF983021F481E063
:101DE0008093F10000CF993009F0FDCE837009F0A7
:101DF000B2CFE5E2F1E081E031E096E321912223E8
:101E000071F08093E9003093EB00DF0111972C9182
:101E10002093EC009093ED008F5F873079F78EE789
:101E20008093EA001092EA008F8980932C06DBCE23
:101E30008B8D9C8D1092E9001092F9011092F8019F
:101E40009093F7018093F601898D811192C08E895C
:101E50009D89913A49F4813209F07DCF47E050E005
:101E600064E071E080E0B3CF913209F074CF833247
:101E700069F48F89988DB0E0A0E080930001909381
:101E80000101A0930201B0930301ADCE803269F449
:101E90008091E80082FFFCCF67E084E091E00E943F
:101EA0008C048BEF8093E8009ECE823209F09BCEAB
:101EB0008F8980930B01EEEFFFE7859194918B3F23
:101EC0009C4D51F1E0E0F8E0809104019091050112
:101ED000A0910601B0910701803B9440A105B10596
:101EE000F1F480910B0180FD1AC0EE3F8AE0F80703
:101EF00089F587E797E791838083809160008093DD
:101F0000FA0188E19BE00FB6F894A89580936000F1
:101F10000FBE9093600067CEEEEFFAE0D5CF8081E0
:101F200091818737974709F05ECEA8958091600030
:101F30008861809360008091FA0180936000EE3F99
:101F40002AE0F20789F08091FE0A9091FF0A9183BE
:101F5000808349CE808191818737980751F2909391
:101F6000FF0A8093FE0AC5CF1092FF0A1092FE0A64
:101F70003ACE0E946202DC0112960D911C9101156D
:101F8000110509F4E8CED801ED91FC910190F081A2
:101F9000E02DBE016B5E7F4FC8010995811123CEF4
:101FA000F80100851185EBCF181619060CF41BCE2D
:101FB000D2CEF1E0FF12BECE6DE271E004CFEDE1D2
:101FC000F7E01382128288EE93E0A0E0B0E0848311
:101FD0009583A683B78389E591E0918380838FEF12
:101FE0009FEF95878487EDE6F7E080831282118268
:101FF000148613868FEF9FEFDC0187839087A1877C
:10200000B28713821482158216820895CF93DF93CC
:10201000CDB7DEB7C255D1090FB6F894DEBF0FBEFB
:10202000CDBF789484B5826084BD84B5816084BD61
:1020300085B5826085BD85B5816085BD80916E0066
:10204000816080936E001092810080918100826097
:1020500080938100809181008160809381008091D4
:1020600080008160809380008091910082608093E5
:102070009100809191008160809391008091900007
:102080008160809390008091C10084608093C10042
:102090008091C10082608093C1008091C100816005
:1020A0008093C1008091C30081608093C3008091C0
:1020B000C00082608093C0008091C20081608093E4
:1020C000C20080917A00846080937A0080917A00C7
:1020D000826080937A0080917A00816080937A0098
:1020E00080917A00806880937A0010922C0610927A
:1020F000FD011092FC018091D70081608093D70090
:1021000080EA8093D80089B5806189BD89B58260F5
:1021100089BD09B400FEFDCF0E94B9038091D800AB
:102120008F7C80618093D8008091E000807F8093D5
:10213000E0008091E1008E7E8093E1008DE080934D
:10214000E200559A209A5D9828988FEF9FEF909320
:102150002A078093290781E080930C01E0EDF2E0EB
:102160002491E1EBF2E08491882399F090E0880FCC
:10217000991FFC01E75AFE4FA591B491FC01E75667
:10218000FD4F859194918FB7F894EC91E22BEC93ED
:102190008FBF81E00E94BB0180911802811157C05E
:1021A00010920302109202028FEF80930602809336
:1021B0000702809308028093090280930A028093A9
:1021C0000B0281E080930C0280930D0210920F02AB
:1021D00010920E0280E797E1909311028093100213
:1021E00083E090E090931302809312021092150204
:1021F00010921402109205021092040280911707A7
:1022000090911807892B31F480E092E090931807A1
:1022100080931707E091FE01F091FF01309721F0C4
:1022200080E092E09583848380E092E09093FF01C8
:102230008093FE01109217021092160283E491E03F
:10224000909301028093000281E080931802579AD4
:102250008DE296E0909303028093020280E490E086
:1022600090930F0280930E028091700790917107F6
:10227000A0917207B0917307843C29E09207A105F1
:10228000B10520F484EC99E0A0E0B0E08093700701
:1022900090937107A0937207B09373070E94C20BCB
:1022A0000E948C0919821A821B82CE0101960E941B
:1022B000AD0180916D070E949B0222242394AE0100
:1022C0004F5B5F4F25965FAF4EAF259733243A940F
:1022D0008DE197E00E94A105892B09F4FEC38DE1F1
:1022E00097E00E945F05E09160028A3019F08D301E
:1022F00009F0E7C3EE2361F3F0E0E05EFD4F1082EA
:1023000066E771E080E292E00E94AA198C010097D2
:1023100051F068E771E00E94511E892B39F485E77E
:1023200092E00E94980A10926002D2CF6DE771E0AD
:10233000C8010E94511E892B09F03DC18EEB91E02E
:102340000E94350509E915E031EBE32E35E0F32E67
:10235000D12C8BEB91E00E9435058D2D0E94A60AB1
:102360008DE30E943005D8018D918D010E94A60A4F
:102370008CE20E943005F80187810E94A60A8CE257
:102380000E943005D8011F968C910E94A60A8CE20B
:102390000E943005F70161917191819191917F01C6
:1023A0000E94AD0AD394F8E0DF12D3CF83EB91E023
:1023B0000E9435056091D1057091D20590E080E0D2
:1023C0004AE00E94540A8CE20E9430058091D305B5
:1023D0000E94A60A8CE20E9430058091D4050E94DA
:1023E000A60A8CE20E9430058091D5050E94A60ABB
:1023F0008CE20E9430058091D6050E94A60A8CE2EC
:102400000E9430056091D7057091D80590E080E07A
:102410004AE00E94540A8DEA91E00E9435056091DD
:10242000D9057091DA058091DB059091DC050E9459
:10243000AD0A8CE20E9430056091DD057091DE05E9
:102440008091DF059091E0050E94AD0A8CE20E9428
:1024500030056091E1057091E2058091E30590916E
:10246000E4050E94AD0A8CE20E9430056091E5050A
:102470007091E6058091E7059091E8050E94AD0A0C
:1024800086EA91E00E9435058091E9050E94A60A3E
:102490008CE20E9430058091EA050E94A60A8CE237
:1024A0000E9430058091EB050E94A60A8FE991E019
:1024B0000E9435056091EC057091ED058091EE0567
:1024C0009091EF050E94AD0A88E991E00E943505E0
:1024D0006091F0057091F10590E080E04AE00E9483
:1024E000540A80E991E00E9435056091F2057091EF
:1024F000F30590E080E04AE00E94540A88E891E009
:102500000E9435056091F4057091F5058091F605FE
:102510009091F7050E94AD0A8FE791E00E94350582
:102520008091F8050E94A60A86E791E00E94350591
:102530008091F9050E94A60A8DE691E00E9435057A
:102540008091FA050E94A60A8CE20E9430058091D3
:10255000FB050E94A60A8CE20E9430058091FC05D2
:102560000E94A60A8CE20E9430058091FD050E941F
:10257000A60A87E691E00E9435058091FE050E943B
:10258000A60A8CE20E9430058091FF050E94A60AEF
:102590008CE20E943005809100060E94A60A8CE21F
:1025A0000E943005809101060E94A60A87E691E00C
:1025B0000E94470AB8CE61E871E0C8010E94511E2E
:1025C000892B29F40E94A30B8DE692E0AACE66E83F
:1025D00071E0C8010E94511E892B39F40E94C20B80
:1025E0000E948C0985E692E09CCE6BE871E0C80100
:1025F0000E94511E892B99F466E771E090E080E01B
:102600000E94AA19FC01892B21F091E0808181337D
:1026100009F090E090930F018BE592E082CE67EA9B
:1026200071E0C8010E94511E892B79F566E771E0BF
:1026300090E080E00E94AA190E948C198C0166E744
:1026400071E090E080E00E94AA190E948C19E82EA7
:1026500066E771E090E080E00E94AA190E948C1960
:10266000F82E66E771E090E080E00E94AA190E94CF
:102670008C190830110530F4F801E956FA4FE2825E
:10268000F286828B82E592E04CCE62E971E0C8016D
:102690000E94511E892B11F566E771E090E080E001
:1026A0000E94AA190E948C198C0166E771E090E0E3
:1026B00080E00E94AA190E9488190830110558F478
:1026C000000F111F000F111FF801E956FA4F628F1A
:1026D000738F848F958F85E492E023CE6CE971E04F
:1026E000C8010E94511E892B39F566E771E090E020
:1026F00080E00E94AA190E948C199093D2058093C1
:10270000D10566E771E090E080E00E94AA190E947E
:102710008C198093D30566E771E090E080E00E9419
:10272000AA19009731F00E948C199093D8058093D4
:10273000D7058CE392E0F5CD62EA71E0C8010E9412
:10274000511E892B09F566E771E090E080E00E9458
:10275000AA190E948C198093D40566E771E090E075
:1027600080E00E94AA190E948C198093D50566E723
:1027700071E090E080E00E94AA190E948C19809379
:10278000D6058EE292E0CDCD6DEA71E0C8010E94DF
:10279000511E892B09F043C066E771E090E080E0AC
:1027A0000E94AA190E9488196093D9057093DA05CE
:1027B0008093DB059093DC0566E771E090E080E0B4
:1027C0000E94AA190E9488196093DD057093DE05A6
:1027D0008093DF059093E00566E771E090E080E08C
:1027E0000E94AA190E9488196093E1057093E2057E
:1027F0008093E3059093E40566E771E090E080E064
:102800000E94AA190E9488196093E5057093E60555
:102810008093E7059093E80585E292E082CD63EB33
:1028200071E0C8010E94511E892B09F566E771E02D
:1028300090E080E00E94AA190E948C198093E9051B
:1028400066E771E090E080E00E94AA190E948C196E
:102850008093EA0566E771E090E080E00E94AA19A3
:102860000E948C198093EB0588E192E05ACD6DEBC4
:1028700071E0C8010E94511E892B99F466E771E04E
:1028800090E080E00E94AA190E9488196093EC05EC
:102890007093ED058093EE059093EF058EE092E046
:1028A00040CD64EC71E0C8010E94511E892B89F46F
:1028B00066E771E090E080E00E94AA190E948C19FE
:1028C0009093F1058093F0050E948C0986E092E0D8
:1028D00028CD69EC71E0C8010E94511E892B89F452
:1028E00066E771E090E080E00E94AA190E948C19CE
:1028F0009093F3058093F2050E948C098DEF91E08F
:1029000010CD6FEC71E0C8010E94511E892B99F423
:1029100066E771E090E080E00E94AA190E948819A1
:102920006093F4057093F5058093F6059093F70591
:1029300084EF91E0F6CC65ED71E0C8010E94511E74
:10294000892B79F466E771E090E080E00E94AA1993
:102950000E948C198093F80580936D078AEE91E0B0
:10296000E0CC6CED71E0C8010E94511E892B89F406
:1029700066E771E090E080E00E94AA190E948C193D
:1029800021E0892B09F420E02093F90580EE91E005
:10299000C8CC63EE71E0C8010E94511E892B79F505
:1029A00066E771E090E080E00E94AA190E948C190D
:1029B00021E0892B09F420E02093FA0566E771E015
:1029C00090E080E00E94AA190E948C198093FB0578
:1029D00066E771E090E080E00E94AA190E948C19DD
:1029E0008093FC0566E771E090E080E00E94AA1900
:1029F0000E948C198093FD0586ED91E092CC6AEEE1
:102A000071E0C8010E94511E892BD9F566E771E07B
:102A100090E080E00E94AA190E948C1921E0892B85
:102A200009F420E02093FE0566E771E090E080E085
:102A30000E94AA190E948C1921E0892B09F420E038
:102A40002093FF0566E771E090E080E00E94AA19FC
:102A50000E948C1921E0892B09F420E020930006C4
:102A600066E771E090E080E00E94AA190E948C194C
:102A700021E0892B09F420E0209301068FEC91E0FE
:102A800050CC6EEE71E0C8010E94511E892B89F472
:102A900066E771E090E080E00E94AA190E948C191C
:102AA00021E0892B09F420E02093880587EC91E050
:102AB00038CC82EC91E00E943505C8010E94470A9B
:102AC00075CDEF3308F004CC91E09E0F9093600237
:102AD000F0E0E05EFD4F8083FBCB8FB7F894409031
:102AE000ED065090EE066090EF067090F0068FBFF6
:102AF0008091160690911706A0911806B0911906BC
:102B0000B301A201481B590B6A0B7B0B809110018A
:102B100090911101A0911201B0911301481759072A
:102B20006A077B0708F41CC14092160650921706EC
:102B30006092180670921906EAE8F2E084912091FA
:102B40007B00982F990F990F90722F7D922B909365
:102B50007B0020910C01F0E42F9F900111248770DD
:102B6000822B80937C0080917A00806480937A002D
:102B700080917A0086FDFCCF609178007091790099
:102B8000072E000C880B990B0E94561B20E030E0AA
:102B900040EA50E40E94B51B20E030EC4FE754E4DB
:102BA0000E94A11D4B015C018092120690921306B7
:102BB000A0921406B09215062091D9053091DA053D
:102BC0004091DB055091DC0529962CAF3DAF4EAF0F
:102BD0005FAF29976091E1057091E2058091E3056F
:102BE0009091E4050E94341D2D966CAF7DAF8EAFA1
:102BF0009FAF2D97C090DD05D090DE05E090DF05FA
:102C0000F090E0059F772DEB37E346E855E30E940F
:102C10004F1B87FD36C0A70196016091E5057091B5
:102C2000E6058091E7059091E8050E94341D6196C4
:102C30006CAF7DAF8EAF9FAF619729962CAD3DAD48
:102C40004EAD5FAD2997C501B4010E94341D9B01B3
:102C5000AC0161966CAD7DAD8EAD9FAD61970E946C
:102C6000B51B2D962CAD3DAD4EAD5FAD2D970E94A1
:102C7000A11D9B01AC01C701B6010E94351D6B016E
:102C80007C01C0920E06D0920F06E0921006F092E0
:102C90001106209186053091870580900D01909056
:102CA0000E01A0908105B12C8501000F111F000FAE
:102CB000111F2815390508F4D7C1F801EF59FD4F48
:102CC0002081318142815381609182057091830519
:102CD00080918405909185050E94341D6093820542
:102CE000709383058093840590938505F801EF59CF
:102CF000FD4FC082D182E282F38220918205309121
:102D000083054091840550918505C701B6010E9455
:102D1000351D6B017C01C0928205D0928305E09243
:102D20008405F0928505C5010196B4010E94DD1C61
:102D300080938105609186057091870590E080E021
:102D40000E94541B9B01AC01C701B6010E94A11D4A
:102D50006093060670930706809308069093090611
:102D6000C0900606D0900706E0900806F09009068D
:102D700080910A0690910B06A0910C06B0910D0669
:102D8000A3019201281B390B4A0B5B0BDA01C90125
:102D90008A3F9105A105B105A0F140920A06509223
:102DA0000B0660920C0670920D062091020630917F
:102DB00003064091040650910506C701B6010E9422
:102DC000341D29966CAF7DAF8EAF9FAF2997809051
:102DD000EC059090ED05A090EE05B090EF05A501F3
:102DE00094010E94421E18160CF045C131E0309348
:102DF0009605C0920206D0920306E0920406F09275
:102E000005062091F4053091F5054091F6055091A5
:102E1000F7058091F905882309F43EC161E0269603
:102E20006FAF2697C701B6010E944F1B18160CF40E
:102E30003DC18091D7059091D805A3019201280F3B
:102E4000391F411D511DDA01C901809392059093EC
:102E50009305A0939405B093950526963FAD2697CC
:102E60003093910580918D0590918E05A0918F05ED
:102E7000B0919005A3019201281B390B4A0B5B0B03
:102E8000DA01C9014E97A105B10508F45CC0409272
:102E90008D0550928E0560928F05709290058091FD
:102EA0008805882309F41CC181E00E94BB011982B6
:102EB0001A821B82CE0101960E94AD0110E060E0F3
:102EC000812F0E946309FC01EE0FFF1FE80FF91F1D
:102ED000E35DF94F3082118212821F5F183079F75B
:102EE00010E0612F80E00E946309FC01EE0FFF1FDC
:102EF000E80FF91FE35DF94F1082118232821F5FE4
:102F0000183079F760E080E00E946309FC01EE0F61
:102F1000FF1FE80FF91FE35DF94F308231823282E3
:102F200060E087E00E946309FC01EE0FFF1FE80FDD
:102F3000F91FE35DF94F108280E88183128280914E
:102F40006D070E949B0280910F01882309F484C0C1
:102F50008091890590918A05A0918B05B0918C058F
:102F6000A3019201281B390B4A0B5B0BDA01C90143
:102F700084369105A105B10508F46EC0409289051B
:102F800050928A0560928B0570928C0510E000E0EB
:102F9000F12C802F0E94140A882341F081E090E0F8
:102FA000002E01C0880F0A94EAF7F82A0F5F1F4F1E
:102FB0000830110571F71091FA05112319F011E08D
:102FC000F11010E086E992E00E943505609112064A
:102FD0007091130680911406909115060E94AD0A17
:102FE00080E20E94300560910E0670910F0680917C
:102FF0001006909111060E94AD0A80E20E943005F1
:103000006091060670910706809108069091090666
:103010000E94AD0A80E20E94300580919605082E3C
:10302000000C990B0E94720B80E20E9430058F2DDC
:103030000E94A60A80E20E9430058091910590E0EE
:103040000E94720B80E20E943005812F0E94A60A26
:1030500087E691E00E94470A40E050E0452B09F4E2
:1030600037C90E94000032C92F5F3F4F3093870558
:10307000209386053BCEA5019401505829966CAD4E
:103080007DAD8EAD9FAD29970E944F1B880F880B99
:10309000832180939605ADCE81E026968FAF26974B
:1030A000C701B6010E94421E87FFC3CE80919205E0
:1030B00090919305A0919405B09195058419950977
:1030C000A609B70951E026965FAF2697181619068C
:1030D0001A061B060CF4C1CE26961FAE2697BDCE4F
:1030E00019821A821B82CE0101960E94AD01AE01A7
:1030F0004F5F5F4F2B965FAF4EAF2B975A01D501B5
:103100001D925D012596EEADFFAD2597EA17FB07F1
:10311000B1F78091960518160CF0F2C08091E90580
:1031200007E915E0C12CD12C282F30E063963FAF82
:103130002EAF63978D2D0E94140A8823C1F1C3948A
:10314000D8015296BC912E96BFAF2E97F80192846B
:103150008280F12CE12C63968EAD9FAD63970E2C8F
:1031600002C0959587950A94E2F780FF19C06E2DED
:103170008D2D0E946309FC01EE0FFF1FE80FF91F60
:10318000E35DF94F808291822E962FAD2E97228398
:1031900041E050E04C0F5D1F840F951FDC012C9225
:1031A000BFEFEB1AFB0AE8E0EE16F104A1F6D394A8
:1031B0000F5F1F4FF8E0DF12BDCF8091FA05882323
:1031C00009F449C0C11047C0F090FD05E090FC052E
:1031D000D090FB0523E022962FAF229734E0239670
:1031E0003FAF23978E010F5B1F4F480142E0840ED3
:1031F000911CD801CD908D0163E08C2D0E94630954
:10320000FC01EE0FFF1FE80FF91FE35DF94FD082BD
:10321000E182F282E1E0F0E0EC0FFD1F8E0F9F1FD4
:10322000DC012C9264E08C2D0E946309FC01EE0FFE
:10323000FF1FE80FF91FE35DF94FD082E182F282B0
:10324000E1E0F0E0EC0FFD1F8E0F9F1FDC012C92E0
:103250008016910671F62696BFAD269781E0BB23B6
:1032600009F44BC08091D305813029F52091D10517
:103270003091D2052115310511F42CE231E04FB720
:10328000F8946091ED067091EE068091EF069091B2
:10329000F0064FBF50E040E00E94051DDA01C90171
:1032A00080959095A095B095E82FE1702696EFAFA8
:1032B000269720FD1EC08091D6059091D5052091BE
:1032C000D405EDE2F6E02B96AEADBFAD2B973D9168
:1032D0002B96BFAFAEAF2B97311103C020839183E4
:1032E000828333962B964EAD5FAD2B974A155B05C7
:1032F00051F726968FAD269782250E94BB011FCEDF
:10330000882319F08091EA050BCF8091EB0508CF57
:10331000662777270C94DE19FC0188279927E89403
:1033200021912032E9F3293010F02E30C8F32B32EE
:1033300041F02D3239F4689404C00E94D619820FEE
:10334000911D219120532A30C0F31EF49095819550
:103350009F4F08954AE757E00E94AF190895FA0178
:10336000A191B081009719F41097E1F0CD01DC0133
:10337000CD010D90002011F4C00113C0FB0121917B
:10338000222319F02015D9F7F3CFFB012191201545
:1033900019F41E92119606C02223C1F70D90002049
:1033A000A1F7D001FA01A193B08308957AE0979F25
:1033B000902D879F802D910D11240895B0E0A0E0FD
:1033C000E4EEF9E10C949D1C5C017B016115710533
:1033D00019F0DB018D939C9385010F5F1F4FF50161
:1033E000D0818D2F90E00E942E1B6C01892BB9F5A6
:1033F000DD32B9F50F5F1F4FD5011196DC91C1E0A9
:103400005801F1E0AF1AB10843E050E064EB70E01E
:10341000C5010E94371B892B69F5680182E0C80E3F
:10342000D11C45E050E06FEA70E0C6010E94371BF6
:10343000892B21F4680197E0C90ED11CE114F10435
:1034400019F0D701CD92DC9260E070E080E89FEF48
:10345000C111FFC060E070E080E89FE7FAC058014A
:10346000BBCFDB3229F485010E5F1F4FF501D181FF
:10347000C0E0C6CF43E050E06CEA70E0C5010E94B6
:10348000371B892BE9F0F80110E000E020E030E084
:10349000A9015F01B0ED8B2E8D0E89E08815C8F172
:1034A0009C2E689491F88C2F8870C2FF16C08111F1
:1034B00002C00F5F1F4F3196D501DC91C92DE9CFB6
:1034C000E114F10429F00E5F1F4FF701118300830F
:1034D00060E070E080EC9FE7BCC0882311F00150F1
:1034E0001109A5E0B0E00E948C1C9B01AC01220FE9
:1034F000331F441F551F280D311D411D511D2839F3
:1035000099E93907490799E15907A8F2C6609C2E45
:10351000D2CFAEEF8A1206C0C3FD3CC09C2E689489
:1035200093F8C9CFDF7DD534A9F580818D3239F488
:10353000C061DF011296818162E070E006C0DF01A8
:103540008B32C1F3119661E070E080535D01A61AE1
:10355000B70A8A30F8F4E0E8CE16ECE0DE065CF458
:10356000B601660F771F660F771FC60ED71ECC0CED
:10357000DD1CC80ED11C5D01FFEFAF1ABF0A8C9194
:1035800080538A30A8F1C4FF03C0D194C194D108FC
:103590000C0D1D1DC1FF09C0E114F10431F081E0E3
:1035A000A81AB108D701AD92BC92CA01B9010E9414
:1035B000541BC370C33009F490584B015C0120E0E8
:1035C00030E0A9010E944F1B882309F440C0C3EEDC
:1035D000D0E017FF05C0119501951109CBECD0E0A3
:1035E0006E01B8E1CB1AD10880E2E82EF12C0FC0B1
:1035F000D501B1CFFE0125913591459154910E1918
:103600001F09C501B4010E94B51B4B015C01D50126
:10361000C4010E151F0574F72497F594E794CC1692
:10362000DD06A9F78A2F880F8B2F881F8F3F49F05F
:1036300020E030E0A901C501B4010E944F1B8111B7
:1036400006C082E290E090937D0780937C07C501DD
:10365000B401CDB7DEB7ECE00C94B91C91110C9419
:10366000221C803219F089508550C8F70895FB015B
:10367000DC014150504088F08D9181341CF08B3535
:103680000CF4805E659161341CF06B350CF4605E67
:10369000861B611171F3990B0895881BFCCF0E9462
:1036A000911B08F481E00895E89409C097FB3EF46B
:1036B00090958095709561957F4F8F4F9F4F99237F
:1036C000A9F0F92F96E9BB279395F69587957795FD
:1036D0006795B795F111F8CFFAF4BB0F11F460FFBD
:1036E0001BC06F5F7F4F8F4F9F4F16C0882311F015
:1036F00096E911C0772321F09EE8872F762F05C029
:10370000662371F096E8862F70E060E02AF09A95C3
:10371000660F771F881FDAF7880F9695879597F9B8
:103720000895990F0008550FAA0BE0E8FEEF161652
:103730001706E807F907C0F012161306E407F507A5
:1037400098F0621B730B840B950B39F40A2661F019
:10375000232B242B252B21F408950A2609F4A140BC
:10376000A6958FEF811D811D08950E94C81B0C94A2
:103770003C1C0E942E1C38F00E94351C20F0952322
:1037800011F00C94251C0C942B1C11240C94701C0F
:103790000E944D1C70F3959FC1F3950F50E0551F8B
:1037A000629FF001729FBB27F00DB11D639FAA2796
:1037B000F00DB11DAA1F649F6627B00DA11D661FE5
:1037C000829F2227B00DA11D621F739FB00DA11D06
:1037D000621F839FA00D611D221F749F3327A00DC0
:1037E000611D231F849F600D211D822F762F6A2F5C
:1037F00011249F5750409AF0F1F088234AF0EE0FC1
:10380000FF1FBB1F661F771F881F91505040A9F7ED
:103810009E3F510580F00C94251C0C94701C5F3F5A
:10382000E4F3983ED4F3869577956795B795F79529
:10383000E7959F5FC1F7FE2B880F911D96958795A1
:1038400097F9089599278827089597F99F6780E841
:1038500070E060E008959FEF80EC089500240A94E2
:103860001616170618060906089500240A9412165B
:103870001306140605060895092E0394000C11F48E
:10388000882352F0BB0F40F4BF2B11F460FF04C03B
:103890006F5F7F4F8F4F9F4F089557FD9058440F94
:1038A000551F59F05F3F71F04795880F97FB991F9F
:1038B00061F09F3F79F0879508951216130614065C
:1038C000551FF2CF4695F1DF08C0161617061806E9
:1038D000991FF1CF86957105610508940895E894C4
:1038E000BB2766277727CB0197F90895F999FECF73
:1038F00092BD81BDF89A992780B50895262FF99930
:10390000FECF1FBA92BD81BD20BD0FB6F894FA9AC2
:10391000F99A0FBE019608950E94CE1CA59F900DA6
:10392000B49F900DA49F800D911D112408952F9296
:103930003F924F925F926F927F928F929F92AF923F
:10394000BF92CF92DF92EF92FF920F931F93CF938C
:10395000DF93CDB7DEB7CA1BDB0B0FB6F894DEBF23
:103960000FBECDBF09942A88398848885F846E8449
:103970007D848C849B84AA84B984C884DF80EE8093
:10398000FD800C811B81AA81B981CE0FD11D0FB69C
:10399000F894DEBF0FBECDBFED010895A29FB00128
:1039A000B39FC001A39F700D811D1124911DB29F73
:1039B000700D811D1124911D0895AA1BBB1B51E19F
:1039C00007C0AA1FBB1FA617B70710F0A61BB70B8F
:1039D000881F991F5A95A9F780959095BC01CD0134
:1039E000089597FB072E16F4009407D077FD09D0B1
:1039F0000E94DD1C07FC05D03EF4909581959F4FF9
:103A00000895709561957F4F0895A1E21A2EAA1B23
:103A1000BB1BFD010DC0AA1FBB1FEE1FFF1FA2177E
:103A2000B307E407F50720F0A21BB30BE40BF50B7B
:103A3000661F771F881F991F1A9469F76095709504
:103A4000809590959B01AC01BD01CF010895EE0FCB
:103A5000FF1F0590F491E02D09940E94CE1CB7FF42
:103A60000895821B930B08955058BB27AA270E94E4
:103A70004C1D0C943C1C0E942E1C38F00E94351CDE
:103A800020F039F49F3F19F426F40C942B1C0EF40B
:103A9000E095E7FB0C94251CE92F0E944D1C58F380
:103AA000BA17620773078407950720F079F4A6F523
:103AB0000C946F1C0EF4E0950B2EBA2FA02D0B0169
:103AC000B90190010C01CA01A0011124FF27591B63
:103AD00099F0593F50F4503E68F11A16F040A22F69
:103AE000232F342F4427585FF3CF469537952795DA
:103AF000A795F0405395C9F77EF41F16BA0B620BD9
:103B0000730B840BBAF09150A1F0FF0FBB1F661F1F
:103B1000771F881FC2F70EC0BA0F621F731F841F62
:103B200048F4879577956795B795F7959E3F08F088
:103B3000B0CF9395880F08F09927EE0F979587954A
:103B400008950E94B51D0C943C1C0E94351C58F031
:103B50000E942E1C40F029F45F3F29F00C94251C94
:103B600051110C94701C0C942B1C0E944D1C68F37A
:103B70009923B1F3552391F3951B550BBB27AA2726
:103B800062177307840738F09F5F5F4F220F331F60
:103B9000441FAA1FA9F335D00E2E3AF0E0E832D028
:103BA00091505040E695001CCAF72BD0FE2F29D02B
:103BB000660F771F881FBB1F261737074807AB07FD
:103BC000B0E809F0BB0B802DBF01FF2793585F4F72
:103BD0003AF09E3F510578F00C94251C0C94701C13
:103BE0005F3FE4F3983ED4F3869577956795B79554
:103BF000F7959F5FC9F7880F911D9695879597F95F
:103C00000895E1E0660F771F881FBB1F62177307D7
:103C10008407BA0720F0621B730B840BBA0BEE1FEC
:103C200088F7E09508950E94551C88F09F5798F0FA
:103C3000B92F9927B751B0F0E1F0660F771F881FB1
:103C4000991F1AF0BA95C9F714C0B13091F00E94CB
:103C50006F1CB1E008950C946F1C672F782F882794
:103C6000B85F39F0B93FCCF3869577956795B395F2
:103C7000D9F73EF490958095709561957F4F8F4F61
:103C80009F4F08950E94911B08F48FEF08950E94A2
:103C9000911B880B990B089581E090E0F8940C94A7
:103CA0005A1EFB01DC018D91019080190110D9F39E
:083CB000990B0895F894FFCF71
:103CB800FFFFFFFF00E1000000000000010100011C
:103CC80064000000000000FFFFFFFFFFFFFFFFFF91
:103CD800C878280000C1808100000000000000A111
:103CE8000BA10BA10B430A0C063F0A3C0A390A0038
:103CF8000000000E09A808A608430A0C063F0A3C63
:103D08000AD1034C06000000001A0599045B05500F
:103D180005A1055F057D050D0A006E616E00696EDF
:103D280066006F766600200050494E4700474554AC
:103D38000053415645004C4F4144005354524541AD
:103D48004D00434F4C4C414D42444100414C45527B
:103D58005400414C455254434F4C4F520043414C40
:103D68004942005452454E44524F57530053544110
:103D7800424C45004D41564700535241544500417D
:103D88004C41524D0042524947485400444945531A
:103D9800454C0043454E544552004D415000544552
:043DA8005354000070
:00000001FF
