:100000000C940E010C9436010C9436010C943601BC
:100010000C9436010C9436010C9436010C94360184
:100020000C9436010C9436010C9436010C94360174
:100030000C9436010C9436010C9436010C94360164
:100040000C943A0B0C9436010C94AA0B0C94840B70
:100050000C9436010C9436010C9436010C94360144
:100060000C9436010C9436014E414E494E49545978
:10007000494E46CDCCCC3D0AD7233C17B7D1387773
:10008000CC2B329595E6241FB14F0A000020410089
:1000900000C84200401C4620BCBE4CCA1B0E5AAED3
:1000A000C59D7400000000240027002A00204D4157
:1000B000503D002043454E5445523D0020444945A3
:1000C00053454C3D00204252494748543D00204191
:1000D0004C41524D3D002053524154453D00204D6E
:1000E0004156473D0020535441423D0020524F5756
:1000F000533D002043414C3D0020414C4552543D6E
:10010000002043004346470045525220004F4B20F9
:1001100054455354004F4B204D4150004F4B20430A
:10012000454E544552004F4B2044494553454C00E1
:100130004F4B20425249474854004F4B20414C41BD
:10014000524D004F4B205352415445004F4B204DD0
:10015000415647004F4B20535441424C45004F4BB2
:10016000205452454E44524F5753004F4B20434169
:100170004C4942004F4B20414C455254434F4C4F49
:1001800052004F4B20414C455254004F4B20434F9F
:100190004C4C414D424441004F4B20434F4C4F5239
:1001A000004F4B2053545245414D004F4B204C4F74
:1001B0004144004F4B205341564500504F4E47207D
:1001C0005061696E656C4C616D62646120763100CE
:1001D00044200000000000250028002B0004040437
:1001E00004040404040202020202020303030303E0
:1001F00003010204081020408001020408102001BD
:10020000020408102000000008000201000003049E
:1002100007000000000000000000DC0B11241FBEDE
:10022000CFEFD8E0DEBFCDBF27E0A0EEB1E001C048
:100230001D92A139B207E1F711E0A0E0B1E0EEE7CD
:10024000F4E302C005900D92A03EB107D9F711E08A
:10025000CEE0D1E004C02197FE010E941119CD30FB
:10026000D107C9F70E941C0C0C943D1A0C94000095
:10027000E3E0F6E0DC012D913D914C912193319327
:100280004193B6E0E33CFB07A9F70895EFE0F2E005
:100290002491EBEFF1E09491E7EEF1E0E491EE23AD
:1002A000C9F0222339F0233001F1A8F4213019F1EB
:1002B000223029F1F0E0EE0FFF1FED52FE4FA59125
:1002C000B4912FB7F894EC91811126C090959E239C
:1002D0009C932FBF08952730A9F02830C9F024300F
:1002E00049F7209180002F7D03C0209180002F7757
:1002F00020938000DFCF24B52F7724BDDBCF24B53A
:100300002F7DFBCF2091B0002F772093B000D2CF6C
:100310002091B0002F7DF9CF9E2BDACF3FB7F89414
:100320008091FF0590910006A0910106B091020610
:1003300026B5A89B05C02F3F19F00196A11DB11D40
:100340003FBFBA2FA92F982F8827BC01CD01620F7C
:10035000711D811D911D42E0660F771F881F991F37
:100360004A95D1F70895AF92BF92DF92EF92FF9234
:100370000F931F93CF93DF93D82E80918307909193
:100380008407A0918507B0918607892B8A2B8B2B38
:10039000D9F00E948E010091DF061091E0062091B5
:1003A000E1063091E206601B710B820B930B00910A
:1003B0008307109184072091850730918607601785
:1003C000710782079307C8F20E948E016093DF06CF
:1003D0007093E0068093E1069093E206E0918B072C
:1003E000F0918C07309759F040918707509188071A
:1003F0006091890770918A078D2D0995D82EC0913B
:10040000DD06D091DE068DECE82E86E0F82E870121
:10041000209749F186E00D3D180729F18D85882345
:10042000F1F0E881F981A284B3840680F781E02DA0
:10043000CE010995BC01CE01F5010995F801918322
:10044000808380918107909182078436910508F41A
:100450001C860C80DD81C02D0E5F1F4FD9CFF801A7
:1004600011821082EECFC091DD06D091DE0608E049
:1004700010E02097A9F08D85882361F04E855F8577
:100480006A817B81E881F9810280F381E02D2D2D45
:10049000CE0109950C80DD81C02D0150110949F76D
:1004A000C091DD06D091DE062097C9F0FDEDEF1674
:1004B000F6E0FF06A1F08D85882351F0F7016081F9
:1004C0007181E881F9810484F585E02DCE010995DB
:1004D0000C80DD81C02DF2E0EF0EF11CE5CF8091A4
:1004E000CB069091CC069C012F5F3F4F3093CC06FA
:1004F0002093CB0649970CF44AC08FB7F89420910B
:10050000C3063091C4064091C5065091C6068FBF00
:100510008091C7069091C806A091C906B091CA06FD
:10052000281B390B4A0B5B0B21F421E030E040E043
:1005300050E0E091CB06F091CC0688EE93E0E89F86
:10054000B001E99F700DF89F700D1124072E000C6B
:10055000880B990B0E94E81830938207209381073B
:100560001092CC061092CB062FB7F8948091C30658
:100570009091C406A091C506B091C6062FBF809386
:10058000C7069093C806A093C906B093CA06DF9128
:10059000CF911F910F91FF90EF90DF90BF90AF90A0
:1005A000089580E991E00895AF92BF92CF92DF92D3
:1005B000EF92FF920F931F93CF93DF936C017B0118
:1005C0008B01040F151FEB015E01AE18BF08C017A9
:1005D000D10759F06991D601ED91FC910190F0811C
:1005E000E02DC6010995892B79F7C501DF91CF91DF
:1005F0001F910F91FF90EF90DF90CF90BF90AF9041
:100600000895FC01538D448D252F30E0842F90E018
:10061000821B930B541710F0CF96089501970895FD
:10062000FC01918D828D981761F0A28DAE0FBF2FC6
:10063000B11D5D968C91928D9F5F9F73928F90E01C
:1006400008958FEF9FEF0895FC01918D828D98178B
:1006500031F0828DE80FF11D858D90E008958FEFC8
:100660009FEF0895FC01918D228D892F90E0805C91
:100670009F4F821B91098F739927089583EE96E00F
:100680000E94320321E0892B09F420E0822F089593
:1006900080E090E0892B29F00E943E0381110C94A8
:1006A00000000895FC01A48DA80FB92FB11DA35A15
:1006B000BF4F2C91848D90E001968F739927848F82
:1006C000A689B7892C93A089B1898C9183708064A5
:1006D0008C93938D848D981306C00288F389E02D46
:1006E00080818F7D80830895EF92FF920F931F93F7
:1006F000CF93DF93EC0181E0888F9B8D8C8D9813D5
:100700001AC0E889F989808185FF15C09FB7F894E0
:10071000EE89FF896083E889F9898081837080642C
:1007200080839FBF81E090E0DF91CF911F910F9177
:10073000FF90EF900895F62E0B8D10E00F5F1F4F86
:100740000F731127E02E8C8D8E110CC00FB607FC95
:10075000FACFE889F989808185FFF5CFCE010E9423
:100760005203F1CFEB8DEC0FFD2FF11DE35AFF4F3C
:10077000F0829FB7F8940B8FEA89FB8980818062B1
:10078000CFCF682F83EE96E00C9474030F931F93E2
:10079000CF93DF938C01D0E0C0E0F801EC0FFD1F98
:1007A0006491662341F083EE96E00E947403892BE6
:1007B00011F02196F2CFCE01DF91CF911F910F91D1
:1007C0000895CF93DF93EC01888D8823B9F0AA892F
:1007D000BB89E889F9898C9185FD03C0808186FDFC
:1007E0000DC00FB607FCF7CF8C9185FFF2CF80814B
:1007F00085FFEDCFCE010E945203E9CFDF91CF916B
:100800000895AF92BF92CF92DF92EF92FF920F9333
:100810001F93CF93DF9300D01F92CDB7DEB75A015D
:1008200019821A821B82882361F18B01E1E0F0E0DA
:10083000E82EF12CD8012D918D012223F1F06F01CA
:10084000B1E0CB1AD108D501AC0DBD1D4C914423AC
:10085000A1F030E02F5F3F4FD7010E94B118A42FC5
:10086000B0E011969B01AC010E946F18A1E0B0E0CE
:10087000AC0FBD1FAC0DBD1D8C933196E430F1055E
:10088000C9F669817A818B810F900F900F90DF916B
:10089000CF911F910F91FF90EF90DF90CF90BF907D
:1008A000AF90089581E090E008950F931F93CF9348
:1008B000DF932091E1012F5F322F37703093E101F8
:1008C00020FF2BC020E831FD2064347009F0206245
:1008D000205FFC01EC01239600E011E067856623B0
:1008E00029F070E0C8010E94D4186F5F6187822FE1
:1008F000869F080E80E0811D1124811110C0168290
:10090000662311F0615061873196EC17FD0731F7CE
:10091000DF91CF911F910F91089520E0D4CF8150A6
:100920008683EECF4F925F927F928F929F92AF928B
:10093000BF92CF92DF92EF92FF920F931F93CF93CC
:10094000DF932C01EB010E948E01F2012689378989
:10095000621B730B6A307105B0F3F8948A819B8136
:10096000181619060CF0CDC1E881F9816BB1862EFD
:10097000689486F83BB13F7B3BB9DA848F812D2D9B
:10098000281B822F2F834C85042E000C550BAA8127
:10099000BB817889FF84E9887F5FF394E3949E812B
:1009A0009884B984AB841181C12C6C2D0C2D2C2D15
:1009B0002181112788942111280F08F42FEF8195A8
:1009C000889470FD120F1795889471FD120F17957A
:1009D000889472FD120F1795889473FD120F179566
:1009E000889474FD120F1795889475FD120F179552
:1009F000889476FD120F1795889477FD120F17953E
:100A00008894622F7111612F8D0D162F002C8BB8D9
:100A100000C017FF3BB920816627889400C000C042
:100A2000002C3BB92111290F00C0002C8BB800C04D
:100A300016FF3BB908F42FEF9195889400C000C0D1
:100A4000002C3BB9F0FC620F00C0002C8BB800C03A
:100A500015FF3BB967958894F1FC620F00C000C098
:100A6000002C3BB96795889400C0002C8BB800C05F
:100A700014FF3BB9F2FC620F6795889400C000C078
:100A8000002C3BB9F3FC620F00C0002C8BB800C0F7
:100A900013FF3BB967958894F4FC620F00C000C057
:100AA000002C3BB96795889400C0002C8BB800C01F
:100AB00012FF3BB9F5FC620F6795889400C000C037
:100AC000002C3BB9F6FC620F00C0002C8BB800C0B4
:100AD00011FF3BB967958894F7FC620F00C000C016
:100AE000002C3BB96795889400C0002C8BB800C0DF
:100AF00010FF3BB9122FF110162F9B0D00C000C044
:100B0000002C3BB900C000C0002C8BB800C017FF00
:100B10003BB922816627889400C000C0002C3BB9F5
:100B20002111290D00C0002C8BB800C016FF3BB965
:100B300008F42FEFE40FF51F00C000C0002C3BB9F4
:100B4000E0FC620F00C0002C8BB800C015FF3BB961
:100B500067958894E1FC620F00C000C0002C3BB98F
:100B60006795889400C0002C8BB800C014FF3BB977
:100B7000E2FC620F6795889400C000C0002C3BB96E
:100B8000E3FC620F00C0002C8BB800C013FF3BB920
:100B900067958894E4FC620F00C000C0002C3BB94C
:100BA0006795889400C0002C8BB800C012FF3BB939
:100BB000E5FC620F6795889400C000C0002C3BB92B
:100BC000E6FC620F00C0002C8BB800C011FF3BB9DF
:100BD00067958894E7FC620F00C000C0002C3BB909
:100BE0006795889400C0002C8BB800C010FF3BB9FB
:100BF000122FE110162F919400C000C0002C3BB9B9
:100C00009A0C00C000C08BB800C017FF3BB921810F
:100C10006627889400C000C0002C3BB92111280F22
:100C200000C0002C8BB800C016FF3BB908F42FEFB2
:100C30008195889400C000C0002C3BB970FD620F04
:100C400000C0002C8BB800C015FF3BB96795889495
:100C500071FD620F00C000C0002C3BB967958894FD
:100C600000C0002C8BB800C014FF3BB972FD620FAE
:100C70006795889400C000C0002C3BB973FD620FDB
:100C800000C0002C8BB800C013FF3BB96795889457
:100C900074FD620F00C000C0002C3BB967958894BA
:100CA00000C0002C8BB800C012FF3BB975FD620F6D
:100CB0006795889400C000C0002C3BB976FD620F98
:100CC00000C0002C8BB800C011FF3BB96795889419
:100CD00077FD620F00C000C0002C3BB96795889477
:100CE00000C0002C8BB800C010FF3BB9122F71114F
:100CF000162F8D0D00C000C0002C3BB9119709F0D4
:100D000086CEEA81FB812EE130E0DF010E940A19E4
:100D100030E020E0A901AAE9EA9F0E0E411DFA9FEA
:100D2000400D511D11244F0F511DDC01CB01840FCB
:100D3000951FA11DB11D893E43E09407A105B10592
:100D400008F434C0885E9340A109B10942E0B69529
:100D5000A795979587954A95D1F747E0849F080E08
:100D6000211D949F200D311D1124290F311D6091EB
:100D7000E00170E0860F971F820F931F4091C3061A
:100D80005091C4066091C5067091C606292F33277D
:100D9000420F531F611D711D4093C3065093C4063B
:100DA0006093C5067093C6068093E00178940E9414
:100DB0008E01F201778B668BDF91CF911F910F919E
:100DC000FF90EF90DF90CF90BF90AF909F908F906B
:100DD0007F905F904F900895569A08956F927F92FA
:100DE0008F92CF92DF92EF92FF920F931F93CF9348
:100DF000DF93CDB7DEB762970FB6F894DEBF0FBEB4
:100E0000CDBF8C016B017A01822FA801475F5F4F34
:100E1000B8016A5F7F4F0E9401043B01882ED80110
:100E20001C962C91C701F7FE04C0882799278E19BC
:100E30009F09DA82C9829C838B839E838D83688A13
:100E4000798A8A8A213049F5CE0101960E9455049B
:100E500083E08D871F861E86F7FE02C08DEF8D878B
:100E6000D801ED91FC910088F189E02DBE016F5F02
:100E70007F4FC801099562960FB6F894DEBF0FBE8A
:100E8000CDBFDF91CF911F910F91FF90EF90DF9039
:100E9000CF908F907F906F9008951C861B861A8646
:100EA000198618861F82D4CFCF92DF92EF92FF92DD
:100EB0000F931F93CF93DF93CDB7DEB762970FB633
:100EC000F894DEBF0FBECDBF8C016B017A01822F7B
:100ED000A801475F5F4FB8016A5F7F4F0E9401041E
:100EE0009B01482FD8011C968C91DA82C982FC8222
:100EF000EB82FE82ED82288B398B4A8B813009F59B
:100F0000CE0101960E9455041D861F861E86D801BB
:100F1000ED91FC910088F189E02DBE016F5F7F4F5C
:100F2000C801099562960FB6F894DEBF0FBECDBF1B
:100F3000DF91CF911F910F91FF90EF90DF90CF90B5
:100F400008951C861B861A86198618861F82DCCF98
:100F500008959091E505911103C0962F682F892F70
:100F60009091E305992319F097E0961B692F9091D2
:100F7000E405992319F097E0981B892F98E0899F41
:100F80009001112470E09091E205992339F080FFDF
:100F900005C0C901861B970B07960895C901860FE6
:100FA000971F08958091D6059091D705892B31F42C
:100FB00081E090E09093D7058093D6058091D60587
:100FC0009091D705853F914030F084EF91E0909368
:100FD000D7058093D6052091D6053091D70550E0EE
:100FE00040E068EE73E080E090E00E94E818223074
:100FF00031054105510508F449C02093040130939F
:10100000050140930601509307016091D40570914A
:10101000D50590E080E020910401309105014091D8
:101020000601509107010E94E818C901892BD9F1E6
:1010300030930201209301018091010190910201FE
:10104000893C910530F088EC90E090930201809308
:1010500001011092650510926B0510926A051092BD
:101060006605109267051092680510926905E5E41F
:10107000F2E0119211921192119285E0E536F80793
:10108000C1F78091DC0580938007089582E090E0AD
:10109000A0E0B0E08093040190930501A0930601C5
:1010A000B0930701B2CF81E090E09093020180936A
:1010B0000101C2CFCF9394E0899FF0011124E5583C
:1010C000FA4F628D738D848D958D2091EA05309154
:1010D000EB054091EC055091ED05E091DD05C1E097
:1010E000EE2331F00E94251A87FF06C0C0E004C03D
:1010F0000E9432171816D4F38C2FCF91089590E0E8
:1011000080E00895FC0164870895FC01848590E0E7
:101110000895FC01868597850895FC0101900020C3
:10112000E9F73197AF01481B590BBC0183EE96E0FC
:101130000C94D4028F929F92AF92BF920F931F9301
:10114000CF93DF93CDB7DEB7A1970FB6F894DEBF8C
:101150000FBECDBF19A2423008F44AE08E010F5DE8
:101160001F4F842E912CB12CA12CA50194010E941B
:10117000E818E62FB901CA01EA30F4F4E05DD801BD
:10118000EE938D01232B242B252B79F790E080E023
:10119000109719F0CD010E948D08A1960FB6F89412
:1011A000DEBF0FBECDBFDF91CF911F910F91BF90DA
:1011B000AF909F908F900895E95CE1CFCF93DF933C
:1011C0000E94C603EC0184E591E00E948D088C0F1B
:1011D0009D1FDF91CF910895682F70E090E080E02F
:1011E0004AE00C949A084F925F926F927F928F928E
:1011F0009F92AF92BF92CF92DF92EF92FF92CF93E6
:101200006B017C01AC019B010E942A1A882389F0A2
:1012100087E591E0CF91FF90EF90DF90CF90BF9066
:10122000AF909F908F907F906F905F904F900C94B5
:101230008D0846015701E894B7F82FEF3FEF4FE7CD
:101240005FE7C501B4010E942A1A81110DC02FEF7A
:101250003FEF4FE75FE7C501B4010E943217181650
:101260001CF48BE591E0D6CF2FEF3FEF4FE75FE423
:10127000C701B6010E94251A18161CF48FE591E0EB
:10128000C9CF2FEF3FEF4FE75FECC701B6010E94D8
:10129000321787FDF3CF20E030E0A901C701B60186
:1012A0000E943217B12CA12C87FF08C08DE20E944A
:1012B000C1035C01F7FAF094F7F8F0942EE632E1FE
:1012C00043E05AE3C701B6010E9418192B013C0103
:1012D0000E94F6196B017C010E9437179B01AC013B
:1012E000C301B2010E9417192B013C014AE0C7015A
:1012F000B6010E949A087C01EA0CFB1C8EE20E9457
:10130000C103E80EF91EC4E0C15019F120E030E03D
:1013100040E251E4C301B2010E9498172B013C0145
:101320000E94F6194B01B12CA12C4AE0C501B40171
:101330000E949A08E80EF91EC501B4010E943717F1
:101340009B01AC01C301B2010E9417192B013C01A2
:10135000DBCFC701CF91FF90EF90DF90CF90BF9090
:10136000AF909F908F907F906F905F904F90089577
:10137000CF92DF92EF92FF92CF93DF936C01092E11
:10138000000CEE08FF0897FF17C08DE20E94C10312
:10139000EC0166277727CB016C197D098E099F091F
:1013A0004AE00E949A088C0F9D1FDF91CF91FF9019
:1013B000EF90DF90CF9008954AE0C701B601DF912A
:1013C000CF91FF90EF90DF90CF900C949A080E94FD
:1013D0002F1AFF920F931F93CF93DF930BE715E024
:1013E000D0E0C0E0F801F1908F01CE010E945918C1
:1013F000F81621F06F2DCE010E9461182196CB3690
:10140000D10581F7DF91CF911F910F91FF90089542
:101410008F929F92AF92BF92CF92DF92EF92FF9204
:101420000F931F93CF93DF93CDB7DEB760970FB6BF
:10143000F894DEBF0FBECDBF2BE7E22E25E0F22EE3
:1014400010E000E0C8010E945918F70181937F0164
:101450000F5F1F4F0B361105A9F780917B05873A67
:1014600029F480917C05843009F4F1C087EA8093E7
:101470007B0584E080937C0588E0E8E0F1E0DE0114
:10148000199601900D928A95E1F788E0E0E1F1E08C
:10149000DE01119601900D928A95E1F74E01F9E077
:1014A0008F0E911C8DE7C82E85E0D82E8E010F5F20
:1014B0001F4F95E9A92E95E0B92EF12CE12CF401EE
:1014C00081914F01F60181936F01F80181918F01A4
:1014D000F60187831786B7010F2C000C880B990B38
:1014E0000E9439172DEC3CEC4CEC5DE30E94981700
:1014F00023E333E343E35FE30E941819F5016193AB
:101500007193819391935F01FFEFEF1AFF0A88E0D7
:10151000E816F104A1F68CE291E09093B605809371
:10152000B50581E08093B7059FEF9093B8051092C1
:10153000B9051092BA0528EB3BE03093BC05209327
:10154000BB0540E050E060E87FE34093BD05509369
:10155000BE056093BF057093C0054DEC5CEC6CEC70
:101560007EE34093C1055093C2056093C305709319
:10157000C40540E050E060E870E44093C505509336
:10158000C6056093C7057093C80541E75DE36AEC43
:101590007FE34093C9055093CA056093CB057093D0
:1015A000CC0527E02093CD0520EE2093CE0528E33F
:1015B0002093CF054AE057ED63EA7CE34093D005E2
:1015C0005093D1056093D2057093D30524EF31E099
:1015D0003093D5052093D40522E330E03093D7052E
:1015E0002093D60541E75DE36AEA7FE34093D8059F
:1015F0005093D9056093DA057093DB0528E22093B8
:10160000DC058093DD058093DE051092DF05909365
:10161000E0051092E1058093E2051092E305109237
:10162000E4051092E50560960FB6F894DEBF0FBE94
:10163000CDBFDF91CF911F910F91FF90EF90DF9081
:10164000CF90BF90AF909F908F900C94E9096096D7
:101650000FB6F894DEBF0FBECDBFDF91CF911F91C3
:101660000F91FF90EF90DF90CF90BF90AF909F9041
:101670008F9008951F920F920FB60F9211242F93FF
:101680003F938F939F93AF93BF938091C3069091A5
:10169000C406A091C506B091C6063091FE0523E0B0
:1016A000230F2D3758F50196A11DB11D2093FE057E
:1016B0008093C3069093C406A093C506B093C60654
:1016C0008091FF0590910006A0910106B09102065D
:1016D0000196A11DB11D8093FF0590930006A09374
:1016E0000106B0930206BF91AF919F918F913F91F8
:1016F0002F910F900FBE0F901F90189526E8230F83
:101700000296A11DB11DD2CF1F920F920FB60F925C
:1017100011242F933F934F935F936F937F938F93F6
:101720009F93AF93BF93EF93FF9383EE96E00E9456
:101730005203FF91EF91BF91AF919F918F917F9154
:101740006F915F914F913F912F910F900FBE0F902E
:101750001F9018951F920F920FB60F9211242F937E
:101760008F939F93EF93FF93E091F306F091F4062C
:101770008081E091F906F091FA0682FD1BC090810C
:101780008091FC068F5F8F732091FD06821741F0D8
:10179000E091FC06F0E0ED51F94F958F8093FC0647
:1017A000FF91EF919F918F912F910F900FBE0F900E
:1017B0001F9018958081F4CFE3EEF6E01382128239
:1017C00088EE93E0A0E0B0E084839583A683B7839E
:1017D00086E491E09183808385EC90E0958784870F
:1017E00084EC90E09787868780EC90E0918B808BEB
:1017F00081EC90E0938B828B82EC90E0958B848BD4
:1018000086EC90E0978B868B118E128E138E148E41
:10181000E0E8F7E08FEF808312821182148613864E
:101820008FEF9FEFDC0187839087A187B2871382B8
:101830001482158216820895CF93DF93CDB7DEB759
:10184000C055D1090FB6F894DEBF0FBECDBF789456
:1018500084B5826084BD84B5816084BD85B58260B5
:1018600085BD85B5816085BD80916E008160809366
:101870006E001092810080918100826080938100CF
:1018800080918100816080938100809180008160DF
:10189000809380008091B10084608093B10080913A
:1018A000B00081608093B00080917A008460809362
:1018B0007A0080917A00826080937A0080917A0029
:1018C000816080937A0080917A00806880937A00AA
:1018D0001092C100E091F306F091F40682E080835B
:1018E000E091EF06F091F0061082E091F106F091A0
:1018F000F20680E180831092FB06E091F706F091FA
:10190000F80686E08083E091F506F091F606808186
:1019100080618083E091F506F091F6068081886011
:101920008083E091F506F091F606808180688083DF
:10193000E091F506F091F60680818F7D808381E04D
:1019400080930001EBEFF1E02491E7EEF1E0849168
:10195000882399F090E0880F991FFC01ED55FF4F07
:10196000A591B491FC01ED52FE4F859194918FB7F2
:10197000F894EC91E22BEC938FBF81E00E9446013A
:101980008091FC01811157C01092E7011092E6018D
:101990008FEF8093EA018093EB018093EC018093B9
:1019A000ED018093EE018093EF0181E08093F001DF
:1019B0008093F1011092F3011092F20180E797E118
:1019C0009093F5018093F40183E090E09093F70108
:1019D0008093F6011092F9011092F8011092E9013A
:1019E0001092E8018091DD069091DE06892B31F49A
:1019F00084EE91E09093DE068093DD06E091E201B3
:101A0000F091E301309721F084EE91E09583848397
:101A100084EE91E09093E3018093E2011092FB0148
:101A20001092FA0180E391E09093E5018093E40144
:101A300081E08093FC01569A83E096E09093E70161
:101A40008093E60180E490E09093F3018093F201AB
:101A50008091830790918407A0918507B0918607B4
:101A6000843C29E09207A105B10520F484EC99E0BB
:101A7000A0E0B0E08093830790938407A09385074C
:101A8000B09386070E94080A0E94D20719821A8220
:101A90001B82CE0101960E943801809180070E942E
:101AA000B3011E0131E4230E311C83EE96E00E9447
:101AB0003203892B09F4FEC383EE96E00E941003E3
:101AC000E09144028A3019F08D3009F0E7C3EE232B
:101AD00061F3F0E0EC5FFD4F108263E671E084E0BB
:101AE00092E00E948D158C01009751F065E671E03F
:101AF0000E94341A892B39F48BEB91E00E94DE08A6
:101B000010924402D2CF6AE671E0C8010E94341AF2
:101B1000892B09F03DC184E091E00E94C6030DE7E6
:101B200015E035E9E32E35E0F32ED12C81E091E08C
:101B30000E94C6038D2D0E94EC088DE30E94C10314
:101B4000D8018D918D010E94EC088CE20E94C103A6
:101B5000F80187810E94EC088CE20E94C103D80141
:101B60001F968C910E94EC088CE20E94C103F70141
:101B700061917191819191917F010E94F308D394B9
:101B8000F8E0DF12D3CF89EF90E00E94C6036091A6
:101B9000B5057091B60590E080E04AE00E949A0891
:101BA0008CE20E94C1038091B7050E94EC088CE290
:101BB0000E94C1038091B8050E94EC088CE20E944B
:101BC000C1038091B9050E94EC088CE20E94C10318
:101BD0008091BA050E94EC088CE20E94C1036091DA
:101BE000BB057091BC0590E080E04AE00E949A0835
:101BF00083EF90E00E94C6036091BD057091BE0521
:101C00008091BF059091C0050E94F3088CE20E946C
:101C1000C1036091C1057091C2058091C305909187
:101C2000C4050E94F3088CE20E94C1036091C505BF
:101C30007091C6058091C7059091C8050E94F30870
:101C40008CE20E94C1036091C9057091CA05809120
:101C5000CB059091CC050E94F3088CEE90E00E9499
:101C6000C6038091CD050E94EC088CE20E94C1035E
:101C70008091CE050E94EC088CE20E94C103809105
:101C8000CF050E94EC0885EE90E00E94C6036091AB
:101C9000D0057091D1058091D2059091D3050E9415
:101CA000F3088EED90E00E94C6036091D405709118
:101CB000D50590E080E04AE00E949A0886ED90E029
:101CC0000E94C6036091D6057091D70590E080E030
:101CD0004AE00E949A088EEC90E00E94C603609150
:101CE000D8057091D9058091DA059091DB050E94A5
:101CF000F30885EC90E00E94C6038091DC050E9409
:101D0000EC088CEB90E00E94C6038091DD050E94F8
:101D1000EC0883EB90E00E94C6038091DE050E94F0
:101D2000EC088CE20E94C1038091DF050E94EC0860
:101D30008CE20E94C1038091E0050E94EC088CE2D5
:101D40000E94C1038091E1050E94EC088DEA90E0B9
:101D50000E94C6038091E2050E94EC088CE20E947A
:101D6000C1038091E3050E94EC088CE20E94C1034C
:101D70008091E4050E94EC088CE20E94C1038091EE
:101D8000E5050E94EC0884E591E00E948D08B8CE3C
:101D90006EE671E0C8010E94341A892B29F40E9472
:101DA000E90983EB91E0AACE63E771E0C8010E94E4
:101DB000341A892B39F40E94080A0E94D2078BEA50
:101DC00091E09CCE68E771E0C8010E94341A892B2B
:101DD00099F463E671E090E080E00E948D15FC01CB
:101DE000892B21F091E08081813309F090E090937C
:101DF000030181EA91E082CE64E971E0C8010E94AA
:101E0000341A892B79F563E671E090E080E00E9456
:101E10008D150E946F158C0163E671E090E080E003
:101E20000E948D150E946F15E82E63E671E090E028
:101E300080E00E948D150E946F15F82E63E671E018
:101E400090E080E00E948D150E946F15083011050A
:101E500030F4F801E558FA4FE282F286828B88E985
:101E600091E04CCE6FE771E0C8010E94341A892BD3
:101E700011F563E671E090E080E00E948D150E940C
:101E80006F158C0163E671E090E080E00E948D1593
:101E90000E946B150830110558F4000F111F000F38
:101EA000111FF801E558FA4F628F738F848F958F59
:101EB0008BE891E023CE69E871E0C8010E94341AF2
:101EC000892B39F563E671E090E080E00E948D1582
:101ED0000E946F159093B6058093B50563E671E097
:101EE00090E080E00E948D150E946F158093B705E9
:101EF00063E671E090E080E00E948D15009731F07C
:101F00000E946F159093BC058093BB0582E891E019
:101F1000F5CD6FE871E0C8010E94341A892B09F5EC
:101F200063E671E090E080E00E948D150E946F15DD
:101F30008093B80563E671E090E080E00E948D1523
:101F40000E946F158093B90563E671E090E080E030
:101F50000E948D150E946F158093BA0584E791E069
:101F6000CDCD6AE971E0C8010E94341A892B09F0CD
:101F700043C063E671E090E080E00E948D150E940E
:101F80006B156093BD057093BE058093BF0590935C
:101F9000C00563E671E090E080E00E948D150E942C
:101FA0006B156093C1057093C2058093C305909330
:101FB000C40563E671E090E080E00E948D150E9408
:101FC0006B156093C5057093C6058093C705909304
:101FD000C80563E671E090E080E00E948D150E94E4
:101FE0006B156093C9057093CA058093CB059093D8
:101FF000CC058BE691E082CD60EA71E0C8010E94D9
:10200000341A892B09F563E671E090E080E00E94C4
:102010008D150E946F158093CD0563E671E090E009
:1020200080E00E948D150E946F158093CE0563E6B7
:1020300071E090E080E00E948D150E946F15809302
:10204000CF058EE591E05ACD6AEA71E0C8010E94A1
:10205000341A892B99F463E671E090E080E00E94E5
:102060008D150E946B156093D0057093D1058093F8
:10207000D2059093D30584E591E040CD61EB71E00A
:10208000C8010E94341A892B89F463E671E090E05C
:1020900080E00E948D150E946F159093D505809366
:1020A000D4050E94D2078CE491E028CD66EB71E064
:1020B000C8010E94341A892B89F463E671E090E02C
:1020C00080E00E948D150E946F159093D705809334
:1020D000D6050E94D20783E491E010CD6CEB71E04D
:1020E000C8010E94341A892B99F463E671E090E0EC
:1020F00080E00E948D150E946B156093D805709347
:10210000D9058093DA059093DB058AE391E0F6CC5C
:1021100062EC71E0C8010E94341A892B79F463E6FD
:1021200071E090E080E00E948D150E946F15809311
:10213000DC058093800780E391E0E0CC69EC71E0FE
:10214000C8010E94341A892B89F463E671E090E09B
:1021500080E00E948D150E946F1521E0892B09F403
:1021600020E02093DD0586E291E0C8CC60ED71E0CF
:10217000C8010E94341A892B79F563E671E090E07A
:1021800080E00E948D150E946F1521E0892B09F4D3
:1021900020E02093DE0563E671E090E080E00E949D
:1021A0008D150E946F158093DF0563E671E090E066
:1021B00080E00E948D150E946F158093E00563E614
:1021C00071E090E080E00E948D150E946F15809371
:1021D000E1058CE191E092CC67ED71E0C8010E94CD
:1021E000341A892BD9F563E671E090E080E00E9413
:1021F0008D150E946F1521E0892B09F420E02093B2
:10220000E20563E671E090E080E00E948D150E9497
:102210006F1521E0892B09F420E02093E30563E6A4
:1022200071E090E080E00E948D150E946F1521E022
:10223000892B09F420E02093E40563E671E090E047
:1022400080E00E948D150E946F1521E0892B09F412
:1022500020E02093E50585E191E050CC6BED71E045
:10226000C8010E94341A892B89F463E671E090E07A
:1022700080E00E948D150E946F1521E0892B09F4E2
:1022800020E020936C058DE091E038CC88E091E06F
:102290000E94C603C8010E948D0875CDEF3308F077
:1022A00004CC91E09E0F90934402F0E0EC5FFD4F70
:1022B0008083FBCB8FB7F8944090C3065090C40640
:1022C0006090C5067090C6068FBF8091FA05909108
:1022D000FB05A091FC05B091FD05B301A201481BCF
:1022E000590B6A0B7B0B8091040190910501A09121
:1022F0000601B0910701481759076A077B0708F4E0
:102300000FC14092FA055092FB056092FC05709255
:10231000FD058091000120E4829FC001112480937B
:102320007C0080917A00806480937A0080917A00AA
:1023300086FDFCCF6091780070917900072E000C2B
:10234000880B990B0E94391720E030E040EA50E4F6
:102350000E94981720E030EC4FE754E40E94841963
:102360004B015C018092F6059092F705A092F8056A
:10237000B092F9058091BD059091BE05A091BF0571
:10238000B091C00527968CAF9DAFAEAFBFAF27977A
:102390009C01AD016091C5057091C6058091C7058E
:1023A0009091C8050E9417192B966CAF7DAF8EAF28
:1023B0009FAF2B97C090C105D090C205E090C30598
:1023C000F090C4059F772DEB37E346E855E30E9474
:1023D000321787FD36C0A70196016091C90570913B
:1023E000CA058091CB059091CC050E9417192F96B4
:1023F0006CAF7DAF8EAF9FAF2F9727962CAD3DADC5
:102400004EAD5FAD2797C501B4010E9417199B011E
:10241000AC012F966CAD7DAD8EAD9FAD2F970E9418
:1024200098172B962CAD3DAD4EAD5FAD2B970E940E
:1024300084199B01AC01C701B6010E9418196B01F8
:102440007C01C092F205D092F305E092F405F0927F
:10245000F50520916A0530916B05809001019090FF
:102460000201A0906505B12C8501000F111F000F1E
:10247000111F2815390508F4DFC1F801EB5BFD4F8A
:102480002081318142815381609166057091670599
:1024900080916805909169050E94171960936605FF
:1024A000709367058093680590936905F801EB5B6D
:1024B000FD4FC082D182E282F38220916605309185
:1024C00067054091680550916905C701B6010E94F2
:1024D00018196B017C01C0926605D0926705E092E5
:1024E0006805F0926905C5010196B4010E94C01803
:1024F0008093650560916A0570916B0590E080E0BE
:102500000E9437179B01AC01C701B6010E948419D4
:102510006093EA057093EB058093EC059093ED05CD
:10252000C090EA05D090EB05E090EC05F090ED0549
:102530008091EE059091EF05A091F005B091F10525
:10254000A3019201281B390B4A0B5B0BDA01C9016D
:102550008A3F9105A105B105A0F14092EE05509288
:10256000EF056092F0057092F1052091E60530913B
:10257000E7054091E8055091E905C701B6010E94C1
:10258000171927966CAF7DAF8EAF9FAF27978090BE
:10259000D0059090D105A090D205B090D305A501AB
:1025A00094010E94251A18160CF04DC131E03093A9
:1025B0007A05C092E605D092E705E092E805F09230
:1025C000E9052091D8053091D9054091DA0550915F
:1025D000DB058091DD05882309F446C161E024967E
:1025E0006FAF2497C701B6010E94321718160CF47A
:1025F00045C18091BB059091BC05A3019201280FB4
:10260000391F411D511DDA01C90180937605909350
:102610007705A0937805B093790524963FAD24976C
:10262000309375058091710590917205A0917305A5
:10263000B0917405A3019201281B390B4A0B5B0B67
:10264000DA01C9014E97A105B10508F45FC04092B7
:1026500071055092720560927305709274058091B5
:102660006C05882309F424C181E00E944601198287
:102670001A821B82CE0101960E94380110E060E0B0
:10268000812F0E94A907FC01EE0FFF1FE80FF91F21
:10269000ED5FF94F3FEF3083118212821F5F1830D8
:1026A00071F710E0612F80E00E94A907FC01EE0F96
:1026B000FF1FE80FF91FED5FF94F108211824FEFF6
:1026C00042831F5F183071F760E080E00E94A90725
:1026D000FC01EE0FFF1FE80FF91FED5FF94F5FEFF1
:1026E00050835183528360E087E00E94A907FC0178
:1026F000EE0FFF1FE80FF91FED5FF94F108260E842
:1027000061831282809180070E94B301809103014E
:10271000882309F484C080916D0590916E05A09185
:102720006F05B0917005A3019201281B390B4A0B6C
:102730005B0BDA01C90184369105A105B10508F4E6
:102740006EC040926D0550926E0560926F0570925A
:10275000700510E000E0F12C802F0E945A088823B9
:1027600041F081E090E0002E01C0880F0A94EAF762
:10277000F82A0F5F1F4F0830110571F71091DE0521
:10278000112319F011E0F11010E080ED91E00E94AA
:10279000C6036091F6057091F7058091F805909158
:1027A000F9050E94F30880E20E94C1036091F205DE
:1027B0007091F3058091F4059091F5050E94F3085E
:1027C00080E20E94C1036091EA057091EB0580915F
:1027D000EC059091ED050E94F30880E20E94C10390
:1027E00080917A05082E000C990B0E94B80980E2AE
:1027F0000E94C1038F2D0E94EC0880E20E94C10359
:102800008091750590E00E94B80980E20E94C103A2
:10281000812F0E94EC0884E591E00E948D0840E041
:1028200050E0452B09F441C90E943E03882309F476
:102830003CC90E94000039C92F5F3F4F30936B05A0
:1028400020936A0533CEA5019401505827966CADAC
:102850007DAD8EAD9FAD27970E943217880F880BF4
:102860008F7F80937A05A5CE81E024968FAF249741
:10287000C701B6010E94251A87FFBBCE809176055D
:1028800090917705A0917805B09179058419950903
:10289000A609B70951E024965FAF249718161906C8
:1028A0001A061B060CF4B9CE24961FAE2497B5CE9B
:1028B00019821A821B82CE0101960E943801CE0134
:1028C000019629969FAF8EAF29975C01F501119271
:1028D0005F01E215F305D1F780917A0518160CF027
:1028E000F2C08091CD050BE715E0C12CD12C282F2B
:1028F00030E061963FAF2EAF61978D2D0E945A0850
:102900008823C9F1C394D8015296BC912C96BFAFCD
:102910002C97F80192848280F12CE12C61968EAD87
:102920009FAD61970E2C02C0959587950A94E2F7AA
:1029300080FF1AC06E2D8D2D0E94A907FC01EE0F9D
:10294000FF1FE80FF91FED5FF94F808291822C96EF
:102950002FAD2C97228341E050E04C0F5D1F840F78
:10296000951FE1E0DC01EC93FFEFEF1AFF0A28E08E
:10297000E216F10499F6D3940F5F1F4F38E0D3129B
:10298000BCCF8091DE05882309F447C0C11045C043
:10299000F090E105E090E005D090DF05E3E0D101A3
:1029A000EC93F4E01196FC938101410122E0820E48
:1029B000911CD801CD908D0163E08C2D0E94A90758
:1029C000FC01EE0FFF1FE80FF91FED5FF94FD082FA
:1029D000E182F282E1E0F0E0EC0FFD1F8E0F9F1F1D
:1029E000E1E0DC01EC9364E08C2D0E94A907FC017E
:1029F000EE0FFF1FE80FF91FED5FF94FD082E18264
:102A0000F28221E030E02C0F3D1F820F931FE1E0A6
:102A1000DC01EC938016910661F62496FFAD2497B5
:102A200081E0FF2309F44CC08091B705813029F57E
:102A30002091B5053091B6052115310511F42CE230
:102A400031E04FB7F8946091C3067091C40680914D
:102A5000C5069091C6064FBF50E040E00E94E818BE
:102A6000DA01C90180959095A095B095682F6170A5
:102A700024966FAF249720FD1EC08091BA059091D7
:102A8000B9052091B805E3E0F6E02996AEADBFADFB
:102A900029973D912996BFAFAEAF2997311103C059
:102AA000208391838283339629964EAD5FAD29971B
:102AB0004A155B0551F724968FAD249751E0852781
:102AC0000E9446011FCE882319F08091CE050BCFBE
:102AD0008091CF0508CF662777270C94C115FC019C
:102AE00088279927E89421912032E9F3293010F0C2
:102AF0002E30C8F32B3241F02D3239F4689404C0E3
:102B00000E94B915820F911D219120532A30C0F3E4
:102B10001EF4909581959F4F08954DE857E00E94CF
:102B200092150895FA01A191B081009719F41097B8
:102B3000E1F0CD01DC01CD010D90002011F4C001C8
:102B400013C0FB012191222319F02015D9F7F3CFEF
:102B5000FB012191201519F41E92119606C0222323
:102B6000C1F70D900020A1F7D001FA01A193B08325
:102B700008957AE0979F902D879F802D910D1124C5
:102B80000895B0E0A0E0E7ECF5E10C9480185C015A
:102B90007B016115710519F0DB018D939C93850113
:102BA0000F5F1F4FF501D0818D2F90E00E9411170C
:102BB0006C01892BB9F5DD32B9F50F5F1F4FD501D7
:102BC0001196DC91C1E05801F1E0AF1AB10843E081
:102BD00050E060E770E0C5010E941A17892B69F583
:102BE000680182E0C80ED11C45E050E06BE670E061
:102BF000C6010E941A17892B21F4680197E0C90EBB
:102C0000D11CE114F10419F0D701CD92DC9260E0FF
:102C100070E080E89FEFC111FFC060E070E080E8E5
:102C20009FE7FAC05801BBCFDB3229F485010E5F64
:102C30001F4FF501D181C0E0C6CF43E050E068E608
:102C400070E0C5010E941A17892BE9F0F80110E025
:102C500000E020E030E0A9015F01B0ED8B2E8D0E89
:102C600089E08815C8F19C2E689491F88C2F8870A3
:102C7000C2FF16C0811102C00F5F1F4F3196D501F0
:102C8000DC91C92DE9CFE114F10429F00E5F1F4F4B
:102C9000F7011183008360E070E080EC9FE7BCC027
:102CA000882311F001501109A5E0B0E00E946F18CF
:102CB0009B01AC01220F331F441F551F280D311DEE
:102CC000411D511D283999E93907490799E15907EB
:102CD000A8F2C6609C2ED2CFAEEF8A1206C0C3FD0A
:102CE0003CC09C2E689493F8C9CFDF7DD534A9F5FC
:102CF00080818D3239F4C061DF011296818162E0FA
:102D000070E006C0DF018B32C1F3119661E070E024
:102D100080535D01A61AB70A8A30F8F4E0E8CE16AF
:102D2000ECE0DE065CF4B601660F771F660F771FD6
:102D3000C60ED71ECC0CDD1CC80ED11C5D01FFEFEA
:102D4000AF1ABF0A8C9180538A30A8F1C4FF03C028
:102D5000D194C194D1080C0D1D1DC1FF09C0E1140F
:102D6000F10431F081E0A81AB108D701AD92BC920C
:102D7000CA01B9010E943717C370C33009F49058D3
:102D80004B015C0120E030E0A9010E94321788234A
:102D900009F440C0CFE9D0E017FF05C011950195B7
:102DA0001109C7E8D0E06E01B8E1CB1AD10880E282
:102DB000E82EF12C0FC0D501B1CFFE012591359140
:102DC000459154910E191F09C501B4010E9498172D
:102DD0004B015C01D501C4010E151F0574F7249742
:102DE000F594E794CC16DD06A9F78A2F880F8B2F70
:102DF000881F8F3F49F020E030E0A901C501B401F0
:102E00000E943217811106C082E290E090939007F1
:102E100080938F07C501B401CDB7DEB7ECE00C9409
:102E20009C1891110C940518803219F08950855026
:102E3000C8F70895FB01DC014150504088F08D91A6
:102E400081341CF08B350CF4805E659161341CF08C
:102E50006B350CF4605E861B611171F3990B08955C
:102E6000881BFCCF0E94741708F481E00895E89451
:102E700009C097FB3EF490958095709561957F4FC2
:102E80008F4F9F4F9923A9F0F92F96E9BB27939570
:102E9000F695879577956795B795F111F8CFFAF480
:102EA000BB0F11F460FF1BC06F5F7F4F8F4F9F4FB1
:102EB00016C0882311F096E911C0772321F09EE80F
:102EC000872F762F05C0662371F096E8862F70E075
:102ED00060E02AF09A95660F771F881FDAF7880F4F
:102EE0009695879597F90895990F0008550FAA0BA5
:102EF000E0E8FEEF16161706E807F907C0F012160D
:102F00001306E407F50798F0621B730B840B950B0F
:102F100039F40A2661F0232B242B252B21F4089564
:102F20000A2609F4A140A6958FEF811D811D089501
:102F30000E94AB170C941F180E94111838F00E94C1
:102F4000181820F0952311F00C9408180C940E1802
:102F500011240C9453180E94301870F3959FC1F3FC
:102F6000950F50E0551F629FF001729FBB27F00D37
:102F7000B11D639FAA27F00DB11DAA1F649F66278C
:102F8000B00DA11D661F829F2227B00DA11D621FDB
:102F9000739FB00DA11D621F839FA00D611D221F95
:102FA000749F3327A00D611D231F849F600D211D79
:102FB000822F762F6A2F11249F5750409AF0F1F0FC
:102FC00088234AF0EE0FFF1FBB1F661F771F881F65
:102FD00091505040A9F79E3F510580F00C9408187D
:102FE0000C9453185F3FE4F3983ED4F3869577959D
:102FF0006795B795F795E7959F5FC1F7FE2B880F0B
:10300000911D9695879597F9089599278827089592
:1030100097F99F6780E870E060E008959FEF80EC8B
:10302000089500240A94161617061806090608952E
:1030300000240A9412161306140605060895092E94
:103040000394000C11F4882352F0BB0F40F4BF2B03
:1030500011F460FF04C06F5F7F4F8F4F9F4F089543
:1030600057FD9058440F551F59F05F3F71F0479539
:10307000880F97FB991F61F09F3F79F0879508951E
:10308000121613061406551FF2CF4695F1DF08C03D
:10309000161617061806991FF1CF8695710561055A
:1030A00008940895E894BB2766277727CB0197F902
:1030B0000895F999FECF92BD81BDF89A992780B500
:1030C0000895262FF999FECF1FBA92BD81BD20BD6C
:1030D0000FB6F894FA9AF99A0FBE019608950E94D5
:1030E000B118A59F900DB49F900DA49F800D911DC8
:1030F000112408952F923F924F925F926F927F9288
:103100008F929F92AF92BF92CF92DF92EF92FF92F7
:103110000F931F93CF93DF93CDB7DEB7CA1BDB0BA3
:103120000FB6F894DEBF0FBECDBF09942A88398848
:1031300048885F846E847D848C849B84AA84B9844F
:10314000C884DF80EE80FD800C811B81AA81B9815B
:10315000CE0FD11D0FB6F894DEBF0FBECDBFED016F
:103160000895A29FB001B39FC001A39F700D811D60
:103170001124911DB29F700D811D1124911D089580
:10318000AA1BBB1B51E107C0AA1FBB1FA617B7078D
:1031900010F0A61BB70B881F991F5A95A9F78095A9
:1031A0009095BC01CD01089597FB072E16F400946D
:1031B00007D077FD09D00E94C01807FC05D03EF467
:1031C000909581959F4F0895709561957F4F0895D3
:1031D000A1E21A2EAA1BBB1BFD010DC0AA1FBB1F1B
:1031E000EE1FFF1FA217B307E407F50720F0A21B8D
:1031F000B30BE40BF50B661F771F881F991F1A94FA
:1032000069F760957095809590959B01AC01BD0123
:10321000CF0108950E94B118B7FF0895821B930B48
:103220000895EE0FFF1F0590F491E02D099450587A
:10323000BB27AA270E942F190C941F180E9411184F
:1032400038F00E94181820F039F49F3F19F426F442
:103250000C940E180EF4E095E7FB0C940818E92F77
:103260000E94301858F3BA1762077307840795074E
:1032700020F079F4A6F50C9452180EF4E0950B2E7C
:10328000BA2FA02D0B01B90190010C01CA01A001B8
:103290001124FF27591B99F0593F50F4503E68F113
:1032A0001A16F040A22F232F342F4427585FF3CF54
:1032B000469537952795A795F0405395C9F77EF425
:1032C0001F16BA0B620B730B840BBAF09150A1F06E
:1032D000FF0FBB1F661F771F881FC2F70EC0BA0FF4
:1032E000621F731F841F48F4879577956795B7957C
:1032F000F7959E3F08F0B0CF9395880F08F0992777
:10330000EE0F9795879508950E9498190C941F18B1
:103310000E94181858F00E94111840F029F45F3FDD
:1033200029F00C94081851110C9453180C940E1891
:103330000E94301868F39923B1F3552391F3951B3C
:10334000550BBB27AA2762177307840738F09F5FC6
:103350005F4F220F331F441FAA1FA9F335D00E2E33
:103360003AF0E0E832D091505040E695001CCAF7A0
:103370002BD0FE2F29D0660F771F881FBB1F261763
:1033800037074807AB07B0E809F0BB0B802DBF013A
:10339000FF2793585F4F3AF09E3F510578F00C9409
:1033A00008180C9453185F3FE4F3983ED4F38695C5
:1033B00077956795B795F7959F5FC9F7880F911D2A
:1033C0009695879597F90895E1E0660F771F881F16
:1033D000BB1F621773078407BA0720F0621B730BC9
:1033E000840BBA0BEE1F88F7E09508950E943818F9
:1033F00088F09F5798F0B92F9927B751B0F0E1F0B6
:10340000660F771F881F991F1AF0BA95C9F714C065
:10341000B13091F00E945218B1E008950C94521806
:10342000672F782F8827B85F39F0B93FCCF386959E
:1034300077956795B395D9F73EF4909580957095FB
:1034400061957F4F8F4F9F4F08950E94741708F426
:103450008FEF08950E947417880B990B089581E0EF
:1034600090E0F8940C943D1AFB01DC018D910190E1
:0E34700080190110D9F3990B0895F894FFCF3D
:10347E000101000164000000000000FFFFFFFFFFDC
:10348E00FFFFFFFFC878280000000000E709E709EA
:10349E00E70989085204850882087F0800000000A9
:1034AE005407EE06EC068908520485088208D102FC
:1034BE009204000000007403D4020103E1033203FE
:1034CE00100324030D0A006E616E00696E66006FB4
:1034DE00766600200050494E470047455400534140
:1034EE005645004C4F41440053545245414D004304
:1034FE004F4C4C414D42444100414C4552540041C9
:10350E004C455254434F4C4F520043414C4942009C
:10351E005452454E44524F575300535441424C451A
:10352E00004D41564700535241544500414C4152C3
:10353E004D004252494748540044494553454C00BA
:10354E0043454E544552004D41500054455354008E
:00000001FF
